{
  "contractName": "Engine",
  "abi": [
    {
      "anonymous": false,
      "inputs": [
        {
          "indexed": false,
          "internalType": "address",
          "name": "receiver",
          "type": "address"
        },
        {
          "indexed": false,
          "internalType": "uint256",
          "name": "amount",
          "type": "uint256"
        }
      ],
      "name": "Payment",
      "type": "event"
    },
    {
      "anonymous": false,
      "inputs": [
        {
          "indexed": false,
          "internalType": "address",
          "name": "receiver",
          "type": "address"
        },
        {
          "indexed": false,
          "internalType": "uint256",
          "name": "amount",
          "type": "uint256"
        }
      ],
      "name": "Royalties",
      "type": "event"
    },
    {
      "inputs": [
        {
          "internalType": "uint256",
          "name": "",
          "type": "uint256"
        }
      ],
      "name": "auctions",
      "outputs": [
        {
          "internalType": "address",
          "name": "creator",
          "type": "address"
        },
        {
          "internalType": "address",
          "name": "bestBidder",
          "type": "address"
        },
        {
          "internalType": "uint256",
          "name": "bestBidAmount",
          "type": "uint256"
        },
        {
          "internalType": "uint256",
          "name": "startTime",
          "type": "uint256"
        },
        {
          "internalType": "uint256",
          "name": "duration",
          "type": "uint256"
        },
        {
          "internalType": "uint256",
          "name": "minimumPrice",
          "type": "uint256"
        },
        {
          "internalType": "bool",
          "name": "active",
          "type": "bool"
        }
      ],
      "stateMutability": "view",
      "type": "function",
      "constant": true
    },
    {
      "inputs": [
        {
          "internalType": "uint256",
          "name": "",
          "type": "uint256"
        }
      ],
      "name": "offers",
      "outputs": [
        {
          "internalType": "address",
          "name": "assetAddress",
          "type": "address"
        },
        {
          "internalType": "contract SatoshiART1155",
          "name": "asset",
          "type": "address"
        },
        {
          "internalType": "uint256",
          "name": "id",
          "type": "uint256"
        },
        {
          "internalType": "address",
          "name": "creator",
          "type": "address"
        },
        {
          "internalType": "uint256",
          "name": "price",
          "type": "uint256"
        },
        {
          "internalType": "bool",
          "name": "onSale",
          "type": "bool"
        },
        {
          "internalType": "uint256",
          "name": "amount",
          "type": "uint256"
        },
        {
          "internalType": "bool",
          "name": "isDropOfTheDay",
          "type": "bool"
        },
        {
          "internalType": "uint256",
          "name": "commisionDropOfTheDay",
          "type": "uint256"
        },
        {
          "internalType": "bool",
          "name": "isAuction",
          "type": "bool"
        }
      ],
      "stateMutability": "view",
      "type": "function",
      "constant": true
    },
    {
      "inputs": [
        {
          "internalType": "address",
          "name": "_assetAddress",
          "type": "address"
        },
        {
          "internalType": "uint256",
          "name": "_id",
          "type": "uint256"
        },
        {
          "internalType": "uint256",
          "name": "_amount",
          "type": "uint256"
        },
        {
          "internalType": "uint256",
          "name": "_price",
          "type": "uint256"
        }
      ],
      "name": "putToSale",
      "outputs": [
        {
          "internalType": "uint256",
          "name": "",
          "type": "uint256"
        }
      ],
      "stateMutability": "nonpayable",
      "type": "function"
    },
    {
      "inputs": [
        {
          "internalType": "uint256",
          "name": "_offerIndex",
          "type": "uint256"
        }
      ],
      "name": "removeFromSale",
      "outputs": [
        {
          "internalType": "uint256",
          "name": "",
          "type": "uint256"
        }
      ],
      "stateMutability": "nonpayable",
      "type": "function"
    },
    {
      "inputs": [
        {
          "internalType": "uint256",
          "name": "_offerIndex",
          "type": "uint256"
        },
        {
          "internalType": "address",
          "name": "_to",
          "type": "address"
        },
        {
          "internalType": "uint256",
          "name": "_amount",
          "type": "uint256"
        }
      ],
      "name": "buy",
      "outputs": [],
      "stateMutability": "payable",
      "type": "function",
      "payable": true
    },
    {
      "inputs": [
        {
          "internalType": "uint256",
          "name": "_offerIndex",
          "type": "uint256"
        },
        {
          "internalType": "uint256",
          "name": "_commisionInBps",
          "type": "uint256"
        }
      ],
      "name": "setDropOfTheDay",
      "outputs": [],
      "stateMutability": "payable",
      "type": "function",
      "payable": true
    },
    {
      "inputs": [
        {
          "internalType": "address",
          "name": "_assetAddress",
          "type": "address"
        },
        {
          "internalType": "uint256",
          "name": "_id",
          "type": "uint256"
        },
        {
          "internalType": "uint256",
          "name": "_amount",
          "type": "uint256"
        },
        {
          "internalType": "uint256",
          "name": "_startDate",
          "type": "uint256"
        },
        {
          "internalType": "uint256",
          "name": "_durationInSeconds",
          "type": "uint256"
        }
      ],
      "name": "startAuction",
      "outputs": [
        {
          "internalType": "uint256",
          "name": "",
          "type": "uint256"
        }
      ],
      "stateMutability": "nonpayable",
      "type": "function"
    },
    {
      "inputs": [
        {
          "internalType": "uint256",
          "name": "_offerIndex",
          "type": "uint256"
        },
        {
          "internalType": "address",
          "name": "_winner",
          "type": "address"
        },
        {
          "internalType": "uint256",
          "name": "_amount",
          "type": "uint256"
        }
      ],
      "name": "setWinner",
      "outputs": [
        {
          "internalType": "bool",
          "name": "",
          "type": "bool"
        }
      ],
      "stateMutability": "nonpayable",
      "type": "function"
    },
    {
      "inputs": [
        {
          "internalType": "uint256",
          "name": "_offerIndex",
          "type": "uint256"
        },
        {
          "internalType": "uint256",
          "name": "_amount",
          "type": "uint256"
        }
      ],
      "name": "claim",
      "outputs": [],
      "stateMutability": "payable",
      "type": "function",
      "payable": true
    },
    {
      "inputs": [],
      "name": "numOffers",
      "outputs": [
        {
          "internalType": "uint256",
          "name": "",
          "type": "uint256"
        }
      ],
      "stateMutability": "view",
      "type": "function",
      "constant": true
    },
    {
      "inputs": [
        {
          "internalType": "uint256",
          "name": "_offerIndex",
          "type": "uint256"
        },
        {
          "internalType": "uint256",
          "name": "_durationInSeconds",
          "type": "uint256"
        }
      ],
      "name": "extendAuctionTime",
      "outputs": [
        {
          "internalType": "bool",
          "name": "",
          "type": "bool"
        }
      ],
      "stateMutability": "nonpayable",
      "type": "function"
    }
  ],
  "bytecode": "0x608060405234801561001057600080fd5b506136e0806100206000396000f3fe60806040526004361061009c5760003560e01c8063571a26a011610064578063571a26a0146102805780636dd2ac84146103555780638a72ea6a146103e2578063acc7b0d114610500578063c34902631461055d578063cc6bee54146105955761009c565b8063037dace4146100a15780631142919b146101245780631361a3b61461015c5780632afaca20146101ab57806351b4228314610203575b600080fd5b3480156100ad57600080fd5b5061010e600480360360808110156100c457600080fd5b81019080803573ffffffffffffffffffffffffffffffffffffffff1690602001909291908035906020019092919080359060200190929190803590602001909291905050506105c0565b6040518082815260200191505060405180910390f35b61015a6004803603604081101561013a57600080fd5b81019080803590602001909291908035906020019092919050505061091b565b005b34801561016857600080fd5b506101956004803603602081101561017f57600080fd5b8101908080359060200190929190505050610c66565b6040518082815260200191505060405180910390f35b610201600480360360608110156101c157600080fd5b8101908080359060200190929190803573ffffffffffffffffffffffffffffffffffffffff16906020019092919080359060200190929190505050611031565b005b34801561020f57600080fd5b506102666004803603606081101561022657600080fd5b8101908080359060200190929190803573ffffffffffffffffffffffffffffffffffffffff16906020019092919080359060200190929190505050611c26565b604051808215151515815260200191505060405180910390f35b34801561028c57600080fd5b506102b9600480360360208110156102a357600080fd5b8101908080359060200190929190505050611f50565b604051808873ffffffffffffffffffffffffffffffffffffffff1673ffffffffffffffffffffffffffffffffffffffff1681526020018773ffffffffffffffffffffffffffffffffffffffff1673ffffffffffffffffffffffffffffffffffffffff1681526020018681526020018581526020018481526020018381526020018215151515815260200197505050505050505060405180910390f35b34801561036157600080fd5b506103cc600480360360a081101561037857600080fd5b81019080803573ffffffffffffffffffffffffffffffffffffffff16906020019092919080359060200190929190803590602001909291908035906020019092919080359060200190929190505050611fdf565b6040518082815260200191505060405180910390f35b3480156103ee57600080fd5b5061041b6004803603602081101561040557600080fd5b81019080803590602001909291905050506124a1565b604051808b73ffffffffffffffffffffffffffffffffffffffff1673ffffffffffffffffffffffffffffffffffffffff1681526020018a73ffffffffffffffffffffffffffffffffffffffff1673ffffffffffffffffffffffffffffffffffffffff1681526020018981526020018873ffffffffffffffffffffffffffffffffffffffff1673ffffffffffffffffffffffffffffffffffffffff1681526020018781526020018615151515815260200185815260200184151515158152602001838152602001821515151581526020019a505050505050505050505060405180910390f35b34801561050c57600080fd5b506105436004803603604081101561052357600080fd5b810190808035906020019092919080359060200190929190505050612589565b604051808215151515815260200191505060405180910390f35b6105936004803603604081101561057357600080fd5b810190808035906020019092919080359060200190929190505050612775565b005b3480156105a157600080fd5b506105aa61340d565b6040518082815260200191505060405180910390f35b600080859050838173ffffffffffffffffffffffffffffffffffffffff1662fdd58e33886040518363ffffffff1660e01b8152600401808373ffffffffffffffffffffffffffffffffffffffff1673ffffffffffffffffffffffffffffffffffffffff1681526020018281526020019250505060206040518083038186803b15801561064b57600080fd5b505afa15801561065f573d6000803e3d6000fd5b505050506040513d602081101561067557600080fd5b810190808051906020019092919050505010156106dd576040517f08c379a00000000000000000000000000000000000000000000000000000000081526004018080602001828103825260378152602001806135616037913960400191505060405180910390fd5b6106e561341d565b6040518061014001604052808873ffffffffffffffffffffffffffffffffffffffff1681526020018873ffffffffffffffffffffffffffffffffffffffff1681526020018781526020013373ffffffffffffffffffffffffffffffffffffffff1681526020018581526020016001151581526020018681526020016000151581526020016000815260200160001515815250905060008190806001815401808255809150506001900390600052602060002090600a020160009091909190915060008201518160000160006101000a81548173ffffffffffffffffffffffffffffffffffffffff021916908373ffffffffffffffffffffffffffffffffffffffff16021790555060208201518160010160006101000a81548173ffffffffffffffffffffffffffffffffffffffff021916908373ffffffffffffffffffffffffffffffffffffffff1602179055506040820151816002015560608201518160030160006101000a81548173ffffffffffffffffffffffffffffffffffffffff021916908373ffffffffffffffffffffffffffffffffffffffff1602179055506080820151816004015560a08201518160050160006101000a81548160ff02191690831515021790555060c0820151816006015560e08201518160070160006101000a81548160ff02191690831515021790555061010082015181600801556101208201518160090160006101000a81548160ff021916908315150217905550505060016000805490500392505050949350505050565b61092361341d565b6000838154811061093057fe5b90600052602060002090600a0201604051806101400160405290816000820160009054906101000a900473ffffffffffffffffffffffffffffffffffffffff1673ffffffffffffffffffffffffffffffffffffffff1673ffffffffffffffffffffffffffffffffffffffff1681526020016001820160009054906101000a900473ffffffffffffffffffffffffffffffffffffffff1673ffffffffffffffffffffffffffffffffffffffff1673ffffffffffffffffffffffffffffffffffffffff168152602001600282015481526020016003820160009054906101000a900473ffffffffffffffffffffffffffffffffffffffff1673ffffffffffffffffffffffffffffffffffffffff1673ffffffffffffffffffffffffffffffffffffffff168152602001600482015481526020016005820160009054906101000a900460ff16151515158152602001600682015481526020016007820160009054906101000a900460ff16151515158152602001600882015481526020016009820160009054906101000a900460ff161515151581525050905060018160e001901515908115158152505081816101000181815250508060008481548110610af157fe5b90600052602060002090600a020160008201518160000160006101000a81548173ffffffffffffffffffffffffffffffffffffffff021916908373ffffffffffffffffffffffffffffffffffffffff16021790555060208201518160010160006101000a81548173ffffffffffffffffffffffffffffffffffffffff021916908373ffffffffffffffffffffffffffffffffffffffff1602179055506040820151816002015560608201518160030160006101000a81548173ffffffffffffffffffffffffffffffffffffffff021916908373ffffffffffffffffffffffffffffffffffffffff1602179055506080820151816004015560a08201518160050160006101000a81548160ff02191690831515021790555060c0820151816006015560e08201518160070160006101000a81548160ff02191690831515021790555061010082015181600801556101208201518160090160006101000a81548160ff021916908315150217905550905050505050565b6000610c7061341d565b60008381548110610c7d57fe5b90600052602060002090600a0201604051806101400160405290816000820160009054906101000a900473ffffffffffffffffffffffffffffffffffffffff1673ffffffffffffffffffffffffffffffffffffffff1673ffffffffffffffffffffffffffffffffffffffff1681526020016001820160009054906101000a900473ffffffffffffffffffffffffffffffffffffffff1673ffffffffffffffffffffffffffffffffffffffff1673ffffffffffffffffffffffffffffffffffffffff168152602001600282015481526020016003820160009054906101000a900473ffffffffffffffffffffffffffffffffffffffff1673ffffffffffffffffffffffffffffffffffffffff1673ffffffffffffffffffffffffffffffffffffffff168152602001600482015481526020016005820160009054906101000a900460ff16151515158152602001600682015481526020016007820160009054906101000a900460ff16151515158152602001600882015481526020016009820160009054906101000a900460ff1615151515815250509050806060015173ffffffffffffffffffffffffffffffffffffffff163373ffffffffffffffffffffffffffffffffffffffff1614610e9c576040517f08c379a000000000000000000000000000000000000000000000000000000000815260040180806020018281038252602a8152602001806135de602a913960400191505060405180910390fd5b60008160a00190151590811515815250508060008481548110610ebb57fe5b90600052602060002090600a020160008201518160000160006101000a81548173ffffffffffffffffffffffffffffffffffffffff021916908373ffffffffffffffffffffffffffffffffffffffff16021790555060208201518160010160006101000a81548173ffffffffffffffffffffffffffffffffffffffff021916908373ffffffffffffffffffffffffffffffffffffffff1602179055506040820151816002015560608201518160030160006101000a81548173ffffffffffffffffffffffffffffffffffffffff021916908373ffffffffffffffffffffffffffffffffffffffff1602179055506080820151816004015560a08201518160050160006101000a81548160ff02191690831515021790555060c0820151816006015560e08201518160070160006101000a81548160ff02191690831515021790555061010082015181600801556101208201518160090160006101000a81548160ff02191690831515021790555090505050919050565b61103961341d565b6000848154811061104657fe5b90600052602060002090600a0201604051806101400160405290816000820160009054906101000a900473ffffffffffffffffffffffffffffffffffffffff1673ffffffffffffffffffffffffffffffffffffffff1673ffffffffffffffffffffffffffffffffffffffff1681526020016001820160009054906101000a900473ffffffffffffffffffffffffffffffffffffffff1673ffffffffffffffffffffffffffffffffffffffff1673ffffffffffffffffffffffffffffffffffffffff168152602001600282015481526020016003820160009054906101000a900473ffffffffffffffffffffffffffffffffffffffff1673ffffffffffffffffffffffffffffffffffffffff1673ffffffffffffffffffffffffffffffffffffffff168152602001600482015481526020016005820160009054906101000a900460ff16151515158152602001600682015481526020016007820160009054906101000a900460ff16151515158152602001600882015481526020016009820160009054906101000a900460ff16151515158152505090506000151581610120015115151461123f576040517f08c379a00000000000000000000000000000000000000000000000000000000081526004018080602001828103825260248152602001806136876024913960400191505060405180910390fd5b600115158160a001511515146112bd576040517f08c379a00000000000000000000000000000000000000000000000000000000081526004018080602001828103825260198152602001807f4f66666572206e6f7420696e2073616c6520616e796d6f72650000000000000081525060200191505060405180910390fd5b81816080015102341015611339576040517f08c379a00000000000000000000000000000000000000000000000000000000081526004018080602001828103825260108152602001807f4e6f7420656e6f7567682066756e64730000000000000000000000000000000081525060200191505060405180910390fd5b81816020015173ffffffffffffffffffffffffffffffffffffffff1662fdd58e836060015184604001516040518363ffffffff1660e01b8152600401808373ffffffffffffffffffffffffffffffffffffffff1673ffffffffffffffffffffffffffffffffffffffff1681526020018281526020019250505060206040518083038186803b1580156113ca57600080fd5b505afa1580156113de573d6000803e3d6000fd5b505050506040513d60208110156113f457600080fd5b8101908080519060200190929190505050101561145c576040517f08c379a00000000000000000000000000000000000000000000000000000000081526004018080602001828103825260288152602001806136086028913960400191505060405180910390fd5b60008160200151905060006126169050600115158360e001511515141561148a578261010001516127100390505b600083606001519050836060015173ffffffffffffffffffffffffffffffffffffffff168373ffffffffffffffffffffffffffffffffffffffff1663d48e638a86604001516040518263ffffffff1660e01b815260040180828152602001915050602060405180830381600087803b15801561150557600080fd5b505af1158015611519573d6000803e3d6000fd5b505050506040513d602081101561152f57600080fd5b810190808051906020019092919050505073ffffffffffffffffffffffffffffffffffffffff1614611630578073ffffffffffffffffffffffffffffffffffffffff166108fc61271084883402028161158457fe5b049081150290604051600060405180830381858888f193505050501580156115b0573d6000803e3d6000fd5b507fd4f43975feb89f48dd30cabbb32011045be187d1e11c8ea9faa43efc35282519816127108488340202816115e257fe5b04604051808373ffffffffffffffffffffffffffffffffffffffff1673ffffffffffffffffffffffffffffffffffffffff1681526020018281526020019250505060405180910390a1611993565b8273ffffffffffffffffffffffffffffffffffffffff1663bb3bafd685604001516040518263ffffffff1660e01b815260040180828152602001915050602060405180830381600087803b15801561168757600080fd5b505af115801561169b573d6000803e3d6000fd5b505050506040513d60208110156116b157600080fd5b8101908080519060200190929190505050820391508073ffffffffffffffffffffffffffffffffffffffff166108fc6127108488340202816116ef57fe5b049081150290604051600060405180830381858888f1935050505015801561171b573d6000803e3d6000fd5b507fd4f43975feb89f48dd30cabbb32011045be187d1e11c8ea9faa43efc352825198161271084883402028161174d57fe5b04604051808373ffffffffffffffffffffffffffffffffffffffff1673ffffffffffffffffffffffffffffffffffffffff1681526020018281526020019250505060405180910390a16000846060015190508073ffffffffffffffffffffffffffffffffffffffff166108fc6127108673ffffffffffffffffffffffffffffffffffffffff1663bb3bafd689604001516040518263ffffffff1660e01b815260040180828152602001915050602060405180830381600087803b15801561181357600080fd5b505af1158015611827573d6000803e3d6000fd5b505050506040513d602081101561183d57600080fd5b8101908080519060200190929190505050893402028161185957fe5b049081150290604051600060405180830381858888f19350505050158015611885573d6000803e3d6000fd5b507f54b960faf8b038c33ba9912fdb9ac1e8e0096c5f327d1c89e62b5d9c5357ddb6816127108673ffffffffffffffffffffffffffffffffffffffff1663bb3bafd689604001516040518263ffffffff1660e01b815260040180828152602001915050602060405180830381600087803b15801561190257600080fd5b505af1158015611916573d6000803e3d6000fd5b505050506040513d602081101561192c57600080fd5b8101908080519060200190929190505050893402028161194857fe5b04604051808373ffffffffffffffffffffffffffffffffffffffff1673ffffffffffffffffffffffffffffffffffffffff1681526020018281526020019250505060405180910390a1505b836020015173ffffffffffffffffffffffffffffffffffffffff1663f242432a8560600151888760400151896040518563ffffffff1660e01b8152600401808573ffffffffffffffffffffffffffffffffffffffff1673ffffffffffffffffffffffffffffffffffffffff1681526020018473ffffffffffffffffffffffffffffffffffffffff1673ffffffffffffffffffffffffffffffffffffffff1681526020018381526020018281526020018060200182810382526000815260200160200195505050505050600060405180830381600087803b158015611a7657600080fd5b505af1158015611a8a573d6000803e3d6000fd5b5050505060008460a00190151590811515815250508360008881548110611aad57fe5b90600052602060002090600a020160008201518160000160006101000a81548173ffffffffffffffffffffffffffffffffffffffff021916908373ffffffffffffffffffffffffffffffffffffffff16021790555060208201518160010160006101000a81548173ffffffffffffffffffffffffffffffffffffffff021916908373ffffffffffffffffffffffffffffffffffffffff1602179055506040820151816002015560608201518160030160006101000a81548173ffffffffffffffffffffffffffffffffffffffff021916908373ffffffffffffffffffffffffffffffffffffffff1602179055506080820151816004015560a08201518160050160006101000a81548160ff02191690831515021790555060c0820151816006015560e08201518160070160006101000a81548160ff02191690831515021790555061010082015181600801556101208201518160090160006101000a81548160ff02191690831515021790555090505050505050505050565b60008060016000868152602001908152602001600020905080600401548160030154014211611cbd576040517f08c379a00000000000000000000000000000000000000000000000000000000081526004018080602001828103825260148152602001807f41756374696f6e207374696c6c2061637469766500000000000000000000000081525060200191505060405180910390fd5b600115158160060160009054906101000a900460ff16151514611d48576040517f08c379a000000000000000000000000000000000000000000000000000000000815260040180806020018281038252601a8152602001807f41756374696f6e206e6f742061637469766520616e796d6f726500000000000081525060200191505060405180910390fd5b8060050154831015611dc2576040517f08c379a00000000000000000000000000000000000000000000000000000000081526004018080602001828103825260168152602001807f416d6f756e74206e6f74206869676820656e6f7567680000000000000000000081525060200191505060405180910390fd5b838160010160006101000a81548173ffffffffffffffffffffffffffffffffffffffff021916908373ffffffffffffffffffffffffffffffffffffffff16021790555082816002018190555080600160008781526020019081526020016000206000820160009054906101000a900473ffffffffffffffffffffffffffffffffffffffff168160000160006101000a81548173ffffffffffffffffffffffffffffffffffffffff021916908373ffffffffffffffffffffffffffffffffffffffff1602179055506001820160009054906101000a900473ffffffffffffffffffffffffffffffffffffffff168160010160006101000a81548173ffffffffffffffffffffffffffffffffffffffff021916908373ffffffffffffffffffffffffffffffffffffffff160217905550600282015481600201556003820154816003015560048201548160040155600582015481600501556006820160009054906101000a900460ff168160060160006101000a81548160ff021916908315150217905550905050509392505050565b60016020528060005260406000206000915090508060000160009054906101000a900473ffffffffffffffffffffffffffffffffffffffff16908060010160009054906101000a900473ffffffffffffffffffffffffffffffffffffffff16908060020154908060030154908060040154908060050154908060060160009054906101000a900460ff16905087565b600080869050848173ffffffffffffffffffffffffffffffffffffffff1662fdd58e33896040518363ffffffff1660e01b8152600401808373ffffffffffffffffffffffffffffffffffffffff1673ffffffffffffffffffffffffffffffffffffffff1681526020018281526020019250505060206040518083038186803b15801561206a57600080fd5b505afa15801561207e573d6000803e3d6000fd5b505050506040513d602081101561209457600080fd5b810190808051906020019092919050505010156120fc576040517f08c379a00000000000000000000000000000000000000000000000000000000081526004018080602001828103825260468152602001806135986046913960600191505060405180910390fd5b61210461341d565b6040518061014001604052808973ffffffffffffffffffffffffffffffffffffffff1681526020018973ffffffffffffffffffffffffffffffffffffffff1681526020018881526020013373ffffffffffffffffffffffffffffffffffffffff168152602001600081526020016000151581526020018781526020016000151581526020016000815260200160011515815250905060008190806001815401808255809150506001900390600052602060002090600a020160009091909190915060008201518160000160006101000a81548173ffffffffffffffffffffffffffffffffffffffff021916908373ffffffffffffffffffffffffffffffffffffffff16021790555060208201518160010160006101000a81548173ffffffffffffffffffffffffffffffffffffffff021916908373ffffffffffffffffffffffffffffffffffffffff1602179055506040820151816002015560608201518160030160006101000a81548173ffffffffffffffffffffffffffffffffffffffff021916908373ffffffffffffffffffffffffffffffffffffffff1602179055506080820151816004015560a08201518160050160006101000a81548160ff02191690831515021790555060c0820151816006015560e08201518160070160006101000a81548160ff02191690831515021790555061010082015181600801556101208201518160090160006101000a81548160ff02191690831515021790555050506000600160008054905003905061233b6134b8565b6040518060e001604052803373ffffffffffffffffffffffffffffffffffffffff168152602001600073ffffffffffffffffffffffffffffffffffffffff16815260200160008152602001884201815260200187815260200160008152602001600115158152509050806001600084815260200190815260200160002060008201518160000160006101000a81548173ffffffffffffffffffffffffffffffffffffffff021916908373ffffffffffffffffffffffffffffffffffffffff16021790555060208201518160010160006101000a81548173ffffffffffffffffffffffffffffffffffffffff021916908373ffffffffffffffffffffffffffffffffffffffff16021790555060408201518160020155606082015181600301556080820151816004015560a0820151816005015560c08201518160060160006101000a81548160ff0219169083151502179055509050508194505050505095945050505050565b600081815481106124ae57fe5b90600052602060002090600a02016000915090508060000160009054906101000a900473ffffffffffffffffffffffffffffffffffffffff16908060010160009054906101000a900473ffffffffffffffffffffffffffffffffffffffff16908060020154908060030160009054906101000a900473ffffffffffffffffffffffffffffffffffffffff16908060040154908060050160009054906101000a900460ff16908060060154908060070160009054906101000a900460ff16908060080154908060090160009054906101000a900460ff1690508a565b6000806001600085815260200190815260200160002090508060040154816003015401421115612621576040517f08c379a000000000000000000000000000000000000000000000000000000000815260040180806020018281038252600d8152602001807f41756374696f6e20656e6465640000000000000000000000000000000000000081525060200191505060405180910390fd5b82816004015401816004018190555080600160008681526020019081526020016000206000820160009054906101000a900473ffffffffffffffffffffffffffffffffffffffff168160000160006101000a81548173ffffffffffffffffffffffffffffffffffffffff021916908373ffffffffffffffffffffffffffffffffffffffff1602179055506001820160009054906101000a900473ffffffffffffffffffffffffffffffffffffffff168160010160006101000a81548173ffffffffffffffffffffffffffffffffffffffff021916908373ffffffffffffffffffffffffffffffffffffffff160217905550600282015481600201556003820154816003015560048201548160040155600582015481600501556006820160009054906101000a900460ff168160060160006101000a81548160ff021916908315150217905550905050600191505092915050565b600060016000848152602001908152602001600020905061279461341d565b600084815481106127a157fe5b90600052602060002090600a0201604051806101400160405290816000820160009054906101000a900473ffffffffffffffffffffffffffffffffffffffff1673ffffffffffffffffffffffffffffffffffffffff1673ffffffffffffffffffffffffffffffffffffffff1681526020016001820160009054906101000a900473ffffffffffffffffffffffffffffffffffffffff1673ffffffffffffffffffffffffffffffffffffffff1673ffffffffffffffffffffffffffffffffffffffff168152602001600282015481526020016003820160009054906101000a900473ffffffffffffffffffffffffffffffffffffffff1673ffffffffffffffffffffffffffffffffffffffff1673ffffffffffffffffffffffffffffffffffffffff168152602001600482015481526020016005820160009054906101000a900460ff16151515158152602001600682015481526020016007820160009054906101000a900460ff16151515158152602001600882015481526020016009820160009054906101000a900460ff16151515158152505090506001151581610120015115151461299a576040517f08c379a00000000000000000000000000000000000000000000000000000000081526004018080602001828103825260318152602001806136306031913960400191505060405180910390fd5b81600201543414612a13576040517f08c379a00000000000000000000000000000000000000000000000000000000081526004018080602001828103825260148152602001807f416d6f756e74206973206e6f7420656e6f75676800000000000000000000000081525060200191505060405180910390fd5b8160010160009054906101000a900473ffffffffffffffffffffffffffffffffffffffff1673ffffffffffffffffffffffffffffffffffffffff163373ffffffffffffffffffffffffffffffffffffffff1614612ad8576040517f08c379a00000000000000000000000000000000000000000000000000000000081526004018080602001828103825260168152602001807f55736572206973206e6f74207468652077696e6e65720000000000000000000081525060200191505060405180910390fd5b8160050154341015612b35576040517f08c379a00000000000000000000000000000000000000000000000000000000081526004018080602001828103825260268152602001806136616026913960400191505060405180910390fd5b600115158260060160009054906101000a900460ff16151514612bc0576040517f08c379a000000000000000000000000000000000000000000000000000000000815260040180806020018281038252601a8152602001807f41756374696f6e206e6f742061637469766520616e796d6f726500000000000081525060200191505060405180910390fd5b828160c0015114612c1c576040517f08c379a000000000000000000000000000000000000000000000000000000000815260040180806020018281038252603d815260200180613524603d913960400191505060405180910390fd5b60008160200151905060006126169050600115158360e0015115151415612c4a578261010001516127100390505b600083606001519050836060015173ffffffffffffffffffffffffffffffffffffffff168373ffffffffffffffffffffffffffffffffffffffff1663d48e638a86604001516040518263ffffffff1660e01b815260040180828152602001915050602060405180830381600087803b158015612cc557600080fd5b505af1158015612cd9573d6000803e3d6000fd5b505050506040513d6020811015612cef57600080fd5b810190808051906020019092919050505073ffffffffffffffffffffffffffffffffffffffff161415612ded578073ffffffffffffffffffffffffffffffffffffffff166108fc61271084340281612d4357fe5b049081150290604051600060405180830381858888f19350505050158015612d6f573d6000803e3d6000fd5b507fd4f43975feb89f48dd30cabbb32011045be187d1e11c8ea9faa43efc352825198161271084340281612d9f57fe5b04604051808373ffffffffffffffffffffffffffffffffffffffff1673ffffffffffffffffffffffffffffffffffffffff1681526020018281526020019250505060405180910390a1613148565b8273ffffffffffffffffffffffffffffffffffffffff1663bb3bafd685604001516040518263ffffffff1660e01b815260040180828152602001915050602060405180830381600087803b158015612e4457600080fd5b505af1158015612e58573d6000803e3d6000fd5b505050506040513d6020811015612e6e57600080fd5b8101908080519060200190929190505050820391508073ffffffffffffffffffffffffffffffffffffffff166108fc61271084340281612eaa57fe5b049081150290604051600060405180830381858888f19350505050158015612ed6573d6000803e3d6000fd5b507fd4f43975feb89f48dd30cabbb32011045be187d1e11c8ea9faa43efc352825198161271084340281612f0657fe5b04604051808373ffffffffffffffffffffffffffffffffffffffff1673ffffffffffffffffffffffffffffffffffffffff1681526020018281526020019250505060405180910390a16000846060015190508073ffffffffffffffffffffffffffffffffffffffff166108fc6127108673ffffffffffffffffffffffffffffffffffffffff1663bb3bafd689604001516040518263ffffffff1660e01b815260040180828152602001915050602060405180830381600087803b158015612fcc57600080fd5b505af1158015612fe0573d6000803e3d6000fd5b505050506040513d6020811015612ff657600080fd5b810190808051906020019092919050505034028161301057fe5b049081150290604051600060405180830381858888f1935050505015801561303c573d6000803e3d6000fd5b507f54b960faf8b038c33ba9912fdb9ac1e8e0096c5f327d1c89e62b5d9c5357ddb6816127108673ffffffffffffffffffffffffffffffffffffffff1663bb3bafd689604001516040518263ffffffff1660e01b815260040180828152602001915050602060405180830381600087803b1580156130b957600080fd5b505af11580156130cd573d6000803e3d6000fd5b505050506040513d60208110156130e357600080fd5b81019080805190602001909291905050503402816130fd57fe5b04604051808373ffffffffffffffffffffffffffffffffffffffff1673ffffffffffffffffffffffffffffffffffffffff1681526020018281526020019250505060405180910390a1505b836020015173ffffffffffffffffffffffffffffffffffffffff1663f242432a85606001513387604001518a6040518563ffffffff1660e01b8152600401808573ffffffffffffffffffffffffffffffffffffffff1673ffffffffffffffffffffffffffffffffffffffff1681526020018473ffffffffffffffffffffffffffffffffffffffff1673ffffffffffffffffffffffffffffffffffffffff1681526020018381526020018281526020018060200182810382526000815260200160200195505050505050600060405180830381600087803b15801561322b57600080fd5b505af115801561323f573d6000803e3d6000fd5b5050505060008460a0019015159081151581525050836000888154811061326257fe5b90600052602060002090600a020160008201518160000160006101000a81548173ffffffffffffffffffffffffffffffffffffffff021916908373ffffffffffffffffffffffffffffffffffffffff16021790555060208201518160010160006101000a81548173ffffffffffffffffffffffffffffffffffffffff021916908373ffffffffffffffffffffffffffffffffffffffff1602179055506040820151816002015560608201518160030160006101000a81548173ffffffffffffffffffffffffffffffffffffffff021916908373ffffffffffffffffffffffffffffffffffffffff1602179055506080820151816004015560a08201518160050160006101000a81548160ff02191690831515021790555060c0820151816006015560e08201518160070160006101000a81548160ff02191690831515021790555061010082015181600801556101208201518160090160006101000a81548160ff02191690831515021790555090505060008560060160006101000a81548160ff02191690831515021790555060016000888152602001908152602001600020945050505050505050565b6000600160008054905003905090565b604051806101400160405280600073ffffffffffffffffffffffffffffffffffffffff168152602001600073ffffffffffffffffffffffffffffffffffffffff16815260200160008152602001600073ffffffffffffffffffffffffffffffffffffffff1681526020016000815260200160001515815260200160008152602001600015158152602001600081526020016000151581525090565b6040518060e00160405280600073ffffffffffffffffffffffffffffffffffffffff168152602001600073ffffffffffffffffffffffffffffffffffffffff16815260200160008152602001600081526020016000815260200160008152602001600015158152509056fe54686520616d6f756e74206f66206974656d7320697320646966666572656e742066726f6d20746865206f6e6573206f6e207468652061756374696f6e596f752061726520747279696e6720746f2073616c65206d6f7265206e667473207468617420746865206f6e657320796f752068617665596f752061726520747279696e6720746f20706c61636520696e20616e2061756374696f6e206d6f7265206e667473207468617420746865206f6e657320796f7520686176654f6e6c79206f666665722063726561746f722063616e2072656d6f76652069742066726f6d2073616c654f776e657220646964206e6f74206861766520656e6f75676820746f6b656e73206f6e2073616c65596f752063616e6e6f7420636c61696d20736f6d657468696e672074686174206973206e6f7420696e2061756374696f6e616d6f756e74206973206c6f776572207468617420746865206d696e696d756d207072696365596f752063616e6e6f74206275792077686174206973206f6e20616e2061756374696f6ea2646970667358221220a057021e07ed74eb73bf793cb817fed88a259d3cb2dd50087e70c82e11b4481264736f6c63430006020033",
  "source": "pragma solidity ^0.6.2;\n\nimport \"@openzeppelin/contracts/token/ERC1155/ERC1155.sol\";\nimport \"@openzeppelin/contracts/utils/Counters.sol\";\nimport \"./SatoshiART1155.sol\";\nimport \"@openzeppelin/contracts/math/SafeMath.sol\";\n\ncontract Engine {\n    // table with offers\n    struct Offer {\n        address assetAddress; // address of the token\n        SatoshiART1155 asset; // token\n        uint256 id; // id (it is an ERC 1155)\n        address creator; // who creates the offer\n        uint256 price; // price of each token\n        bool onSale; // is on sale or not\n        uint256 amount; // amount of tokens for sale\n        bool isDropOfTheDay; // is the offer a drop of the day?\n        uint256 commisionDropOfTheDay; // the commision for the drop of the day. Instead of the standard 2.5% is set by the admin\n        bool isAuction; // is this offer for an auction of is a direct sale\n    }\n    Offer[] public offers;\n\n    // Auctions data. As there will be an auction for celebrities with timing of 10-30 minutes the auction will be handled offchain\n    struct Auction {\n        address creator; // who creates the auction\n        address bestBidder; // the address of the best bidder. Set in the SetWinner call\n        uint256 bestBidAmount; // the amount of the best bid. Set in the SetWinner call\n        uint256 startTime; // when the auction will start\n        uint256 duration; // duration in seconds\n        uint256 minimumPrice; // minimum price accepted for the auction\n        bool active; // is the auction active or not\n    }\n    mapping(uint256 => Auction) public auctions;\n\n    event Royalties(address receiver, uint256 amount);\n    event Payment(address receiver, uint256 amount);\n\n    // The owner of the token, put to sale some of the tokens\n    function putToSale(\n        address _assetAddress, // token address\n        uint256 _id, // id of the token\n        uint256 _amount, // amount of tokens put on sale\n        uint256 _price // desired price\n    ) public returns (uint256) {\n        SatoshiART1155 asset = SatoshiART1155(_assetAddress);\n        require(\n            asset.balanceOf(msg.sender, _id) >= _amount,\n            \"You are trying to sale more nfts that the ones you have\"\n        );\n\n        // Creates the offer, and sets the offer onSale = true\n        Offer memory offer =\n            Offer({\n                asset: SatoshiART1155(_assetAddress),\n                assetAddress: _assetAddress,\n                creator: msg.sender,\n                price: _price,\n                id: _id,\n                amount: _amount,\n                onSale: true,\n                isDropOfTheDay: false,\n                commisionDropOfTheDay: 0,\n                isAuction: false\n            });\n        offers.push(offer);\n        return offers.length - 1;\n    }\n\n    function removeFromSale(\n        uint256 _offerIndex // id of the offer\n    ) public returns (uint256) {\n        Offer memory offer = offers[_offerIndex];\n        require(\n            msg.sender == offer.creator,\n            \"Only offer creator can remove it from sale\"\n        );\n\n        offer.onSale = false;\n        offers[_offerIndex] = offer;\n    }\n\n    // Anyone can buy the tokens, as long the offer is onsale\n    function buy(\n        uint256 _offerIndex,\n        address _to,\n        uint256 _amount\n    ) public payable {\n        Offer memory offer = offers[_offerIndex];\n        require(\n            offer.isAuction == false,\n            \"You cannot buy what is on an auction\"\n        );\n        require(offer.onSale == true, \"Offer not in sale anymore\");\n        require(msg.value >= offer.price * _amount, \"Not enough funds\");\n        require(\n            offer.asset.balanceOf(offer.creator, offer.id) >= _amount,\n            \"Owner did not have enough tokens on sale\"\n        );\n\n        SatoshiART1155 asset = SatoshiART1155(offer.asset);\n\n        // commision structure still not defined\n        //    require(asset.getCreator(offer.id) != offer.creator, \"Creator of token should be first seller\");\n\n        // get tokens owner, who should receive the payment. It is the creator of the offer\n        uint256 commision = 9750;\n        if (offer.isDropOfTheDay == true)\n            commision = 10000 - offer.commisionDropOfTheDay;\n        address payable tokensOwner = payable(offer.creator);\n        if (asset.getCreator(offer.id) != offer.creator) {\n            // transfer the funds to token owner\n            tokensOwner.transfer((msg.value * _amount * commision) / 10000);\n            emit Payment(\n                tokensOwner,\n                (msg.value * _amount * commision) / 10000\n            );\n        } else {\n            //transfer the funds to token owner except the royalties, that goes to the creator\n            commision = commision - asset.getRoyalties(offer.id);\n            tokensOwner.transfer((msg.value * _amount * commision) / 10000);\n            emit Payment(\n                tokensOwner,\n                (msg.value * _amount * commision) / 10000\n            );\n            address payable artist = payable(offer.creator);\n            artist.transfer(\n                (msg.value * _amount * asset.getRoyalties(offer.id)) / 10000\n            );\n            emit Royalties(\n                artist,\n                (msg.value * _amount * asset.getRoyalties(offer.id)) / 10000\n            );\n        }\n        // transfer the tokens\n        offer.asset.safeTransferFrom(offer.creator, _to, offer.id, _amount, \"\");\n\n        // the sale has been made, so set it to false\n        offer.onSale = false;\n        offers[_offerIndex] = offer;\n    }\n\n    // a token can be set as drop of the day, with a different commision\n    function setDropOfTheDay(uint256 _offerIndex, uint256 _commisionInBps)\n        public\n        payable\n    {\n        Offer memory offer = offers[_offerIndex];\n        offer.isDropOfTheDay = true;\n        offer.commisionDropOfTheDay = _commisionInBps;\n        offers[_offerIndex] = offer;\n    }\n\n    function startAuction(\n        address _assetAddress, // token address\n        uint256 _id, // id of the token\n        uint256 _amount, // amount of tokens put on sale\n        uint256 _startDate,\n        uint256 _durationInSeconds\n    ) public returns (uint256) {\n         SatoshiART1155 asset = SatoshiART1155(_assetAddress);\n         require(\n            asset.balanceOf(msg.sender, _id) >= _amount,\n            \"You are trying to place in an auction more nfts that the ones you have\"\n        );\n\n        // Creates the offer, and sets the offer is auction = true\n        Offer memory offer =\n            Offer({\n                asset: SatoshiART1155(_assetAddress),\n                assetAddress: _assetAddress,\n                creator: msg.sender,\n                price: 0,\n                id: _id,\n                amount: _amount,\n                onSale: false,\n                isDropOfTheDay: false,\n                commisionDropOfTheDay: 0,\n                isAuction: true\n            });\n        offers.push(offer);        \n\n        uint256 _offerIndex = offers.length - 1;\n  \n        Auction memory auction =\n            Auction({\n                creator: msg.sender,\n                minimumPrice: 0,\n                bestBidAmount: 0,\n                startTime: now + _startDate,\n                duration: _durationInSeconds,\n                bestBidder: address(0),\n                active: true\n            });\n        auctions[_offerIndex] = auction;\n        \n        return _offerIndex;\n    }\n/*\n    /////////////////////////// AUCTIONS /////////////////\n    function startAuction(\n        uint256 _offerIndex,\n        uint256 _startDate,\n        uint256 _durationInSeconds\n    ) public {\n        // TODO check that only owner of offer can create an auction for that offer\n        Auction memory auction =\n            Auction({\n                creator: msg.sender,\n                minimumPrice: 0,\n                bestBidAmount: 0,\n                startTime: _startDate,\n                duration: _durationInSeconds,\n                bestBidder: address(0),\n                active: true\n            });\n        auctions[_offerIndex] = auction;\n\n        Offer memory offer = offers[_offerIndex];\n        offer.isAuction = true;\n        offers[_offerIndex] = offer;\n    }\n*/\n    // this call is made by the owner to set who wins the auction\n    function setWinner(\n        uint256 _offerIndex,\n        address _winner,\n        uint256 _amount\n    ) public returns (bool) {\n        Auction storage auction = auctions[_offerIndex];\n        // TODO check the owner is the one who calls\n        require(\n            now > auction.startTime + auction.duration,\n            \"Auction still active\"\n        );\n        require(auction.active == true, \"Auction not active anymore\");\n        require(_amount >= auction.minimumPrice, \"Amount not high enough\");\n        auction.bestBidder = _winner;\n        auction.bestBidAmount = _amount;\n        auctions[_offerIndex] = auction;\n    }\n\n    // The winner of the auction can claim the token\n    function claim(uint256 _offerIndex, uint256 _amount) external payable {\n        Auction storage auction = auctions[_offerIndex];\n        Offer memory offer = offers[_offerIndex];\n        require(\n            offer.isAuction == true,\n            \"You cannot claim something that is not in auction\"\n        );\n        require(\n            msg.value == auction.bestBidAmount ,\n            \"Amount is not enough\"\n        );\n        require(msg.sender == auction.bestBidder, \"User is not the winner\");\n        require(\n            msg.value >= auction.minimumPrice,\n            \"amount is lower that the minimum price\"\n        );\n        require(auction.active == true, \"Auction not active anymore\");\n        require(offer.amount == _amount, \"The amount of items is different from the ones on the auction\");\n\n        SatoshiART1155 asset = SatoshiART1155(offer.asset);\n\n        uint256 commision = 9750;\n        if (offer.isDropOfTheDay == true)\n            commision = 10000 - offer.commisionDropOfTheDay;\n        address payable tokensOwner = payable(offer.creator);\n        if (asset.getCreator(offer.id) == offer.creator) {\n            // transfer the funds to token owner\n            tokensOwner.transfer((msg.value * /*_amount **/ commision) / 10000);\n            emit Payment(\n                tokensOwner,\n                (msg.value * /*_amount **/ commision) / 10000\n            );\n        } else {\n            //transfer the funds to token owner except the royalties, that goes to the creator\n            commision = commision - asset.getRoyalties(offer.id);\n            tokensOwner.transfer((msg.value * /*_amount **/ commision) / 10000);\n            emit Payment(\n                tokensOwner,\n                (msg.value * /*_amount **/ commision) / 10000\n            );\n            address payable artist = payable(offer.creator);\n            artist.transfer(\n                (msg.value * /*_amount **/ asset.getRoyalties(offer.id)) / 10000\n            );\n            emit Royalties(\n                artist,\n                (msg.value * /*_amount **/ asset.getRoyalties(offer.id)) / 10000\n            );\n        }\n        // transfer the tokens\n        offer.asset.safeTransferFrom(\n            offer.creator,\n            msg.sender,\n            offer.id,\n            _amount,\n            \"\"\n        );\n\n        // the sale has been made, so set it to false\n        offer.onSale = false;\n        offers[_offerIndex] = offer;\n\n        auction.active = false;\n        auction = auctions[_offerIndex];\n    }\n\n    function numOffers() public view returns (uint256) {\n        return offers.length - 1;\n    }\n\n     function extendAuctionTime(\n        uint256 _offerIndex,\n        uint256 _durationInSeconds\n    ) public returns (bool) {\n        Auction storage auction = auctions[_offerIndex];\n        require(\n            now <= auction.startTime + auction.duration,\n            \"Auction ended\"\n        );\n        auction.duration = auction.duration + _durationInSeconds;\n        auctions[_offerIndex] = auction;\n        return true;\n    }\n\n}\n",
  "sourcePath": "/home/linux/ether/satoshi1155/contracts/engine.sol",
  "compiler": {
    "name": "solc",
    "version": "0.6.2+commit.bacdbe57.Emscripten.clang"
  },
  "schemaVersion": "3.3.4",
  "updatedAt": "2021-04-05T16:59:33.960Z",
  "networkType": "ethereum",
  "devdoc": {
    "methods": {}
  },
  "userdoc": {
    "methods": {}
  }
}