{
  "contractName": "Engine",
  "abi": [
    {
      "anonymous": false,
      "inputs": [
        {
          "indexed": true,
          "internalType": "address",
          "name": "previousOwner",
          "type": "address"
        },
        {
          "indexed": true,
          "internalType": "address",
          "name": "newOwner",
          "type": "address"
        }
      ],
      "name": "OwnershipTransferred",
      "type": "event"
    },
    {
      "anonymous": false,
      "inputs": [
        {
          "indexed": false,
          "internalType": "address",
          "name": "receiver",
          "type": "address"
        },
        {
          "indexed": false,
          "internalType": "uint256",
          "name": "amount",
          "type": "uint256"
        }
      ],
      "name": "Payment",
      "type": "event"
    },
    {
      "anonymous": false,
      "inputs": [
        {
          "indexed": false,
          "internalType": "address",
          "name": "receiver",
          "type": "address"
        },
        {
          "indexed": false,
          "internalType": "uint256",
          "name": "amount",
          "type": "uint256"
        }
      ],
      "name": "Royalties",
      "type": "event"
    },
    {
      "inputs": [
        {
          "internalType": "uint256",
          "name": "",
          "type": "uint256"
        }
      ],
      "name": "auctions",
      "outputs": [
        {
          "internalType": "address",
          "name": "creator",
          "type": "address"
        },
        {
          "internalType": "address",
          "name": "bestBidder",
          "type": "address"
        },
        {
          "internalType": "uint256",
          "name": "bestBidAmount",
          "type": "uint256"
        },
        {
          "internalType": "uint256",
          "name": "startTime",
          "type": "uint256"
        },
        {
          "internalType": "uint256",
          "name": "duration",
          "type": "uint256"
        },
        {
          "internalType": "uint256",
          "name": "minimumPrice",
          "type": "uint256"
        },
        {
          "internalType": "bool",
          "name": "active",
          "type": "bool"
        }
      ],
      "stateMutability": "view",
      "type": "function",
      "constant": true
    },
    {
      "inputs": [
        {
          "internalType": "uint256",
          "name": "",
          "type": "uint256"
        }
      ],
      "name": "offers",
      "outputs": [
        {
          "internalType": "address",
          "name": "assetAddress",
          "type": "address"
        },
        {
          "internalType": "contract SatoshiART1155",
          "name": "asset",
          "type": "address"
        },
        {
          "internalType": "uint256",
          "name": "id",
          "type": "uint256"
        },
        {
          "internalType": "address",
          "name": "creator",
          "type": "address"
        },
        {
          "internalType": "uint256",
          "name": "price",
          "type": "uint256"
        },
        {
          "internalType": "bool",
          "name": "onSale",
          "type": "bool"
        },
        {
          "internalType": "uint256",
          "name": "amount",
          "type": "uint256"
        },
        {
          "internalType": "bool",
          "name": "isDropOfTheDay",
          "type": "bool"
        },
        {
          "internalType": "uint256",
          "name": "commisionDropOfTheDay",
          "type": "uint256"
        },
        {
          "internalType": "bool",
          "name": "isAuction",
          "type": "bool"
        }
      ],
      "stateMutability": "view",
      "type": "function",
      "constant": true
    },
    {
      "inputs": [],
      "name": "owner",
      "outputs": [
        {
          "internalType": "address",
          "name": "",
          "type": "address"
        }
      ],
      "stateMutability": "view",
      "type": "function",
      "constant": true
    },
    {
      "inputs": [],
      "name": "renounceOwnership",
      "outputs": [],
      "stateMutability": "nonpayable",
      "type": "function"
    },
    {
      "inputs": [
        {
          "internalType": "address",
          "name": "newOwner",
          "type": "address"
        }
      ],
      "name": "transferOwnership",
      "outputs": [],
      "stateMutability": "nonpayable",
      "type": "function"
    },
    {
      "inputs": [
        {
          "internalType": "address",
          "name": "_assetAddress",
          "type": "address"
        },
        {
          "internalType": "uint256",
          "name": "_id",
          "type": "uint256"
        },
        {
          "internalType": "uint256",
          "name": "_amount",
          "type": "uint256"
        },
        {
          "internalType": "uint256",
          "name": "_price",
          "type": "uint256"
        }
      ],
      "name": "putToSale",
      "outputs": [
        {
          "internalType": "uint256",
          "name": "",
          "type": "uint256"
        }
      ],
      "stateMutability": "nonpayable",
      "type": "function"
    },
    {
      "inputs": [
        {
          "internalType": "uint256",
          "name": "_offerIndex",
          "type": "uint256"
        }
      ],
      "name": "removeFromSale",
      "outputs": [
        {
          "internalType": "uint256",
          "name": "",
          "type": "uint256"
        }
      ],
      "stateMutability": "nonpayable",
      "type": "function"
    },
    {
      "inputs": [
        {
          "internalType": "uint256",
          "name": "_offerIndex",
          "type": "uint256"
        },
        {
          "internalType": "address",
          "name": "_to",
          "type": "address"
        },
        {
          "internalType": "uint256",
          "name": "_amount",
          "type": "uint256"
        }
      ],
      "name": "buy",
      "outputs": [],
      "stateMutability": "payable",
      "type": "function",
      "payable": true
    },
    {
      "inputs": [
        {
          "internalType": "uint256",
          "name": "_offerIndex",
          "type": "uint256"
        },
        {
          "internalType": "uint256",
          "name": "_commisionInBps",
          "type": "uint256"
        }
      ],
      "name": "setDropOfTheDay",
      "outputs": [],
      "stateMutability": "payable",
      "type": "function",
      "payable": true
    },
    {
      "inputs": [
        {
          "internalType": "address",
          "name": "_assetAddress",
          "type": "address"
        },
        {
          "internalType": "uint256",
          "name": "_id",
          "type": "uint256"
        },
        {
          "internalType": "uint256",
          "name": "_amount",
          "type": "uint256"
        },
        {
          "internalType": "uint256",
          "name": "_startDate",
          "type": "uint256"
        },
        {
          "internalType": "uint256",
          "name": "_durationInSeconds",
          "type": "uint256"
        }
      ],
      "name": "startAuction",
      "outputs": [
        {
          "internalType": "uint256",
          "name": "",
          "type": "uint256"
        }
      ],
      "stateMutability": "nonpayable",
      "type": "function"
    },
    {
      "inputs": [
        {
          "internalType": "uint256",
          "name": "_offerIndex",
          "type": "uint256"
        },
        {
          "internalType": "address",
          "name": "_winner",
          "type": "address"
        },
        {
          "internalType": "uint256",
          "name": "_amount",
          "type": "uint256"
        }
      ],
      "name": "setWinner",
      "outputs": [
        {
          "internalType": "bool",
          "name": "",
          "type": "bool"
        }
      ],
      "stateMutability": "nonpayable",
      "type": "function"
    },
    {
      "inputs": [
        {
          "internalType": "uint256",
          "name": "_offerIndex",
          "type": "uint256"
        },
        {
          "internalType": "uint256",
          "name": "_amount",
          "type": "uint256"
        }
      ],
      "name": "claim",
      "outputs": [],
      "stateMutability": "payable",
      "type": "function",
      "payable": true
    },
    {
      "inputs": [],
      "name": "numOffers",
      "outputs": [
        {
          "internalType": "uint256",
          "name": "",
          "type": "uint256"
        }
      ],
      "stateMutability": "view",
      "type": "function",
      "constant": true
    },
    {
      "inputs": [
        {
          "internalType": "uint256",
          "name": "_offerIndex",
          "type": "uint256"
        },
        {
          "internalType": "uint256",
          "name": "_durationInSeconds",
          "type": "uint256"
        }
      ],
      "name": "extendAuctionTime",
      "outputs": [
        {
          "internalType": "bool",
          "name": "",
          "type": "bool"
        }
      ],
      "stateMutability": "nonpayable",
      "type": "function"
    }
  ],
  "bytecode": "0x608060405260006100146100b760201b60201c565b9050806000806101000a81548173ffffffffffffffffffffffffffffffffffffffff021916908373ffffffffffffffffffffffffffffffffffffffff1602179055508073ffffffffffffffffffffffffffffffffffffffff16600073ffffffffffffffffffffffffffffffffffffffff167f8be0079c531659141344cd1fd0a4f28419497f9722a3daafe3b4186f6b6457e060405160405180910390a3506100bf565b600033905090565b613e2680620000cf6000396000f3fe6080604052600436106100dd5760003560e01c8063715018a61161007f578063acc7b0d111610059578063acc7b0d1146105af578063c34902631461060c578063cc6bee5414610644578063f2fde38b1461066f576100dd565b8063715018a6146104235780638a72ea6a1461043a5780638da5cb5b14610558576100dd565b80632afaca20116100bb5780632afaca20146101ec57806351b4228314610244578063571a26a0146102c15780636dd2ac8414610396576100dd565b8063037dace4146100e25780631142919b146101655780631361a3b61461019d575b600080fd5b3480156100ee57600080fd5b5061014f6004803603608081101561010557600080fd5b81019080803573ffffffffffffffffffffffffffffffffffffffff1690602001909291908035906020019092919080359060200190929190803590602001909291905050506106c0565b6040518082815260200191505060405180910390f35b61019b6004803603604081101561017b57600080fd5b810190808035906020019092919080359060200190929190505050610a1a565b005b3480156101a957600080fd5b506101d6600480360360208110156101c057600080fd5b8101908080359060200190929190505050610e2e565b6040518082815260200191505060405180910390f35b6102426004803603606081101561020257600080fd5b8101908080359060200190929190803573ffffffffffffffffffffffffffffffffffffffff169060200190929190803590602001909291905050506111f9565b005b34801561025057600080fd5b506102a76004803603606081101561026757600080fd5b8101908080359060200190929190803573ffffffffffffffffffffffffffffffffffffffff16906020019092919080359060200190929190505050611dee565b604051808215151515815260200191505060405180910390f35b3480156102cd57600080fd5b506102fa600480360360208110156102e457600080fd5b81019080803590602001909291905050506121e2565b604051808873ffffffffffffffffffffffffffffffffffffffff1673ffffffffffffffffffffffffffffffffffffffff1681526020018773ffffffffffffffffffffffffffffffffffffffff1673ffffffffffffffffffffffffffffffffffffffff1681526020018681526020018581526020018481526020018381526020018215151515815260200197505050505050505060405180910390f35b3480156103a257600080fd5b5061040d600480360360a08110156103b957600080fd5b81019080803573ffffffffffffffffffffffffffffffffffffffff16906020019092919080359060200190929190803590602001909291908035906020019092919080359060200190929190505050612271565b6040518082815260200191505060405180910390f35b34801561042f57600080fd5b50610438612732565b005b34801561044657600080fd5b506104736004803603602081101561045d57600080fd5b81019080803590602001909291905050506128ba565b604051808b73ffffffffffffffffffffffffffffffffffffffff1673ffffffffffffffffffffffffffffffffffffffff1681526020018a73ffffffffffffffffffffffffffffffffffffffff1673ffffffffffffffffffffffffffffffffffffffff1681526020018981526020018873ffffffffffffffffffffffffffffffffffffffff1673ffffffffffffffffffffffffffffffffffffffff1681526020018781526020018615151515815260200185815260200184151515158152602001838152602001821515151581526020019a505050505050505050505060405180910390f35b34801561056457600080fd5b5061056d6129a2565b604051808273ffffffffffffffffffffffffffffffffffffffff1673ffffffffffffffffffffffffffffffffffffffff16815260200191505060405180910390f35b3480156105bb57600080fd5b506105f2600480360360408110156105d257600080fd5b8101908080359060200190929190803590602001909291905050506129cb565b604051808215151515815260200191505060405180910390f35b6106426004803603604081101561062257600080fd5b810190808035906020019092919080359060200190929190505050612c81565b005b34801561065057600080fd5b50610659613919565b6040518082815260200191505060405180910390f35b34801561067b57600080fd5b506106be6004803603602081101561069257600080fd5b81019080803573ffffffffffffffffffffffffffffffffffffffff169060200190929190505050613928565b005b600080859050838173ffffffffffffffffffffffffffffffffffffffff1662fdd58e33886040518363ffffffff1660e01b8152600401808373ffffffffffffffffffffffffffffffffffffffff1673ffffffffffffffffffffffffffffffffffffffff1681526020018281526020019250505060206040518083038186803b15801561074b57600080fd5b505afa15801561075f573d6000803e3d6000fd5b505050506040513d602081101561077557600080fd5b810190808051906020019092919050505010156107dd576040517f08c379a0000000000000000000000000000000000000000000000000000000008152600401808060200182810382526037815260200180613ca76037913960400191505060405180910390fd5b6107e5613b3d565b6040518061014001604052808873ffffffffffffffffffffffffffffffffffffffff1681526020018873ffffffffffffffffffffffffffffffffffffffff1681526020018781526020013373ffffffffffffffffffffffffffffffffffffffff1681526020018581526020016001151581526020018681526020016000151581526020016000815260200160001515815250905060018190806001815401808255809150506001900390600052602060002090600a020160009091909190915060008201518160000160006101000a81548173ffffffffffffffffffffffffffffffffffffffff021916908373ffffffffffffffffffffffffffffffffffffffff16021790555060208201518160010160006101000a81548173ffffffffffffffffffffffffffffffffffffffff021916908373ffffffffffffffffffffffffffffffffffffffff1602179055506040820151816002015560608201518160030160006101000a81548173ffffffffffffffffffffffffffffffffffffffff021916908373ffffffffffffffffffffffffffffffffffffffff1602179055506080820151816004015560a08201518160050160006101000a81548160ff02191690831515021790555060c0820151816006015560e08201518160070160006101000a81548160ff02191690831515021790555061010082015181600801556101208201518160090160006101000a81548160ff0219169083151502179055505050600180805490500392505050949350505050565b610a22613b35565b73ffffffffffffffffffffffffffffffffffffffff166000809054906101000a900473ffffffffffffffffffffffffffffffffffffffff1673ffffffffffffffffffffffffffffffffffffffff1614610ae3576040517f08c379a00000000000000000000000000000000000000000000000000000000081526004018080602001828103825260208152602001807f4f776e61626c653a2063616c6c6572206973206e6f7420746865206f776e657281525060200191505060405180910390fd5b610aeb613b3d565b60018381548110610af857fe5b90600052602060002090600a0201604051806101400160405290816000820160009054906101000a900473ffffffffffffffffffffffffffffffffffffffff1673ffffffffffffffffffffffffffffffffffffffff1673ffffffffffffffffffffffffffffffffffffffff1681526020016001820160009054906101000a900473ffffffffffffffffffffffffffffffffffffffff1673ffffffffffffffffffffffffffffffffffffffff1673ffffffffffffffffffffffffffffffffffffffff168152602001600282015481526020016003820160009054906101000a900473ffffffffffffffffffffffffffffffffffffffff1673ffffffffffffffffffffffffffffffffffffffff1673ffffffffffffffffffffffffffffffffffffffff168152602001600482015481526020016005820160009054906101000a900460ff16151515158152602001600682015481526020016007820160009054906101000a900460ff16151515158152602001600882015481526020016009820160009054906101000a900460ff161515151581525050905060018160e001901515908115158152505081816101000181815250508060018481548110610cb957fe5b90600052602060002090600a020160008201518160000160006101000a81548173ffffffffffffffffffffffffffffffffffffffff021916908373ffffffffffffffffffffffffffffffffffffffff16021790555060208201518160010160006101000a81548173ffffffffffffffffffffffffffffffffffffffff021916908373ffffffffffffffffffffffffffffffffffffffff1602179055506040820151816002015560608201518160030160006101000a81548173ffffffffffffffffffffffffffffffffffffffff021916908373ffffffffffffffffffffffffffffffffffffffff1602179055506080820151816004015560a08201518160050160006101000a81548160ff02191690831515021790555060c0820151816006015560e08201518160070160006101000a81548160ff02191690831515021790555061010082015181600801556101208201518160090160006101000a81548160ff021916908315150217905550905050505050565b6000610e38613b3d565b60018381548110610e4557fe5b90600052602060002090600a0201604051806101400160405290816000820160009054906101000a900473ffffffffffffffffffffffffffffffffffffffff1673ffffffffffffffffffffffffffffffffffffffff1673ffffffffffffffffffffffffffffffffffffffff1681526020016001820160009054906101000a900473ffffffffffffffffffffffffffffffffffffffff1673ffffffffffffffffffffffffffffffffffffffff1673ffffffffffffffffffffffffffffffffffffffff168152602001600282015481526020016003820160009054906101000a900473ffffffffffffffffffffffffffffffffffffffff1673ffffffffffffffffffffffffffffffffffffffff1673ffffffffffffffffffffffffffffffffffffffff168152602001600482015481526020016005820160009054906101000a900460ff16151515158152602001600682015481526020016007820160009054906101000a900460ff16151515158152602001600882015481526020016009820160009054906101000a900460ff1615151515815250509050806060015173ffffffffffffffffffffffffffffffffffffffff163373ffffffffffffffffffffffffffffffffffffffff1614611064576040517f08c379a000000000000000000000000000000000000000000000000000000000815260040180806020018281038252602a815260200180613d24602a913960400191505060405180910390fd5b60008160a0019015159081151581525050806001848154811061108357fe5b90600052602060002090600a020160008201518160000160006101000a81548173ffffffffffffffffffffffffffffffffffffffff021916908373ffffffffffffffffffffffffffffffffffffffff16021790555060208201518160010160006101000a81548173ffffffffffffffffffffffffffffffffffffffff021916908373ffffffffffffffffffffffffffffffffffffffff1602179055506040820151816002015560608201518160030160006101000a81548173ffffffffffffffffffffffffffffffffffffffff021916908373ffffffffffffffffffffffffffffffffffffffff1602179055506080820151816004015560a08201518160050160006101000a81548160ff02191690831515021790555060c0820151816006015560e08201518160070160006101000a81548160ff02191690831515021790555061010082015181600801556101208201518160090160006101000a81548160ff02191690831515021790555090505050919050565b611201613b3d565b6001848154811061120e57fe5b90600052602060002090600a0201604051806101400160405290816000820160009054906101000a900473ffffffffffffffffffffffffffffffffffffffff1673ffffffffffffffffffffffffffffffffffffffff1673ffffffffffffffffffffffffffffffffffffffff1681526020016001820160009054906101000a900473ffffffffffffffffffffffffffffffffffffffff1673ffffffffffffffffffffffffffffffffffffffff1673ffffffffffffffffffffffffffffffffffffffff168152602001600282015481526020016003820160009054906101000a900473ffffffffffffffffffffffffffffffffffffffff1673ffffffffffffffffffffffffffffffffffffffff1673ffffffffffffffffffffffffffffffffffffffff168152602001600482015481526020016005820160009054906101000a900460ff16151515158152602001600682015481526020016007820160009054906101000a900460ff16151515158152602001600882015481526020016009820160009054906101000a900460ff161515151581525050905060001515816101200151151514611407576040517f08c379a0000000000000000000000000000000000000000000000000000000008152600401808060200182810382526024815260200180613dcd6024913960400191505060405180910390fd5b600115158160a00151151514611485576040517f08c379a00000000000000000000000000000000000000000000000000000000081526004018080602001828103825260198152602001807f4f66666572206e6f7420696e2073616c6520616e796d6f72650000000000000081525060200191505060405180910390fd5b81816080015102341015611501576040517f08c379a00000000000000000000000000000000000000000000000000000000081526004018080602001828103825260108152602001807f4e6f7420656e6f7567682066756e64730000000000000000000000000000000081525060200191505060405180910390fd5b81816020015173ffffffffffffffffffffffffffffffffffffffff1662fdd58e836060015184604001516040518363ffffffff1660e01b8152600401808373ffffffffffffffffffffffffffffffffffffffff1673ffffffffffffffffffffffffffffffffffffffff1681526020018281526020019250505060206040518083038186803b15801561159257600080fd5b505afa1580156115a6573d6000803e3d6000fd5b505050506040513d60208110156115bc57600080fd5b81019080805190602001909291905050501015611624576040517f08c379a0000000000000000000000000000000000000000000000000000000008152600401808060200182810382526028815260200180613d4e6028913960400191505060405180910390fd5b60008160200151905060006126169050600115158360e0015115151415611652578261010001516127100390505b600083606001519050836060015173ffffffffffffffffffffffffffffffffffffffff168373ffffffffffffffffffffffffffffffffffffffff1663d48e638a86604001516040518263ffffffff1660e01b815260040180828152602001915050602060405180830381600087803b1580156116cd57600080fd5b505af11580156116e1573d6000803e3d6000fd5b505050506040513d60208110156116f757600080fd5b810190808051906020019092919050505073ffffffffffffffffffffffffffffffffffffffff16146117f8578073ffffffffffffffffffffffffffffffffffffffff166108fc61271084883402028161174c57fe5b049081150290604051600060405180830381858888f19350505050158015611778573d6000803e3d6000fd5b507fd4f43975feb89f48dd30cabbb32011045be187d1e11c8ea9faa43efc35282519816127108488340202816117aa57fe5b04604051808373ffffffffffffffffffffffffffffffffffffffff1673ffffffffffffffffffffffffffffffffffffffff1681526020018281526020019250505060405180910390a1611b5b565b8273ffffffffffffffffffffffffffffffffffffffff1663bb3bafd685604001516040518263ffffffff1660e01b815260040180828152602001915050602060405180830381600087803b15801561184f57600080fd5b505af1158015611863573d6000803e3d6000fd5b505050506040513d602081101561187957600080fd5b8101908080519060200190929190505050820391508073ffffffffffffffffffffffffffffffffffffffff166108fc6127108488340202816118b757fe5b049081150290604051600060405180830381858888f193505050501580156118e3573d6000803e3d6000fd5b507fd4f43975feb89f48dd30cabbb32011045be187d1e11c8ea9faa43efc352825198161271084883402028161191557fe5b04604051808373ffffffffffffffffffffffffffffffffffffffff1673ffffffffffffffffffffffffffffffffffffffff1681526020018281526020019250505060405180910390a16000846060015190508073ffffffffffffffffffffffffffffffffffffffff166108fc6127108673ffffffffffffffffffffffffffffffffffffffff1663bb3bafd689604001516040518263ffffffff1660e01b815260040180828152602001915050602060405180830381600087803b1580156119db57600080fd5b505af11580156119ef573d6000803e3d6000fd5b505050506040513d6020811015611a0557600080fd5b81019080805190602001909291905050508934020281611a2157fe5b049081150290604051600060405180830381858888f19350505050158015611a4d573d6000803e3d6000fd5b507f54b960faf8b038c33ba9912fdb9ac1e8e0096c5f327d1c89e62b5d9c5357ddb6816127108673ffffffffffffffffffffffffffffffffffffffff1663bb3bafd689604001516040518263ffffffff1660e01b815260040180828152602001915050602060405180830381600087803b158015611aca57600080fd5b505af1158015611ade573d6000803e3d6000fd5b505050506040513d6020811015611af457600080fd5b81019080805190602001909291905050508934020281611b1057fe5b04604051808373ffffffffffffffffffffffffffffffffffffffff1673ffffffffffffffffffffffffffffffffffffffff1681526020018281526020019250505060405180910390a1505b836020015173ffffffffffffffffffffffffffffffffffffffff1663f242432a8560600151888760400151896040518563ffffffff1660e01b8152600401808573ffffffffffffffffffffffffffffffffffffffff1673ffffffffffffffffffffffffffffffffffffffff1681526020018473ffffffffffffffffffffffffffffffffffffffff1673ffffffffffffffffffffffffffffffffffffffff1681526020018381526020018281526020018060200182810382526000815260200160200195505050505050600060405180830381600087803b158015611c3e57600080fd5b505af1158015611c52573d6000803e3d6000fd5b5050505060008460a00190151590811515815250508360018881548110611c7557fe5b90600052602060002090600a020160008201518160000160006101000a81548173ffffffffffffffffffffffffffffffffffffffff021916908373ffffffffffffffffffffffffffffffffffffffff16021790555060208201518160010160006101000a81548173ffffffffffffffffffffffffffffffffffffffff021916908373ffffffffffffffffffffffffffffffffffffffff1602179055506040820151816002015560608201518160030160006101000a81548173ffffffffffffffffffffffffffffffffffffffff021916908373ffffffffffffffffffffffffffffffffffffffff1602179055506080820151816004015560a08201518160050160006101000a81548160ff02191690831515021790555060c0820151816006015560e08201518160070160006101000a81548160ff02191690831515021790555061010082015181600801556101208201518160090160006101000a81548160ff02191690831515021790555090505050505050505050565b6000611df8613b35565b73ffffffffffffffffffffffffffffffffffffffff166000809054906101000a900473ffffffffffffffffffffffffffffffffffffffff1673ffffffffffffffffffffffffffffffffffffffff1614611eb9576040517f08c379a00000000000000000000000000000000000000000000000000000000081526004018080602001828103825260208152602001807f4f776e61626c653a2063616c6c6572206973206e6f7420746865206f776e657281525060200191505060405180910390fd5b600060026000868152602001908152602001600020905080600401548160030154014211611f4f576040517f08c379a00000000000000000000000000000000000000000000000000000000081526004018080602001828103825260148152602001807f41756374696f6e207374696c6c2061637469766500000000000000000000000081525060200191505060405180910390fd5b600115158160060160009054906101000a900460ff16151514611fda576040517f08c379a000000000000000000000000000000000000000000000000000000000815260040180806020018281038252601a8152602001807f41756374696f6e206e6f742061637469766520616e796d6f726500000000000081525060200191505060405180910390fd5b8060050154831015612054576040517f08c379a00000000000000000000000000000000000000000000000000000000081526004018080602001828103825260168152602001807f416d6f756e74206e6f74206869676820656e6f7567680000000000000000000081525060200191505060405180910390fd5b838160010160006101000a81548173ffffffffffffffffffffffffffffffffffffffff021916908373ffffffffffffffffffffffffffffffffffffffff16021790555082816002018190555080600260008781526020019081526020016000206000820160009054906101000a900473ffffffffffffffffffffffffffffffffffffffff168160000160006101000a81548173ffffffffffffffffffffffffffffffffffffffff021916908373ffffffffffffffffffffffffffffffffffffffff1602179055506001820160009054906101000a900473ffffffffffffffffffffffffffffffffffffffff168160010160006101000a81548173ffffffffffffffffffffffffffffffffffffffff021916908373ffffffffffffffffffffffffffffffffffffffff160217905550600282015481600201556003820154816003015560048201548160040155600582015481600501556006820160009054906101000a900460ff168160060160006101000a81548160ff021916908315150217905550905050509392505050565b60026020528060005260406000206000915090508060000160009054906101000a900473ffffffffffffffffffffffffffffffffffffffff16908060010160009054906101000a900473ffffffffffffffffffffffffffffffffffffffff16908060020154908060030154908060040154908060050154908060060160009054906101000a900460ff16905087565b600080869050848173ffffffffffffffffffffffffffffffffffffffff1662fdd58e33896040518363ffffffff1660e01b8152600401808373ffffffffffffffffffffffffffffffffffffffff1673ffffffffffffffffffffffffffffffffffffffff1681526020018281526020019250505060206040518083038186803b1580156122fc57600080fd5b505afa158015612310573d6000803e3d6000fd5b505050506040513d602081101561232657600080fd5b8101908080519060200190929190505050101561238e576040517f08c379a0000000000000000000000000000000000000000000000000000000008152600401808060200182810382526046815260200180613cde6046913960600191505060405180910390fd5b612396613b3d565b6040518061014001604052808973ffffffffffffffffffffffffffffffffffffffff1681526020018973ffffffffffffffffffffffffffffffffffffffff1681526020018881526020013373ffffffffffffffffffffffffffffffffffffffff168152602001600081526020016000151581526020018781526020016000151581526020016000815260200160011515815250905060018190806001815401808255809150506001900390600052602060002090600a020160009091909190915060008201518160000160006101000a81548173ffffffffffffffffffffffffffffffffffffffff021916908373ffffffffffffffffffffffffffffffffffffffff16021790555060208201518160010160006101000a81548173ffffffffffffffffffffffffffffffffffffffff021916908373ffffffffffffffffffffffffffffffffffffffff1602179055506040820151816002015560608201518160030160006101000a81548173ffffffffffffffffffffffffffffffffffffffff021916908373ffffffffffffffffffffffffffffffffffffffff1602179055506080820151816004015560a08201518160050160006101000a81548160ff02191690831515021790555060c0820151816006015560e08201518160070160006101000a81548160ff02191690831515021790555061010082015181600801556101208201518160090160006101000a81548160ff02191690831515021790555050506000600180805490500390506125cc613bd8565b6040518060e001604052803373ffffffffffffffffffffffffffffffffffffffff168152602001600073ffffffffffffffffffffffffffffffffffffffff16815260200160008152602001884201815260200187815260200160008152602001600115158152509050806002600084815260200190815260200160002060008201518160000160006101000a81548173ffffffffffffffffffffffffffffffffffffffff021916908373ffffffffffffffffffffffffffffffffffffffff16021790555060208201518160010160006101000a81548173ffffffffffffffffffffffffffffffffffffffff021916908373ffffffffffffffffffffffffffffffffffffffff16021790555060408201518160020155606082015181600301556080820151816004015560a0820151816005015560c08201518160060160006101000a81548160ff0219169083151502179055509050508194505050505095945050505050565b61273a613b35565b73ffffffffffffffffffffffffffffffffffffffff166000809054906101000a900473ffffffffffffffffffffffffffffffffffffffff1673ffffffffffffffffffffffffffffffffffffffff16146127fb576040517f08c379a00000000000000000000000000000000000000000000000000000000081526004018080602001828103825260208152602001807f4f776e61626c653a2063616c6c6572206973206e6f7420746865206f776e657281525060200191505060405180910390fd5b600073ffffffffffffffffffffffffffffffffffffffff166000809054906101000a900473ffffffffffffffffffffffffffffffffffffffff1673ffffffffffffffffffffffffffffffffffffffff167f8be0079c531659141344cd1fd0a4f28419497f9722a3daafe3b4186f6b6457e060405160405180910390a360008060006101000a81548173ffffffffffffffffffffffffffffffffffffffff021916908373ffffffffffffffffffffffffffffffffffffffff160217905550565b600181815481106128c757fe5b90600052602060002090600a02016000915090508060000160009054906101000a900473ffffffffffffffffffffffffffffffffffffffff16908060010160009054906101000a900473ffffffffffffffffffffffffffffffffffffffff16908060020154908060030160009054906101000a900473ffffffffffffffffffffffffffffffffffffffff16908060040154908060050160009054906101000a900460ff16908060060154908060070160009054906101000a900460ff16908060080154908060090160009054906101000a900460ff1690508a565b60008060009054906101000a900473ffffffffffffffffffffffffffffffffffffffff16905090565b60006129d5613b35565b73ffffffffffffffffffffffffffffffffffffffff166000809054906101000a900473ffffffffffffffffffffffffffffffffffffffff1673ffffffffffffffffffffffffffffffffffffffff1614612a96576040517f08c379a00000000000000000000000000000000000000000000000000000000081526004018080602001828103825260208152602001807f4f776e61626c653a2063616c6c6572206973206e6f7420746865206f776e657281525060200191505060405180910390fd5b60006002600085815260200190815260200160002090508060040154816003015401421115612b2d576040517f08c379a000000000000000000000000000000000000000000000000000000000815260040180806020018281038252600d8152602001807f41756374696f6e20656e6465640000000000000000000000000000000000000081525060200191505060405180910390fd5b82816004015401816004018190555080600260008681526020019081526020016000206000820160009054906101000a900473ffffffffffffffffffffffffffffffffffffffff168160000160006101000a81548173ffffffffffffffffffffffffffffffffffffffff021916908373ffffffffffffffffffffffffffffffffffffffff1602179055506001820160009054906101000a900473ffffffffffffffffffffffffffffffffffffffff168160010160006101000a81548173ffffffffffffffffffffffffffffffffffffffff021916908373ffffffffffffffffffffffffffffffffffffffff160217905550600282015481600201556003820154816003015560048201548160040155600582015481600501556006820160009054906101000a900460ff168160060160006101000a81548160ff021916908315150217905550905050600191505092915050565b6000600260008481526020019081526020016000209050612ca0613b3d565b60018481548110612cad57fe5b90600052602060002090600a0201604051806101400160405290816000820160009054906101000a900473ffffffffffffffffffffffffffffffffffffffff1673ffffffffffffffffffffffffffffffffffffffff1673ffffffffffffffffffffffffffffffffffffffff1681526020016001820160009054906101000a900473ffffffffffffffffffffffffffffffffffffffff1673ffffffffffffffffffffffffffffffffffffffff1673ffffffffffffffffffffffffffffffffffffffff168152602001600282015481526020016003820160009054906101000a900473ffffffffffffffffffffffffffffffffffffffff1673ffffffffffffffffffffffffffffffffffffffff1673ffffffffffffffffffffffffffffffffffffffff168152602001600482015481526020016005820160009054906101000a900460ff16151515158152602001600682015481526020016007820160009054906101000a900460ff16151515158152602001600882015481526020016009820160009054906101000a900460ff161515151581525050905060011515816101200151151514612ea6576040517f08c379a0000000000000000000000000000000000000000000000000000000008152600401808060200182810382526031815260200180613d766031913960400191505060405180910390fd5b81600201543414612f1f576040517f08c379a00000000000000000000000000000000000000000000000000000000081526004018080602001828103825260148152602001807f416d6f756e74206973206e6f7420656e6f75676800000000000000000000000081525060200191505060405180910390fd5b8160010160009054906101000a900473ffffffffffffffffffffffffffffffffffffffff1673ffffffffffffffffffffffffffffffffffffffff163373ffffffffffffffffffffffffffffffffffffffff1614612fe4576040517f08c379a00000000000000000000000000000000000000000000000000000000081526004018080602001828103825260168152602001807f55736572206973206e6f74207468652077696e6e65720000000000000000000081525060200191505060405180910390fd5b8160050154341015613041576040517f08c379a0000000000000000000000000000000000000000000000000000000008152600401808060200182810382526026815260200180613da76026913960400191505060405180910390fd5b600115158260060160009054906101000a900460ff161515146130cc576040517f08c379a000000000000000000000000000000000000000000000000000000000815260040180806020018281038252601a8152602001807f41756374696f6e206e6f742061637469766520616e796d6f726500000000000081525060200191505060405180910390fd5b828160c0015114613128576040517f08c379a000000000000000000000000000000000000000000000000000000000815260040180806020018281038252603d815260200180613c6a603d913960400191505060405180910390fd5b60008160200151905060006126169050600115158360e0015115151415613156578261010001516127100390505b600083606001519050836060015173ffffffffffffffffffffffffffffffffffffffff168373ffffffffffffffffffffffffffffffffffffffff1663d48e638a86604001516040518263ffffffff1660e01b815260040180828152602001915050602060405180830381600087803b1580156131d157600080fd5b505af11580156131e5573d6000803e3d6000fd5b505050506040513d60208110156131fb57600080fd5b810190808051906020019092919050505073ffffffffffffffffffffffffffffffffffffffff1614156132f9578073ffffffffffffffffffffffffffffffffffffffff166108fc6127108434028161324f57fe5b049081150290604051600060405180830381858888f1935050505015801561327b573d6000803e3d6000fd5b507fd4f43975feb89f48dd30cabbb32011045be187d1e11c8ea9faa43efc3528251981612710843402816132ab57fe5b04604051808373ffffffffffffffffffffffffffffffffffffffff1673ffffffffffffffffffffffffffffffffffffffff1681526020018281526020019250505060405180910390a1613654565b8273ffffffffffffffffffffffffffffffffffffffff1663bb3bafd685604001516040518263ffffffff1660e01b815260040180828152602001915050602060405180830381600087803b15801561335057600080fd5b505af1158015613364573d6000803e3d6000fd5b505050506040513d602081101561337a57600080fd5b8101908080519060200190929190505050820391508073ffffffffffffffffffffffffffffffffffffffff166108fc612710843402816133b657fe5b049081150290604051600060405180830381858888f193505050501580156133e2573d6000803e3d6000fd5b507fd4f43975feb89f48dd30cabbb32011045be187d1e11c8ea9faa43efc35282519816127108434028161341257fe5b04604051808373ffffffffffffffffffffffffffffffffffffffff1673ffffffffffffffffffffffffffffffffffffffff1681526020018281526020019250505060405180910390a16000846060015190508073ffffffffffffffffffffffffffffffffffffffff166108fc6127108673ffffffffffffffffffffffffffffffffffffffff1663bb3bafd689604001516040518263ffffffff1660e01b815260040180828152602001915050602060405180830381600087803b1580156134d857600080fd5b505af11580156134ec573d6000803e3d6000fd5b505050506040513d602081101561350257600080fd5b810190808051906020019092919050505034028161351c57fe5b049081150290604051600060405180830381858888f19350505050158015613548573d6000803e3d6000fd5b507f54b960faf8b038c33ba9912fdb9ac1e8e0096c5f327d1c89e62b5d9c5357ddb6816127108673ffffffffffffffffffffffffffffffffffffffff1663bb3bafd689604001516040518263ffffffff1660e01b815260040180828152602001915050602060405180830381600087803b1580156135c557600080fd5b505af11580156135d9573d6000803e3d6000fd5b505050506040513d60208110156135ef57600080fd5b810190808051906020019092919050505034028161360957fe5b04604051808373ffffffffffffffffffffffffffffffffffffffff1673ffffffffffffffffffffffffffffffffffffffff1681526020018281526020019250505060405180910390a1505b836020015173ffffffffffffffffffffffffffffffffffffffff1663f242432a85606001513387604001518a6040518563ffffffff1660e01b8152600401808573ffffffffffffffffffffffffffffffffffffffff1673ffffffffffffffffffffffffffffffffffffffff1681526020018473ffffffffffffffffffffffffffffffffffffffff1673ffffffffffffffffffffffffffffffffffffffff1681526020018381526020018281526020018060200182810382526000815260200160200195505050505050600060405180830381600087803b15801561373757600080fd5b505af115801561374b573d6000803e3d6000fd5b5050505060008460a0019015159081151581525050836001888154811061376e57fe5b90600052602060002090600a020160008201518160000160006101000a81548173ffffffffffffffffffffffffffffffffffffffff021916908373ffffffffffffffffffffffffffffffffffffffff16021790555060208201518160010160006101000a81548173ffffffffffffffffffffffffffffffffffffffff021916908373ffffffffffffffffffffffffffffffffffffffff1602179055506040820151816002015560608201518160030160006101000a81548173ffffffffffffffffffffffffffffffffffffffff021916908373ffffffffffffffffffffffffffffffffffffffff1602179055506080820151816004015560a08201518160050160006101000a81548160ff02191690831515021790555060c0820151816006015560e08201518160070160006101000a81548160ff02191690831515021790555061010082015181600801556101208201518160090160006101000a81548160ff02191690831515021790555090505060008560060160006101000a81548160ff02191690831515021790555060026000888152602001908152602001600020945050505050505050565b60006001808054905003905090565b613930613b35565b73ffffffffffffffffffffffffffffffffffffffff166000809054906101000a900473ffffffffffffffffffffffffffffffffffffffff1673ffffffffffffffffffffffffffffffffffffffff16146139f1576040517f08c379a00000000000000000000000000000000000000000000000000000000081526004018080602001828103825260208152602001807f4f776e61626c653a2063616c6c6572206973206e6f7420746865206f776e657281525060200191505060405180910390fd5b600073ffffffffffffffffffffffffffffffffffffffff168173ffffffffffffffffffffffffffffffffffffffff161415613a77576040517f08c379a0000000000000000000000000000000000000000000000000000000008152600401808060200182810382526026815260200180613c446026913960400191505060405180910390fd5b8073ffffffffffffffffffffffffffffffffffffffff166000809054906101000a900473ffffffffffffffffffffffffffffffffffffffff1673ffffffffffffffffffffffffffffffffffffffff167f8be0079c531659141344cd1fd0a4f28419497f9722a3daafe3b4186f6b6457e060405160405180910390a3806000806101000a81548173ffffffffffffffffffffffffffffffffffffffff021916908373ffffffffffffffffffffffffffffffffffffffff16021790555050565b600033905090565b604051806101400160405280600073ffffffffffffffffffffffffffffffffffffffff168152602001600073ffffffffffffffffffffffffffffffffffffffff16815260200160008152602001600073ffffffffffffffffffffffffffffffffffffffff1681526020016000815260200160001515815260200160008152602001600015158152602001600081526020016000151581525090565b6040518060e00160405280600073ffffffffffffffffffffffffffffffffffffffff168152602001600073ffffffffffffffffffffffffffffffffffffffff16815260200160008152602001600081526020016000815260200160008152602001600015158152509056fe4f776e61626c653a206e6577206f776e657220697320746865207a65726f206164647265737354686520616d6f756e74206f66206974656d7320697320646966666572656e742066726f6d20746865206f6e6573206f6e207468652061756374696f6e596f752061726520747279696e6720746f2073616c65206d6f7265206e667473207468617420746865206f6e657320796f752068617665596f752061726520747279696e6720746f20706c61636520696e20616e2061756374696f6e206d6f7265206e667473207468617420746865206f6e657320796f7520686176654f6e6c79206f666665722063726561746f722063616e2072656d6f76652069742066726f6d2073616c654f776e657220646964206e6f74206861766520656e6f75676820746f6b656e73206f6e2073616c65596f752063616e6e6f7420636c61696d20736f6d657468696e672074686174206973206e6f7420696e2061756374696f6e616d6f756e74206973206c6f776572207468617420746865206d696e696d756d207072696365596f752063616e6e6f74206275792077686174206973206f6e20616e2061756374696f6ea26469706673582212207def7cecb57a1e8b184eae1e910847f570c655f5eb9e4f4ee65fa649e9488e0e64736f6c63430006020033",
  "source": "pragma solidity ^0.6.2;\n\nimport \"@openzeppelin/contracts/token/ERC1155/ERC1155.sol\";\nimport \"@openzeppelin/contracts/utils/Counters.sol\";\nimport \"./SatoshiART1155.sol\";\nimport \"@openzeppelin/contracts/math/SafeMath.sol\";\nimport \"@openzeppelin/contracts/access/Ownable.sol\";\n\ncontract Engine is Ownable {\n    // table with offers\n    struct Offer {\n        address assetAddress; // address of the token\n        SatoshiART1155 asset; // token\n        uint256 id; // id (it is an ERC 1155)\n        address creator; // who creates the offer\n        uint256 price; // price of each token\n        bool onSale; // is on sale or not\n        uint256 amount; // amount of tokens for sale\n        bool isDropOfTheDay; // is the offer a drop of the day?\n        uint256 commisionDropOfTheDay; // the commision for the drop of the day. Instead of the standard 2.5% is set by the admin\n        bool isAuction; // is this offer for an auction of is a direct sale\n    }\n    Offer[] public offers;\n\n    // Auctions data. As there will be an auction for celebrities with timing of 10-30 minutes the auction will be handled offchain\n    struct Auction {\n        address creator; // who creates the auction\n        address bestBidder; // the address of the best bidder. Set in the SetWinner call\n        uint256 bestBidAmount; // the amount of the best bid. Set in the SetWinner call\n        uint256 startTime; // when the auction will start\n        uint256 duration; // duration in seconds\n        uint256 minimumPrice; // minimum price accepted for the auction\n        bool active; // is the auction active or not\n    }\n    mapping(uint256 => Auction) public auctions;\n\n    event Royalties(address receiver, uint256 amount);\n    event Payment(address receiver, uint256 amount);\n\n    // The owner of the token, put to sale some of the tokens\n    function putToSale(\n        address _assetAddress, // token address\n        uint256 _id, // id of the token\n        uint256 _amount, // amount of tokens put on sale\n        uint256 _price // desired price\n    ) public returns (uint256) {\n        SatoshiART1155 asset = SatoshiART1155(_assetAddress);\n        require(\n            asset.balanceOf(msg.sender, _id) >= _amount,\n            \"You are trying to sale more nfts that the ones you have\"\n        );\n\n        // Creates the offer, and sets the offer onSale = true\n        Offer memory offer =\n            Offer({\n                asset: SatoshiART1155(_assetAddress),\n                assetAddress: _assetAddress,\n                creator: msg.sender,\n                price: _price,\n                id: _id,\n                amount: _amount,\n                onSale: true,\n                isDropOfTheDay: false,\n                commisionDropOfTheDay: 0,\n                isAuction: false\n            });\n        offers.push(offer);\n        return offers.length - 1;\n    }\n\n    function removeFromSale(\n        uint256 _offerIndex // id of the offer\n    ) public returns (uint256) {\n        Offer memory offer = offers[_offerIndex];\n        require(\n            msg.sender == offer.creator,\n            \"Only offer creator can remove it from sale\"\n        );\n\n        offer.onSale = false;\n        offers[_offerIndex] = offer;\n    }\n\n    // Anyone can buy the tokens, as long the offer is onsale\n    function buy(\n        uint256 _offerIndex,\n        address _to,\n        uint256 _amount\n    ) public payable {\n        Offer memory offer = offers[_offerIndex];\n        require(\n            offer.isAuction == false,\n            \"You cannot buy what is on an auction\"\n        );\n        require(offer.onSale == true, \"Offer not in sale anymore\");\n        require(msg.value >= offer.price * _amount, \"Not enough funds\");\n        require(\n            offer.asset.balanceOf(offer.creator, offer.id) >= _amount,\n            \"Owner did not have enough tokens on sale\"\n        );\n\n        SatoshiART1155 asset = SatoshiART1155(offer.asset);\n\n        // commision structure still not defined\n        //    require(asset.getCreator(offer.id) != offer.creator, \"Creator of token should be first seller\");\n\n        // get tokens owner, who should receive the payment. It is the creator of the offer\n        uint256 commision = 9750;\n        if (offer.isDropOfTheDay == true)\n            commision = 10000 - offer.commisionDropOfTheDay;\n        address payable tokensOwner = payable(offer.creator);\n        if (asset.getCreator(offer.id) != offer.creator) {\n            // transfer the funds to token owner\n            tokensOwner.transfer((msg.value * _amount * commision) / 10000);\n            emit Payment(\n                tokensOwner,\n                (msg.value * _amount * commision) / 10000\n            );\n        } else {\n            //transfer the funds to token owner except the royalties, that goes to the creator\n            commision = commision - asset.getRoyalties(offer.id);\n            tokensOwner.transfer((msg.value * _amount * commision) / 10000);\n            emit Payment(\n                tokensOwner,\n                (msg.value * _amount * commision) / 10000\n            );\n            address payable artist = payable(offer.creator);\n            artist.transfer(\n                (msg.value * _amount * asset.getRoyalties(offer.id)) / 10000\n            );\n            emit Royalties(\n                artist,\n                (msg.value * _amount * asset.getRoyalties(offer.id)) / 10000\n            );\n        }\n        // transfer the tokens\n        offer.asset.safeTransferFrom(offer.creator, _to, offer.id, _amount, \"\");\n\n        // the sale has been made, so set it to false\n        offer.onSale = false;\n        offers[_offerIndex] = offer;\n    }\n\n    // a token can be set as drop of the day, with a different commision\n    function setDropOfTheDay(uint256 _offerIndex, uint256 _commisionInBps)\n        public onlyOwner\n        payable\n    {\n        Offer memory offer = offers[_offerIndex];\n        offer.isDropOfTheDay = true;\n        offer.commisionDropOfTheDay = _commisionInBps;\n        offers[_offerIndex] = offer;\n    }\n\n    function startAuction(\n        address _assetAddress, // token address\n        uint256 _id, // id of the token\n        uint256 _amount, // amount of tokens put on sale\n        uint256 _startDate,\n        uint256 _durationInSeconds\n    ) public returns (uint256) {\n         SatoshiART1155 asset = SatoshiART1155(_assetAddress);\n         require(\n            asset.balanceOf(msg.sender, _id) >= _amount,\n            \"You are trying to place in an auction more nfts that the ones you have\"\n        );\n\n        // Creates the offer, and sets the offer is auction = true\n        Offer memory offer =\n            Offer({\n                asset: SatoshiART1155(_assetAddress),\n                assetAddress: _assetAddress,\n                creator: msg.sender,\n                price: 0,\n                id: _id,\n                amount: _amount,\n                onSale: false,\n                isDropOfTheDay: false,\n                commisionDropOfTheDay: 0,\n                isAuction: true\n            });\n        offers.push(offer);        \n\n        uint256 _offerIndex = offers.length - 1;\n  \n        Auction memory auction =\n            Auction({\n                creator: msg.sender,\n                minimumPrice: 0,\n                bestBidAmount: 0,\n                startTime: now + _startDate,\n                duration: _durationInSeconds,\n                bestBidder: address(0),\n                active: true\n            });\n        auctions[_offerIndex] = auction;\n        \n        return _offerIndex;\n    }\n/*\n    /////////////////////////// AUCTIONS /////////////////\n    function startAuction(\n        uint256 _offerIndex,\n        uint256 _startDate,\n        uint256 _durationInSeconds\n    ) public {\n        // TODO check that only owner of offer can create an auction for that offer\n        Auction memory auction =\n            Auction({\n                creator: msg.sender,\n                minimumPrice: 0,\n                bestBidAmount: 0,\n                startTime: _startDate,\n                duration: _durationInSeconds,\n                bestBidder: address(0),\n                active: true\n            });\n        auctions[_offerIndex] = auction;\n\n        Offer memory offer = offers[_offerIndex];\n        offer.isAuction = true;\n        offers[_offerIndex] = offer;\n    }\n*/\n    // this call is made by the owner to set who wins the auction\n    function setWinner(\n        uint256 _offerIndex,\n        address _winner,\n        uint256 _amount\n    ) public onlyOwner returns (bool) {\n        Auction storage auction = auctions[_offerIndex];\n        // TODO check the owner is the one who calls\n        require(\n            now > auction.startTime + auction.duration,\n            \"Auction still active\"\n        );\n        require(auction.active == true, \"Auction not active anymore\");\n        require(_amount >= auction.minimumPrice, \"Amount not high enough\");\n        auction.bestBidder = _winner;\n        auction.bestBidAmount = _amount;\n        auctions[_offerIndex] = auction;\n    }\n\n    // The winner of the auction can claim the token\n    function claim(uint256 _offerIndex, uint256 _amount) external payable {\n        Auction storage auction = auctions[_offerIndex];\n        Offer memory offer = offers[_offerIndex];\n        require(\n            offer.isAuction == true,\n            \"You cannot claim something that is not in auction\"\n        );\n        require(\n            msg.value == auction.bestBidAmount ,\n            \"Amount is not enough\"\n        );\n        require(msg.sender == auction.bestBidder, \"User is not the winner\");\n        require(\n            msg.value >= auction.minimumPrice,\n            \"amount is lower that the minimum price\"\n        );\n        require(auction.active == true, \"Auction not active anymore\");\n        require(offer.amount == _amount, \"The amount of items is different from the ones on the auction\");\n\n        SatoshiART1155 asset = SatoshiART1155(offer.asset);\n\n        uint256 commision = 9750;\n        if (offer.isDropOfTheDay == true)\n            commision = 10000 - offer.commisionDropOfTheDay;\n        address payable tokensOwner = payable(offer.creator);\n        if (asset.getCreator(offer.id) == offer.creator) {\n            // transfer the funds to token owner\n            tokensOwner.transfer((msg.value * /*_amount **/ commision) / 10000);\n            emit Payment(\n                tokensOwner,\n                (msg.value * /*_amount **/ commision) / 10000\n            );\n        } else {\n            //transfer the funds to token owner except the royalties, that goes to the creator\n            commision = commision - asset.getRoyalties(offer.id);\n            tokensOwner.transfer((msg.value * /*_amount **/ commision) / 10000);\n            emit Payment(\n                tokensOwner,\n                (msg.value * /*_amount **/ commision) / 10000\n            );\n            address payable artist = payable(offer.creator);\n            artist.transfer(\n                (msg.value * /*_amount **/ asset.getRoyalties(offer.id)) / 10000\n            );\n            emit Royalties(\n                artist,\n                (msg.value * /*_amount **/ asset.getRoyalties(offer.id)) / 10000\n            );\n        }\n        // transfer the tokens\n        offer.asset.safeTransferFrom(\n            offer.creator,\n            msg.sender,\n            offer.id,\n            _amount,\n            \"\"\n        );\n\n        // the sale has been made, so set it to false\n        offer.onSale = false;\n        offers[_offerIndex] = offer;\n\n        auction.active = false;\n        auction = auctions[_offerIndex];\n    }\n\n    function numOffers() public view returns (uint256) {\n        return offers.length - 1;\n    }\n\n     function extendAuctionTime(\n        uint256 _offerIndex,\n        uint256 _durationInSeconds\n    ) public onlyOwner returns (bool) {\n        Auction storage auction = auctions[_offerIndex];\n        require(\n            now <= auction.startTime + auction.duration,\n            \"Auction ended\"\n        );\n        auction.duration = auction.duration + _durationInSeconds;\n        auctions[_offerIndex] = auction;\n        return true;\n    }\n\n}\n",
  "sourcePath": "/home/linux/ether/satoshi1155/contracts/engine.sol",
  "compiler": {
    "name": "solc",
    "version": "0.6.2+commit.bacdbe57.Emscripten.clang"
  },
  "schemaVersion": "3.3.4",
  "updatedAt": "2021-04-06T22:58:15.727Z",
  "networkType": "ethereum",
  "devdoc": {
    "methods": {
      "owner()": {
        "details": "Returns the address of the current owner."
      },
      "renounceOwnership()": {
        "details": "Leaves the contract without owner. It will not be possible to call `onlyOwner` functions anymore. Can only be called by the current owner.     * NOTE: Renouncing ownership will leave the contract without an owner, thereby removing any functionality that is only available to the owner."
      },
      "transferOwnership(address)": {
        "details": "Transfers ownership of the contract to a new account (`newOwner`). Can only be called by the current owner."
      }
    }
  },
  "userdoc": {
    "methods": {}
  }
}