{
  "contractName": "SatoshiART1155Marketplace",
  "abi": [
    {
      "inputs": [
        {
          "internalType": "address",
          "name": "satoshiART1155Address",
          "type": "address"
        }
      ],
      "stateMutability": "nonpayable",
      "type": "constructor"
    },
    {
      "anonymous": false,
      "inputs": [
        {
          "indexed": false,
          "internalType": "address",
          "name": "winner",
          "type": "address"
        },
        {
          "indexed": false,
          "internalType": "uint256",
          "name": "amount",
          "type": "uint256"
        }
      ],
      "name": "AuctionEnded",
      "type": "event"
    },
    {
      "anonymous": false,
      "inputs": [
        {
          "indexed": false,
          "internalType": "uint256",
          "name": "commission",
          "type": "uint256"
        }
      ],
      "name": "DefaultAuctionCommissionModified",
      "type": "event"
    },
    {
      "anonymous": false,
      "inputs": [
        {
          "indexed": false,
          "internalType": "uint256",
          "name": "commission",
          "type": "uint256"
        }
      ],
      "name": "DefaultCommissionModified",
      "type": "event"
    },
    {
      "anonymous": false,
      "inputs": [
        {
          "indexed": false,
          "internalType": "address",
          "name": "bidder",
          "type": "address"
        },
        {
          "indexed": false,
          "internalType": "uint256",
          "name": "amount",
          "type": "uint256"
        }
      ],
      "name": "HighestBidIncreased",
      "type": "event"
    },
    {
      "anonymous": false,
      "inputs": [
        {
          "indexed": false,
          "internalType": "uint256",
          "name": "amount",
          "type": "uint256"
        }
      ],
      "name": "PaymentWithdrawed",
      "type": "event"
    },
    {
      "anonymous": false,
      "inputs": [
        {
          "indexed": false,
          "internalType": "uint256",
          "name": "tokenId",
          "type": "uint256"
        },
        {
          "indexed": false,
          "internalType": "address",
          "name": "itemOwner",
          "type": "address"
        },
        {
          "indexed": false,
          "internalType": "address",
          "name": "buyer",
          "type": "address"
        }
      ],
      "name": "PurchaseConfirmed",
      "type": "event"
    },
    {
      "anonymous": false,
      "inputs": [
        {
          "indexed": true,
          "internalType": "bytes32",
          "name": "role",
          "type": "bytes32"
        },
        {
          "indexed": true,
          "internalType": "bytes32",
          "name": "previousAdminRole",
          "type": "bytes32"
        },
        {
          "indexed": true,
          "internalType": "bytes32",
          "name": "newAdminRole",
          "type": "bytes32"
        }
      ],
      "name": "RoleAdminChanged",
      "type": "event"
    },
    {
      "anonymous": false,
      "inputs": [
        {
          "indexed": true,
          "internalType": "bytes32",
          "name": "role",
          "type": "bytes32"
        },
        {
          "indexed": true,
          "internalType": "address",
          "name": "account",
          "type": "address"
        },
        {
          "indexed": true,
          "internalType": "address",
          "name": "sender",
          "type": "address"
        }
      ],
      "name": "RoleGranted",
      "type": "event"
    },
    {
      "anonymous": false,
      "inputs": [
        {
          "indexed": true,
          "internalType": "bytes32",
          "name": "role",
          "type": "bytes32"
        },
        {
          "indexed": true,
          "internalType": "address",
          "name": "account",
          "type": "address"
        },
        {
          "indexed": true,
          "internalType": "address",
          "name": "sender",
          "type": "address"
        }
      ],
      "name": "RoleRevoked",
      "type": "event"
    },
    {
      "inputs": [],
      "name": "DEFAULT_ADMIN_ROLE",
      "outputs": [
        {
          "internalType": "bytes32",
          "name": "",
          "type": "bytes32"
        }
      ],
      "stateMutability": "view",
      "type": "function",
      "constant": true
    },
    {
      "inputs": [],
      "name": "DROP_OF_THE_DAY_CREATOR_ROLE",
      "outputs": [
        {
          "internalType": "bytes32",
          "name": "",
          "type": "bytes32"
        }
      ],
      "stateMutability": "view",
      "type": "function",
      "constant": true
    },
    {
      "inputs": [
        {
          "internalType": "bytes32",
          "name": "role",
          "type": "bytes32"
        }
      ],
      "name": "getRoleAdmin",
      "outputs": [
        {
          "internalType": "bytes32",
          "name": "",
          "type": "bytes32"
        }
      ],
      "stateMutability": "view",
      "type": "function",
      "constant": true
    },
    {
      "inputs": [
        {
          "internalType": "bytes32",
          "name": "role",
          "type": "bytes32"
        },
        {
          "internalType": "address",
          "name": "account",
          "type": "address"
        }
      ],
      "name": "grantRole",
      "outputs": [],
      "stateMutability": "nonpayable",
      "type": "function"
    },
    {
      "inputs": [
        {
          "internalType": "bytes32",
          "name": "role",
          "type": "bytes32"
        },
        {
          "internalType": "address",
          "name": "account",
          "type": "address"
        }
      ],
      "name": "hasRole",
      "outputs": [
        {
          "internalType": "bool",
          "name": "",
          "type": "bool"
        }
      ],
      "stateMutability": "view",
      "type": "function",
      "constant": true
    },
    {
      "inputs": [
        {
          "internalType": "bytes32",
          "name": "role",
          "type": "bytes32"
        },
        {
          "internalType": "address",
          "name": "account",
          "type": "address"
        }
      ],
      "name": "renounceRole",
      "outputs": [],
      "stateMutability": "nonpayable",
      "type": "function"
    },
    {
      "inputs": [
        {
          "internalType": "bytes32",
          "name": "role",
          "type": "bytes32"
        },
        {
          "internalType": "address",
          "name": "account",
          "type": "address"
        }
      ],
      "name": "revokeRole",
      "outputs": [],
      "stateMutability": "nonpayable",
      "type": "function"
    },
    {
      "inputs": [],
      "name": "satoshiART1155",
      "outputs": [
        {
          "internalType": "contract ISatoshiART1155",
          "name": "",
          "type": "address"
        }
      ],
      "stateMutability": "view",
      "type": "function",
      "constant": true
    },
    {
      "inputs": [
        {
          "internalType": "bytes4",
          "name": "interfaceId",
          "type": "bytes4"
        }
      ],
      "name": "supportsInterface",
      "outputs": [
        {
          "internalType": "bool",
          "name": "",
          "type": "bool"
        }
      ],
      "stateMutability": "view",
      "type": "function",
      "constant": true
    },
    {
      "inputs": [],
      "name": "defaultCommission",
      "outputs": [
        {
          "internalType": "uint256",
          "name": "",
          "type": "uint256"
        }
      ],
      "stateMutability": "view",
      "type": "function",
      "constant": true
    },
    {
      "inputs": [],
      "name": "defaultAuctionCommission",
      "outputs": [
        {
          "internalType": "uint256",
          "name": "",
          "type": "uint256"
        }
      ],
      "stateMutability": "view",
      "type": "function",
      "constant": true
    },
    {
      "inputs": [
        {
          "internalType": "uint256",
          "name": "commission",
          "type": "uint256"
        }
      ],
      "name": "setDefaultCommission",
      "outputs": [
        {
          "internalType": "bool",
          "name": "",
          "type": "bool"
        }
      ],
      "stateMutability": "nonpayable",
      "type": "function"
    },
    {
      "inputs": [
        {
          "internalType": "uint256",
          "name": "commission",
          "type": "uint256"
        }
      ],
      "name": "setDefaultAuctionCommission",
      "outputs": [
        {
          "internalType": "bool",
          "name": "",
          "type": "bool"
        }
      ],
      "stateMutability": "nonpayable",
      "type": "function"
    },
    {
      "inputs": [
        {
          "internalType": "uint256",
          "name": "tokenId",
          "type": "uint256"
        },
        {
          "internalType": "uint256",
          "name": "price",
          "type": "uint256"
        }
      ],
      "name": "putOnSale",
      "outputs": [],
      "stateMutability": "nonpayable",
      "type": "function"
    },
    {
      "inputs": [
        {
          "internalType": "address",
          "name": "account",
          "type": "address"
        },
        {
          "internalType": "uint256",
          "name": "tokenId",
          "type": "uint256"
        }
      ],
      "name": "listingOf",
      "outputs": [
        {
          "internalType": "bytes1",
          "name": "",
          "type": "bytes1"
        },
        {
          "internalType": "uint256",
          "name": "",
          "type": "uint256"
        },
        {
          "internalType": "uint256",
          "name": "",
          "type": "uint256"
        },
        {
          "internalType": "uint256",
          "name": "",
          "type": "uint256"
        },
        {
          "internalType": "uint256",
          "name": "",
          "type": "uint256"
        },
        {
          "internalType": "bool",
          "name": "",
          "type": "bool"
        },
        {
          "internalType": "address",
          "name": "",
          "type": "address"
        },
        {
          "internalType": "uint256",
          "name": "",
          "type": "uint256"
        },
        {
          "internalType": "bool",
          "name": "",
          "type": "bool"
        }
      ],
      "stateMutability": "view",
      "type": "function",
      "constant": true
    },
    {
      "inputs": [
        {
          "internalType": "uint256",
          "name": "tokenId",
          "type": "uint256"
        },
        {
          "internalType": "address",
          "name": "itemOwner",
          "type": "address"
        }
      ],
      "name": "buy",
      "outputs": [
        {
          "internalType": "bool",
          "name": "",
          "type": "bool"
        }
      ],
      "stateMutability": "payable",
      "type": "function",
      "payable": true
    },
    {
      "inputs": [],
      "name": "withdrawPayment",
      "outputs": [
        {
          "internalType": "bool",
          "name": "",
          "type": "bool"
        }
      ],
      "stateMutability": "nonpayable",
      "type": "function"
    },
    {
      "inputs": [],
      "name": "withdrawBalance",
      "outputs": [
        {
          "internalType": "bool",
          "name": "",
          "type": "bool"
        }
      ],
      "stateMutability": "nonpayable",
      "type": "function"
    },
    {
      "inputs": [
        {
          "internalType": "address",
          "name": "user",
          "type": "address"
        }
      ],
      "name": "outstandingPayment",
      "outputs": [
        {
          "internalType": "uint256",
          "name": "",
          "type": "uint256"
        }
      ],
      "stateMutability": "view",
      "type": "function",
      "constant": true
    },
    {
      "inputs": [
        {
          "internalType": "uint256",
          "name": "tokenId",
          "type": "uint256"
        },
        {
          "internalType": "address",
          "name": "itemOwner",
          "type": "address"
        },
        {
          "internalType": "uint256",
          "name": "price",
          "type": "uint256"
        },
        {
          "internalType": "uint256",
          "name": "startTime",
          "type": "uint256"
        },
        {
          "internalType": "uint256",
          "name": "endTime",
          "type": "uint256"
        },
        {
          "internalType": "uint256",
          "name": "dropOfTheDayCommission",
          "type": "uint256"
        }
      ],
      "name": "setAsDropOfTheDay",
      "outputs": [],
      "stateMutability": "nonpayable",
      "type": "function"
    },
    {
      "inputs": [
        {
          "internalType": "uint256",
          "name": "tokenId",
          "type": "uint256"
        },
        {
          "internalType": "address",
          "name": "itemOwner",
          "type": "address"
        }
      ],
      "name": "dropOfTheDayBuy",
      "outputs": [
        {
          "internalType": "bool",
          "name": "",
          "type": "bool"
        }
      ],
      "stateMutability": "payable",
      "type": "function",
      "payable": true
    },
    {
      "inputs": [
        {
          "internalType": "uint256",
          "name": "tokenId",
          "type": "uint256"
        },
        {
          "internalType": "uint256",
          "name": "price",
          "type": "uint256"
        },
        {
          "internalType": "uint256",
          "name": "startTime",
          "type": "uint256"
        },
        {
          "internalType": "uint256",
          "name": "endTime",
          "type": "uint256"
        }
      ],
      "name": "setAsAuction",
      "outputs": [],
      "stateMutability": "nonpayable",
      "type": "function"
    },
    {
      "inputs": [
        {
          "internalType": "uint256",
          "name": "tokenId",
          "type": "uint256"
        },
        {
          "internalType": "address",
          "name": "itemOwner",
          "type": "address"
        },
        {
          "internalType": "uint256",
          "name": "price",
          "type": "uint256"
        },
        {
          "internalType": "uint256",
          "name": "startTime",
          "type": "uint256"
        },
        {
          "internalType": "uint256",
          "name": "endTime",
          "type": "uint256"
        },
        {
          "internalType": "uint256",
          "name": "auctionCommission",
          "type": "uint256"
        }
      ],
      "name": "setAsDropOfTheDayAuction",
      "outputs": [],
      "stateMutability": "nonpayable",
      "type": "function"
    },
    {
      "inputs": [
        {
          "internalType": "uint256",
          "name": "tokenId",
          "type": "uint256"
        },
        {
          "internalType": "address",
          "name": "itemOwner",
          "type": "address"
        }
      ],
      "name": "bid",
      "outputs": [],
      "stateMutability": "payable",
      "type": "function",
      "payable": true
    },
    {
      "inputs": [
        {
          "internalType": "uint256",
          "name": "tokenId",
          "type": "uint256"
        },
        {
          "internalType": "address",
          "name": "itemOwner",
          "type": "address"
        }
      ],
      "name": "auctionEnd",
      "outputs": [],
      "stateMutability": "nonpayable",
      "type": "function"
    },
    {
      "inputs": [
        {
          "internalType": "uint256",
          "name": "tokenId",
          "type": "uint256"
        },
        {
          "internalType": "uint256",
          "name": "newEndTime",
          "type": "uint256"
        }
      ],
      "name": "setDropOfTheDayAuctionEndTime",
      "outputs": [],
      "stateMutability": "nonpayable",
      "type": "function"
    }
  ],
  "bytecode": "0x60806040523480156200001157600080fd5b506040516200603a3803806200603a833981810160405281019062000037919062000234565b80600260006101000a81548173ffffffffffffffffffffffffffffffffffffffff021916908373ffffffffffffffffffffffffffffffffffffffff1602179055506200008d6000801b33620000a460201b60201c565b60fa60048190555060fa60058190555050620002ae565b620000b68282620000ba60201b60201c565b5050565b620000cc8282620001ab60201b60201c565b620001a757600160008084815260200190815260200160002060000160008373ffffffffffffffffffffffffffffffffffffffff1673ffffffffffffffffffffffffffffffffffffffff16815260200190815260200160002060006101000a81548160ff0219169083151502179055506200014c6200021560201b60201c565b73ffffffffffffffffffffffffffffffffffffffff168173ffffffffffffffffffffffffffffffffffffffff16837f2f8788117e7eff1d82e926ec794901d17c78024a50270940304540a733656f0d60405160405180910390a45b5050565b600080600084815260200190815260200160002060000160008373ffffffffffffffffffffffffffffffffffffffff1673ffffffffffffffffffffffffffffffffffffffff16815260200190815260200160002060009054906101000a900460ff16905092915050565b600033905090565b6000815190506200022e8162000294565b92915050565b6000602082840312156200024757600080fd5b600062000257848285016200021d565b91505092915050565b60006200026d8262000274565b9050919050565b600073ffffffffffffffffffffffffffffffffffffffff82169050919050565b6200029f8162000260565b8114620002ab57600080fd5b50565b615d7c80620002be6000396000f3fe6080604052600436106101815760003560e01c806391d14854116100d1578063b444bba51161008a578063d31406fc11610064578063d31406fc146105af578063d547741f146105d8578063e6119a4a14610601578063e8ce95a11461062a57610181565b8063b444bba514610530578063ca848c231461055b578063d0b7d2c31461058657610181565b806391d148541461040757806393b92af21461044457806399e94548146104815780639f04996d146104be578063a118babd146104da578063a217fddf1461050557610181565b806336568abe1161013e5780635fd8c710116101185780635fd8c7101461035857806364f635ce146103835780637deb6025146103ae5780638c7b1857146103de57610181565b806336568abe146102c957806336f7992b146102f25780635a96a2a91461031b57610181565b806301ffc9a71461018657806313653f97146101c35780631e57da2a146101ee578063216f2f241461021e578063248a9ca3146102635780632f2ff15d146102a0575b600080fd5b34801561019257600080fd5b506101ad60048036038101906101a89190614422565b610653565b6040516101ba91906154c5565b60405180910390f35b3480156101cf57600080fd5b506101d86106cd565b6040516101e5919061556d565b60405180910390f35b6102086004803603810190610203919061449d565b6106f1565b60405161021591906154c5565b60405180910390f35b34801561022a57600080fd5b5061024560048036038101906102409190614381565b61104c565b60405161025a999897969594939291906154e0565b60405180910390f35b34801561026f57600080fd5b5061028a600480360381019061028591906143bd565b611290565b604051610297919061556d565b60405180910390f35b3480156102ac57600080fd5b506102c760048036038101906102c291906143e6565b6112af565b005b3480156102d557600080fd5b506102f060048036038101906102eb91906143e6565b611315565b005b3480156102fe57600080fd5b5061031960048036038101906103149190614562565b611398565b005b34801561032757600080fd5b50610342600480360381019061033d919061432f565b6116b1565b60405161034f9190615a23565b60405180910390f35b34801561036457600080fd5b5061036d6116fa565b60405161037a91906154c5565b60405180910390f35b34801561038f57600080fd5b50610398611792565b6040516103a59190615a23565b60405180910390f35b6103c860048036038101906103c3919061449d565b61179c565b6040516103d591906154c5565b60405180910390f35b3480156103ea57600080fd5b506104056004803603810190610400919061449d565b612003565b005b34801561041357600080fd5b5061042e600480360381019061042991906143e6565b6129eb565b60405161043b91906154c5565b60405180910390f35b34801561045057600080fd5b5061046b6004803603810190610466919061444b565b612a55565b60405161047891906154c5565b60405180910390f35b34801561048d57600080fd5b506104a860048036038101906104a3919061444b565b612b3e565b6040516104b591906154c5565b60405180910390f35b6104d860048036038101906104d3919061449d565b612c27565b005b3480156104e657600080fd5b506104ef613181565b6040516104fc91906154c5565b60405180910390f35b34801561051157600080fd5b5061051a613316565b604051610527919061556d565b60405180910390f35b34801561053c57600080fd5b5061054561331d565b6040516105529190615a23565b60405180910390f35b34801561056757600080fd5b50610570613327565b60405161057d9190615588565b60405180910390f35b34801561059257600080fd5b506105ad60048036038101906105a89190614562565b61334d565b005b3480156105bb57600080fd5b506105d660048036038101906105d1919061459e565b6134a7565b005b3480156105e457600080fd5b506105ff60048036038101906105fa91906143e6565b613888565b005b34801561060d57600080fd5b50610628600480360381019061062391906144d9565b6138ee565b005b34801561063657600080fd5b50610651600480360381019061064c91906144d9565b613c52565b005b60007f7965db0b000000000000000000000000000000000000000000000000000000007bffffffffffffffffffffffffffffffffffffffffffffffffffffffff1916827bffffffffffffffffffffffffffffffffffffffffffffffffffffffff191614806106c657506106c58261407e565b5b9050919050565b7f2b9b3b53865d9437a24097d0400845ce111bd43f6ef71750c962886da6258ce881565b60008073ffffffffffffffffffffffffffffffffffffffff163373ffffffffffffffffffffffffffffffffffffffff161415610762576040517f08c379a000000000000000000000000000000000000000000000000000000000815260040161075990615983565b60405180910390fd5b600160f81b6001600085815260200190815260200160002060008473ffffffffffffffffffffffffffffffffffffffff1673ffffffffffffffffffffffffffffffffffffffff16815260200190815260200160002060000160009054906101000a900460f81b7effffffffffffffffffffffffffffffffffffffffffffffffffffffffffffff19161461082a576040517f08c379a000000000000000000000000000000000000000000000000000000000815260040161082190615703565b60405180910390fd5b6001600260009054906101000a900473ffffffffffffffffffffffffffffffffffffffff1673ffffffffffffffffffffffffffffffffffffffff1662fdd58e84866040518363ffffffff1660e01b815260040161088892919061549c565b60206040518083038186803b1580156108a057600080fd5b505afa1580156108b4573d6000803e3d6000fd5b505050506040513d601f19601f820116820180604052508101906108d89190614474565b1015610919576040517f08c379a0000000000000000000000000000000000000000000000000000000008152600401610910906156e3565b60405180910390fd5b6001600084815260200190815260200160002060008373ffffffffffffffffffffffffffffffffffffffff1673ffffffffffffffffffffffffffffffffffffffff168152602001908152602001600020600101543410156109af576040517f08c379a00000000000000000000000000000000000000000000000000000000081526004016109a6906157e3565b60405180910390fd5b6001600084815260200190815260200160002060008373ffffffffffffffffffffffffffffffffffffffff1673ffffffffffffffffffffffffffffffffffffffff168152602001908152602001600020600201544210158015610a6557506001600084815260200190815260200160002060008373ffffffffffffffffffffffffffffffffffffffff1673ffffffffffffffffffffffffffffffffffffffff168152602001908152602001600020600301544211155b610aa4576040517f08c379a0000000000000000000000000000000000000000000000000000000008152600401610a9b906159a3565b60405180910390fd5b6001600084815260200190815260200160002060008373ffffffffffffffffffffffffffffffffffffffff1673ffffffffffffffffffffffffffffffffffffffff16815260200190815260200160002060050160009054906101000a900460ff16610b44576040517f08c379a0000000000000000000000000000000000000000000000000000000008152600401610b3b906157a3565b60405180910390fd5b600060f81b6001600085815260200190815260200160002060008473ffffffffffffffffffffffffffffffffffffffff1673ffffffffffffffffffffffffffffffffffffffff16815260200190815260200160002060000160006101000a81548160ff021916908360f81c02179055507f7adb1dc5acbe974a16d89364d6d86202407208c18444ece41a9f921854ce80ce838333604051610be793929190615a3e565b60405180910390a1600260009054906101000a900473ffffffffffffffffffffffffffffffffffffffff1673ffffffffffffffffffffffffffffffffffffffff1663f242432a83338660016040518563ffffffff1660e01b8152600401610c519493929190615444565b600060405180830381600087803b158015610c6b57600080fd5b505af1158015610c7f573d6000803e3d6000fd5b5050505060006127106001600086815260200190815260200160002060008573ffffffffffffffffffffffffffffffffffffffff1673ffffffffffffffffffffffffffffffffffffffff1681526020019081526020016000206004015434610ce79190615b1e565b610cf19190615aed565b90506000612710600260009054906101000a900473ffffffffffffffffffffffffffffffffffffffff1673ffffffffffffffffffffffffffffffffffffffff16631ff4a420876040518263ffffffff1660e01b8152600401610d539190615a23565b60206040518083038186803b158015610d6b57600080fd5b505afa158015610d7f573d6000803e3d6000fd5b505050506040513d601f19601f82011682018060405250810190610da39190614474565b34610dae9190615b1e565b610db89190615aed565b90508060036000600260009054906101000a900473ffffffffffffffffffffffffffffffffffffffff1673ffffffffffffffffffffffffffffffffffffffff166340c1a064896040518263ffffffff1660e01b8152600401610e1a9190615a23565b60206040518083038186803b158015610e3257600080fd5b505afa158015610e46573d6000803e3d6000fd5b505050506040513d601f19601f82011682018060405250810190610e6a9190614358565b73ffffffffffffffffffffffffffffffffffffffff1673ffffffffffffffffffffffffffffffffffffffff16815260200190815260200160002054610eaf9190615a97565b60036000600260009054906101000a900473ffffffffffffffffffffffffffffffffffffffff1673ffffffffffffffffffffffffffffffffffffffff166340c1a064896040518263ffffffff1660e01b8152600401610f0e9190615a23565b60206040518083038186803b158015610f2657600080fd5b505afa158015610f3a573d6000803e3d6000fd5b505050506040513d601f19601f82011682018060405250810190610f5e9190614358565b73ffffffffffffffffffffffffffffffffffffffff1673ffffffffffffffffffffffffffffffffffffffff16815260200190815260200160002081905550808234610fa99190615b78565b610fb39190615b78565b600360008673ffffffffffffffffffffffffffffffffffffffff1673ffffffffffffffffffffffffffffffffffffffff16815260200190815260200160002054610ffd9190615a97565b600360008673ffffffffffffffffffffffffffffffffffffffff1673ffffffffffffffffffffffffffffffffffffffff1681526020019081526020016000208190555060019250505092915050565b60008060008060008060008060008073ffffffffffffffffffffffffffffffffffffffff168b73ffffffffffffffffffffffffffffffffffffffff1614156110c9576040517f08c379a00000000000000000000000000000000000000000000000000000000081526004016110c090615603565b60405180910390fd5b6000600160008c815260200190815260200160002060008d73ffffffffffffffffffffffffffffffffffffffff1673ffffffffffffffffffffffffffffffffffffffff168152602001908152602001600020604051806101200160405290816000820160009054906101000a900460f81b7effffffffffffffffffffffffffffffffffffffffffffffffffffffffffffff19167effffffffffffffffffffffffffffffffffffffffffffffffffffffffffffff19168152602001600182015481526020016002820154815260200160038201548152602001600482015481526020016005820160009054906101000a900460ff161515151581526020016005820160019054906101000a900473ffffffffffffffffffffffffffffffffffffffff1673ffffffffffffffffffffffffffffffffffffffff1673ffffffffffffffffffffffffffffffffffffffff168152602001600682015481526020016007820160009054906101000a900460ff1615151515815250509050806000015181602001518260400151836060015184608001518560a001518660c001518760e00151886101000151995099509950995099509950995099509950509295985092959850929598565b6000806000838152602001908152602001600020600101549050919050565b6112c86112bb83611290565b6112c36140e8565b6129eb565b611307576040517f08c379a00000000000000000000000000000000000000000000000000000000081526004016112fe906155e3565b60405180910390fd5b61131182826140f0565b5050565b61131d6140e8565b73ffffffffffffffffffffffffffffffffffffffff168173ffffffffffffffffffffffffffffffffffffffff161461138a576040517f08c379a000000000000000000000000000000000000000000000000000000000815260040161138190615a03565b60405180910390fd5b61139482826141d0565b5050565b600073ffffffffffffffffffffffffffffffffffffffff163373ffffffffffffffffffffffffffffffffffffffff161415611408576040517f08c379a00000000000000000000000000000000000000000000000000000000081526004016113ff90615643565b60405180910390fd5b6001600260009054906101000a900473ffffffffffffffffffffffffffffffffffffffff1673ffffffffffffffffffffffffffffffffffffffff1662fdd58e33856040518363ffffffff1660e01b815260040161146692919061549c565b60206040518083038186803b15801561147e57600080fd5b505afa158015611492573d6000803e3d6000fd5b505050506040513d601f19601f820116820180604052508101906114b69190614474565b10156114f7576040517f08c379a00000000000000000000000000000000000000000000000000000000081526004016114ee90615763565b60405180910390fd5b604051806101200160405280600160f81b7effffffffffffffffffffffffffffffffffffffffffffffffffffffffffffff1916815260200182815260200160008152602001600081526020016004548152602001600015158152602001600073ffffffffffffffffffffffffffffffffffffffff16815260200160008152602001600015158152506001600084815260200190815260200160002060003373ffffffffffffffffffffffffffffffffffffffff1673ffffffffffffffffffffffffffffffffffffffff16815260200190815260200160002060008201518160000160006101000a81548160ff021916908360f81c02179055506020820151816001015560408201518160020155606082015181600301556080820151816004015560a08201518160050160006101000a81548160ff02191690831515021790555060c08201518160050160016101000a81548173ffffffffffffffffffffffffffffffffffffffff021916908373ffffffffffffffffffffffffffffffffffffffff16021790555060e082015181600601556101008201518160070160006101000a81548160ff0219169083151502179055509050505050565b6000600360008373ffffffffffffffffffffffffffffffffffffffff1673ffffffffffffffffffffffffffffffffffffffff168152602001908152602001600020549050919050565b60006117096000801b336129eb565b611748576040517f08c379a000000000000000000000000000000000000000000000000000000000815260040161173f90615903565b60405180910390fd5b3373ffffffffffffffffffffffffffffffffffffffff166108fc479081150290604051600060405180830381858888f1935050505061178a576000905061178f565b600190505b90565b6000600554905090565b60008073ffffffffffffffffffffffffffffffffffffffff163373ffffffffffffffffffffffffffffffffffffffff16141561180d576040517f08c379a000000000000000000000000000000000000000000000000000000000815260040161180490615983565b60405180910390fd5b600160f81b6001600085815260200190815260200160002060008473ffffffffffffffffffffffffffffffffffffffff1673ffffffffffffffffffffffffffffffffffffffff16815260200190815260200160002060000160009054906101000a900460f81b7effffffffffffffffffffffffffffffffffffffffffffffffffffffffffffff1916146118d5576040517f08c379a00000000000000000000000000000000000000000000000000000000081526004016118cc906158e3565b60405180910390fd5b6001600260009054906101000a900473ffffffffffffffffffffffffffffffffffffffff1673ffffffffffffffffffffffffffffffffffffffff1662fdd58e84866040518363ffffffff1660e01b815260040161193392919061549c565b60206040518083038186803b15801561194b57600080fd5b505afa15801561195f573d6000803e3d6000fd5b505050506040513d601f19601f820116820180604052508101906119839190614474565b10156119c4576040517f08c379a00000000000000000000000000000000000000000000000000000000081526004016119bb906157c3565b60405180910390fd5b6001600084815260200190815260200160002060008373ffffffffffffffffffffffffffffffffffffffff1673ffffffffffffffffffffffffffffffffffffffff16815260200190815260200160002060010154341015611a5a576040517f08c379a0000000000000000000000000000000000000000000000000000000008152600401611a5190615963565b60405180910390fd5b6001600084815260200190815260200160002060008373ffffffffffffffffffffffffffffffffffffffff1673ffffffffffffffffffffffffffffffffffffffff16815260200190815260200160002060050160009054906101000a900460ff1615611afb576040517f08c379a0000000000000000000000000000000000000000000000000000000008152600401611af2906155a3565b60405180910390fd5b600060f81b6001600085815260200190815260200160002060008473ffffffffffffffffffffffffffffffffffffffff1673ffffffffffffffffffffffffffffffffffffffff16815260200190815260200160002060000160006101000a81548160ff021916908360f81c02179055507f7adb1dc5acbe974a16d89364d6d86202407208c18444ece41a9f921854ce80ce838333604051611b9e93929190615a3e565b60405180910390a1600260009054906101000a900473ffffffffffffffffffffffffffffffffffffffff1673ffffffffffffffffffffffffffffffffffffffff1663f242432a83338660016040518563ffffffff1660e01b8152600401611c089493929190615444565b600060405180830381600087803b158015611c2257600080fd5b505af1158015611c36573d6000803e3d6000fd5b5050505060006127106001600086815260200190815260200160002060008573ffffffffffffffffffffffffffffffffffffffff1673ffffffffffffffffffffffffffffffffffffffff1681526020019081526020016000206004015434611c9e9190615b1e565b611ca89190615aed565b90506000612710600260009054906101000a900473ffffffffffffffffffffffffffffffffffffffff1673ffffffffffffffffffffffffffffffffffffffff16631ff4a420876040518263ffffffff1660e01b8152600401611d0a9190615a23565b60206040518083038186803b158015611d2257600080fd5b505afa158015611d36573d6000803e3d6000fd5b505050506040513d601f19601f82011682018060405250810190611d5a9190614474565b34611d659190615b1e565b611d6f9190615aed565b90508060036000600260009054906101000a900473ffffffffffffffffffffffffffffffffffffffff1673ffffffffffffffffffffffffffffffffffffffff166340c1a064896040518263ffffffff1660e01b8152600401611dd19190615a23565b60206040518083038186803b158015611de957600080fd5b505afa158015611dfd573d6000803e3d6000fd5b505050506040513d601f19601f82011682018060405250810190611e219190614358565b73ffffffffffffffffffffffffffffffffffffffff1673ffffffffffffffffffffffffffffffffffffffff16815260200190815260200160002054611e669190615a97565b60036000600260009054906101000a900473ffffffffffffffffffffffffffffffffffffffff1673ffffffffffffffffffffffffffffffffffffffff166340c1a064896040518263ffffffff1660e01b8152600401611ec59190615a23565b60206040518083038186803b158015611edd57600080fd5b505afa158015611ef1573d6000803e3d6000fd5b505050506040513d601f19601f82011682018060405250810190611f159190614358565b73ffffffffffffffffffffffffffffffffffffffff1673ffffffffffffffffffffffffffffffffffffffff16815260200190815260200160002081905550808234611f609190615b78565b611f6a9190615b78565b600360008673ffffffffffffffffffffffffffffffffffffffff1673ffffffffffffffffffffffffffffffffffffffff16815260200190815260200160002054611fb49190615a97565b600360008673ffffffffffffffffffffffffffffffffffffffff1673ffffffffffffffffffffffffffffffffffffffff1681526020019081526020016000208190555060019250505092915050565b6120106000801b336129eb565b61204f576040517f08c379a000000000000000000000000000000000000000000000000000000000815260040161204690615663565b60405180910390fd5b600260f81b6001600084815260200190815260200160002060008373ffffffffffffffffffffffffffffffffffffffff1673ffffffffffffffffffffffffffffffffffffffff16815260200190815260200160002060000160009054906101000a900460f81b7effffffffffffffffffffffffffffffffffffffffffffffffffffffffffffff191614612117576040517f08c379a000000000000000000000000000000000000000000000000000000000815260040161210e90615783565b60405180910390fd5b6001600083815260200190815260200160002060008273ffffffffffffffffffffffffffffffffffffffff1673ffffffffffffffffffffffffffffffffffffffff168152602001908152602001600020600301544210156121ad576040517f08c379a00000000000000000000000000000000000000000000000000000000081526004016121a4906156c3565b60405180910390fd5b6001600083815260200190815260200160002060008273ffffffffffffffffffffffffffffffffffffffff1673ffffffffffffffffffffffffffffffffffffffff16815260200190815260200160002060070160009054906101000a900460ff161561224e576040517f08c379a000000000000000000000000000000000000000000000000000000000815260040161224590615843565b60405180910390fd5b600180600084815260200190815260200160002060008373ffffffffffffffffffffffffffffffffffffffff1673ffffffffffffffffffffffffffffffffffffffff16815260200190815260200160002060070160006101000a81548160ff021916908315150217905550600060f81b6001600084815260200190815260200160002060008373ffffffffffffffffffffffffffffffffffffffff1673ffffffffffffffffffffffffffffffffffffffff16815260200190815260200160002060000160006101000a81548160ff021916908360f81c02179055507fdaec4582d5d9595688c8c98545fdd1c696d41c6aeaeb636737e84ed2f5c00eda6001600084815260200190815260200160002060008373ffffffffffffffffffffffffffffffffffffffff1673ffffffffffffffffffffffffffffffffffffffff16815260200190815260200160002060050160019054906101000a900473ffffffffffffffffffffffffffffffffffffffff166001600085815260200190815260200160002060008473ffffffffffffffffffffffffffffffffffffffff1673ffffffffffffffffffffffffffffffffffffffff1681526020019081526020016000206006015460405161242092919061549c565b60405180910390a1600260009054906101000a900473ffffffffffffffffffffffffffffffffffffffff1673ffffffffffffffffffffffffffffffffffffffff1663f242432a826001600086815260200190815260200160002060008573ffffffffffffffffffffffffffffffffffffffff1673ffffffffffffffffffffffffffffffffffffffff16815260200190815260200160002060050160019054906101000a900473ffffffffffffffffffffffffffffffffffffffff168560016040518563ffffffff1660e01b81526004016124fd9493929190615444565b600060405180830381600087803b15801561251757600080fd5b505af115801561252b573d6000803e3d6000fd5b5050505060006127106001600085815260200190815260200160002060008473ffffffffffffffffffffffffffffffffffffffff1673ffffffffffffffffffffffffffffffffffffffff168152602001908152602001600020600401546001600086815260200190815260200160002060008573ffffffffffffffffffffffffffffffffffffffff1673ffffffffffffffffffffffffffffffffffffffff168152602001908152602001600020600601546125e69190615b1e565b6125f09190615aed565b90506000612710600260009054906101000a900473ffffffffffffffffffffffffffffffffffffffff1673ffffffffffffffffffffffffffffffffffffffff16631ff4a420866040518263ffffffff1660e01b81526004016126529190615a23565b60206040518083038186803b15801561266a57600080fd5b505afa15801561267e573d6000803e3d6000fd5b505050506040513d601f19601f820116820180604052508101906126a29190614474565b6001600087815260200190815260200160002060008673ffffffffffffffffffffffffffffffffffffffff1673ffffffffffffffffffffffffffffffffffffffff168152602001908152602001600020600601546127009190615b1e565b61270a9190615aed565b90508060036000600260009054906101000a900473ffffffffffffffffffffffffffffffffffffffff1673ffffffffffffffffffffffffffffffffffffffff166340c1a064886040518263ffffffff1660e01b815260040161276c9190615a23565b60206040518083038186803b15801561278457600080fd5b505afa158015612798573d6000803e3d6000fd5b505050506040513d601f19601f820116820180604052508101906127bc9190614358565b73ffffffffffffffffffffffffffffffffffffffff1673ffffffffffffffffffffffffffffffffffffffff168152602001908152602001600020546128019190615a97565b60036000600260009054906101000a900473ffffffffffffffffffffffffffffffffffffffff1673ffffffffffffffffffffffffffffffffffffffff166340c1a064886040518263ffffffff1660e01b81526004016128609190615a23565b60206040518083038186803b15801561287857600080fd5b505afa15801561288c573d6000803e3d6000fd5b505050506040513d601f19601f820116820180604052508101906128b09190614358565b73ffffffffffffffffffffffffffffffffffffffff1673ffffffffffffffffffffffffffffffffffffffff1681526020019081526020016000208190555080826001600087815260200190815260200160002060008673ffffffffffffffffffffffffffffffffffffffff1673ffffffffffffffffffffffffffffffffffffffff1681526020019081526020016000206006015461294e9190615b78565b6129589190615b78565b600360008573ffffffffffffffffffffffffffffffffffffffff1673ffffffffffffffffffffffffffffffffffffffff168152602001908152602001600020546129a29190615a97565b600360008573ffffffffffffffffffffffffffffffffffffffff1673ffffffffffffffffffffffffffffffffffffffff1681526020019081526020016000208190555050505050565b600080600084815260200190815260200160002060000160008373ffffffffffffffffffffffffffffffffffffffff1673ffffffffffffffffffffffffffffffffffffffff16815260200190815260200160002060009054906101000a900460ff16905092915050565b6000612a646000801b336129eb565b612aa3576040517f08c379a0000000000000000000000000000000000000000000000000000000008152600401612a9a90615903565b60405180910390fd5b60008210158015612ab65750610bb88211155b612af5576040517f08c379a0000000000000000000000000000000000000000000000000000000008152600401612aec90615923565b60405180910390fd5b816004819055507f78957bbc754c819a8c812250821dfd95273aed05e54c883a0548aaca26804cd0600454604051612b2d9190615a23565b60405180910390a160019050919050565b6000612b4d6000801b336129eb565b612b8c576040517f08c379a0000000000000000000000000000000000000000000000000000000008152600401612b8390615903565b60405180910390fd5b60008210158015612b9f5750610bb88211155b612bde576040517f08c379a0000000000000000000000000000000000000000000000000000000008152600401612bd590615923565b60405180910390fd5b816005819055507f3d8d6494b7f14c8e67c534cca057c3f32bbd3fb58eb1fb432183d3ad9bd2f418600554604051612c169190615a23565b60405180910390a160019050919050565b600260f81b6001600084815260200190815260200160002060008373ffffffffffffffffffffffffffffffffffffffff1673ffffffffffffffffffffffffffffffffffffffff16815260200190815260200160002060000160009054906101000a900460f81b7effffffffffffffffffffffffffffffffffffffffffffffffffffffffffffff191614612cef576040517f08c379a0000000000000000000000000000000000000000000000000000000008152600401612ce6906156a3565b60405180910390fd5b6001600083815260200190815260200160002060008273ffffffffffffffffffffffffffffffffffffffff1673ffffffffffffffffffffffffffffffffffffffff168152602001908152602001600020600301544211158015612da557506001600083815260200190815260200160002060008273ffffffffffffffffffffffffffffffffffffffff1673ffffffffffffffffffffffffffffffffffffffff168152602001908152602001600020600201544210155b80612e0e57506001600083815260200190815260200160002060008273ffffffffffffffffffffffffffffffffffffffff1673ffffffffffffffffffffffffffffffffffffffff16815260200190815260200160002060070160009054906101000a900460ff16155b612e4d576040517f08c379a0000000000000000000000000000000000000000000000000000000008152600401612e44906158a3565b60405180910390fd5b6001600083815260200190815260200160002060008273ffffffffffffffffffffffffffffffffffffffff1673ffffffffffffffffffffffffffffffffffffffff168152602001908152602001600020600601543411612ee2576040517f08c379a0000000000000000000000000000000000000000000000000000000008152600401612ed990615723565b60405180910390fd5b60006001600084815260200190815260200160002060008373ffffffffffffffffffffffffffffffffffffffff1673ffffffffffffffffffffffffffffffffffffffff168152602001908152602001600020600601541461305a576001600083815260200190815260200160002060008273ffffffffffffffffffffffffffffffffffffffff1673ffffffffffffffffffffffffffffffffffffffff16815260200190815260200160002060060154600360006001600086815260200190815260200160002060008573ffffffffffffffffffffffffffffffffffffffff1673ffffffffffffffffffffffffffffffffffffffff16815260200190815260200160002060050160019054906101000a900473ffffffffffffffffffffffffffffffffffffffff1673ffffffffffffffffffffffffffffffffffffffff1673ffffffffffffffffffffffffffffffffffffffff16815260200190815260200160002060008282546130529190615a97565b925050819055505b336001600084815260200190815260200160002060008373ffffffffffffffffffffffffffffffffffffffff1673ffffffffffffffffffffffffffffffffffffffff16815260200190815260200160002060050160016101000a81548173ffffffffffffffffffffffffffffffffffffffff021916908373ffffffffffffffffffffffffffffffffffffffff160217905550346001600084815260200190815260200160002060008373ffffffffffffffffffffffffffffffffffffffff1673ffffffffffffffffffffffffffffffffffffffff168152602001908152602001600020600601819055507ff4757a49b326036464bec6fe419a4ae38c8a02ce3e68bf0809674f6aab8ad300333460405161317592919061549c565b60405180910390a15050565b600080600360003373ffffffffffffffffffffffffffffffffffffffff1673ffffffffffffffffffffffffffffffffffffffff168152602001908152602001600020549050600073ffffffffffffffffffffffffffffffffffffffff163373ffffffffffffffffffffffffffffffffffffffff16141561320057600080fd5b60008111156132d6576000600360003373ffffffffffffffffffffffffffffffffffffffff1673ffffffffffffffffffffffffffffffffffffffff168152602001908152602001600020819055503373ffffffffffffffffffffffffffffffffffffffff166108fc829081150290604051600060405180830381858888f193505050506132d55780600360003373ffffffffffffffffffffffffffffffffffffffff1673ffffffffffffffffffffffffffffffffffffffff168152602001908152602001600020819055506000915050613313565b5b7f7fb6e96e4cf6715924c7b3b6824e81401a198f6d1e1d72f2144724fe23ba0596816040516133059190615a23565b60405180910390a160019150505b90565b6000801b81565b6000600454905090565b600260009054906101000a900473ffffffffffffffffffffffffffffffffffffffff1681565b6133777f2b9b3b53865d9437a24097d0400845ce111bd43f6ef71750c962886da6258ce8336129eb565b6133b6576040517f08c379a00000000000000000000000000000000000000000000000000000000081526004016133ad90615623565b60405180910390fd5b6001600083815260200190815260200160002060003373ffffffffffffffffffffffffffffffffffffffff1673ffffffffffffffffffffffffffffffffffffffff16815260200190815260200160002060030154421061344b576040517f08c379a000000000000000000000000000000000000000000000000000000000815260040161344290615883565b60405180910390fd5b806001600084815260200190815260200160002060003373ffffffffffffffffffffffffffffffffffffffff1673ffffffffffffffffffffffffffffffffffffffff168152602001908152602001600020600301819055505050565b600073ffffffffffffffffffffffffffffffffffffffff163373ffffffffffffffffffffffffffffffffffffffff161415613517576040517f08c379a000000000000000000000000000000000000000000000000000000000815260040161350e90615803565b60405180910390fd5b600260f81b6001600086815260200190815260200160002060003373ffffffffffffffffffffffffffffffffffffffff1673ffffffffffffffffffffffffffffffffffffffff16815260200190815260200160002060000160009054906101000a900460f81b7effffffffffffffffffffffffffffffffffffffffffffffffffffffffffffff1916146135df576040517f08c379a00000000000000000000000000000000000000000000000000000000081526004016135d6906155c3565b60405180910390fd5b6001600260009054906101000a900473ffffffffffffffffffffffffffffffffffffffff1673ffffffffffffffffffffffffffffffffffffffff1662fdd58e33876040518363ffffffff1660e01b815260040161363d92919061549c565b60206040518083038186803b15801561365557600080fd5b505afa158015613669573d6000803e3d6000fd5b505050506040513d601f19601f8201168201806040525081019061368d9190614474565b10156136ce576040517f08c379a00000000000000000000000000000000000000000000000000000000081526004016136c5906159c3565b60405180910390fd5b604051806101200160405280600260f81b7effffffffffffffffffffffffffffffffffffffffffffffffffffffffffffff191681526020018481526020018381526020018281526020016005548152602001600015158152602001600073ffffffffffffffffffffffffffffffffffffffff16815260200160008152602001600015158152506001600086815260200190815260200160002060003373ffffffffffffffffffffffffffffffffffffffff1673ffffffffffffffffffffffffffffffffffffffff16815260200190815260200160002060008201518160000160006101000a81548160ff021916908360f81c02179055506020820151816001015560408201518160020155606082015181600301556080820151816004015560a08201518160050160006101000a81548160ff02191690831515021790555060c08201518160050160016101000a81548173ffffffffffffffffffffffffffffffffffffffff021916908373ffffffffffffffffffffffffffffffffffffffff16021790555060e082015181600601556101008201518160070160006101000a81548160ff02191690831515021790555090505050505050565b6138a161389483611290565b61389c6140e8565b6129eb565b6138e0576040517f08c379a00000000000000000000000000000000000000000000000000000000081526004016138d790615743565b60405180910390fd5b6138ea82826141d0565b5050565b6139187f2b9b3b53865d9437a24097d0400845ce111bd43f6ef71750c962886da6258ce8336129eb565b613957576040517f08c379a000000000000000000000000000000000000000000000000000000000815260040161394e90615863565b60405180910390fd5b6001600260009054906101000a900473ffffffffffffffffffffffffffffffffffffffff1673ffffffffffffffffffffffffffffffffffffffff1662fdd58e87896040518363ffffffff1660e01b81526004016139b592919061549c565b60206040518083038186803b1580156139cd57600080fd5b505afa1580156139e1573d6000803e3d6000fd5b505050506040513d601f19601f82011682018060405250810190613a059190614474565b1015613a46576040517f08c379a0000000000000000000000000000000000000000000000000000000008152600401613a3d90615683565b60405180910390fd5b60008110158015613a595750610bb88111155b613a98576040517f08c379a0000000000000000000000000000000000000000000000000000000008152600401613a8f90615923565b60405180910390fd5b604051806101200160405280600160f81b7effffffffffffffffffffffffffffffffffffffffffffffffffffffffffffff19168152602001858152602001848152602001838152602001828152602001600115158152602001600073ffffffffffffffffffffffffffffffffffffffff16815260200160008152602001600015158152506001600088815260200190815260200160002060008773ffffffffffffffffffffffffffffffffffffffff1673ffffffffffffffffffffffffffffffffffffffff16815260200190815260200160002060008201518160000160006101000a81548160ff021916908360f81c02179055506020820151816001015560408201518160020155606082015181600301556080820151816004015560a08201518160050160006101000a81548160ff02191690831515021790555060c08201518160050160016101000a81548173ffffffffffffffffffffffffffffffffffffffff021916908373ffffffffffffffffffffffffffffffffffffffff16021790555060e082015181600601556101008201518160070160006101000a81548160ff021916908315150217905550905050505050505050565b600260f81b6001600088815260200190815260200160002060008773ffffffffffffffffffffffffffffffffffffffff1673ffffffffffffffffffffffffffffffffffffffff16815260200190815260200160002060000160009054906101000a900460f81b7effffffffffffffffffffffffffffffffffffffffffffffffffffffffffffff191614613d1a576040517f08c379a0000000000000000000000000000000000000000000000000000000008152600401613d11906159e3565b60405180910390fd5b613d447f2b9b3b53865d9437a24097d0400845ce111bd43f6ef71750c962886da6258ce8336129eb565b613d83576040517f08c379a0000000000000000000000000000000000000000000000000000000008152600401613d7a90615823565b60405180910390fd5b6001600260009054906101000a900473ffffffffffffffffffffffffffffffffffffffff1673ffffffffffffffffffffffffffffffffffffffff1662fdd58e87896040518363ffffffff1660e01b8152600401613de192919061549c565b60206040518083038186803b158015613df957600080fd5b505afa158015613e0d573d6000803e3d6000fd5b505050506040513d601f19601f82011682018060405250810190613e319190614474565b1015613e72576040517f08c379a0000000000000000000000000000000000000000000000000000000008152600401613e69906158c3565b60405180910390fd5b60008110158015613e855750610bb88111155b613ec4576040517f08c379a0000000000000000000000000000000000000000000000000000000008152600401613ebb90615943565b60405180910390fd5b604051806101200160405280600160f81b7effffffffffffffffffffffffffffffffffffffffffffffffffffffffffffff19168152602001858152602001848152602001838152602001828152602001600015158152602001600073ffffffffffffffffffffffffffffffffffffffff16815260200160008152602001600015158152506001600088815260200190815260200160002060008773ffffffffffffffffffffffffffffffffffffffff1673ffffffffffffffffffffffffffffffffffffffff16815260200190815260200160002060008201518160000160006101000a81548160ff021916908360f81c02179055506020820151816001015560408201518160020155606082015181600301556080820151816004015560a08201518160050160006101000a81548160ff02191690831515021790555060c08201518160050160016101000a81548173ffffffffffffffffffffffffffffffffffffffff021916908373ffffffffffffffffffffffffffffffffffffffff16021790555060e082015181600601556101008201518160070160006101000a81548160ff021916908315150217905550905050505050505050565b60007f01ffc9a7000000000000000000000000000000000000000000000000000000007bffffffffffffffffffffffffffffffffffffffffffffffffffffffff1916827bffffffffffffffffffffffffffffffffffffffffffffffffffffffff1916149050919050565b600033905090565b6140fa82826129eb565b6141cc57600160008084815260200190815260200160002060000160008373ffffffffffffffffffffffffffffffffffffffff1673ffffffffffffffffffffffffffffffffffffffff16815260200190815260200160002060006101000a81548160ff0219169083151502179055506141716140e8565b73ffffffffffffffffffffffffffffffffffffffff168173ffffffffffffffffffffffffffffffffffffffff16837f2f8788117e7eff1d82e926ec794901d17c78024a50270940304540a733656f0d60405160405180910390a45b5050565b6141da82826129eb565b156142ad57600080600084815260200190815260200160002060000160008373ffffffffffffffffffffffffffffffffffffffff1673ffffffffffffffffffffffffffffffffffffffff16815260200190815260200160002060006101000a81548160ff0219169083151502179055506142526140e8565b73ffffffffffffffffffffffffffffffffffffffff168173ffffffffffffffffffffffffffffffffffffffff16837ff6391f5c32d9c69d2a47ea670b442974b53935d1edc7fd64eb21e047a839171b60405160405180910390a45b5050565b6000813590506142c081615cea565b92915050565b6000815190506142d581615cea565b92915050565b6000813590506142ea81615d01565b92915050565b6000813590506142ff81615d18565b92915050565b60008135905061431481615d2f565b92915050565b60008151905061432981615d2f565b92915050565b60006020828403121561434157600080fd5b600061434f848285016142b1565b91505092915050565b60006020828403121561436a57600080fd5b6000614378848285016142c6565b91505092915050565b6000806040838503121561439457600080fd5b60006143a2858286016142b1565b92505060206143b385828601614305565b9150509250929050565b6000602082840312156143cf57600080fd5b60006143dd848285016142db565b91505092915050565b600080604083850312156143f957600080fd5b6000614407858286016142db565b9250506020614418858286016142b1565b9150509250929050565b60006020828403121561443457600080fd5b6000614442848285016142f0565b91505092915050565b60006020828403121561445d57600080fd5b600061446b84828501614305565b91505092915050565b60006020828403121561448657600080fd5b60006144948482850161431a565b91505092915050565b600080604083850312156144b057600080fd5b60006144be85828601614305565b92505060206144cf858286016142b1565b9150509250929050565b60008060008060008060c087890312156144f257600080fd5b600061450089828a01614305565b965050602061451189828a016142b1565b955050604061452289828a01614305565b945050606061453389828a01614305565b935050608061454489828a01614305565b92505060a061455589828a01614305565b9150509295509295509295565b6000806040838503121561457557600080fd5b600061458385828601614305565b925050602061459485828601614305565b9150509250929050565b600080600080608085870312156145b457600080fd5b60006145c287828801614305565b94505060206145d387828801614305565b93505060406145e487828801614305565b92505060606145f587828801614305565b91505092959194509250565b61460a81615bac565b82525050565b61461981615bbe565b82525050565b61462881615bca565b82525050565b61463781615bf6565b82525050565b61464681615c56565b82525050565b61465581615c7a565b82525050565b6000614668602c83615a86565b91507f6275793a206974656d206f6e6c7920617661696c61626c6520666f722064726f60008301527f70206f66207468652064617900000000000000000000000000000000000000006020830152604082019050919050565b60006146ce601e83615a86565b91507f61756374696f6e3a20746f6b656e20616c7265616479206f6e2073616c6500006000830152602082019050919050565b600061470e602f83615a86565b91507f416363657373436f6e74726f6c3a2073656e646572206d75737420626520616e60008301527f2061646d696e20746f206772616e7400000000000000000000000000000000006020830152604082019050919050565b6000614774602b83615a86565b91507f455243313135353a206c697374696e6720717565727920666f7220746865207a60008301527f65726f20616464726573730000000000000000000000000000000000000000006020830152604082019050919050565b60006147da604c83615a86565b91507f5365742064726f70206f6620746865206461792061756374696f6e20656e642060008301527f74696d653a2063616c6c6572206973206e6f742064726f70206f66207468652060208301527f6461792063726561746f722e00000000000000000000000000000000000000006040830152606082019050919050565b6000614866602a83615a86565b91507f507574206f6e2073616c653a2063616c6c65722063616e6e6f74206265207a6560008301527f726f2061646472657373000000000000000000000000000000000000000000006020830152604082019050919050565b60006148cc602883615a86565b91507f41756374696f6e20656e643a2063616c6c6572206973206e6f7420646566617560008301527f6c742061646d696e0000000000000000000000000000000000000000000000006020830152604082019050919050565b6000614932602b83615a86565b91507f4f776e657220697320747279696e6720746f2073656c6c206d6f72652074686160008301527f6e207468657920686176650000000000000000000000000000000000000000006020830152604082019050919050565b6000614998601c83615a86565b91507f4974656d206e6f74206c697374656420666f722061756374696f6e2e000000006000830152602082019050919050565b60006149d8602383615a86565b91507f41756374696f6e20656e643a2061756374696f6e206e6f742079657420656e6460008301527f65642e00000000000000000000000000000000000000000000000000000000006020830152604082019050919050565b6000614a3e603483615a86565b91507f627579202844726f70206f662074686520646179293a20747279696e6720746f60008301527f20627579206d6f7265207468616e206f776e65640000000000000000000000006020830152604082019050919050565b6000614aa4603d83615a86565b91507f627579202844726f70206f662074686520646179293a206974656d206973206e60008301527f6f74206c697374656420666f722064726f70206f6620746865206461790000006020830152604082019050919050565b6000614b0a601e83615a86565b91507f546865726520616c7265616479206973206120686967686572206269642e00006000830152602082019050919050565b6000614b4a603083615a86565b91507f416363657373436f6e74726f6c3a2073656e646572206d75737420626520616e60008301527f2061646d696e20746f207265766f6b65000000000000000000000000000000006020830152604082019050919050565b6000614bb0603683615a86565b91507f507574206f6e2073616c653a20796f752061726520747279696e6720746f207360008301527f656c6c206d6f7265207468616e20796f752068617665000000000000000000006020830152604082019050919050565b6000614c16602483615a86565b91507f41756374696f6e20656e643a206974656d206973206e6f7420666f722061756360008301527f74696f6e000000000000000000000000000000000000000000000000000000006020830152604082019050919050565b6000614c7c602183615a86565b91507f6275793a206974656d206e6f7420666f722064726f70206f662074686520646160008301527f79000000000000000000000000000000000000000000000000000000000000006020830152604082019050919050565b6000614ce2602283615a86565b91507f6275793a20747279696e6720746f20627579206d6f7265207468616e206f776e60008301527f65640000000000000000000000000000000000000000000000000000000000006020830152604082019050919050565b6000614d48602683615a86565b91507f627579202844726f70206f662074686520646179293a206e6f7420656e6f756760008301527f682066756e6400000000000000000000000000000000000000000000000000006020830152604082019050919050565b6000614dae602d83615a86565b91507f5365742061732061756374696f6e3a2063616c6c65722063616e6e6f7420626560008301527f207a65726f2061646472657373000000000000000000000000000000000000006020830152604082019050919050565b6000614e14604083615a86565b91507f64726f70206f6620746865206461792061756374696f3a2063616c6c6572206960008301527f73206e6f7420616e2064726f70206f6620746865206461792063726561746f726020830152604082019050919050565b6000614e7a603083615a86565b91507f41756374696f6e20656e643a2061756374696f6e456e642068617320616c726560008301527f616479206265656e2063616c6c65642e000000000000000000000000000000006020830152604082019050919050565b6000614ee0602783615a86565b91507f43616c6c6572206973206e6f7420612064726f70206f6620746865206461792060008301527f63726561746f72000000000000000000000000000000000000000000000000006020830152604082019050919050565b6000614f46603483615a86565b91507f5365742064726f70206f6620746865206461792061756374696f6e20656e642060008301527f74696d653a2061756374696f6e20656e6465642e0000000000000000000000006020830152604082019050919050565b6000614fac602283615a86565b91507f41756374696f6e206e6f7420737461727465642f616c726561647920656e646560008301527f642e0000000000000000000000000000000000000000000000000000000000006020830152604082019050919050565b6000615012604383615a86565b91507f64726f70206f6620746865206461792061756374696f3a206f776e657220697360008301527f20747279696e6720746f2073656c6c206d6f7265207468616e2074686579206860208301527f61766500000000000000000000000000000000000000000000000000000000006040830152606082019050919050565b600061509e602283615a86565b91507f6275793a20747279696e6720746f20627579206e6f74206c697374656420697460008301527f656d0000000000000000000000000000000000000000000000000000000000006020830152604082019050919050565b6000615104601683615a86565b91507f43616c6c6572206973206e6f7420616e2061646d696e000000000000000000006000830152602082019050919050565b6000615144600083615a75565b9150600082019050919050565b600061515e601683615a86565b91507f636f6d6d697373696f6e20697320746f6f2068696768000000000000000000006000830152602082019050919050565b600061519e602e83615a86565b91507f64726f70206f6620746865206461792061756374696f3a20636f6d6d6973736960008301527f6f6e20697320746f6f20686967680000000000000000000000000000000000006020830152604082019050919050565b6000615204601483615a86565b91507f6275793a206e6f7420656e6f7567682066756e640000000000000000000000006000830152602082019050919050565b6000615244603483615a86565b91507f627579202844726f70206f662074686520646179293a2063616c6c657220636160008301527f6e6e6f74206265207a65726f20616464726573730000000000000000000000006020830152604082019050919050565b60006152aa603c83615a86565b91507f627579202844726f70206f662074686520646179293a2064726f70206f66207460008301527f6865206461792068617320656e6465642f6e6f742073746172746564000000006020830152604082019050919050565b6000615310603483615a86565b91507f61756374696f6e3a206f776e657220697320747279696e6720746f2073656c6c60008301527f206d6f7265207468616e207468657920686176650000000000000000000000006020830152604082019050919050565b6000615376602e83615a86565b91507f64726f70206f6620746865206461792061756374696f6e3a20746f6b656e206160008301527f6c7265616479206f6e2073616c650000000000000000000000000000000000006020830152604082019050919050565b60006153dc602f83615a86565b91507f416363657373436f6e74726f6c3a2063616e206f6e6c792072656e6f756e636560008301527f20726f6c657320666f722073656c6600000000000000000000000000000000006020830152604082019050919050565b61543e81615c4c565b82525050565b600060a0820190506154596000830187614601565b6154666020830186614601565b6154736040830185615435565b615480606083018461464c565b818103608083015261549181615137565b905095945050505050565b60006040820190506154b16000830185614601565b6154be6020830184615435565b9392505050565b60006020820190506154da6000830184614610565b92915050565b6000610120820190506154f6600083018c61461f565b615503602083018b615435565b615510604083018a615435565b61551d6060830189615435565b61552a6080830188615435565b61553760a0830187614610565b61554460c0830186614601565b61555160e0830185615435565b61555f610100830184614610565b9a9950505050505050505050565b6000602082019050615582600083018461462e565b92915050565b600060208201905061559d600083018461463d565b92915050565b600060208201905081810360008301526155bc8161465b565b9050919050565b600060208201905081810360008301526155dc816146c1565b9050919050565b600060208201905081810360008301526155fc81614701565b9050919050565b6000602082019050818103600083015261561c81614767565b9050919050565b6000602082019050818103600083015261563c816147cd565b9050919050565b6000602082019050818103600083015261565c81614859565b9050919050565b6000602082019050818103600083015261567c816148bf565b9050919050565b6000602082019050818103600083015261569c81614925565b9050919050565b600060208201905081810360008301526156bc8161498b565b9050919050565b600060208201905081810360008301526156dc816149cb565b9050919050565b600060208201905081810360008301526156fc81614a31565b9050919050565b6000602082019050818103600083015261571c81614a97565b9050919050565b6000602082019050818103600083015261573c81614afd565b9050919050565b6000602082019050818103600083015261575c81614b3d565b9050919050565b6000602082019050818103600083015261577c81614ba3565b9050919050565b6000602082019050818103600083015261579c81614c09565b9050919050565b600060208201905081810360008301526157bc81614c6f565b9050919050565b600060208201905081810360008301526157dc81614cd5565b9050919050565b600060208201905081810360008301526157fc81614d3b565b9050919050565b6000602082019050818103600083015261581c81614da1565b9050919050565b6000602082019050818103600083015261583c81614e07565b9050919050565b6000602082019050818103600083015261585c81614e6d565b9050919050565b6000602082019050818103600083015261587c81614ed3565b9050919050565b6000602082019050818103600083015261589c81614f39565b9050919050565b600060208201905081810360008301526158bc81614f9f565b9050919050565b600060208201905081810360008301526158dc81615005565b9050919050565b600060208201905081810360008301526158fc81615091565b9050919050565b6000602082019050818103600083015261591c816150f7565b9050919050565b6000602082019050818103600083015261593c81615151565b9050919050565b6000602082019050818103600083015261595c81615191565b9050919050565b6000602082019050818103600083015261597c816151f7565b9050919050565b6000602082019050818103600083015261599c81615237565b9050919050565b600060208201905081810360008301526159bc8161529d565b9050919050565b600060208201905081810360008301526159dc81615303565b9050919050565b600060208201905081810360008301526159fc81615369565b9050919050565b60006020820190508181036000830152615a1c816153cf565b9050919050565b6000602082019050615a386000830184615435565b92915050565b6000606082019050615a536000830186615435565b615a606020830185614601565b615a6d6040830184614601565b949350505050565b600082825260208201905092915050565b600082825260208201905092915050565b6000615aa282615c4c565b9150615aad83615c4c565b9250827fffffffffffffffffffffffffffffffffffffffffffffffffffffffffffffffff03821115615ae257615ae1615c8c565b5b828201905092915050565b6000615af882615c4c565b9150615b0383615c4c565b925082615b1357615b12615cbb565b5b828204905092915050565b6000615b2982615c4c565b9150615b3483615c4c565b9250817fffffffffffffffffffffffffffffffffffffffffffffffffffffffffffffffff0483118215151615615b6d57615b6c615c8c565b5b828202905092915050565b6000615b8382615c4c565b9150615b8e83615c4c565b925082821015615ba157615ba0615c8c565b5b828203905092915050565b6000615bb782615c2c565b9050919050565b60008115159050919050565b60007fff0000000000000000000000000000000000000000000000000000000000000082169050919050565b6000819050919050565b60007fffffffff0000000000000000000000000000000000000000000000000000000082169050919050565b600073ffffffffffffffffffffffffffffffffffffffff82169050919050565b6000819050919050565b6000615c6182615c68565b9050919050565b6000615c7382615c2c565b9050919050565b6000615c8582615c4c565b9050919050565b7f4e487b7100000000000000000000000000000000000000000000000000000000600052601160045260246000fd5b7f4e487b7100000000000000000000000000000000000000000000000000000000600052601260045260246000fd5b615cf381615bac565b8114615cfe57600080fd5b50565b615d0a81615bf6565b8114615d1557600080fd5b50565b615d2181615c00565b8114615d2c57600080fd5b50565b615d3881615c4c565b8114615d4357600080fd5b5056fea26469706673582212209c88e43b5d4e9290b0ef91a4138351b4116bfe572cbb61c461ba278866f3cd4b64736f6c63430008000033",
  "immutableReferences": {},
  "source": "// SPDX-License-Identifier: MIT\n\npragma solidity ^0.8.0;\n\n/*\n * @dev Provides information about the current execution context, including the\n * sender of the transaction and its data. While these are generally available\n * via msg.sender and msg.data, they should not be accessed in such a direct\n * manner, since when dealing with meta-transactions the account sending and\n * paying for execution may not be the actual sender (as far as an application\n * is concerned).\n *\n * This contract is only required for intermediate, library-like contracts.\n */\nabstract contract Context {\n    function _msgSender() internal view virtual returns (address) {\n        return msg.sender;\n    }\n\n    function _msgData() internal view virtual returns (bytes calldata) {\n        this; // silence state mutability warning without generating bytecode - see https://github.com/ethereum/solidity/issues/2691\n        return msg.data;\n    }\n}\n\n/**\n * @dev Interface of the ERC165 standard, as defined in the\n * https://eips.ethereum.org/EIPS/eip-165[EIP].\n *\n * Implementers can declare support of contract interfaces, which can then be\n * queried by others ({ERC165Checker}).\n *\n * For an implementation, see {ERC165}.\n */\ninterface IERC165 {\n    /**\n     * @dev Returns true if this contract implements the interface defined by\n     * `interfaceId`. See the corresponding\n     * https://eips.ethereum.org/EIPS/eip-165#how-interfaces-are-identified[EIP section]\n     * to learn more about how these ids are created.\n     *\n     * This function call must use less than 30 000 gas.\n     */\n    function supportsInterface(bytes4 interfaceId) external view returns (bool);\n}\n\n/**\n * @dev Implementation of the {IERC165} interface.\n *\n * Contracts that want to implement ERC165 should inherit from this contract and override {supportsInterface} to check\n * for the additional interface id that will be supported. For example:\n *\n * ```solidity\n * function supportsInterface(bytes4 interfaceId) public view virtual override returns (bool) {\n *     return interfaceId == type(MyInterface).interfaceId || super.supportsInterface(interfaceId);\n * }\n * ```\n *\n * Alternatively, {ERC165Storage} provides an easier to use but more expensive implementation.\n */\nabstract contract ERC165 is IERC165 {\n    /**\n     * @dev See {IERC165-supportsInterface}.\n     */\n    function supportsInterface(bytes4 interfaceId)\n        public\n        view\n        virtual\n        override\n        returns (bool)\n    {\n        return interfaceId == type(IERC165).interfaceId;\n    }\n}\n\n/**\n * @dev External interface of AccessControl declared to support ERC165 detection.\n */\ninterface IAccessControl {\n    function hasRole(bytes32 role, address account)\n        external\n        view\n        returns (bool);\n\n    function getRoleAdmin(bytes32 role) external view returns (bytes32);\n\n    function grantRole(bytes32 role, address account) external;\n\n    function revokeRole(bytes32 role, address account) external;\n\n    function renounceRole(bytes32 role, address account) external;\n}\n\n/**\n * @dev Contract module that allows children to implement role-based access\n * control mechanisms. This is a lightweight version that doesn't allow enumerating role\n * members except through off-chain means by accessing the contract event logs. Some\n * applications may benefit from on-chain enumerability, for those cases see\n * {AccessControlEnumerable}.\n *\n * Roles are referred to by their `bytes32` identifier. These should be exposed\n * in the external API and be unique. The best way to achieve this is by\n * using `public constant` hash digests:\n *\n * ```\n * bytes32 public constant MY_ROLE = keccak256(\"MY_ROLE\");\n * ```\n *\n * Roles can be used to represent a set of permissions. To restrict access to a\n * function call, use {hasRole}:\n *\n * ```\n * function foo() public {\n *     require(hasRole(MY_ROLE, msg.sender));\n *     ...\n * }\n * ```\n *\n * Roles can be granted and revoked dynamically via the {grantRole} and\n * {revokeRole} functions. Each role has an associated admin role, and only\n * accounts that have a role's admin role can call {grantRole} and {revokeRole}.\n *\n * By default, the admin role for all roles is `DEFAULT_ADMIN_ROLE`, which means\n * that only accounts with this role will be able to grant or revoke other\n * roles. More complex role relationships can be created by using\n * {_setRoleAdmin}.\n *\n * WARNING: The `DEFAULT_ADMIN_ROLE` is also its own admin: it has permission to\n * grant and revoke this role. Extra precautions should be taken to secure\n * accounts that have been granted it.\n */\nabstract contract AccessControl is Context, IAccessControl, ERC165 {\n    struct RoleData {\n        mapping(address => bool) members;\n        bytes32 adminRole;\n    }\n\n    mapping(bytes32 => RoleData) private _roles;\n\n    bytes32 public constant DEFAULT_ADMIN_ROLE = 0x00;\n\n    /**\n     * @dev Emitted when `newAdminRole` is set as ``role``'s admin role, replacing `previousAdminRole`\n     *\n     * `DEFAULT_ADMIN_ROLE` is the starting admin for all roles, despite\n     * {RoleAdminChanged} not being emitted signaling this.\n     *\n     * _Available since v3.1._\n     */\n    event RoleAdminChanged(\n        bytes32 indexed role,\n        bytes32 indexed previousAdminRole,\n        bytes32 indexed newAdminRole\n    );\n\n    /**\n     * @dev Emitted when `account` is granted `role`.\n     *\n     * `sender` is the account that originated the contract call, an admin role\n     * bearer except when using {_setupRole}.\n     */\n    event RoleGranted(\n        bytes32 indexed role,\n        address indexed account,\n        address indexed sender\n    );\n\n    /**\n     * @dev Emitted when `account` is revoked `role`.\n     *\n     * `sender` is the account that originated the contract call:\n     *   - if using `revokeRole`, it is the admin role bearer\n     *   - if using `renounceRole`, it is the role bearer (i.e. `account`)\n     */\n    event RoleRevoked(\n        bytes32 indexed role,\n        address indexed account,\n        address indexed sender\n    );\n\n    /**\n     * @dev See {IERC165-supportsInterface}.\n     */\n    function supportsInterface(bytes4 interfaceId)\n        public\n        view\n        virtual\n        override\n        returns (bool)\n    {\n        return\n            interfaceId == type(IAccessControl).interfaceId ||\n            super.supportsInterface(interfaceId);\n    }\n\n    /**\n     * @dev Returns `true` if `account` has been granted `role`.\n     */\n    function hasRole(bytes32 role, address account)\n        public\n        view\n        override\n        returns (bool)\n    {\n        return _roles[role].members[account];\n    }\n\n    /**\n     * @dev Returns the admin role that controls `role`. See {grantRole} and\n     * {revokeRole}.\n     *\n     * To change a role's admin, use {_setRoleAdmin}.\n     */\n    function getRoleAdmin(bytes32 role) public view override returns (bytes32) {\n        return _roles[role].adminRole;\n    }\n\n    /**\n     * @dev Grants `role` to `account`.\n     *\n     * If `account` had not been already granted `role`, emits a {RoleGranted}\n     * event.\n     *\n     * Requirements:\n     *\n     * - the caller must have ``role``'s admin role.\n     */\n    function grantRole(bytes32 role, address account) public virtual override {\n        require(\n            hasRole(getRoleAdmin(role), _msgSender()),\n            \"AccessControl: sender must be an admin to grant\"\n        );\n\n        _grantRole(role, account);\n    }\n\n    /**\n     * @dev Revokes `role` from `account`.\n     *\n     * If `account` had been granted `role`, emits a {RoleRevoked} event.\n     *\n     * Requirements:\n     *\n     * - the caller must have ``role``'s admin role.\n     */\n    function revokeRole(bytes32 role, address account) public virtual override {\n        require(\n            hasRole(getRoleAdmin(role), _msgSender()),\n            \"AccessControl: sender must be an admin to revoke\"\n        );\n\n        _revokeRole(role, account);\n    }\n\n    /**\n     * @dev Revokes `role` from the calling account.\n     *\n     * Roles are often managed via {grantRole} and {revokeRole}: this function's\n     * purpose is to provide a mechanism for accounts to lose their privileges\n     * if they are compromised (such as when a trusted device is misplaced).\n     *\n     * If the calling account had been granted `role`, emits a {RoleRevoked}\n     * event.\n     *\n     * Requirements:\n     *\n     * - the caller must be `account`.\n     */\n    function renounceRole(bytes32 role, address account)\n        public\n        virtual\n        override\n    {\n        require(\n            account == _msgSender(),\n            \"AccessControl: can only renounce roles for self\"\n        );\n\n        _revokeRole(role, account);\n    }\n\n    /**\n     * @dev Grants `role` to `account`.\n     *\n     * If `account` had not been already granted `role`, emits a {RoleGranted}\n     * event. Note that unlike {grantRole}, this function doesn't perform any\n     * checks on the calling account.\n     *\n     * [WARNING]\n     * ====\n     * This function should only be called from the constructor when setting\n     * up the initial roles for the system.\n     *\n     * Using this function in any other way is effectively circumventing the admin\n     * system imposed by {AccessControl}.\n     * ====\n     */\n    function _setupRole(bytes32 role, address account) internal virtual {\n        _grantRole(role, account);\n    }\n\n    /**\n     * @dev Sets `adminRole` as ``role``'s admin role.\n     *\n     * Emits a {RoleAdminChanged} event.\n     */\n    function _setRoleAdmin(bytes32 role, bytes32 adminRole) internal virtual {\n        emit RoleAdminChanged(role, getRoleAdmin(role), adminRole);\n        _roles[role].adminRole = adminRole;\n    }\n\n    function _grantRole(bytes32 role, address account) private {\n        if (!hasRole(role, account)) {\n            _roles[role].members[account] = true;\n            emit RoleGranted(role, account, _msgSender());\n        }\n    }\n\n    function _revokeRole(bytes32 role, address account) private {\n        if (hasRole(role, account)) {\n            _roles[role].members[account] = false;\n            emit RoleRevoked(role, account, _msgSender());\n        }\n    }\n}\n\ninterface ISatoshiART1155 {\n    event TransferSingle(\n        address indexed operator,\n        address indexed from,\n        address indexed to,\n        uint256 id,\n        uint256 value\n    );\n    event TransferBatch(\n        address indexed operator,\n        address indexed from,\n        address indexed to,\n        uint256[] ids,\n        uint256[] values\n    );\n    event ApprovalForAll(\n        address indexed account,\n        address indexed operator,\n        bool approved\n    );\n    event URI(string value, uint256 indexed id);\n\n    function balanceOf(address account, uint256 id)\n        external\n        view\n        returns (uint256);\n\n    function balanceOfBatch(address[] calldata accounts, uint256[] calldata ids)\n        external\n        view\n        returns (uint256[] memory);\n\n    function setApprovalForAll(address operator, bool approved) external;\n\n    function isApprovedForAll(address account, address operator)\n        external\n        view\n        returns (bool);\n\n    function safeTransferFrom(\n        address from,\n        address to,\n        uint256 id,\n        uint256 amount,\n        bytes calldata data\n    ) external;\n\n    function safeBatchTransferFrom(\n        address from,\n        address to,\n        uint256[] calldata ids,\n        uint256[] calldata amounts,\n        bytes calldata data\n    ) external;\n\n    function tokenCreator(uint256 _id) external view returns (address);\n\n    function tokenRoyalty(uint256 _id) external view returns (uint256);\n}\n\ncontract SatoshiART1155Marketplace is AccessControl {\n    struct Listing {\n        bytes1 status; // 0x00 onHold 0x01 onSale 0x02 isAuction\n        uint256 price;\n        uint256 startTime;\n        uint256 endTime;\n        uint256 commission;\n        bool isDropOfTheDay;\n        address highestBidder;\n        uint256 highestBid;\n        bool auctionEnded;\n    }\n\n    mapping(uint256 => mapping(address => Listing)) private _listings;\n    ISatoshiART1155 public satoshiART1155;\n    mapping(address => uint256) private _outstandingPayments;\n    uint256 private _defaultCommission;\n    uint256 private _defaultAuctionCommission;\n    bytes32 public constant DROP_OF_THE_DAY_CREATOR_ROLE =\n        keccak256(\"DROP_OF_THE_DAY_CREATOR_ROLE\");\n\n    event PurchaseConfirmed(uint256 tokenId, address itemOwner, address buyer);\n    event PaymentWithdrawed(uint256 amount);\n    event DefaultCommissionModified(uint256 commission);\n    event DefaultAuctionCommissionModified(uint256 commission);\n    event HighestBidIncreased(address bidder, uint256 amount);\n    event AuctionEnded(address winner, uint256 amount);\n\n    constructor(address satoshiART1155Address) {\n        satoshiART1155 = ISatoshiART1155(satoshiART1155Address);\n        _setupRole(DEFAULT_ADMIN_ROLE, msg.sender);\n        _defaultCommission = 250;\n        _defaultAuctionCommission = 250;\n    }\n\n    function defaultCommission() external view returns (uint256) {\n        return _defaultCommission;\n    }\n\n    function defaultAuctionCommission() external view returns (uint256) {\n        return _defaultAuctionCommission;\n    }\n\n    function setDefaultCommission(uint256 commission) external returns (bool) {\n        require(\n            hasRole(DEFAULT_ADMIN_ROLE, msg.sender),\n            \"Caller is not an admin\"\n        );\n        require(\n            commission >= 0 && commission <= 3000,\n            \"commission is too high\"\n        );\n        _defaultCommission = commission;\n\n        emit DefaultCommissionModified(_defaultCommission);\n        return true;\n    }\n\n    function setDefaultAuctionCommission(uint256 commission)\n        external\n        returns (bool)\n    {\n        require(\n            hasRole(DEFAULT_ADMIN_ROLE, msg.sender),\n            \"Caller is not an admin\"\n        );\n        require(\n            commission >= 0 && commission <= 3000,\n            \"commission is too high\"\n        );\n        _defaultAuctionCommission = commission;\n\n        emit DefaultAuctionCommissionModified(_defaultAuctionCommission);\n        return true;\n    }\n\n    function putOnSale(uint256 tokenId, uint256 price) external {\n        require(\n            msg.sender != address(0),\n            \"Put on sale: caller cannot be zero address\"\n        );\n        require(\n            satoshiART1155.balanceOf(msg.sender, tokenId) >= 1,\n            \"Put on sale: you are trying to sell more than you have\"\n        );\n\n        _listings[tokenId][msg.sender] = Listing({\n            status: 0x01,\n            price: price,\n            startTime: 0,\n            endTime: 0,\n            commission: _defaultCommission,\n            isDropOfTheDay: false,\n            highestBidder: address(0),\n            highestBid: 0,\n            auctionEnded: false\n        });\n    }\n\n    function listingOf(address account, uint256 tokenId)\n        external\n        view\n        returns (\n            bytes1,\n            uint256,\n            uint256,\n            uint256,\n            uint256,\n            bool,\n            address,\n            uint256,\n            bool\n        )\n    {\n        require(\n            account != address(0),\n            \"ERC1155: listing query for the zero address\"\n        );\n\n        Listing memory l = _listings[tokenId][account];\n        return (\n            l.status,\n            l.price,\n            l.startTime,\n            l.endTime,\n            l.commission,\n            l.isDropOfTheDay,\n            l.highestBidder,\n            l.highestBid,\n            l.auctionEnded\n        );\n    }\n\n    function buy(uint256 tokenId, address itemOwner)\n        external\n        payable\n        returns (bool)\n    {\n        require(\n            msg.sender != address(0),\n            \"buy (Drop of the day): caller cannot be zero address\"\n        );\n        require(\n            _listings[tokenId][itemOwner].status == 0x01,\n            \"buy: trying to buy not listed item\"\n        );\n        require(\n            satoshiART1155.balanceOf(itemOwner, tokenId) >= 1,\n            \"buy: trying to buy more than owned\"\n        );\n        require(\n            msg.value >= _listings[tokenId][itemOwner].price,\n            \"buy: not enough fund\"\n        );\n        require(\n            !_listings[tokenId][itemOwner].isDropOfTheDay,\n            \"buy: item only available for drop of the day\"\n        );\n\n        _listings[tokenId][itemOwner].status = 0x00;\n        emit PurchaseConfirmed(tokenId, itemOwner, msg.sender);\n\n        satoshiART1155.safeTransferFrom(itemOwner, msg.sender, tokenId, 1, \"\");\n\n        uint256 commision =\n            (msg.value * _listings[tokenId][itemOwner].commission) / 10000;\n\n        uint256 royalty =\n            (msg.value * satoshiART1155.tokenRoyalty(tokenId)) / 10000;\n        _outstandingPayments[satoshiART1155.tokenCreator(tokenId)] =\n            _outstandingPayments[satoshiART1155.tokenCreator(tokenId)] +\n            royalty;\n        _outstandingPayments[itemOwner] =\n            _outstandingPayments[itemOwner] +\n            (msg.value - commision - royalty);\n\n        return true;\n    }\n\n    // allow owner to withdraw the owned eth\n    function withdrawPayment() external returns (bool) {\n        uint256 amount = _outstandingPayments[msg.sender];\n        require(msg.sender != address(0));\n        if (amount > 0) {\n            _outstandingPayments[msg.sender] = 0;\n\n            if (!payable(msg.sender).send(amount)) {\n                _outstandingPayments[msg.sender] = amount;\n                return false;\n            }\n        }\n        emit PaymentWithdrawed(amount);\n        return true;\n    }\n\n    // allow contract to withdraw balance (only commission for now)\n    function withdrawBalance() external returns (bool) {\n        require(\n            hasRole(DEFAULT_ADMIN_ROLE, msg.sender),\n            \"Caller is not an admin\"\n        );\n        if (!payable(msg.sender).send(address(this).balance)) {\n            return false;\n        }\n        return true;\n    }\n\n    function outstandingPayment(address user) external view returns (uint256) {\n        return _outstandingPayments[user];\n    }\n\n    /**\n    Assign certain arts to drop of the day:\n    - artist setApprovalforAll(): allow marketplace to sell\n    - owner/artist setAsDropOfTheDay()\n    - buyer buys arts using dropOfTheDayBuy() with a time limit\n\n    - note: set as drop of the day will overwright previous listing\n     */\n    function setAsDropOfTheDay(\n        uint256 tokenId,\n        address itemOwner,\n        uint256 price,\n        uint256 startTime,\n        uint256 endTime,\n        uint256 dropOfTheDayCommission\n    ) external {\n        require(\n            hasRole(DROP_OF_THE_DAY_CREATOR_ROLE, msg.sender),\n            \"Caller is not a drop of the day creator\"\n        );\n        require(\n            satoshiART1155.balanceOf(itemOwner, tokenId) >= 1,\n            \"Owner is trying to sell more than they have\"\n        );\n        require(\n            dropOfTheDayCommission >= 0 && dropOfTheDayCommission <= 3000,\n            \"commission is too high\"\n        );\n\n        _listings[tokenId][itemOwner] = Listing({\n            status: 0x01,\n            price: price,\n            startTime: startTime,\n            endTime: endTime,\n            commission: dropOfTheDayCommission,\n            isDropOfTheDay: true,\n            highestBidder: address(0),\n            highestBid: 0,\n            auctionEnded: false\n        });\n    }\n\n    function dropOfTheDayBuy(uint256 tokenId, address itemOwner)\n        external\n        payable\n        returns (bool)\n    {\n        require(\n            msg.sender != address(0),\n            \"buy (Drop of the day): caller cannot be zero address\"\n        );\n        require(\n            _listings[tokenId][itemOwner].status == 0x01,\n            \"buy (Drop of the day): item is not listed for drop of the day\"\n        );\n        require(\n            satoshiART1155.balanceOf(itemOwner, tokenId) >= 1,\n            \"buy (Drop of the day): trying to buy more than owned\"\n        );\n        require(\n            msg.value >= _listings[tokenId][itemOwner].price,\n            \"buy (Drop of the day): not enough fund\"\n        );\n        require(\n            block.timestamp >= _listings[tokenId][itemOwner].startTime &&\n                block.timestamp <= _listings[tokenId][itemOwner].endTime,\n            \"buy (Drop of the day): drop of the day has ended/not started\"\n        );\n        require(\n            _listings[tokenId][itemOwner].isDropOfTheDay,\n            \"buy: item not for drop of the day\"\n        );\n\n        _listings[tokenId][itemOwner].status = 0x00;\n        emit PurchaseConfirmed(tokenId, itemOwner, msg.sender);\n\n        satoshiART1155.safeTransferFrom(itemOwner, msg.sender, tokenId, 1, \"\");\n\n        uint256 commision =\n            (msg.value * _listings[tokenId][itemOwner].commission) / 10000;\n\n        uint256 royalty =\n            (msg.value * satoshiART1155.tokenRoyalty(tokenId)) / 10000;\n        _outstandingPayments[satoshiART1155.tokenCreator(tokenId)] =\n            _outstandingPayments[satoshiART1155.tokenCreator(tokenId)] +\n            royalty;\n        _outstandingPayments[itemOwner] =\n            _outstandingPayments[itemOwner] +\n            (msg.value - commision - royalty);\n\n        return true;\n    }\n\n    function setAsAuction(\n        uint256 tokenId,\n        uint256 price,\n        uint256 startTime,\n        uint256 endTime\n    ) external {\n        require(\n            msg.sender != address(0),\n            \"Set as auction: caller cannot be zero address\"\n        );\n        require(\n            _listings[tokenId][msg.sender].status == 0x02,\n            \"auction: token already on sale\"\n        );\n        require(\n            satoshiART1155.balanceOf(msg.sender, tokenId) >= 1,\n            \"auction: owner is trying to sell more than they have\"\n        );\n\n        _listings[tokenId][msg.sender] = Listing({\n            status: 0x02,\n            price: price,\n            startTime: startTime,\n            endTime: endTime,\n            commission: _defaultAuctionCommission,\n            isDropOfTheDay: false,\n            highestBidder: address(0),\n            highestBid: 0,\n            auctionEnded: false\n        });\n    }\n\n    function setAsDropOfTheDayAuction(\n        uint256 tokenId,\n        address itemOwner,\n        uint256 price,\n        uint256 startTime,\n        uint256 endTime,\n        uint256 auctionCommission\n    ) external {\n        require(\n            _listings[tokenId][itemOwner].status == 0x02,\n            \"drop of the day auction: token already on sale\"\n        );\n        require(\n            hasRole(DROP_OF_THE_DAY_CREATOR_ROLE, msg.sender),\n            \"drop of the day auctio: caller is not an drop of the day creator\"\n        );\n        require(\n            satoshiART1155.balanceOf(itemOwner, tokenId) >= 1,\n            \"drop of the day auctio: owner is trying to sell more than they have\"\n        );\n        require(\n            auctionCommission >= 0 && auctionCommission <= 3000,\n            \"drop of the day auctio: commission is too high\"\n        );\n\n        _listings[tokenId][itemOwner] = Listing({\n            status: 0x01,\n            price: price,\n            startTime: startTime,\n            endTime: endTime,\n            commission: auctionCommission,\n            isDropOfTheDay: false,\n            highestBidder: address(0),\n            highestBid: 0,\n            auctionEnded: false\n        });\n    }\n\n    //Auction\n\n    // Bid on the auction with the value sent\n    // together with this transaction.\n    // The value will only be refunded if the\n    // auction is not won.\n    function bid(uint256 tokenId, address itemOwner) public payable {\n        // Revert the call if the bidding\n        // period is over.\n        require(\n            _listings[tokenId][itemOwner].status == 0x02,\n            \"Item not listed for auction.\"\n        );\n        require(\n            (block.timestamp <= _listings[tokenId][itemOwner].endTime &&\n                block.timestamp >= _listings[tokenId][itemOwner].startTime) ||\n                !_listings[tokenId][itemOwner].auctionEnded,\n            \"Auction not started/already ended.\"\n        );\n\n        // If the bid is not higher, send the\n        // money back.\n        require(\n            msg.value > _listings[tokenId][itemOwner].highestBid,\n            \"There already is a higher bid.\"\n        );\n\n        if (_listings[tokenId][itemOwner].highestBid != 0) {\n            _outstandingPayments[\n                _listings[tokenId][itemOwner].highestBidder\n            ] += _listings[tokenId][itemOwner].highestBid;\n        }\n        _listings[tokenId][itemOwner].highestBidder = msg.sender;\n        _listings[tokenId][itemOwner].highestBid = msg.value;\n        emit HighestBidIncreased(msg.sender, msg.value);\n    }\n\n    // Withdraw a bid that was overbid.\n    // use withdrawPayment()\n\n    /// End the auction and send the highest bid\n    /// to the beneficiary.\n    function auctionEnd(uint256 tokenId, address itemOwner) public {\n        // It is a good guideline to structure functions that interact\n        // with other contracts (i.e. they call functions or send Ether)\n        // into three phases:\n        // 1. checking conditions\n        // 2. performing actions (potentially changing conditions)\n        // 3. interacting with other contracts\n        // If these phases are mixed up, the other contract could call\n        // back into the current contract and modify the state or cause\n        // effects (ether payout) to be performed multiple times.\n        // If functions called internally include interaction with external\n        // contracts, they also have to be considered interaction with\n        // external contracts.\n\n        // 1. Conditions\n        require(\n            hasRole(DEFAULT_ADMIN_ROLE, msg.sender),\n            \"Auction end: caller is not default admin\"\n        );\n        require(\n            _listings[tokenId][itemOwner].status == 0x02,\n            \"Auction end: item is not for auction\"\n        );\n        require(\n            block.timestamp >= _listings[tokenId][itemOwner].endTime,\n            \"Auction end: auction not yet ended.\"\n        );\n        require(\n            !_listings[tokenId][itemOwner].auctionEnded,\n            \"Auction end: auctionEnd has already been called.\"\n        );\n\n        // 2. Effects\n        _listings[tokenId][itemOwner].auctionEnded = true;\n        _listings[tokenId][itemOwner].status = 0x00;\n        emit AuctionEnded(\n            _listings[tokenId][itemOwner].highestBidder,\n            _listings[tokenId][itemOwner].highestBid\n        );\n\n        // 3. Interaction\n\n        satoshiART1155.safeTransferFrom(\n            itemOwner,\n            _listings[tokenId][itemOwner].highestBidder,\n            tokenId,\n            1,\n            \"\"\n        );\n\n        uint256 commision =\n            (_listings[tokenId][itemOwner].highestBid *\n                _listings[tokenId][itemOwner].commission) / 10000;\n\n        uint256 royalty =\n            (_listings[tokenId][itemOwner].highestBid *\n                satoshiART1155.tokenRoyalty(tokenId)) / 10000;\n\n        _outstandingPayments[satoshiART1155.tokenCreator(tokenId)] =\n            _outstandingPayments[satoshiART1155.tokenCreator(tokenId)] +\n            royalty;\n\n        _outstandingPayments[itemOwner] =\n            _outstandingPayments[itemOwner] +\n            (_listings[tokenId][itemOwner].highestBid - commision - royalty);\n    }\n\n    // function putOnHold(uint256 tokenId) external {\n    //     require(\n    //         _listings[tokenId][msg.sender].status != 0x00,\n    //         \"Put on hold: item is already on hold.\"\n    //     );\n    //     require(\n    //         !_listings[tokenId][msg.sender].isDropOfTheDay,\n    //         \"Put on hold: cannot put drop of the day item on hold.\"\n    //     );\n    //     require(\n    //         _listings[tokenId][msg.sender].highestBidder == address(0),\n    //         \"Put on hold: cannot put on hold as bid exists.\"\n    //     );\n    //     require(\n    //         _listings[tokenId][msg.sender].startTime > block.timestamp ||\n    //             _listings[tokenId][msg.sender].endTime < block.timestamp,\n    //         \"Put on hold: cannot put on hold during auction.\"\n    //     );\n\n    //     _listings[tokenId][msg.sender].status = 0x00;\n    // }\n\n    // function putDropOfTheDayItemOnHold(uint256 tokenId) external {\n    //     require(\n    //         hasRole(DROP_OF_THE_DAY_CREATOR_ROLE, msg.sender),\n    //         \"Put drop of the day item on hold: caller is not drop of the day creator.\"\n    //     );\n    //     require(\n    //         _listings[tokenId][msg.sender].status != 0x00,\n    //         \"Put drop of the day item on hold: item is already on hold.\"\n    //     );\n    //     require(\n    //         !_listings[tokenId][msg.sender].isDropOfTheDay,\n    //         \"Put drop of the day item on hold: cannot put drop of the day item on hold.\"\n    //     );\n    //     require(\n    //         _listings[tokenId][msg.sender].highestBidder == address(0),\n    //         \"Put drop of the day item on hold: cannot put on hold as bid exists.\"\n    //     );\n    //     require(\n    //         _listings[tokenId][msg.sender].startTime > block.timestamp ||\n    //             _listings[tokenId][msg.sender].endTime < block.timestamp,\n    //         \"Put drop of the day item on hold: cannot put on hold during auction.\"\n    //     );\n\n    //     _listings[tokenId][msg.sender].status = 0x00;\n    // }\n\n    function setDropOfTheDayAuctionEndTime(uint256 tokenId, uint256 newEndTime)\n        external\n    {\n        require(\n            hasRole(DROP_OF_THE_DAY_CREATOR_ROLE, msg.sender),\n            \"Set drop of the day auction end time: caller is not drop of the day creator.\"\n        );\n        require(\n            block.timestamp < _listings[tokenId][msg.sender].endTime,\n            \"Set drop of the day auction end time: auction ended.\"\n        );\n        _listings[tokenId][msg.sender].endTime = newEndTime;\n    }\n}\n",
  "sourcePath": "/Users/shumeiliang/Documents/projects/fintelics/satoshi/satoshi1155/contracts/SatoshiART1155Marketplace.sol",
  "compiler": {
    "name": "solc",
    "version": "0.8.0+commit.c7dfd78e.Emscripten.clang"
  },
  "schemaVersion": "3.4.0",
  "updatedAt": "2021-05-25T20:09:18.037Z",
  "networkType": "ethereum",
  "devdoc": {
    "kind": "dev",
    "methods": {
      "getRoleAdmin(bytes32)": {
        "details": "Returns the admin role that controls `role`. See {grantRole} and {revokeRole}. To change a role's admin, use {_setRoleAdmin}."
      },
      "grantRole(bytes32,address)": {
        "details": "Grants `role` to `account`. If `account` had not been already granted `role`, emits a {RoleGranted} event. Requirements: - the caller must have ``role``'s admin role."
      },
      "hasRole(bytes32,address)": {
        "details": "Returns `true` if `account` has been granted `role`."
      },
      "renounceRole(bytes32,address)": {
        "details": "Revokes `role` from the calling account. Roles are often managed via {grantRole} and {revokeRole}: this function's purpose is to provide a mechanism for accounts to lose their privileges if they are compromised (such as when a trusted device is misplaced). If the calling account had been granted `role`, emits a {RoleRevoked} event. Requirements: - the caller must be `account`."
      },
      "revokeRole(bytes32,address)": {
        "details": "Revokes `role` from `account`. If `account` had been granted `role`, emits a {RoleRevoked} event. Requirements: - the caller must have ``role``'s admin role."
      },
      "supportsInterface(bytes4)": {
        "details": "See {IERC165-supportsInterface}."
      }
    },
    "version": 1
  },
  "userdoc": {
    "kind": "user",
    "methods": {
      "auctionEnd(uint256,address)": {
        "notice": "End the auction and send the highest bid to the beneficiary."
      },
      "setAsDropOfTheDay(uint256,address,uint256,uint256,uint256,uint256)": {
        "notice": "Assign certain arts to drop of the day: - artist setApprovalforAll(): allow marketplace to sell - owner/artist setAsDropOfTheDay() - buyer buys arts using dropOfTheDayBuy() with a time limit - note: set as drop of the day will overwright previous listing"
      }
    },
    "version": 1
  }
}