{
  "contractName": "Satoshi721",
  "abi": [
    {
      "inputs": [],
      "stateMutability": "nonpayable",
      "type": "constructor"
    },
    {
      "anonymous": false,
      "inputs": [
        {
          "indexed": true,
          "internalType": "address",
          "name": "owner",
          "type": "address"
        },
        {
          "indexed": true,
          "internalType": "address",
          "name": "approved",
          "type": "address"
        },
        {
          "indexed": true,
          "internalType": "uint256",
          "name": "tokenId",
          "type": "uint256"
        }
      ],
      "name": "Approval",
      "type": "event"
    },
    {
      "anonymous": false,
      "inputs": [
        {
          "indexed": true,
          "internalType": "address",
          "name": "owner",
          "type": "address"
        },
        {
          "indexed": true,
          "internalType": "address",
          "name": "operator",
          "type": "address"
        },
        {
          "indexed": false,
          "internalType": "bool",
          "name": "approved",
          "type": "bool"
        }
      ],
      "name": "ApprovalForAll",
      "type": "event"
    },
    {
      "anonymous": false,
      "inputs": [
        {
          "indexed": true,
          "internalType": "address",
          "name": "previousOwner",
          "type": "address"
        },
        {
          "indexed": true,
          "internalType": "address",
          "name": "newOwner",
          "type": "address"
        }
      ],
      "name": "OwnershipTransferred",
      "type": "event"
    },
    {
      "anonymous": false,
      "inputs": [
        {
          "indexed": true,
          "internalType": "address",
          "name": "artist",
          "type": "address"
        },
        {
          "indexed": false,
          "internalType": "uint256",
          "name": "_value",
          "type": "uint256"
        }
      ],
      "name": "Payment",
      "type": "event"
    },
    {
      "anonymous": false,
      "inputs": [
        {
          "indexed": true,
          "internalType": "address",
          "name": "artist",
          "type": "address"
        },
        {
          "indexed": false,
          "internalType": "uint256",
          "name": "_value",
          "type": "uint256"
        }
      ],
      "name": "Royalty",
      "type": "event"
    },
    {
      "anonymous": false,
      "inputs": [
        {
          "indexed": true,
          "internalType": "address",
          "name": "from",
          "type": "address"
        },
        {
          "indexed": true,
          "internalType": "address",
          "name": "to",
          "type": "address"
        },
        {
          "indexed": true,
          "internalType": "uint256",
          "name": "tokenId",
          "type": "uint256"
        }
      ],
      "name": "Transfer",
      "type": "event"
    },
    {
      "inputs": [
        {
          "internalType": "address",
          "name": "to",
          "type": "address"
        },
        {
          "internalType": "uint256",
          "name": "tokenId",
          "type": "uint256"
        }
      ],
      "name": "approve",
      "outputs": [],
      "stateMutability": "nonpayable",
      "type": "function"
    },
    {
      "inputs": [
        {
          "internalType": "uint256",
          "name": "",
          "type": "uint256"
        }
      ],
      "name": "auctions",
      "outputs": [
        {
          "internalType": "address",
          "name": "creator",
          "type": "address"
        },
        {
          "internalType": "address",
          "name": "bestBidder",
          "type": "address"
        },
        {
          "internalType": "uint256",
          "name": "bestBidAmount",
          "type": "uint256"
        },
        {
          "internalType": "uint256",
          "name": "startTime",
          "type": "uint256"
        },
        {
          "internalType": "uint256",
          "name": "duration",
          "type": "uint256"
        },
        {
          "internalType": "uint256",
          "name": "minimumPrice",
          "type": "uint256"
        },
        {
          "internalType": "bool",
          "name": "active",
          "type": "bool"
        }
      ],
      "stateMutability": "view",
      "type": "function",
      "constant": true
    },
    {
      "inputs": [
        {
          "internalType": "address",
          "name": "owner",
          "type": "address"
        }
      ],
      "name": "balanceOf",
      "outputs": [
        {
          "internalType": "uint256",
          "name": "",
          "type": "uint256"
        }
      ],
      "stateMutability": "view",
      "type": "function",
      "constant": true
    },
    {
      "inputs": [],
      "name": "baseURI",
      "outputs": [
        {
          "internalType": "string",
          "name": "",
          "type": "string"
        }
      ],
      "stateMutability": "view",
      "type": "function",
      "constant": true
    },
    {
      "inputs": [
        {
          "internalType": "uint256",
          "name": "tokenId",
          "type": "uint256"
        }
      ],
      "name": "getApproved",
      "outputs": [
        {
          "internalType": "address",
          "name": "",
          "type": "address"
        }
      ],
      "stateMutability": "view",
      "type": "function",
      "constant": true
    },
    {
      "inputs": [
        {
          "internalType": "address",
          "name": "owner",
          "type": "address"
        },
        {
          "internalType": "address",
          "name": "operator",
          "type": "address"
        }
      ],
      "name": "isApprovedForAll",
      "outputs": [
        {
          "internalType": "bool",
          "name": "",
          "type": "bool"
        }
      ],
      "stateMutability": "view",
      "type": "function",
      "constant": true
    },
    {
      "inputs": [],
      "name": "name",
      "outputs": [
        {
          "internalType": "string",
          "name": "",
          "type": "string"
        }
      ],
      "stateMutability": "view",
      "type": "function",
      "constant": true
    },
    {
      "inputs": [],
      "name": "owner",
      "outputs": [
        {
          "internalType": "address",
          "name": "",
          "type": "address"
        }
      ],
      "stateMutability": "view",
      "type": "function",
      "constant": true
    },
    {
      "inputs": [
        {
          "internalType": "uint256",
          "name": "tokenId",
          "type": "uint256"
        }
      ],
      "name": "ownerOf",
      "outputs": [
        {
          "internalType": "address",
          "name": "",
          "type": "address"
        }
      ],
      "stateMutability": "view",
      "type": "function",
      "constant": true
    },
    {
      "inputs": [],
      "name": "renounceOwnership",
      "outputs": [],
      "stateMutability": "nonpayable",
      "type": "function"
    },
    {
      "inputs": [
        {
          "internalType": "address",
          "name": "from",
          "type": "address"
        },
        {
          "internalType": "address",
          "name": "to",
          "type": "address"
        },
        {
          "internalType": "uint256",
          "name": "tokenId",
          "type": "uint256"
        }
      ],
      "name": "safeTransferFrom",
      "outputs": [],
      "stateMutability": "nonpayable",
      "type": "function"
    },
    {
      "inputs": [
        {
          "internalType": "address",
          "name": "from",
          "type": "address"
        },
        {
          "internalType": "address",
          "name": "to",
          "type": "address"
        },
        {
          "internalType": "uint256",
          "name": "tokenId",
          "type": "uint256"
        },
        {
          "internalType": "bytes",
          "name": "_data",
          "type": "bytes"
        }
      ],
      "name": "safeTransferFrom",
      "outputs": [],
      "stateMutability": "nonpayable",
      "type": "function"
    },
    {
      "inputs": [
        {
          "internalType": "address",
          "name": "operator",
          "type": "address"
        },
        {
          "internalType": "bool",
          "name": "approved",
          "type": "bool"
        }
      ],
      "name": "setApprovalForAll",
      "outputs": [],
      "stateMutability": "nonpayable",
      "type": "function"
    },
    {
      "inputs": [
        {
          "internalType": "bytes4",
          "name": "interfaceId",
          "type": "bytes4"
        }
      ],
      "name": "supportsInterface",
      "outputs": [
        {
          "internalType": "bool",
          "name": "",
          "type": "bool"
        }
      ],
      "stateMutability": "view",
      "type": "function",
      "constant": true
    },
    {
      "inputs": [],
      "name": "symbol",
      "outputs": [
        {
          "internalType": "string",
          "name": "",
          "type": "string"
        }
      ],
      "stateMutability": "view",
      "type": "function",
      "constant": true
    },
    {
      "inputs": [
        {
          "internalType": "uint256",
          "name": "index",
          "type": "uint256"
        }
      ],
      "name": "tokenByIndex",
      "outputs": [
        {
          "internalType": "uint256",
          "name": "",
          "type": "uint256"
        }
      ],
      "stateMutability": "view",
      "type": "function",
      "constant": true
    },
    {
      "inputs": [
        {
          "internalType": "address",
          "name": "owner",
          "type": "address"
        },
        {
          "internalType": "uint256",
          "name": "index",
          "type": "uint256"
        }
      ],
      "name": "tokenOfOwnerByIndex",
      "outputs": [
        {
          "internalType": "uint256",
          "name": "",
          "type": "uint256"
        }
      ],
      "stateMutability": "view",
      "type": "function",
      "constant": true
    },
    {
      "inputs": [
        {
          "internalType": "uint256",
          "name": "tokenId",
          "type": "uint256"
        }
      ],
      "name": "tokenURI",
      "outputs": [
        {
          "internalType": "string",
          "name": "",
          "type": "string"
        }
      ],
      "stateMutability": "view",
      "type": "function",
      "constant": true
    },
    {
      "inputs": [
        {
          "internalType": "uint256",
          "name": "",
          "type": "uint256"
        }
      ],
      "name": "tokens",
      "outputs": [
        {
          "internalType": "uint256",
          "name": "price",
          "type": "uint256"
        },
        {
          "internalType": "address payable",
          "name": "creator",
          "type": "address"
        },
        {
          "internalType": "bool",
          "name": "isDropOfTheDay",
          "type": "bool"
        },
        {
          "internalType": "bool",
          "name": "onSale",
          "type": "bool"
        },
        {
          "internalType": "uint256",
          "name": "royalties",
          "type": "uint256"
        }
      ],
      "stateMutability": "view",
      "type": "function",
      "constant": true
    },
    {
      "inputs": [],
      "name": "totalSupply",
      "outputs": [
        {
          "internalType": "uint256",
          "name": "",
          "type": "uint256"
        }
      ],
      "stateMutability": "view",
      "type": "function",
      "constant": true
    },
    {
      "inputs": [
        {
          "internalType": "address",
          "name": "from",
          "type": "address"
        },
        {
          "internalType": "address",
          "name": "to",
          "type": "address"
        },
        {
          "internalType": "uint256",
          "name": "tokenId",
          "type": "uint256"
        }
      ],
      "name": "transferFrom",
      "outputs": [],
      "stateMutability": "nonpayable",
      "type": "function"
    },
    {
      "inputs": [
        {
          "internalType": "address",
          "name": "newOwner",
          "type": "address"
        }
      ],
      "name": "transferOwnership",
      "outputs": [],
      "stateMutability": "nonpayable",
      "type": "function"
    },
    {
      "inputs": [
        {
          "internalType": "string",
          "name": "tokenURI",
          "type": "string"
        },
        {
          "internalType": "uint256",
          "name": "_royalties",
          "type": "uint256"
        }
      ],
      "name": "createItem",
      "outputs": [
        {
          "internalType": "uint256",
          "name": "",
          "type": "uint256"
        }
      ],
      "stateMutability": "nonpayable",
      "type": "function"
    },
    {
      "inputs": [
        {
          "internalType": "uint256",
          "name": "_id",
          "type": "uint256"
        },
        {
          "internalType": "uint256",
          "name": "_price",
          "type": "uint256"
        }
      ],
      "name": "putOnSale",
      "outputs": [],
      "stateMutability": "nonpayable",
      "type": "function"
    },
    {
      "inputs": [
        {
          "internalType": "uint256",
          "name": "_id",
          "type": "uint256"
        },
        {
          "internalType": "uint256",
          "name": "_commisionInBp",
          "type": "uint256"
        }
      ],
      "name": "setDropOfTheDay",
      "outputs": [],
      "stateMutability": "nonpayable",
      "type": "function"
    },
    {
      "inputs": [
        {
          "internalType": "string",
          "name": "tokenURI",
          "type": "string"
        },
        {
          "internalType": "uint256",
          "name": "_price",
          "type": "uint256"
        },
        {
          "internalType": "uint256",
          "name": "_royalties",
          "type": "uint256"
        }
      ],
      "name": "createAndPutOnSale",
      "outputs": [
        {
          "internalType": "uint256",
          "name": "",
          "type": "uint256"
        }
      ],
      "stateMutability": "nonpayable",
      "type": "function"
    },
    {
      "inputs": [
        {
          "internalType": "uint256",
          "name": "_tokenId",
          "type": "uint256"
        }
      ],
      "name": "buy",
      "outputs": [],
      "stateMutability": "payable",
      "type": "function",
      "payable": true
    },
    {
      "inputs": [
        {
          "internalType": "string",
          "name": "_tokenURI",
          "type": "string"
        },
        {
          "internalType": "uint256",
          "name": "_startDate",
          "type": "uint256"
        },
        {
          "internalType": "uint256",
          "name": "_durationInSeconds",
          "type": "uint256"
        },
        {
          "internalType": "uint256",
          "name": "_royalties",
          "type": "uint256"
        }
      ],
      "name": "CreateAndPutOnAuction",
      "outputs": [
        {
          "internalType": "uint256",
          "name": "",
          "type": "uint256"
        }
      ],
      "stateMutability": "nonpayable",
      "type": "function"
    },
    {
      "inputs": [
        {
          "internalType": "uint256",
          "name": "_tokenId",
          "type": "uint256"
        },
        {
          "internalType": "uint256",
          "name": "_minAmount",
          "type": "uint256"
        },
        {
          "internalType": "uint256",
          "name": "_startDate",
          "type": "uint256"
        },
        {
          "internalType": "uint256",
          "name": "_durationInSeconds",
          "type": "uint256"
        }
      ],
      "name": "startAuction",
      "outputs": [],
      "stateMutability": "nonpayable",
      "type": "function"
    },
    {
      "inputs": [
        {
          "internalType": "uint256",
          "name": "_tokenId",
          "type": "uint256"
        }
      ],
      "name": "removeAuction",
      "outputs": [],
      "stateMutability": "nonpayable",
      "type": "function"
    },
    {
      "inputs": [
        {
          "internalType": "uint256",
          "name": "_tokenId",
          "type": "uint256"
        },
        {
          "internalType": "address",
          "name": "_winner",
          "type": "address"
        },
        {
          "internalType": "uint256",
          "name": "_amount",
          "type": "uint256"
        }
      ],
      "name": "setWinner",
      "outputs": [
        {
          "internalType": "bool",
          "name": "",
          "type": "bool"
        }
      ],
      "stateMutability": "nonpayable",
      "type": "function"
    },
    {
      "inputs": [
        {
          "internalType": "uint256",
          "name": "_tokenId",
          "type": "uint256"
        },
        {
          "internalType": "uint256",
          "name": "_durationInSeconds",
          "type": "uint256"
        }
      ],
      "name": "extendAuctionTime",
      "outputs": [
        {
          "internalType": "bool",
          "name": "",
          "type": "bool"
        }
      ],
      "stateMutability": "nonpayable",
      "type": "function"
    },
    {
      "inputs": [
        {
          "internalType": "uint256",
          "name": "_tokenId",
          "type": "uint256"
        }
      ],
      "name": "claim",
      "outputs": [],
      "stateMutability": "payable",
      "type": "function",
      "payable": true
    },
    {
      "inputs": [],
      "name": "ahora",
      "outputs": [
        {
          "internalType": "uint256",
          "name": "",
          "type": "uint256"
        }
      ],
      "stateMutability": "view",
      "type": "function",
      "constant": true
    }
  ],
  "bytecode": "0x6080604052612616600f5560fa6010556109c46011553480156200002257600080fd5b506040518060400160405280600b81526020017f5361746f7368692e6172740000000000000000000000000000000000000000008152506040518060400160405280600481526020017f5341544f00000000000000000000000000000000000000000000000000000000815250620000a76301ffc9a760e01b620001da60201b60201c565b8160069080519060200190620000bf929190620002eb565b508060079080519060200190620000d8929190620002eb565b50620000f16380ac58cd60e01b620001da60201b60201c565b62000109635b5e139f60e01b620001da60201b60201c565b6200012163780e9d6360e01b620001da60201b60201c565b5050600062000135620002e360201b60201c565b905080600a60006101000a81548173ffffffffffffffffffffffffffffffffffffffff021916908373ffffffffffffffffffffffffffffffffffffffff1602179055508073ffffffffffffffffffffffffffffffffffffffff16600073ffffffffffffffffffffffffffffffffffffffff167f8be0079c531659141344cd1fd0a4f28419497f9722a3daafe3b4186f6b6457e060405160405180910390a3506200039a565b63ffffffff60e01b817bffffffffffffffffffffffffffffffffffffffffffffffffffffffff1916141562000277576040517f08c379a000000000000000000000000000000000000000000000000000000000815260040180806020018281038252601c8152602001807f4552433136353a20696e76616c696420696e746572666163652069640000000081525060200191505060405180910390fd5b6001600080837bffffffffffffffffffffffffffffffffffffffffffffffffffffffff19167bffffffffffffffffffffffffffffffffffffffffffffffffffffffff1916815260200190815260200160002060006101000a81548160ff02191690831515021790555050565b600033905090565b828054600181600116156101000203166002900490600052602060002090601f016020900481019282601f106200032e57805160ff19168380011785556200035f565b828001600101855582156200035f579182015b828111156200035e57825182559160200191906001019062000341565b5b5090506200036e919062000372565b5090565b6200039791905b808211156200039357600081600090555060010162000379565b5090565b90565b615ee080620003aa6000396000f3fe6080604052600436106101f95760003560e01c8063571a26a01161010d5780638da5cb5b116100a0578063b88d4fde1161006f578063b88d4fde14610f15578063c87b56dd14611027578063d96a094a146110db578063e985e9c514611109578063f2fde38b14611192576101f9565b80638da5cb5b14610d7457806395d89b4114610dcb578063a22cb46514610e5b578063acc7b0d114610eb8576101f9565b806370a08231116100dc57806370a0823114610bb9578063715018a614610c1e5780638c55174214610c355780638d2c448814610d1b576101f9565b8063571a26a0146108e95780636352211e146109be5780636c0360eb14610a395780636e15c56a14610ac9576101f9565b80632dd7030b1161019057806341c967df1161015f57806341c967df1461060957806342842e0e146107035780634f64b2be1461077e5780634f6ccce71461081d57806351b422831461086c576101f9565b80632dd7030b146104ec5780632f745c591461052757806336f7992b14610596578063379607f5146105db576101f9565b80631142919b116101cc5780631142919b146103d657806318160ddd1461041b57806323b872dd146104465780632b866759146104c1576101f9565b806301ffc9a7146101fe57806306fdde0314610270578063081812fc14610300578063095ea7b31461037b575b600080fd5b34801561020a57600080fd5b506102566004803603602081101561022157600080fd5b8101908080357bffffffffffffffffffffffffffffffffffffffffffffffffffffffff191690602001909291905050506111e3565b604051808215151515815260200191505060405180910390f35b34801561027c57600080fd5b5061028561124a565b6040518080602001828103825283818151815260200191508051906020019080838360005b838110156102c55780820151818401526020810190506102aa565b50505050905090810190601f1680156102f25780820380516001836020036101000a031916815260200191505b509250505060405180910390f35b34801561030c57600080fd5b506103396004803603602081101561032357600080fd5b81019080803590602001909291905050506112ec565b604051808273ffffffffffffffffffffffffffffffffffffffff1673ffffffffffffffffffffffffffffffffffffffff16815260200191505060405180910390f35b34801561038757600080fd5b506103d46004803603604081101561039e57600080fd5b81019080803573ffffffffffffffffffffffffffffffffffffffff16906020019092919080359060200190929190505050611387565b005b3480156103e257600080fd5b50610419600480360360408110156103f957600080fd5b8101908080359060200190929190803590602001909291905050506114cb565b005b34801561042757600080fd5b50610430611765565b6040518082815260200191505060405180910390f35b34801561045257600080fd5b506104bf6004803603606081101561046957600080fd5b81019080803573ffffffffffffffffffffffffffffffffffffffff169060200190929190803573ffffffffffffffffffffffffffffffffffffffff16906020019092919080359060200190929190505050611776565b005b3480156104cd57600080fd5b506104d66117ec565b6040518082815260200191505060405180910390f35b3480156104f857600080fd5b506105256004803603602081101561050f57600080fd5b81019080803590602001909291905050506117f4565b005b34801561053357600080fd5b506105806004803603604081101561054a57600080fd5b81019080803573ffffffffffffffffffffffffffffffffffffffff16906020019092919080359060200190929190505050611a20565b6040518082815260200191505060405180910390f35b3480156105a257600080fd5b506105d9600480360360408110156105b957600080fd5b810190808035906020019092919080359060200190929190505050611a7b565b005b610607600480360360208110156105f157600080fd5b8101908080359060200190929190505050611cd3565b005b34801561061557600080fd5b506106ed6004803603608081101561062c57600080fd5b810190808035906020019064010000000081111561064957600080fd5b82018360208201111561065b57600080fd5b8035906020019184600183028401116401000000008311171561067d57600080fd5b91908080601f016020809104026020016040519081016040528093929190818152602001838380828437600081840152601f19601f8201169050808301925050505050505091929192908035906020019092919080359060200190929190803590602001909291905050506124db565b6040518082815260200191505060405180910390f35b34801561070f57600080fd5b5061077c6004803603606081101561072657600080fd5b81019080803573ffffffffffffffffffffffffffffffffffffffff169060200190929190803573ffffffffffffffffffffffffffffffffffffffff169060200190929190803590602001909291905050506127df565b005b34801561078a57600080fd5b506107b7600480360360208110156107a157600080fd5b81019080803590602001909291905050506127ff565b604051808681526020018573ffffffffffffffffffffffffffffffffffffffff1673ffffffffffffffffffffffffffffffffffffffff16815260200184151515158152602001831515151581526020018281526020019550505050505060405180910390f35b34801561082957600080fd5b506108566004803603602081101561084057600080fd5b810190808035906020019092919050505061286f565b6040518082815260200191505060405180910390f35b34801561087857600080fd5b506108cf6004803603606081101561088f57600080fd5b8101908080359060200190929190803573ffffffffffffffffffffffffffffffffffffffff16906020019092919080359060200190929190505050612892565b604051808215151515815260200191505060405180910390f35b3480156108f557600080fd5b506109226004803603602081101561090c57600080fd5b8101908080359060200190929190505050612c10565b604051808873ffffffffffffffffffffffffffffffffffffffff1673ffffffffffffffffffffffffffffffffffffffff1681526020018773ffffffffffffffffffffffffffffffffffffffff1673ffffffffffffffffffffffffffffffffffffffff1681526020018681526020018581526020018481526020018381526020018215151515815260200197505050505050505060405180910390f35b3480156109ca57600080fd5b506109f7600480360360208110156109e157600080fd5b8101908080359060200190929190505050612c9f565b604051808273ffffffffffffffffffffffffffffffffffffffff1673ffffffffffffffffffffffffffffffffffffffff16815260200191505060405180910390f35b348015610a4557600080fd5b50610a4e612cd6565b6040518080602001828103825283818151815260200191508051906020019080838360005b83811015610a8e578082015181840152602081019050610a73565b50505050905090810190601f168015610abb5780820380516001836020036101000a031916815260200191505b509250505060405180910390f35b348015610ad557600080fd5b50610ba360048036036060811015610aec57600080fd5b8101908080359060200190640100000000811115610b0957600080fd5b820183602082011115610b1b57600080fd5b80359060200191846001830284011164010000000083111715610b3d57600080fd5b91908080601f016020809104026020016040519081016040528093929190818152602001838380828437600081840152601f19601f8201169050808301925050505050505091929192908035906020019092919080359060200190929190505050612d78565b6040518082815260200191505060405180910390f35b348015610bc557600080fd5b50610c0860048036036020811015610bdc57600080fd5b81019080803573ffffffffffffffffffffffffffffffffffffffff169060200190929190505050612f78565b6040518082815260200191505060405180910390f35b348015610c2a57600080fd5b50610c3361304d565b005b348015610c4157600080fd5b50610d0560048036036040811015610c5857600080fd5b8101908080359060200190640100000000811115610c7557600080fd5b820183602082011115610c8757600080fd5b80359060200191846001830284011164010000000083111715610ca957600080fd5b91908080601f016020809104026020016040519081016040528093929190818152602001838380828437600081840152601f19601f820116905080830192505050505050509192919290803590602001909291905050506131d8565b6040518082815260200191505060405180910390f35b348015610d2757600080fd5b50610d7260048036036080811015610d3e57600080fd5b81019080803590602001909291908035906020019092919080359060200190929190803590602001909291905050506133d8565b005b348015610d8057600080fd5b50610d89613616565b604051808273ffffffffffffffffffffffffffffffffffffffff1673ffffffffffffffffffffffffffffffffffffffff16815260200191505060405180910390f35b348015610dd757600080fd5b50610de0613640565b6040518080602001828103825283818151815260200191508051906020019080838360005b83811015610e20578082015181840152602081019050610e05565b50505050905090810190601f168015610e4d5780820380516001836020036101000a031916815260200191505b509250505060405180910390f35b348015610e6757600080fd5b50610eb660048036036040811015610e7e57600080fd5b81019080803573ffffffffffffffffffffffffffffffffffffffff1690602001909291908035151590602001909291905050506136e2565b005b348015610ec457600080fd5b50610efb60048036036040811015610edb57600080fd5b81019080803590602001909291908035906020019092919050505061389a565b604051808215151515815260200191505060405180910390f35b348015610f2157600080fd5b5061102560048036036080811015610f3857600080fd5b81019080803573ffffffffffffffffffffffffffffffffffffffff169060200190929190803573ffffffffffffffffffffffffffffffffffffffff1690602001909291908035906020019092919080359060200190640100000000811115610f9f57600080fd5b820183602082011115610fb157600080fd5b80359060200191846001830284011164010000000083111715610fd357600080fd5b91908080601f016020809104026020016040519081016040528093929190818152602001838380828437600081840152601f19601f820116905080830192505050505050509192919290505050613b71565b005b34801561103357600080fd5b506110606004803603602081101561104a57600080fd5b8101908080359060200190929190505050613be9565b6040518080602001828103825283818151815260200191508051906020019080838360005b838110156110a0578082015181840152602081019050611085565b50505050905090810190601f1680156110cd5780820380516001836020036101000a031916815260200191505b509250505060405180910390f35b611107600480360360208110156110f157600080fd5b8101908080359060200190929190505050613ed2565b005b34801561111557600080fd5b506111786004803603604081101561112c57600080fd5b81019080803573ffffffffffffffffffffffffffffffffffffffff169060200190929190803573ffffffffffffffffffffffffffffffffffffffff1690602001909291905050506143d9565b604051808215151515815260200191505060405180910390f35b34801561119e57600080fd5b506111e1600480360360208110156111b557600080fd5b81019080803573ffffffffffffffffffffffffffffffffffffffff16906020019092919050505061446d565b005b6000806000837bffffffffffffffffffffffffffffffffffffffffffffffffffffffff19167bffffffffffffffffffffffffffffffffffffffffffffffffffffffff1916815260200190815260200160002060009054906101000a900460ff169050919050565b606060068054600181600116156101000203166002900480601f0160208091040260200160405190810160405280929190818152602001828054600181600116156101000203166002900480156112e25780601f106112b7576101008083540402835291602001916112e2565b820191906000526020600020905b8154815290600101906020018083116112c557829003601f168201915b5050505050905090565b60006112f78261467d565b61134c576040517f08c379a000000000000000000000000000000000000000000000000000000000815260040180806020018281038252602c815260200180615d55602c913960400191505060405180910390fd5b6004600083815260200190815260200160002060009054906101000a900473ffffffffffffffffffffffffffffffffffffffff169050919050565b600061139282612c9f565b90508073ffffffffffffffffffffffffffffffffffffffff168373ffffffffffffffffffffffffffffffffffffffff161415611419576040517f08c379a0000000000000000000000000000000000000000000000000000000008152600401808060200182810382526021815260200180615e056021913960400191505060405180910390fd5b8073ffffffffffffffffffffffffffffffffffffffff1661143861469a565b73ffffffffffffffffffffffffffffffffffffffff16148061146757506114668161146161469a565b6143d9565b5b6114bc576040517f08c379a0000000000000000000000000000000000000000000000000000000008152600401808060200182810382526038815260200180615ca86038913960400191505060405180910390fd5b6114c683836146a2565b505050565b6114d361469a565b73ffffffffffffffffffffffffffffffffffffffff16600a60009054906101000a900473ffffffffffffffffffffffffffffffffffffffff1673ffffffffffffffffffffffffffffffffffffffff1614611595576040517f08c379a00000000000000000000000000000000000000000000000000000000081526004018080602001828103825260208152602001807f4f776e61626c653a2063616c6c6572206973206e6f7420746865206f776e657281525060200191505060405180910390fd5b61159d615a0b565b600c60008481526020019081526020016000206040518060a0016040529081600082015481526020016001820160009054906101000a900473ffffffffffffffffffffffffffffffffffffffff1673ffffffffffffffffffffffffffffffffffffffff1673ffffffffffffffffffffffffffffffffffffffff1681526020016001820160149054906101000a900460ff161515151581526020016001820160159054906101000a900460ff1615151515815260200160028201548152505090506040518060a00160405280826000015181526020013373ffffffffffffffffffffffffffffffffffffffff1681526020016001151581526020016001151581526020018260800151815250600c60008581526020019081526020016000206000820151816000015560208201518160010160006101000a81548173ffffffffffffffffffffffffffffffffffffffff021916908373ffffffffffffffffffffffffffffffffffffffff16021790555060408201518160010160146101000a81548160ff02191690831515021790555060608201518160010160156101000a81548160ff0219169083151502179055506080820151816002015590505081601181905550505050565b6000611771600261475b565b905090565b61178761178161469a565b82614770565b6117dc576040517f08c379a0000000000000000000000000000000000000000000000000000000008152600401808060200182810382526031815260200180615e266031913960400191505060405180910390fd5b6117e7838383614864565b505050565b600042905090565b6117fd81612c9f565b73ffffffffffffffffffffffffffffffffffffffff163373ffffffffffffffffffffffffffffffffffffffff16148061186957503373ffffffffffffffffffffffffffffffffffffffff16611851826112ec565b73ffffffffffffffffffffffffffffffffffffffff16145b6118be576040517f08c379a0000000000000000000000000000000000000000000000000000000008152600401808060200182810382526031815260200180615c256031913960400191505060405180910390fd5b6118c6615a54565b6040518060e001604052803373ffffffffffffffffffffffffffffffffffffffff168152602001600073ffffffffffffffffffffffffffffffffffffffff1681526020016000815260200160008152602001600081526020016000815260200160001515815250905080600d600084815260200190815260200160002060008201518160000160006101000a81548173ffffffffffffffffffffffffffffffffffffffff021916908373ffffffffffffffffffffffffffffffffffffffff16021790555060208201518160010160006101000a81548173ffffffffffffffffffffffffffffffffffffffff021916908373ffffffffffffffffffffffffffffffffffffffff16021790555060408201518160020155606082015181600301556080820151816004015560a0820151816005015560c08201518160060160006101000a81548160ff0219169083151502179055509050505050565b6000611a7382600160008673ffffffffffffffffffffffffffffffffffffffff1673ffffffffffffffffffffffffffffffffffffffff168152602001908152602001600020614aa790919063ffffffff16565b905092915050565b611a83615a0b565b600c60008481526020019081526020016000206040518060a0016040529081600082015481526020016001820160009054906101000a900473ffffffffffffffffffffffffffffffffffffffff1673ffffffffffffffffffffffffffffffffffffffff1673ffffffffffffffffffffffffffffffffffffffff1681526020016001820160149054906101000a900460ff161515151581526020016001820160159054906101000a900460ff161515151581526020016002820154815250509050611b4c83612c9f565b73ffffffffffffffffffffffffffffffffffffffff163373ffffffffffffffffffffffffffffffffffffffff1614611bcf576040517f08c379a0000000000000000000000000000000000000000000000000000000008152600401808060200182810382526022815260200180615b876022913960400191505060405180910390fd5b6040518060a00160405280838152602001826020015173ffffffffffffffffffffffffffffffffffffffff1681526020018260400151151581526020016001151581526020018260800151815250600c60008581526020019081526020016000206000820151816000015560208201518160010160006101000a81548173ffffffffffffffffffffffffffffffffffffffff021916908373ffffffffffffffffffffffffffffffffffffffff16021790555060408201518160010160146101000a81548160ff02191690831515021790555060608201518160010160156101000a81548160ff02191690831515021790555060808201518160020155905050505050565b6000600d6000838152602001908152602001600020905080600201543414611d63576040517f08c379a00000000000000000000000000000000000000000000000000000000081526004018080602001828103825260148152602001807f416d6f756e74206973206e6f7420656e6f75676800000000000000000000000081525060200191505060405180910390fd5b8060010160009054906101000a900473ffffffffffffffffffffffffffffffffffffffff1673ffffffffffffffffffffffffffffffffffffffff163373ffffffffffffffffffffffffffffffffffffffff1614611e28576040517f08c379a00000000000000000000000000000000000000000000000000000000081526004018080602001828103825260168152602001807f55736572206973206e6f74207468652077696e6e65720000000000000000000081525060200191505060405180910390fd5b8060050154341015611e85576040517f08c379a0000000000000000000000000000000000000000000000000000000008152600401808060200182810382526026815260200180615e856026913960400191505060405180910390fd5b600115158160060160009054906101000a900460ff16151514611f10576040517f08c379a000000000000000000000000000000000000000000000000000000000815260040180806020018281038252601f8152602001807f5468697320746f6b656e206973206e6f74206f6e20616e2061756374696f6e0081525060200191505060405180910390fd5b600033905060003490506000611f2585612c9f565b9050611f2f615a0b565b600c60008781526020019081526020016000206040518060a0016040529081600082015481526020016001820160009054906101000a900473ffffffffffffffffffffffffffffffffffffffff1673ffffffffffffffffffffffffffffffffffffffff1673ffffffffffffffffffffffffffffffffffffffff1681526020016001820160149054906101000a900460ff161515151581526020016001820160159054906101000a900460ff1615151515815260200160028201548152505090506000600f54905060011515826040015115151415612011576011546127100390505b816020015173ffffffffffffffffffffffffffffffffffffffff1661203588612c9f565b73ffffffffffffffffffffffffffffffffffffffff16141561210d57816020015173ffffffffffffffffffffffffffffffffffffffff166108fc6127108387028161207c57fe5b049081150290604051600060405180830381858888f193505050501580156120a8573d6000803e3d6000fd5b50816020015173ffffffffffffffffffffffffffffffffffffffff167fd4f43975feb89f48dd30cabbb32011045be187d1e11c8ea9faa43efc35282519612710838702816120f257fe5b046040518082815260200191505060405180910390a2612294565b6000600c60008981526020019081526020016000206002015490508373ffffffffffffffffffffffffffffffffffffffff166108fc61271083850388028161215157fe5b049081150290604051600060405180830381858888f1935050505015801561217d573d6000803e3d6000fd5b508373ffffffffffffffffffffffffffffffffffffffff167fd4f43975feb89f48dd30cabbb32011045be187d1e11c8ea9faa43efc352825196127108385890203816121c557fe5b046040518082815260200191505060405180910390a2826020015173ffffffffffffffffffffffffffffffffffffffff166108fc6127108388028161220657fe5b049081150290604051600060405180830381858888f19350505050158015612232573d6000803e3d6000fd5b50826020015173ffffffffffffffffffffffffffffffffffffffff167f5e5f52560db9ef5da65cc565a5dd2f11a4fb0ac6462266ef1525df11fd43f0246127108388028161227c57fe5b046040518082815260200191505060405180910390a2505b6000826060019015159081151581525050600082604001901515908115158152505081600c60008981526020019081526020016000206000820151816000015560208201518160010160006101000a81548173ffffffffffffffffffffffffffffffffffffffff021916908373ffffffffffffffffffffffffffffffffffffffff16021790555060408201518160010160146101000a81548160ff02191690831515021790555060608201518160010160156101000a81548160ff0219169083151502179055506080820151816002015590505061237b61237488612c9f565b8689614864565b60008660060160006101000a81548160ff02191690831515021790555085600d60008981526020019081526020016000206000820160009054906101000a900473ffffffffffffffffffffffffffffffffffffffff168160000160006101000a81548173ffffffffffffffffffffffffffffffffffffffff021916908373ffffffffffffffffffffffffffffffffffffffff1602179055506001820160009054906101000a900473ffffffffffffffffffffffffffffffffffffffff168160010160006101000a81548173ffffffffffffffffffffffffffffffffffffffff021916908373ffffffffffffffffffffffffffffffffffffffff160217905550600282015481600201556003820154816003015560048201548160040155600582015481600501556006820160009054906101000a900460ff168160060160006101000a81548160ff02191690831515021790555090505050505050505050565b60006103e8821115612555576040517f08c379a00000000000000000000000000000000000000000000000000000000081526004018080602001828103825260128152602001807f526f79616c7469657320746f6f2068696768000000000000000000000000000081525060200191505060405180910390fd5b61255f600b614ac1565b600061256b600b614ad7565b90506125773382614ae5565b6125818187614cd9565b6040518060a00160405280600081526020013373ffffffffffffffffffffffffffffffffffffffff16815260200160001515815260200160011515815260200184815250600c60008381526020019081526020016000206000820151816000015560208201518160010160006101000a81548173ffffffffffffffffffffffffffffffffffffffff021916908373ffffffffffffffffffffffffffffffffffffffff16021790555060408201518160010160146101000a81548160ff02191690831515021790555060608201518160010160156101000a81548160ff0219169083151502179055506080820151816002015590505061267e615a54565b6040518060e001604052803373ffffffffffffffffffffffffffffffffffffffff168152602001600073ffffffffffffffffffffffffffffffffffffffff168152602001600081526020018781526020018681526020016000815260200160011515815250905080600d600084815260200190815260200160002060008201518160000160006101000a81548173ffffffffffffffffffffffffffffffffffffffff021916908373ffffffffffffffffffffffffffffffffffffffff16021790555060208201518160010160006101000a81548173ffffffffffffffffffffffffffffffffffffffff021916908373ffffffffffffffffffffffffffffffffffffffff16021790555060408201518160020155606082015181600301556080820151816004015560a0820151816005015560c08201518160060160006101000a81548160ff0219169083151502179055509050508192505050949350505050565b6127fa83838360405180602001604052806000815250613b71565b505050565b600c6020528060005260406000206000915090508060000154908060010160009054906101000a900473ffffffffffffffffffffffffffffffffffffffff16908060010160149054906101000a900460ff16908060010160159054906101000a900460ff16908060020154905085565b600080612886836002614d6390919063ffffffff16565b50905080915050919050565b600061289c61469a565b73ffffffffffffffffffffffffffffffffffffffff16600a60009054906101000a900473ffffffffffffffffffffffffffffffffffffffff1673ffffffffffffffffffffffffffffffffffffffff161461295e576040517f08c379a00000000000000000000000000000000000000000000000000000000081526004018080602001828103825260208152602001807f4f776e61626c653a2063616c6c6572206973206e6f7420746865206f776e657281525060200191505060405180910390fd5b6000600d6000868152602001908152602001600020905061299081600401548260030154614d9290919063ffffffff16565b4211612a04576040517f08c379a00000000000000000000000000000000000000000000000000000000081526004018080602001828103825260148152602001807f41756374696f6e207374696c6c2061637469766500000000000000000000000081525060200191505060405180910390fd5b8060050154831015612a7e576040517f08c379a00000000000000000000000000000000000000000000000000000000081526004018080602001828103825260168152602001807f416d6f756e74206e6f74206869676820656e6f7567680000000000000000000081525060200191505060405180910390fd5b838160010160006101000a81548173ffffffffffffffffffffffffffffffffffffffff021916908373ffffffffffffffffffffffffffffffffffffffff16021790555082816002018190555080600d60008781526020019081526020016000206000820160009054906101000a900473ffffffffffffffffffffffffffffffffffffffff168160000160006101000a81548173ffffffffffffffffffffffffffffffffffffffff021916908373ffffffffffffffffffffffffffffffffffffffff1602179055506001820160009054906101000a900473ffffffffffffffffffffffffffffffffffffffff168160010160006101000a81548173ffffffffffffffffffffffffffffffffffffffff021916908373ffffffffffffffffffffffffffffffffffffffff160217905550600282015481600201556003820154816003015560048201548160040155600582015481600501556006820160009054906101000a900460ff168160060160006101000a81548160ff02191690831515021790555090505060019150509392505050565b600d6020528060005260406000206000915090508060000160009054906101000a900473ffffffffffffffffffffffffffffffffffffffff16908060010160009054906101000a900473ffffffffffffffffffffffffffffffffffffffff16908060020154908060030154908060040154908060050154908060060160009054906101000a900460ff16905087565b6000612ccf82604051806060016040528060298152602001615d0a602991396002614e1a9092919063ffffffff16565b9050919050565b606060098054600181600116156101000203166002900480601f016020809104026020016040519081016040528092919081815260200182805460018160011615610100020316600290048015612d6e5780601f10612d4357610100808354040283529160200191612d6e565b820191906000526020600020905b815481529060010190602001808311612d5157829003601f168201915b5050505050905090565b60006103e8821115612df2576040517f08c379a00000000000000000000000000000000000000000000000000000000081526004018080602001828103825260128152602001807f526f79616c7469657320746f6f2068696768000000000000000000000000000081525060200191505060405180910390fd5b612dfc600b614ac1565b6000612e08600b614ad7565b9050612e143382614ae5565b612e1e8186614cd9565b6040518060a001604052808581526020013373ffffffffffffffffffffffffffffffffffffffff16815260200160001515815260200160011515815260200184815250600c60008381526020019081526020016000206000820151816000015560208201518160010160006101000a81548173ffffffffffffffffffffffffffffffffffffffff021916908373ffffffffffffffffffffffffffffffffffffffff16021790555060408201518160010160146101000a81548160ff02191690831515021790555060608201518160010160156101000a81548160ff02191690831515021790555060808201518160020155905050803073ffffffffffffffffffffffffffffffffffffffff163373ffffffffffffffffffffffffffffffffffffffff167f8c5be1e5ebec7d5bd14f71427d1e84f3dd0314c0f7b2291e5b200ac8c7c3b92560405160405180910390a4809150509392505050565b60008073ffffffffffffffffffffffffffffffffffffffff168273ffffffffffffffffffffffffffffffffffffffff161415612fff576040517f08c379a000000000000000000000000000000000000000000000000000000000815260040180806020018281038252602a815260200180615ce0602a913960400191505060405180910390fd5b613046600160008473ffffffffffffffffffffffffffffffffffffffff1673ffffffffffffffffffffffffffffffffffffffff168152602001908152602001600020614e39565b9050919050565b61305561469a565b73ffffffffffffffffffffffffffffffffffffffff16600a60009054906101000a900473ffffffffffffffffffffffffffffffffffffffff1673ffffffffffffffffffffffffffffffffffffffff1614613117576040517f08c379a00000000000000000000000000000000000000000000000000000000081526004018080602001828103825260208152602001807f4f776e61626c653a2063616c6c6572206973206e6f7420746865206f776e657281525060200191505060405180910390fd5b600073ffffffffffffffffffffffffffffffffffffffff16600a60009054906101000a900473ffffffffffffffffffffffffffffffffffffffff1673ffffffffffffffffffffffffffffffffffffffff167f8be0079c531659141344cd1fd0a4f28419497f9722a3daafe3b4186f6b6457e060405160405180910390a36000600a60006101000a81548173ffffffffffffffffffffffffffffffffffffffff021916908373ffffffffffffffffffffffffffffffffffffffff160217905550565b60006103e8821115613252576040517f08c379a00000000000000000000000000000000000000000000000000000000081526004018080602001828103825260128152602001807f526f79616c7469657320746f6f2068696768000000000000000000000000000081525060200191505060405180910390fd5b61325c600b614ac1565b6000613268600b614ad7565b90506132743382614ae5565b61327e8185614cd9565b6040518060a00160405280600081526020013373ffffffffffffffffffffffffffffffffffffffff16815260200160001515815260200160001515815260200184815250600c60008381526020019081526020016000206000820151816000015560208201518160010160006101000a81548173ffffffffffffffffffffffffffffffffffffffff021916908373ffffffffffffffffffffffffffffffffffffffff16021790555060408201518160010160146101000a81548160ff02191690831515021790555060608201518160010160156101000a81548160ff02191690831515021790555060808201518160020155905050803073ffffffffffffffffffffffffffffffffffffffff163373ffffffffffffffffffffffffffffffffffffffff167f8c5be1e5ebec7d5bd14f71427d1e84f3dd0314c0f7b2291e5b200ac8c7c3b92560405160405180910390a48091505092915050565b6133e184612c9f565b73ffffffffffffffffffffffffffffffffffffffff163373ffffffffffffffffffffffffffffffffffffffff16148061344d57503373ffffffffffffffffffffffffffffffffffffffff16613435856112ec565b73ffffffffffffffffffffffffffffffffffffffff16145b6134a2576040517f08c379a000000000000000000000000000000000000000000000000000000000815260040180806020018281038252602e815260200180615e57602e913960400191505060405180910390fd5b6134aa615a54565b6040518060e001604052803373ffffffffffffffffffffffffffffffffffffffff168152602001600073ffffffffffffffffffffffffffffffffffffffff168152602001600081526020016135088542614d9290919063ffffffff16565b815260200183815260200185815260200160011515815250905080600d600087815260200190815260200160002060008201518160000160006101000a81548173ffffffffffffffffffffffffffffffffffffffff021916908373ffffffffffffffffffffffffffffffffffffffff16021790555060208201518160010160006101000a81548173ffffffffffffffffffffffffffffffffffffffff021916908373ffffffffffffffffffffffffffffffffffffffff16021790555060408201518160020155606082015181600301556080820151816004015560a0820151816005015560c08201518160060160006101000a81548160ff0219169083151502179055509050505050505050565b6000600a60009054906101000a900473ffffffffffffffffffffffffffffffffffffffff16905090565b606060078054600181600116156101000203166002900480601f0160208091040260200160405190810160405280929190818152602001828054600181600116156101000203166002900480156136d85780601f106136ad576101008083540402835291602001916136d8565b820191906000526020600020905b8154815290600101906020018083116136bb57829003601f168201915b5050505050905090565b6136ea61469a565b73ffffffffffffffffffffffffffffffffffffffff168273ffffffffffffffffffffffffffffffffffffffff16141561378b576040517f08c379a00000000000000000000000000000000000000000000000000000000081526004018080602001828103825260198152602001807f4552433732313a20617070726f766520746f2063616c6c65720000000000000081525060200191505060405180910390fd5b806005600061379861469a565b73ffffffffffffffffffffffffffffffffffffffff1673ffffffffffffffffffffffffffffffffffffffff16815260200190815260200160002060008473ffffffffffffffffffffffffffffffffffffffff1673ffffffffffffffffffffffffffffffffffffffff16815260200190815260200160002060006101000a81548160ff0219169083151502179055508173ffffffffffffffffffffffffffffffffffffffff1661384561469a565b73ffffffffffffffffffffffffffffffffffffffff167f17307eab39ab6107e8899845ad3d59bd9653f200f220920489ca2b5937696c3183604051808215151515815260200191505060405180910390a35050565b60006138a461469a565b73ffffffffffffffffffffffffffffffffffffffff16600a60009054906101000a900473ffffffffffffffffffffffffffffffffffffffff1673ffffffffffffffffffffffffffffffffffffffff1614613966576040517f08c379a00000000000000000000000000000000000000000000000000000000081526004018080602001828103825260208152602001807f4f776e61626c653a2063616c6c6572206973206e6f7420746865206f776e657281525060200191505060405180910390fd5b6000600d6000858152602001908152602001600020905061399881600401548260030154614d9290919063ffffffff16565b421115613a0d576040517f08c379a000000000000000000000000000000000000000000000000000000000815260040180806020018281038252600d8152602001807f41756374696f6e20656e6465640000000000000000000000000000000000000081525060200191505060405180910390fd5b613a24838260040154614d9290919063ffffffff16565b816004018190555080600d60008681526020019081526020016000206000820160009054906101000a900473ffffffffffffffffffffffffffffffffffffffff168160000160006101000a81548173ffffffffffffffffffffffffffffffffffffffff021916908373ffffffffffffffffffffffffffffffffffffffff1602179055506001820160009054906101000a900473ffffffffffffffffffffffffffffffffffffffff168160010160006101000a81548173ffffffffffffffffffffffffffffffffffffffff021916908373ffffffffffffffffffffffffffffffffffffffff160217905550600282015481600201556003820154816003015560048201548160040155600582015481600501556006820160009054906101000a900460ff168160060160006101000a81548160ff021916908315150217905550905050600191505092915050565b613b82613b7c61469a565b83614770565b613bd7576040517f08c379a0000000000000000000000000000000000000000000000000000000008152600401808060200182810382526031815260200180615e266031913960400191505060405180910390fd5b613be384848484614e4e565b50505050565b6060613bf48261467d565b613c49576040517f08c379a000000000000000000000000000000000000000000000000000000000815260040180806020018281038252602f815260200180615dd6602f913960400191505060405180910390fd5b6060600860008481526020019081526020016000208054600181600116156101000203166002900480601f016020809104026020016040519081016040528092919081815260200182805460018160011615610100020316600290048015613cf25780601f10613cc757610100808354040283529160200191613cf2565b820191906000526020600020905b815481529060010190602001808311613cd557829003601f168201915b50505050509050600060098054600181600116156101000203166002900490501415613d215780915050613ecd565b600081511115613dfa576009816040516020018083805460018160011615610100020316600290048015613d8c5780601f10613d6a576101008083540402835291820191613d8c565b820191906000526020600020905b815481529060010190602001808311613d78575b505082805190602001908083835b60208310613dbd5780518252602082019150602081019050602083039250613d9a565b6001836020036101000a03801982511681845116808217855250505050505090500192505050604051602081830303815290604052915050613ecd565b6009613e0584614ec0565b6040516020018083805460018160011615610100020316600290048015613e635780601f10613e41576101008083540402835291820191613e63565b820191906000526020600020905b815481529060010190602001808311613e4f575b505082805190602001908083835b60208310613e945780518252602082019150602081019050602083039250613e71565b6001836020036101000a038019825116818451168082178552505050505050905001925050506040516020818303038152906040529150505b919050565b600033905060003490506000613ee784612c9f565b9050613ef1615a0b565b600c60008681526020019081526020016000206040518060a0016040529081600082015481526020016001820160009054906101000a900473ffffffffffffffffffffffffffffffffffffffff1673ffffffffffffffffffffffffffffffffffffffff1673ffffffffffffffffffffffffffffffffffffffff1681526020016001820160149054906101000a900460ff161515151581526020016001820160159054906101000a900460ff16151515158152602001600282015481525050905060011515816060015115151461402f576040517f08c379a00000000000000000000000000000000000000000000000000000000081526004018080602001828103825260158152602001807f546f6b656e206973206e6f7420666f722073616c65000000000000000000000081525060200191505060405180910390fd5b600081600001519050808410156140ae576040517f08c379a00000000000000000000000000000000000000000000000000000000081526004018080602001828103825260148152602001807f416d6f756e74206973206e6f7420656e6f75676800000000000000000000000081525060200191505060405180910390fd5b600115158260400151151514156140c457600080fd5b6000826020015190506000600f549050600115158460400151151514156140ef576011546127100390505b8173ffffffffffffffffffffffffffffffffffffffff1661410f89612c9f565b73ffffffffffffffffffffffffffffffffffffffff1614156141df578173ffffffffffffffffffffffffffffffffffffffff166108fc6127108389028161415257fe5b049081150290604051600060405180830381858888f1935050505015801561417e573d6000803e3d6000fd5b508173ffffffffffffffffffffffffffffffffffffffff167fd4f43975feb89f48dd30cabbb32011045be187d1e11c8ea9faa43efc35282519612710838902816141c457fe5b046040518082815260200191505060405180910390a261435e565b6000600c60008a81526020019081526020016000206002015490508573ffffffffffffffffffffffffffffffffffffffff166108fc6127108385038a028161422357fe5b049081150290604051600060405180830381858888f1935050505015801561424f573d6000803e3d6000fd5b508573ffffffffffffffffffffffffffffffffffffffff167fd4f43975feb89f48dd30cabbb32011045be187d1e11c8ea9faa43efc3528251961271083858b02038161429757fe5b046040518082815260200191505060405180910390a28273ffffffffffffffffffffffffffffffffffffffff166108fc612710838a02816142d457fe5b049081150290604051600060405180830381858888f19350505050158015614300573d6000803e3d6000fd5b508273ffffffffffffffffffffffffffffffffffffffff167f5e5f52560db9ef5da65cc565a5dd2f11a4fb0ac6462266ef1525df11fd43f024612710838a028161434657fe5b046040518082815260200191505060405180910390a2505b61437161436a89612c9f565b888a614864565b6000600c60008a815260200190815260200160002060010160156101000a81548160ff0219169083151502179055506000600c60008a815260200190815260200160002060010160146101000a81548160ff0219169083151502179055505050505050505050565b6000600560008473ffffffffffffffffffffffffffffffffffffffff1673ffffffffffffffffffffffffffffffffffffffff16815260200190815260200160002060008373ffffffffffffffffffffffffffffffffffffffff1673ffffffffffffffffffffffffffffffffffffffff16815260200190815260200160002060009054906101000a900460ff16905092915050565b61447561469a565b73ffffffffffffffffffffffffffffffffffffffff16600a60009054906101000a900473ffffffffffffffffffffffffffffffffffffffff1673ffffffffffffffffffffffffffffffffffffffff1614614537576040517f08c379a00000000000000000000000000000000000000000000000000000000081526004018080602001828103825260208152602001807f4f776e61626c653a2063616c6c6572206973206e6f7420746865206f776e657281525060200191505060405180910390fd5b600073ffffffffffffffffffffffffffffffffffffffff168173ffffffffffffffffffffffffffffffffffffffff1614156145bd576040517f08c379a0000000000000000000000000000000000000000000000000000000008152600401808060200182810382526026815260200180615bdb6026913960400191505060405180910390fd5b8073ffffffffffffffffffffffffffffffffffffffff16600a60009054906101000a900473ffffffffffffffffffffffffffffffffffffffff1673ffffffffffffffffffffffffffffffffffffffff167f8be0079c531659141344cd1fd0a4f28419497f9722a3daafe3b4186f6b6457e060405160405180910390a380600a60006101000a81548173ffffffffffffffffffffffffffffffffffffffff021916908373ffffffffffffffffffffffffffffffffffffffff16021790555050565b6000614693826002614ff090919063ffffffff16565b9050919050565b600033905090565b816004600083815260200190815260200160002060006101000a81548173ffffffffffffffffffffffffffffffffffffffff021916908373ffffffffffffffffffffffffffffffffffffffff160217905550808273ffffffffffffffffffffffffffffffffffffffff1661471583612c9f565b73ffffffffffffffffffffffffffffffffffffffff167f8c5be1e5ebec7d5bd14f71427d1e84f3dd0314c0f7b2291e5b200ac8c7c3b92560405160405180910390a45050565b60006147698260000161500a565b9050919050565b600061477b8261467d565b6147d0576040517f08c379a000000000000000000000000000000000000000000000000000000000815260040180806020018281038252602c815260200180615c7c602c913960400191505060405180910390fd5b60006147db83612c9f565b90508073ffffffffffffffffffffffffffffffffffffffff168473ffffffffffffffffffffffffffffffffffffffff16148061484a57508373ffffffffffffffffffffffffffffffffffffffff16614832846112ec565b73ffffffffffffffffffffffffffffffffffffffff16145b8061485b575061485a81856143d9565b5b91505092915050565b8273ffffffffffffffffffffffffffffffffffffffff1661488482612c9f565b73ffffffffffffffffffffffffffffffffffffffff16146148f0576040517f08c379a0000000000000000000000000000000000000000000000000000000008152600401808060200182810382526029815260200180615dad6029913960400191505060405180910390fd5b600073ffffffffffffffffffffffffffffffffffffffff168273ffffffffffffffffffffffffffffffffffffffff161415614976576040517f08c379a0000000000000000000000000000000000000000000000000000000008152600401808060200182810382526024815260200180615c016024913960400191505060405180910390fd5b61498183838361501b565b61498c6000826146a2565b6149dd81600160008673ffffffffffffffffffffffffffffffffffffffff1673ffffffffffffffffffffffffffffffffffffffff16815260200190815260200160002061502090919063ffffffff16565b50614a2f81600160008573ffffffffffffffffffffffffffffffffffffffff1673ffffffffffffffffffffffffffffffffffffffff16815260200190815260200160002061503a90919063ffffffff16565b50614a46818360026150549092919063ffffffff16565b50808273ffffffffffffffffffffffffffffffffffffffff168473ffffffffffffffffffffffffffffffffffffffff167fddf252ad1be2c89b69c2b068fc378daa952ba7f163c4a11628f55a4df523b3ef60405160405180910390a4505050565b6000614ab68360000183615089565b60001c905092915050565b6001816000016000828254019250508190555050565b600081600001549050919050565b600073ffffffffffffffffffffffffffffffffffffffff168273ffffffffffffffffffffffffffffffffffffffff161415614b88576040517f08c379a00000000000000000000000000000000000000000000000000000000081526004018080602001828103825260208152602001807f4552433732313a206d696e7420746f20746865207a65726f206164647265737381525060200191505060405180910390fd5b614b918161467d565b15614c04576040517f08c379a000000000000000000000000000000000000000000000000000000000815260040180806020018281038252601c8152602001807f4552433732313a20746f6b656e20616c7265616479206d696e7465640000000081525060200191505060405180910390fd5b614c106000838361501b565b614c6181600160008573ffffffffffffffffffffffffffffffffffffffff1673ffffffffffffffffffffffffffffffffffffffff16815260200190815260200160002061503a90919063ffffffff16565b50614c78818360026150549092919063ffffffff16565b50808273ffffffffffffffffffffffffffffffffffffffff16600073ffffffffffffffffffffffffffffffffffffffff167fddf252ad1be2c89b69c2b068fc378daa952ba7f163c4a11628f55a4df523b3ef60405160405180910390a45050565b614ce28261467d565b614d37576040517f08c379a000000000000000000000000000000000000000000000000000000000815260040180806020018281038252602c815260200180615d81602c913960400191505060405180910390fd5b80600860008481526020019081526020016000209080519060200190614d5e929190615abf565b505050565b600080600080614d76866000018661510c565b915091508160001c8160001c8090509350935050509250929050565b600080828401905083811015614e10576040517f08c379a000000000000000000000000000000000000000000000000000000000815260040180806020018281038252601b8152602001807f536166654d6174683a206164646974696f6e206f766572666c6f77000000000081525060200191505060405180910390fd5b8091505092915050565b6000614e2d846000018460001b846151a5565b60001c90509392505050565b6000614e478260000161529b565b9050919050565b614e59848484614864565b614e65848484846152ac565b614eba576040517f08c379a0000000000000000000000000000000000000000000000000000000008152600401808060200182810382526032815260200180615ba96032913960400191505060405180910390fd5b50505050565b60606000821415614f08576040518060400160405280600181526020017f30000000000000000000000000000000000000000000000000000000000000008152509050614feb565b600082905060005b60008214614f32578080600101915050600a8281614f2a57fe5b049150614f10565b6060816040519080825280601f01601f191660200182016040528015614f675781602001600182028038833980820191505090505b50905060006001830390508593505b60008414614fe357600a8481614f8857fe5b0660300160f81b82828060019003935081518110614fa257fe5b60200101907effffffffffffffffffffffffffffffffffffffffffffffffffffffffffffff1916908160001a905350600a8481614fdb57fe5b049350614f76565b819450505050505b919050565b6000615002836000018360001b6154f1565b905092915050565b600081600001805490509050919050565b505050565b6000615032836000018360001b615514565b905092915050565b600061504c836000018360001b6155fc565b905092915050565b6000615080846000018460001b8473ffffffffffffffffffffffffffffffffffffffff1660001b61566c565b90509392505050565b6000818360000180549050116150ea576040517f08c379a0000000000000000000000000000000000000000000000000000000008152600401808060200182810382526022815260200180615b656022913960400191505060405180910390fd5b8260000182815481106150f957fe5b9060005260206000200154905092915050565b6000808284600001805490501161516e576040517f08c379a0000000000000000000000000000000000000000000000000000000008152600401808060200182810382526022815260200180615d336022913960400191505060405180910390fd5b600084600001848154811061517f57fe5b906000526020600020906002020190508060000154816001015492509250509250929050565b6000808460010160008581526020019081526020016000205490506000811415839061526c576040517f08c379a00000000000000000000000000000000000000000000000000000000081526004018080602001828103825283818151815260200191508051906020019080838360005b83811015615231578082015181840152602081019050615216565b50505050905090810190601f16801561525e5780820380516001836020036101000a031916815260200191505b509250505060405180910390fd5b5084600001600182038154811061527f57fe5b9060005260206000209060020201600101549150509392505050565b600081600001805490509050919050565b60006152cd8473ffffffffffffffffffffffffffffffffffffffff16615748565b6152da57600190506154e9565b606061547063150b7a0260e01b6152ef61469a565b888787604051602401808573ffffffffffffffffffffffffffffffffffffffff1673ffffffffffffffffffffffffffffffffffffffff1681526020018473ffffffffffffffffffffffffffffffffffffffff1673ffffffffffffffffffffffffffffffffffffffff16815260200183815260200180602001828103825283818151815260200191508051906020019080838360005b8381101561539f578082015181840152602081019050615384565b50505050905090810190601f1680156153cc5780820380516001836020036101000a031916815260200191505b5095505050505050604051602081830303815290604052907bffffffffffffffffffffffffffffffffffffffffffffffffffffffff19166020820180517bffffffffffffffffffffffffffffffffffffffffffffffffffffffff8381831617835250505050604051806060016040528060328152602001615ba9603291398773ffffffffffffffffffffffffffffffffffffffff1661575b9092919063ffffffff16565b9050600081806020019051602081101561548957600080fd5b8101908080519060200190929190505050905063150b7a0260e01b7bffffffffffffffffffffffffffffffffffffffffffffffffffffffff1916817bffffffffffffffffffffffffffffffffffffffffffffffffffffffff191614925050505b949350505050565b600080836001016000848152602001908152602001600020541415905092915050565b600080836001016000848152602001908152602001600020549050600081146155f0576000600182039050600060018660000180549050039050600086600001828154811061555f57fe5b906000526020600020015490508087600001848154811061557c57fe5b90600052602060002001819055506001830187600101600083815260200190815260200160002081905550866000018054806155b457fe5b600190038181906000526020600020016000905590558660010160008781526020019081526020016000206000905560019450505050506155f6565b60009150505b92915050565b60006156088383615773565b615661578260000182908060018154018082558091505060019003906000526020600020016000909190919091505582600001805490508360010160008481526020019081526020016000208190555060019050615666565b600090505b92915050565b600080846001016000858152602001908152602001600020549050600081141561571357846000016040518060400160405280868152602001858152509080600181540180825580915050600190039060005260206000209060020201600090919091909150600082015181600001556020820151816001015550508460000180549050856001016000868152602001908152602001600020819055506001915050615741565b8285600001600183038154811061572657fe5b90600052602060002090600202016001018190555060009150505b9392505050565b600080823b905060008111915050919050565b606061576a8484600085615796565b90509392505050565b600080836001016000848152602001908152602001600020541415905092915050565b6060824710156157f1576040517f08c379a0000000000000000000000000000000000000000000000000000000008152600401808060200182810382526026815260200180615c566026913960400191505060405180910390fd5b6157fa85615748565b61586c576040517f08c379a000000000000000000000000000000000000000000000000000000000815260040180806020018281038252601d8152602001807f416464726573733a2063616c6c20746f206e6f6e2d636f6e747261637400000081525060200191505060405180910390fd5b600060608673ffffffffffffffffffffffffffffffffffffffff1685876040518082805190602001908083835b602083106158bc5780518252602082019150602081019050602083039250615899565b6001836020036101000a03801982511681845116808217855250505050505090500191505060006040518083038185875af1925050503d806000811461591e576040519150601f19603f3d011682016040523d82523d6000602084013e615923565b606091505b509150915061593382828661593f565b92505050949350505050565b6060831561594f57829050615a04565b6000835111156159625782518084602001fd5b816040517f08c379a00000000000000000000000000000000000000000000000000000000081526004018080602001828103825283818151815260200191508051906020019080838360005b838110156159c95780820151818401526020810190506159ae565b50505050905090810190601f1680156159f65780820380516001836020036101000a031916815260200191505b509250505060405180910390fd5b9392505050565b6040518060a0016040528060008152602001600073ffffffffffffffffffffffffffffffffffffffff168152602001600015158152602001600015158152602001600081525090565b6040518060e00160405280600073ffffffffffffffffffffffffffffffffffffffff168152602001600073ffffffffffffffffffffffffffffffffffffffff168152602001600081526020016000815260200160008152602001600081526020016000151581525090565b828054600181600116156101000203166002900490600052602060002090601f016020900481019282601f10615b0057805160ff1916838001178555615b2e565b82800160010185558215615b2e579182015b82811115615b2d578251825591602001919060010190615b12565b5b509050615b3b9190615b3f565b5090565b615b6191905b80821115615b5d576000816000905550600101615b45565b5090565b9056fe456e756d657261626c655365743a20696e646578206f7574206f6620626f756e64734f6e6c79206f776e65722063616e2070757420616e206974656d206f6e2073616c654552433732313a207472616e7366657220746f206e6f6e20455243373231526563656976657220696d706c656d656e7465724f776e61626c653a206e6577206f776e657220697320746865207a65726f20616464726573734552433732313a207472616e7366657220746f20746865207a65726f20616464726573734f6e6c7920746865206f776e65722063616e2072656d6f7665206120746f6b656e2066726f6d20616e2061756374696f6e416464726573733a20696e73756666696369656e742062616c616e636520666f722063616c6c4552433732313a206f70657261746f7220717565727920666f72206e6f6e6578697374656e7420746f6b656e4552433732313a20617070726f76652063616c6c6572206973206e6f74206f776e6572206e6f7220617070726f76656420666f7220616c6c4552433732313a2062616c616e636520717565727920666f7220746865207a65726f20616464726573734552433732313a206f776e657220717565727920666f72206e6f6e6578697374656e7420746f6b656e456e756d657261626c654d61703a20696e646578206f7574206f6620626f756e64734552433732313a20617070726f76656420717565727920666f72206e6f6e6578697374656e7420746f6b656e4552433732314d657461646174613a2055524920736574206f66206e6f6e6578697374656e7420746f6b656e4552433732313a207472616e73666572206f6620746f6b656e2074686174206973206e6f74206f776e4552433732314d657461646174613a2055524920717565727920666f72206e6f6e6578697374656e7420746f6b656e4552433732313a20617070726f76616c20746f2063757272656e74206f776e65724552433732313a207472616e736665722063616c6c6572206973206e6f74206f776e6572206e6f7220617070726f7665644f6e6c7920746865206f776e65722063616e20736574206120746f6b656e20696e746f20616e2061756374696f6e616d6f756e74206973206c6f776572207468617420746865206d696e696d756d207072696365a2646970667358221220b24bb710ea7082d2b35a5757bd012fbca4ca7d26b50d39d35c70287e6631c68264736f6c63430006020033",
  "source": "pragma solidity ^0.6.2;\n\nimport \"@openzeppelin/contracts/token/ERC721/ERC721.sol\";\nimport \"@openzeppelin/contracts/utils/Counters.sol\";\nimport \"@openzeppelin/contracts/access/Ownable.sol\";\n\n// The ERC721 contract. It is ownable for the case of the setWinner, that will be called in the backend, so\n// it should be called only by the owner or maybe by a designer operator\ncontract Satoshi721 is ERC721, Ownable {\n    using Counters for Counters.Counter;\n    Counters.Counter private _tokenIds;\n\n    // Emit this event when a royalty is generated\n    event Royalty(address indexed artist, uint256 _value);\n    event Payment(address indexed artist, uint256 _value);\n\n    // data of the token\n    struct TokenData {\n        uint256 price;\n        address payable creator;\n        bool isDropOfTheDay;\n        bool onSale;\n        uint256 royalties;\n    }\n    // the token data is saved on a mapping, having the token id as key\n    mapping(uint256 => TokenData) public tokens;\n\n    // Auctions data. As there will be an auction for celebrities with timing of 10-30 minutes the auction will be handled offchain\n    struct Auction {\n        address creator;\n        address bestBidder;\n        uint256 bestBidAmount;\n        uint256 startTime;\n        uint256 duration;\n        uint256 minimumPrice;\n        bool active;\n    }\n    // the key is the tokenId, so only one auction per token is allowed\n    mapping(uint256 => Auction) public auctions;\n\n    address payable platform;\n    uint256 bpArtists = 9750; // 94.00 in basis points (parts per 10,000)\n    uint256 bpPlatform = 250; // 6% for the platform\n    uint256 bpDropOfDay = 2500; // the drop of the day will have a commision of 25%, modificable by the admin\n\n    constructor() public ERC721(\"Satoshi.art\", \"SATO\") {}\n\n    // Mints the NFT and save the data into the tokens mapping. By default the token is not on sale\n    function createItem(\n        string memory tokenURI, // URI pointing to the art\n        uint256 _royalties // royalties assigned to the token by the creator, in bps\n    ) public returns (uint256) {\n        require(_royalties <= 1000, \"Royalties too high\"); // limit is 10% for royalties\n        \n        _tokenIds.increment();\n\n        uint256 newItemId = _tokenIds.current();\n        _mint(msg.sender, newItemId);\n        _setTokenURI(newItemId, tokenURI);\n\n        tokens[newItemId] = TokenData({\n            price: 0,\n            creator: msg.sender,\n            isDropOfTheDay: false,\n            onSale: false,\n            royalties: _royalties\n        });\n\n        emit Approval(msg.sender, address(this), newItemId);\n\n        return newItemId;\n    }\n\n    // sets an existing token as \"onsale\"\n    function putOnSale(uint256 _id, uint256 _price) public {\n        TokenData memory token = tokens[_id];\n\n        require(\n            msg.sender == ownerOf(_id),\n            \"Only owner can put an item on sale\"\n        );\n\n        tokens[_id] = TokenData({\n            price: _price,\n            creator: token.creator,\n            isDropOfTheDay: token.isDropOfTheDay,\n            onSale: true,\n            royalties: token.royalties\n        });\n    }\n\n    // The owner (not sure about this for security reasons) is able to set a token as \"drop of the day\"\n    // so the commision instead of 2.5% will be entered directly by the owner\n    function setDropOfTheDay(uint256 _id, uint256 _commisionInBp)\n        public\n        onlyOwner\n    {\n        TokenData memory token = tokens[_id];\n\n        /*  require(\n            msg.sender == address(this),\n            \"Only owner can put an item as drop of the day\"\n        );*/\n\n        tokens[_id] = TokenData({\n            price: token.price,\n            creator: msg.sender,\n            isDropOfTheDay: true,\n            onSale: true,\n            royalties: token.royalties\n        });\n        // as only one drop of the day is allowed at the same time\n        bpDropOfDay = _commisionInBp;\n    }\n\n    function createAndPutOnSale(\n        string memory tokenURI, // URI pointing to the art\n        uint256 _price, // price in weis of the token\n        uint256 _royalties\n    ) public returns (uint256) {\n        require(_royalties <= 1000, \"Royalties too high\"); // limit is 10% for royalties\n        \n        _tokenIds.increment();\n\n        uint256 newItemId = _tokenIds.current();\n        _mint(msg.sender, newItemId);\n        _setTokenURI(newItemId, tokenURI);\n\n        tokens[newItemId] = TokenData({\n            price: _price,\n            creator: msg.sender,\n            isDropOfTheDay: false,\n            onSale: true,\n            royalties: _royalties\n        });\n\n        emit Approval(msg.sender, address(this), newItemId);\n\n        return newItemId;\n    }\n\n    function buy(uint256 _tokenId) external payable {\n        address buyer = msg.sender;\n        uint256 payedPrice = msg.value;\n        address payable currentOwner = payable(ownerOf(_tokenId));\n        TokenData memory token = tokens[_tokenId];\n        require(token.onSale == true, \"Token is not for sale\");\n        uint256 price = token.price;\n        require(payedPrice >= price, \"Amount is not enough\");\n        require(token.isDropOfTheDay != true);\n        address payable creator = token.creator;\n        uint256 commision = bpArtists;\n        if (token.isDropOfTheDay == true) commision = (10000 - bpDropOfDay);\n        if (ownerOf(_tokenId) == creator) {\n            {\n                creator.transfer((payedPrice * commision) / 10000);\n                emit Payment(creator, (payedPrice * commision) / 10000);\n            }\n        } else {\n            // Resale, so transfer also royalties, that are substracted from buyer commision\n            uint256 royalties = tokens[_tokenId].royalties;\n            currentOwner.transfer(\n                (payedPrice * (commision - royalties)) / 10000\n            );\n            emit Payment(\n                currentOwner,\n                (payedPrice * commision - royalties) / 10000\n            );\n            creator.transfer((payedPrice * royalties) / 10000);\n            emit Royalty(creator, (payedPrice * royalties) / 10000);\n        }\n        _transfer(ownerOf(_tokenId), buyer, _tokenId);\n        tokens[_tokenId].onSale = false;\n        tokens[_tokenId].isDropOfTheDay = false;\n    }\n\n    // The creator mints a token and set inmediatly an auction with it\n    function CreateAndPutOnAuction(\n        string memory _tokenURI, // URI pointing to the art\n        uint256 _startDate,\n        uint256 _durationInSeconds,\n        uint256 _royalties\n    ) public returns (uint256) {\n        require(_royalties <= 1000, \"Royalties too high\"); // limit is 10% for royalties\n        \n        _tokenIds.increment();\n\n        uint256 newItemId = _tokenIds.current();\n        _mint(msg.sender, newItemId);\n        _setTokenURI(newItemId, _tokenURI);\n        // Add the token to the token list\n        tokens[newItemId] = TokenData({\n            creator: msg.sender,\n            isDropOfTheDay: false,\n            price: 0,\n            onSale: true,\n            royalties: _royalties\n        });\n        // add the token to the auction\n        Auction memory auction =\n            Auction({\n                creator: msg.sender,\n                minimumPrice: 0,\n                bestBidAmount: 0,\n                startTime: _startDate,\n                duration: _durationInSeconds,\n                bestBidder: address(0),\n                active: true\n            });\n        auctions[newItemId] = auction;\n        return newItemId;\n    }\n\n    // Start an auction using a token (that must exists)\n    function startAuction(\n        uint256 _tokenId,\n        uint256 _minAmount,\n        uint256 _startDate,\n        uint256 _durationInSeconds\n    ) external {\n        require(\n            msg.sender == ownerOf(_tokenId) ||\n                getApproved(_tokenId) == msg.sender,\n            \"Only the owner can set a token into an auction\"\n        );\n        Auction memory auction =\n            Auction({\n                creator: msg.sender,\n                minimumPrice: _minAmount,\n                bestBidAmount: 0,\n                startTime: now.add(_startDate),\n                duration: _durationInSeconds,\n                bestBidder: address(0),\n                active: true\n            });\n        auctions[_tokenId] = auction;\n    }\n\n// remove a token from the auction list. As removing from a map costs a lot, simply set the active field to false\n    function removeAuction(\n        uint256 _tokenId       \n    ) external {\n        require(\n            msg.sender == ownerOf(_tokenId) ||\n                getApproved(_tokenId) == msg.sender,\n            \"Only the owner can remove a token from an auction\"\n        );\n        Auction memory auction =\n            Auction({\n                creator: msg.sender,\n                minimumPrice: 0,\n                bestBidAmount: 0,\n                startTime: 0,\n                duration: 0,\n                bestBidder: address(0),\n                active: false\n            });\n        auctions[_tokenId] = auction;\n    }\n\n    // Warning!! this method will be called from the backend to set the winner of an auction with the corresponding amount\n    function setWinner(\n        uint256 _tokenId,\n        address _winner,\n        uint256 _amount\n    ) public onlyOwner returns (bool) {\n        Auction storage auction = auctions[_tokenId];\n        require(\n            now > auction.startTime.add(auction.duration),\n            \"Auction still active\"\n        );\n        require(_amount >= auction.minimumPrice, \"Amount not high enough\");\n        auction.bestBidder = _winner;\n        auction.bestBidAmount = _amount;\n        auctions[_tokenId] = auction;\n        return true;\n    }\n\n    function extendAuctionTime(\n        uint256 _tokenId,\n        uint256 _durationInSeconds\n    ) public onlyOwner returns (bool) {\n        Auction storage auction = auctions[_tokenId];\n        require(\n            now <= auction.startTime.add(auction.duration),\n            \"Auction ended\"\n        );\n        auction.duration = auction.duration.add(_durationInSeconds);\n        auctions[_tokenId] = auction;\n        return true;\n    }\n\n    // The winner of the bid should be able to claim the token\n    function claim(uint256 _tokenId) external payable {\n        Auction storage auction = auctions[_tokenId];\n        require(msg.value == auction.bestBidAmount, \"Amount is not enough\");\n        require(msg.sender == auction.bestBidder, \"User is not the winner\");\n        require(\n            msg.value >= auction.minimumPrice,\n            \"amount is lower that the minimum price\"\n        );\n        require(auction.active == true, \"This token is not on an auction\");\n\n        address payable winner = msg.sender;\n        uint256 payedPrice = msg.value;\n        address payable currentOwner = payable(ownerOf(_tokenId));\n        TokenData memory token = tokens[_tokenId];\n        // By default the commision is the one for the artist (97.5%)\n        uint256 commision = bpArtists;\n        // but if the token is the drop of the day, the commision is 100%-commisionDropOfTheDay\n        if (token.isDropOfTheDay == true) commision = (10000 - bpDropOfDay);\n        // CASE 1. First sale\n        if (ownerOf(_tokenId) == token.creator) {\n            token.creator.transfer((payedPrice * commision) / 10000);\n            emit Payment(token.creator, (payedPrice * commision) / 10000);\n        } else {\n            // CASE 2. Resale\n            uint256 royalties = tokens[_tokenId].royalties;\n            currentOwner.transfer((payedPrice * (commision - royalties)) / 10000);\n            emit Payment(\n                currentOwner,\n                (payedPrice * commision - royalties) / 10000\n            );\n            token.creator.transfer((payedPrice * royalties) / 10000);\n            emit Royalty(token.creator, (payedPrice * royalties) / 10000);\n        }\n\n        // the auction ended and the tokens will be transferred, so the token is not anymore on sale or the drop of the day\n        token.onSale = false;\n        token.isDropOfTheDay = false;\n        tokens[_tokenId] = token;\n\n        _transfer(ownerOf(_tokenId), winner, _tokenId);\n\n        // set the auction to false so could not be claimed \n        auction.active = false;\n        auctions[_tokenId] = auction;\n    }\n\n     function ahora() public  view returns (uint256)\n     {\n         return now;\n     } \n}\n",
  "sourcePath": "/home/linux/ether/satoshi721/contracts/Satoshi721.sol",
  "compiler": {
    "name": "solc",
    "version": "0.6.2+commit.bacdbe57.Emscripten.clang"
  },
  "schemaVersion": "3.3.4",
  "updatedAt": "2021-04-06T20:28:10.337Z",
  "networkType": "ethereum",
  "devdoc": {
    "methods": {
      "approve(address,uint256)": {
        "details": "See {IERC721-approve}."
      },
      "balanceOf(address)": {
        "details": "See {IERC721-balanceOf}."
      },
      "baseURI()": {
        "details": "Returns the base URI set via {_setBaseURI}. This will be automatically added as a prefix in {tokenURI} to each token's URI, or to the token ID if no specific URI is set for that token ID."
      },
      "getApproved(uint256)": {
        "details": "See {IERC721-getApproved}."
      },
      "isApprovedForAll(address,address)": {
        "details": "See {IERC721-isApprovedForAll}."
      },
      "name()": {
        "details": "See {IERC721Metadata-name}."
      },
      "owner()": {
        "details": "Returns the address of the current owner."
      },
      "ownerOf(uint256)": {
        "details": "See {IERC721-ownerOf}."
      },
      "renounceOwnership()": {
        "details": "Leaves the contract without owner. It will not be possible to call `onlyOwner` functions anymore. Can only be called by the current owner.     * NOTE: Renouncing ownership will leave the contract without an owner, thereby removing any functionality that is only available to the owner."
      },
      "safeTransferFrom(address,address,uint256)": {
        "details": "See {IERC721-safeTransferFrom}."
      },
      "safeTransferFrom(address,address,uint256,bytes)": {
        "details": "See {IERC721-safeTransferFrom}."
      },
      "setApprovalForAll(address,bool)": {
        "details": "See {IERC721-setApprovalForAll}."
      },
      "supportsInterface(bytes4)": {
        "details": "See {IERC165-supportsInterface}.     * Time complexity O(1), guaranteed to always use less than 30 000 gas."
      },
      "symbol()": {
        "details": "See {IERC721Metadata-symbol}."
      },
      "tokenByIndex(uint256)": {
        "details": "See {IERC721Enumerable-tokenByIndex}."
      },
      "tokenOfOwnerByIndex(address,uint256)": {
        "details": "See {IERC721Enumerable-tokenOfOwnerByIndex}."
      },
      "tokenURI(uint256)": {
        "details": "See {IERC721Metadata-tokenURI}."
      },
      "totalSupply()": {
        "details": "See {IERC721Enumerable-totalSupply}."
      },
      "transferFrom(address,address,uint256)": {
        "details": "See {IERC721-transferFrom}."
      },
      "transferOwnership(address)": {
        "details": "Transfers ownership of the contract to a new account (`newOwner`). Can only be called by the current owner."
      }
    }
  },
  "userdoc": {
    "methods": {}
  }
}