{
  "contractName": "Satoshi721",
  "abi": [
    {
      "inputs": [],
      "stateMutability": "nonpayable",
      "type": "constructor"
    },
    {
      "anonymous": false,
      "inputs": [
        {
          "indexed": true,
          "internalType": "address",
          "name": "owner",
          "type": "address"
        },
        {
          "indexed": true,
          "internalType": "address",
          "name": "approved",
          "type": "address"
        },
        {
          "indexed": true,
          "internalType": "uint256",
          "name": "tokenId",
          "type": "uint256"
        }
      ],
      "name": "Approval",
      "type": "event"
    },
    {
      "anonymous": false,
      "inputs": [
        {
          "indexed": true,
          "internalType": "address",
          "name": "owner",
          "type": "address"
        },
        {
          "indexed": true,
          "internalType": "address",
          "name": "operator",
          "type": "address"
        },
        {
          "indexed": false,
          "internalType": "bool",
          "name": "approved",
          "type": "bool"
        }
      ],
      "name": "ApprovalForAll",
      "type": "event"
    },
    {
      "anonymous": false,
      "inputs": [
        {
          "indexed": true,
          "internalType": "address",
          "name": "previousOwner",
          "type": "address"
        },
        {
          "indexed": true,
          "internalType": "address",
          "name": "newOwner",
          "type": "address"
        }
      ],
      "name": "OwnershipTransferred",
      "type": "event"
    },
    {
      "anonymous": false,
      "inputs": [
        {
          "indexed": true,
          "internalType": "address",
          "name": "artist",
          "type": "address"
        },
        {
          "indexed": false,
          "internalType": "uint256",
          "name": "_value",
          "type": "uint256"
        }
      ],
      "name": "Payment",
      "type": "event"
    },
    {
      "anonymous": false,
      "inputs": [
        {
          "indexed": true,
          "internalType": "address",
          "name": "artist",
          "type": "address"
        },
        {
          "indexed": false,
          "internalType": "uint256",
          "name": "_value",
          "type": "uint256"
        }
      ],
      "name": "Royalty",
      "type": "event"
    },
    {
      "anonymous": false,
      "inputs": [
        {
          "indexed": true,
          "internalType": "address",
          "name": "from",
          "type": "address"
        },
        {
          "indexed": true,
          "internalType": "address",
          "name": "to",
          "type": "address"
        },
        {
          "indexed": true,
          "internalType": "uint256",
          "name": "tokenId",
          "type": "uint256"
        }
      ],
      "name": "Transfer",
      "type": "event"
    },
    {
      "inputs": [
        {
          "internalType": "address",
          "name": "to",
          "type": "address"
        },
        {
          "internalType": "uint256",
          "name": "tokenId",
          "type": "uint256"
        }
      ],
      "name": "approve",
      "outputs": [],
      "stateMutability": "nonpayable",
      "type": "function"
    },
    {
      "inputs": [
        {
          "internalType": "uint256",
          "name": "",
          "type": "uint256"
        }
      ],
      "name": "auctions",
      "outputs": [
        {
          "internalType": "address",
          "name": "creator",
          "type": "address"
        },
        {
          "internalType": "address",
          "name": "bestBidder",
          "type": "address"
        },
        {
          "internalType": "uint256",
          "name": "bestBidAmount",
          "type": "uint256"
        },
        {
          "internalType": "uint256",
          "name": "startTime",
          "type": "uint256"
        },
        {
          "internalType": "uint256",
          "name": "duration",
          "type": "uint256"
        },
        {
          "internalType": "uint256",
          "name": "minimumPrice",
          "type": "uint256"
        }
      ],
      "stateMutability": "view",
      "type": "function",
      "constant": true
    },
    {
      "inputs": [
        {
          "internalType": "address",
          "name": "owner",
          "type": "address"
        }
      ],
      "name": "balanceOf",
      "outputs": [
        {
          "internalType": "uint256",
          "name": "",
          "type": "uint256"
        }
      ],
      "stateMutability": "view",
      "type": "function",
      "constant": true
    },
    {
      "inputs": [],
      "name": "baseURI",
      "outputs": [
        {
          "internalType": "string",
          "name": "",
          "type": "string"
        }
      ],
      "stateMutability": "view",
      "type": "function",
      "constant": true
    },
    {
      "inputs": [
        {
          "internalType": "uint256",
          "name": "tokenId",
          "type": "uint256"
        }
      ],
      "name": "getApproved",
      "outputs": [
        {
          "internalType": "address",
          "name": "",
          "type": "address"
        }
      ],
      "stateMutability": "view",
      "type": "function",
      "constant": true
    },
    {
      "inputs": [
        {
          "internalType": "address",
          "name": "owner",
          "type": "address"
        },
        {
          "internalType": "address",
          "name": "operator",
          "type": "address"
        }
      ],
      "name": "isApprovedForAll",
      "outputs": [
        {
          "internalType": "bool",
          "name": "",
          "type": "bool"
        }
      ],
      "stateMutability": "view",
      "type": "function",
      "constant": true
    },
    {
      "inputs": [],
      "name": "name",
      "outputs": [
        {
          "internalType": "string",
          "name": "",
          "type": "string"
        }
      ],
      "stateMutability": "view",
      "type": "function",
      "constant": true
    },
    {
      "inputs": [],
      "name": "owner",
      "outputs": [
        {
          "internalType": "address",
          "name": "",
          "type": "address"
        }
      ],
      "stateMutability": "view",
      "type": "function",
      "constant": true
    },
    {
      "inputs": [
        {
          "internalType": "uint256",
          "name": "tokenId",
          "type": "uint256"
        }
      ],
      "name": "ownerOf",
      "outputs": [
        {
          "internalType": "address",
          "name": "",
          "type": "address"
        }
      ],
      "stateMutability": "view",
      "type": "function",
      "constant": true
    },
    {
      "inputs": [],
      "name": "renounceOwnership",
      "outputs": [],
      "stateMutability": "nonpayable",
      "type": "function"
    },
    {
      "inputs": [
        {
          "internalType": "address",
          "name": "from",
          "type": "address"
        },
        {
          "internalType": "address",
          "name": "to",
          "type": "address"
        },
        {
          "internalType": "uint256",
          "name": "tokenId",
          "type": "uint256"
        }
      ],
      "name": "safeTransferFrom",
      "outputs": [],
      "stateMutability": "nonpayable",
      "type": "function"
    },
    {
      "inputs": [
        {
          "internalType": "address",
          "name": "from",
          "type": "address"
        },
        {
          "internalType": "address",
          "name": "to",
          "type": "address"
        },
        {
          "internalType": "uint256",
          "name": "tokenId",
          "type": "uint256"
        },
        {
          "internalType": "bytes",
          "name": "_data",
          "type": "bytes"
        }
      ],
      "name": "safeTransferFrom",
      "outputs": [],
      "stateMutability": "nonpayable",
      "type": "function"
    },
    {
      "inputs": [
        {
          "internalType": "address",
          "name": "operator",
          "type": "address"
        },
        {
          "internalType": "bool",
          "name": "approved",
          "type": "bool"
        }
      ],
      "name": "setApprovalForAll",
      "outputs": [],
      "stateMutability": "nonpayable",
      "type": "function"
    },
    {
      "inputs": [
        {
          "internalType": "bytes4",
          "name": "interfaceId",
          "type": "bytes4"
        }
      ],
      "name": "supportsInterface",
      "outputs": [
        {
          "internalType": "bool",
          "name": "",
          "type": "bool"
        }
      ],
      "stateMutability": "view",
      "type": "function",
      "constant": true
    },
    {
      "inputs": [],
      "name": "symbol",
      "outputs": [
        {
          "internalType": "string",
          "name": "",
          "type": "string"
        }
      ],
      "stateMutability": "view",
      "type": "function",
      "constant": true
    },
    {
      "inputs": [
        {
          "internalType": "uint256",
          "name": "index",
          "type": "uint256"
        }
      ],
      "name": "tokenByIndex",
      "outputs": [
        {
          "internalType": "uint256",
          "name": "",
          "type": "uint256"
        }
      ],
      "stateMutability": "view",
      "type": "function",
      "constant": true
    },
    {
      "inputs": [
        {
          "internalType": "address",
          "name": "owner",
          "type": "address"
        },
        {
          "internalType": "uint256",
          "name": "index",
          "type": "uint256"
        }
      ],
      "name": "tokenOfOwnerByIndex",
      "outputs": [
        {
          "internalType": "uint256",
          "name": "",
          "type": "uint256"
        }
      ],
      "stateMutability": "view",
      "type": "function",
      "constant": true
    },
    {
      "inputs": [
        {
          "internalType": "uint256",
          "name": "tokenId",
          "type": "uint256"
        }
      ],
      "name": "tokenURI",
      "outputs": [
        {
          "internalType": "string",
          "name": "",
          "type": "string"
        }
      ],
      "stateMutability": "view",
      "type": "function",
      "constant": true
    },
    {
      "inputs": [
        {
          "internalType": "uint256",
          "name": "",
          "type": "uint256"
        }
      ],
      "name": "tokens",
      "outputs": [
        {
          "internalType": "uint256",
          "name": "price",
          "type": "uint256"
        },
        {
          "internalType": "address payable",
          "name": "creator",
          "type": "address"
        },
        {
          "internalType": "bool",
          "name": "isDropOfTheDay",
          "type": "bool"
        },
        {
          "internalType": "bool",
          "name": "onSale",
          "type": "bool"
        },
        {
          "internalType": "uint256",
          "name": "royalties",
          "type": "uint256"
        }
      ],
      "stateMutability": "view",
      "type": "function",
      "constant": true
    },
    {
      "inputs": [],
      "name": "totalSupply",
      "outputs": [
        {
          "internalType": "uint256",
          "name": "",
          "type": "uint256"
        }
      ],
      "stateMutability": "view",
      "type": "function",
      "constant": true
    },
    {
      "inputs": [
        {
          "internalType": "address",
          "name": "from",
          "type": "address"
        },
        {
          "internalType": "address",
          "name": "to",
          "type": "address"
        },
        {
          "internalType": "uint256",
          "name": "tokenId",
          "type": "uint256"
        }
      ],
      "name": "transferFrom",
      "outputs": [],
      "stateMutability": "nonpayable",
      "type": "function"
    },
    {
      "inputs": [
        {
          "internalType": "address",
          "name": "newOwner",
          "type": "address"
        }
      ],
      "name": "transferOwnership",
      "outputs": [],
      "stateMutability": "nonpayable",
      "type": "function"
    },
    {
      "inputs": [
        {
          "internalType": "string",
          "name": "tokenURI",
          "type": "string"
        },
        {
          "internalType": "uint256",
          "name": "_price",
          "type": "uint256"
        },
        {
          "internalType": "uint256",
          "name": "_royalties",
          "type": "uint256"
        }
      ],
      "name": "createItem",
      "outputs": [
        {
          "internalType": "uint256",
          "name": "",
          "type": "uint256"
        }
      ],
      "stateMutability": "nonpayable",
      "type": "function"
    },
    {
      "inputs": [
        {
          "internalType": "uint256",
          "name": "_id",
          "type": "uint256"
        }
      ],
      "name": "putOnSale",
      "outputs": [],
      "stateMutability": "nonpayable",
      "type": "function"
    },
    {
      "inputs": [
        {
          "internalType": "uint256",
          "name": "_id",
          "type": "uint256"
        },
        {
          "internalType": "uint256",
          "name": "_commisionInBp",
          "type": "uint256"
        }
      ],
      "name": "setDropOfTheDay",
      "outputs": [],
      "stateMutability": "nonpayable",
      "type": "function"
    },
    {
      "inputs": [
        {
          "internalType": "string",
          "name": "tokenURI",
          "type": "string"
        },
        {
          "internalType": "uint256",
          "name": "_price",
          "type": "uint256"
        },
        {
          "internalType": "uint256",
          "name": "_royalties",
          "type": "uint256"
        }
      ],
      "name": "createAndPutOnSale",
      "outputs": [
        {
          "internalType": "uint256",
          "name": "",
          "type": "uint256"
        }
      ],
      "stateMutability": "nonpayable",
      "type": "function"
    },
    {
      "inputs": [
        {
          "internalType": "uint256",
          "name": "_tokenId",
          "type": "uint256"
        }
      ],
      "name": "buy",
      "outputs": [],
      "stateMutability": "payable",
      "type": "function",
      "payable": true
    },
    {
      "inputs": [
        {
          "internalType": "string",
          "name": "_tokenURI",
          "type": "string"
        },
        {
          "internalType": "uint256",
          "name": "_startDate",
          "type": "uint256"
        },
        {
          "internalType": "uint256",
          "name": "_durationInSeconds",
          "type": "uint256"
        },
        {
          "internalType": "uint256",
          "name": "_royalties",
          "type": "uint256"
        }
      ],
      "name": "CreateAndPutOnAuction",
      "outputs": [
        {
          "internalType": "uint256",
          "name": "",
          "type": "uint256"
        }
      ],
      "stateMutability": "nonpayable",
      "type": "function"
    },
    {
      "inputs": [
        {
          "internalType": "uint256",
          "name": "_tokenId",
          "type": "uint256"
        },
        {
          "internalType": "uint256",
          "name": "_minAmount",
          "type": "uint256"
        },
        {
          "internalType": "uint256",
          "name": "_startDate",
          "type": "uint256"
        },
        {
          "internalType": "uint256",
          "name": "_durationInSeconds",
          "type": "uint256"
        }
      ],
      "name": "startAuction",
      "outputs": [],
      "stateMutability": "nonpayable",
      "type": "function"
    },
    {
      "inputs": [
        {
          "internalType": "uint256",
          "name": "_tokenId",
          "type": "uint256"
        },
        {
          "internalType": "address",
          "name": "_winner",
          "type": "address"
        },
        {
          "internalType": "uint256",
          "name": "_amount",
          "type": "uint256"
        }
      ],
      "name": "setWinner",
      "outputs": [
        {
          "internalType": "bool",
          "name": "",
          "type": "bool"
        }
      ],
      "stateMutability": "nonpayable",
      "type": "function"
    },
    {
      "inputs": [
        {
          "internalType": "uint256",
          "name": "_tokenId",
          "type": "uint256"
        }
      ],
      "name": "claim",
      "outputs": [],
      "stateMutability": "payable",
      "type": "function",
      "payable": true
    },
    {
      "inputs": [],
      "name": "ahora",
      "outputs": [
        {
          "internalType": "uint256",
          "name": "",
          "type": "uint256"
        }
      ],
      "stateMutability": "view",
      "type": "function",
      "constant": true
    }
  ],
  "bytecode": "0x6080604052612616600f5560fa6010556109c46011553480156200002257600080fd5b506040518060400160405280600881526020017f4c756973204e46540000000000000000000000000000000000000000000000008152506040518060400160405280600481526020017f4c55495300000000000000000000000000000000000000000000000000000000815250620000a76301ffc9a760e01b620001da60201b60201c565b8160069080519060200190620000bf929190620002eb565b508060079080519060200190620000d8929190620002eb565b50620000f16380ac58cd60e01b620001da60201b60201c565b62000109635b5e139f60e01b620001da60201b60201c565b6200012163780e9d6360e01b620001da60201b60201c565b5050600062000135620002e360201b60201c565b905080600a60006101000a81548173ffffffffffffffffffffffffffffffffffffffff021916908373ffffffffffffffffffffffffffffffffffffffff1602179055508073ffffffffffffffffffffffffffffffffffffffff16600073ffffffffffffffffffffffffffffffffffffffff167f8be0079c531659141344cd1fd0a4f28419497f9722a3daafe3b4186f6b6457e060405160405180910390a3506200039a565b63ffffffff60e01b817bffffffffffffffffffffffffffffffffffffffffffffffffffffffff1916141562000277576040517f08c379a000000000000000000000000000000000000000000000000000000000815260040180806020018281038252601c8152602001807f4552433136353a20696e76616c696420696e746572666163652069640000000081525060200191505060405180910390fd5b6001600080837bffffffffffffffffffffffffffffffffffffffffffffffffffffffff19167bffffffffffffffffffffffffffffffffffffffffffffffffffffffff1916815260200190815260200160002060006101000a81548160ff02191690831515021790555050565b600033905090565b828054600181600116156101000203166002900490600052602060002090601f016020900481019282601f106200032e57805160ff19168380011785556200035f565b828001600101855582156200035f579182015b828111156200035e57825182559160200191906001019062000341565b5b5090506200036e919062000372565b5090565b6200039791905b808211156200039357600081600090555060010162000379565b5090565b90565b61551e80620003aa6000396000f3fe6080604052600436106101e35760003560e01c8063571a26a01161010257806395d89b4111610095578063c87b56dd11610064578063c87b56dd14610f6e578063d96a094a14611022578063e985e9c514611050578063f2fde38b146110d9576101e3565b806395d89b4114610d345780639dbcfd6f14610dc4578063a22cb46514610dff578063b88d4fde14610e5c576101e3565b806370a08231116100d157806370a0823114610c08578063715018a614610c6d5780638d2c448814610c845780638da5cb5b14610cdd576101e3565b8063571a26a0146109435780636352211e14610a0d5780636c0360eb14610a885780636e15c56a14610b18576101e3565b80632b8667591161017a57806342842e0e1161014957806342842e0e1461075d5780634f64b2be146107d85780634f6ccce71461087757806351b42283146108c6576101e3565b80632b8667591461059b5780632f745c59146105c6578063379607f51461063557806341c967df14610663576101e3565b8063108155bc116101b6578063108155bc146103c05780631142919b146104b057806318160ddd146104f557806323b872dd14610520576101e3565b806301ffc9a7146101e857806306fdde031461025a578063081812fc146102ea578063095ea7b314610365575b600080fd5b3480156101f457600080fd5b506102406004803603602081101561020b57600080fd5b8101908080357bffffffffffffffffffffffffffffffffffffffffffffffffffffffff1916906020019092919050505061112a565b604051808215151515815260200191505060405180910390f35b34801561026657600080fd5b5061026f611191565b6040518080602001828103825283818151815260200191508051906020019080838360005b838110156102af578082015181840152602081019050610294565b50505050905090810190601f1680156102dc5780820380516001836020036101000a031916815260200191505b509250505060405180910390f35b3480156102f657600080fd5b506103236004803603602081101561030d57600080fd5b8101908080359060200190929190505050611233565b604051808273ffffffffffffffffffffffffffffffffffffffff1673ffffffffffffffffffffffffffffffffffffffff16815260200191505060405180910390f35b34801561037157600080fd5b506103be6004803603604081101561038857600080fd5b81019080803573ffffffffffffffffffffffffffffffffffffffff169060200190929190803590602001909291905050506112ce565b005b3480156103cc57600080fd5b5061049a600480360360608110156103e357600080fd5b810190808035906020019064010000000081111561040057600080fd5b82018360208201111561041257600080fd5b8035906020019184600183028401116401000000008311171561043457600080fd5b91908080601f016020809104026020016040519081016040528093929190818152602001838380828437600081840152601f19601f8201169050808301925050505050505091929192908035906020019092919080359060200190929190505050611412565b6040518082815260200191505060405180910390f35b3480156104bc57600080fd5b506104f3600480360360408110156104d357600080fd5b810190808035906020019092919080359060200190929190505050611611565b005b34801561050157600080fd5b5061050a6118ab565b6040518082815260200191505060405180910390f35b34801561052c57600080fd5b506105996004803603606081101561054357600080fd5b81019080803573ffffffffffffffffffffffffffffffffffffffff169060200190929190803573ffffffffffffffffffffffffffffffffffffffff169060200190929190803590602001909291905050506118bc565b005b3480156105a757600080fd5b506105b0611932565b6040518082815260200191505060405180910390f35b3480156105d257600080fd5b5061061f600480360360408110156105e957600080fd5b81019080803573ffffffffffffffffffffffffffffffffffffffff1690602001909291908035906020019092919050505061193a565b6040518082815260200191505060405180910390f35b6106616004803603602081101561064b57600080fd5b8101908080359060200190929190505050611995565b005b34801561066f57600080fd5b506107476004803603608081101561068657600080fd5b81019080803590602001906401000000008111156106a357600080fd5b8201836020820111156106b557600080fd5b803590602001918460018302840111640100000000831117156106d757600080fd5b91908080601f016020809104026020016040519081016040528093929190818152602001838380828437600081840152601f19601f820116905080830192505050505050509192919290803590602001909291908035906020019092919080359060200190929190505050611fbb565b6040518082815260200191505060405180910390f35b34801561076957600080fd5b506107d66004803603606081101561078057600080fd5b81019080803573ffffffffffffffffffffffffffffffffffffffff169060200190929190803573ffffffffffffffffffffffffffffffffffffffff1690602001909291908035906020019092919050505061221e565b005b3480156107e457600080fd5b50610811600480360360208110156107fb57600080fd5b810190808035906020019092919050505061223e565b604051808681526020018573ffffffffffffffffffffffffffffffffffffffff1673ffffffffffffffffffffffffffffffffffffffff16815260200184151515158152602001831515151581526020018281526020019550505050505060405180910390f35b34801561088357600080fd5b506108b06004803603602081101561089a57600080fd5b81019080803590602001909291905050506122ae565b6040518082815260200191505060405180910390f35b3480156108d257600080fd5b50610929600480360360608110156108e957600080fd5b8101908080359060200190929190803573ffffffffffffffffffffffffffffffffffffffff169060200190929190803590602001909291905050506122d1565b604051808215151515815260200191505060405180910390f35b34801561094f57600080fd5b5061097c6004803603602081101561096657600080fd5b8101908080359060200190929190505050612557565b604051808773ffffffffffffffffffffffffffffffffffffffff1673ffffffffffffffffffffffffffffffffffffffff1681526020018673ffffffffffffffffffffffffffffffffffffffff1673ffffffffffffffffffffffffffffffffffffffff168152602001858152602001848152602001838152602001828152602001965050505050505060405180910390f35b348015610a1957600080fd5b50610a4660048036036020811015610a3057600080fd5b81019080803590602001909291905050506125d3565b604051808273ffffffffffffffffffffffffffffffffffffffff1673ffffffffffffffffffffffffffffffffffffffff16815260200191505060405180910390f35b348015610a9457600080fd5b50610a9d61260a565b6040518080602001828103825283818151815260200191508051906020019080838360005b83811015610add578082015181840152602081019050610ac2565b50505050905090810190601f168015610b0a5780820380516001836020036101000a031916815260200191505b509250505060405180910390f35b348015610b2457600080fd5b50610bf260048036036060811015610b3b57600080fd5b8101908080359060200190640100000000811115610b5857600080fd5b820183602082011115610b6a57600080fd5b80359060200191846001830284011164010000000083111715610b8c57600080fd5b91908080601f016020809104026020016040519081016040528093929190818152602001838380828437600081840152601f19601f82011690508083019250505050505050919291929080359060200190929190803590602001909291905050506126ac565b6040518082815260200191505060405180910390f35b348015610c1457600080fd5b50610c5760048036036020811015610c2b57600080fd5b81019080803573ffffffffffffffffffffffffffffffffffffffff1690602001909291905050506128ab565b6040518082815260200191505060405180910390f35b348015610c7957600080fd5b50610c82612980565b005b348015610c9057600080fd5b50610cdb60048036036080811015610ca757600080fd5b8101908080359060200190929190803590602001909291908035906020019092919080359060200190929190505050612b0b565b005b348015610ce957600080fd5b50610cf2612d0e565b604051808273ffffffffffffffffffffffffffffffffffffffff1673ffffffffffffffffffffffffffffffffffffffff16815260200191505060405180910390f35b348015610d4057600080fd5b50610d49612d38565b6040518080602001828103825283818151815260200191508051906020019080838360005b83811015610d89578082015181840152602081019050610d6e565b50505050905090810190601f168015610db65780820380516001836020036101000a031916815260200191505b509250505060405180910390f35b348015610dd057600080fd5b50610dfd60048036036020811015610de757600080fd5b8101908080359060200190929190505050612dda565b005b348015610e0b57600080fd5b50610e5a60048036036040811015610e2257600080fd5b81019080803573ffffffffffffffffffffffffffffffffffffffff169060200190929190803515159060200190929190505050613031565b005b348015610e6857600080fd5b50610f6c60048036036080811015610e7f57600080fd5b81019080803573ffffffffffffffffffffffffffffffffffffffff169060200190929190803573ffffffffffffffffffffffffffffffffffffffff1690602001909291908035906020019092919080359060200190640100000000811115610ee657600080fd5b820183602082011115610ef857600080fd5b80359060200191846001830284011164010000000083111715610f1a57600080fd5b91908080601f016020809104026020016040519081016040528093929190818152602001838380828437600081840152601f19601f8201169050808301925050505050505091929192905050506131e9565b005b348015610f7a57600080fd5b50610fa760048036036020811015610f9157600080fd5b8101908080359060200190929190505050613261565b6040518080602001828103825283818151815260200191508051906020019080838360005b83811015610fe7578082015181840152602081019050610fcc565b50505050905090810190601f1680156110145780820380516001836020036101000a031916815260200191505b509250505060405180910390f35b61104e6004803603602081101561103857600080fd5b810190808035906020019092919050505061354a565b005b34801561105c57600080fd5b506110bf6004803603604081101561107357600080fd5b81019080803573ffffffffffffffffffffffffffffffffffffffff169060200190929190803573ffffffffffffffffffffffffffffffffffffffff169060200190929190505050613a51565b604051808215151515815260200191505060405180910390f35b3480156110e557600080fd5b50611128600480360360208110156110fc57600080fd5b81019080803573ffffffffffffffffffffffffffffffffffffffff169060200190929190505050613ae5565b005b6000806000837bffffffffffffffffffffffffffffffffffffffffffffffffffffffff19167bffffffffffffffffffffffffffffffffffffffffffffffffffffffff1916815260200190815260200160002060009054906101000a900460ff169050919050565b606060068054600181600116156101000203166002900480601f0160208091040260200160405190810160405280929190818152602001828054600181600116156101000203166002900480156112295780601f106111fe57610100808354040283529160200191611229565b820191906000526020600020905b81548152906001019060200180831161120c57829003601f168201915b5050505050905090565b600061123e82613cf5565b611293576040517f08c379a000000000000000000000000000000000000000000000000000000000815260040180806020018281038252602c815260200180615393602c913960400191505060405180910390fd5b6004600083815260200190815260200160002060009054906101000a900473ffffffffffffffffffffffffffffffffffffffff169050919050565b60006112d9826125d3565b90508073ffffffffffffffffffffffffffffffffffffffff168373ffffffffffffffffffffffffffffffffffffffff161415611360576040517f08c379a00000000000000000000000000000000000000000000000000000000081526004018080602001828103825260218152602001806154436021913960400191505060405180910390fd5b8073ffffffffffffffffffffffffffffffffffffffff1661137f613d12565b73ffffffffffffffffffffffffffffffffffffffff1614806113ae57506113ad816113a8613d12565b613a51565b5b611403576040517f08c379a00000000000000000000000000000000000000000000000000000000081526004018080602001828103825260388152602001806152e66038913960400191505060405180910390fd5b61140d8383613d1a565b505050565b600060c882111561148b576040517f08c379a00000000000000000000000000000000000000000000000000000000081526004018080602001828103825260128152602001807f526f79616c7469657320746f6f2068696768000000000000000000000000000081525060200191505060405180910390fd5b611495600b613dd3565b60006114a1600b613de9565b90506114ad3382613df7565b6114b78186613feb565b6040518060a001604052808581526020013373ffffffffffffffffffffffffffffffffffffffff16815260200160001515815260200160001515815260200184815250600c60008381526020019081526020016000206000820151816000015560208201518160010160006101000a81548173ffffffffffffffffffffffffffffffffffffffff021916908373ffffffffffffffffffffffffffffffffffffffff16021790555060408201518160010160146101000a81548160ff02191690831515021790555060608201518160010160156101000a81548160ff02191690831515021790555060808201518160020155905050803073ffffffffffffffffffffffffffffffffffffffff163373ffffffffffffffffffffffffffffffffffffffff167f8c5be1e5ebec7d5bd14f71427d1e84f3dd0314c0f7b2291e5b200ac8c7c3b92560405160405180910390a4809150509392505050565b611619613d12565b73ffffffffffffffffffffffffffffffffffffffff16600a60009054906101000a900473ffffffffffffffffffffffffffffffffffffffff1673ffffffffffffffffffffffffffffffffffffffff16146116db576040517f08c379a00000000000000000000000000000000000000000000000000000000081526004018080602001828103825260208152602001807f4f776e61626c653a2063616c6c6572206973206e6f7420746865206f776e657281525060200191505060405180910390fd5b6116e3615083565b600c60008481526020019081526020016000206040518060a0016040529081600082015481526020016001820160009054906101000a900473ffffffffffffffffffffffffffffffffffffffff1673ffffffffffffffffffffffffffffffffffffffff1673ffffffffffffffffffffffffffffffffffffffff1681526020016001820160149054906101000a900460ff161515151581526020016001820160159054906101000a900460ff1615151515815260200160028201548152505090506040518060a00160405280826000015181526020013373ffffffffffffffffffffffffffffffffffffffff1681526020016001151581526020016001151581526020018260800151815250600c60008581526020019081526020016000206000820151816000015560208201518160010160006101000a81548173ffffffffffffffffffffffffffffffffffffffff021916908373ffffffffffffffffffffffffffffffffffffffff16021790555060408201518160010160146101000a81548160ff02191690831515021790555060608201518160010160156101000a81548160ff0219169083151502179055506080820151816002015590505081601181905550505050565b60006118b76002614075565b905090565b6118cd6118c7613d12565b8261408a565b611922576040517f08c379a00000000000000000000000000000000000000000000000000000000081526004018080602001828103825260318152602001806154646031913960400191505060405180910390fd5b61192d83838361417e565b505050565b600042905090565b600061198d82600160008673ffffffffffffffffffffffffffffffffffffffff1673ffffffffffffffffffffffffffffffffffffffff1681526020019081526020016000206143c190919063ffffffff16565b905092915050565b6000600d6000838152602001908152602001600020905080600201543414611a25576040517f08c379a00000000000000000000000000000000000000000000000000000000081526004018080602001828103825260148152602001807f416d6f756e74206973206e6f7420656e6f75676800000000000000000000000081525060200191505060405180910390fd5b8060010160009054906101000a900473ffffffffffffffffffffffffffffffffffffffff1673ffffffffffffffffffffffffffffffffffffffff163373ffffffffffffffffffffffffffffffffffffffff1614611aea576040517f08c379a00000000000000000000000000000000000000000000000000000000081526004018080602001828103825260168152602001807f55736572206973206e6f74207468652077696e6e65720000000000000000000081525060200191505060405180910390fd5b8060050154341015611b47576040517f08c379a00000000000000000000000000000000000000000000000000000000081526004018080602001828103825260268152602001806154c36026913960400191505060405180910390fd5b600033905060003490506000611b5c856125d3565b9050611b66615083565b600c60008781526020019081526020016000206040518060a0016040529081600082015481526020016001820160009054906101000a900473ffffffffffffffffffffffffffffffffffffffff1673ffffffffffffffffffffffffffffffffffffffff1673ffffffffffffffffffffffffffffffffffffffff1681526020016001820160149054906101000a900460ff161515151581526020016001820160159054906101000a900460ff1615151515815260200160028201548152505090506000600f54905060011515826040015115151415611c48576011546127100390505b816020015173ffffffffffffffffffffffffffffffffffffffff16611c6c886125d3565b73ffffffffffffffffffffffffffffffffffffffff161415611d4457816020015173ffffffffffffffffffffffffffffffffffffffff166108fc61271083870281611cb357fe5b049081150290604051600060405180830381858888f19350505050158015611cdf573d6000803e3d6000fd5b50816020015173ffffffffffffffffffffffffffffffffffffffff167fd4f43975feb89f48dd30cabbb32011045be187d1e11c8ea9faa43efc3528251961271083870281611d2957fe5b046040518082815260200191505060405180910390a2611ecb565b6000600c60008981526020019081526020016000206002015490508373ffffffffffffffffffffffffffffffffffffffff166108fc612710838503880281611d8857fe5b049081150290604051600060405180830381858888f19350505050158015611db4573d6000803e3d6000fd5b508373ffffffffffffffffffffffffffffffffffffffff167fd4f43975feb89f48dd30cabbb32011045be187d1e11c8ea9faa43efc35282519612710838589020381611dfc57fe5b046040518082815260200191505060405180910390a2826020015173ffffffffffffffffffffffffffffffffffffffff166108fc61271083880281611e3d57fe5b049081150290604051600060405180830381858888f19350505050158015611e69573d6000803e3d6000fd5b50826020015173ffffffffffffffffffffffffffffffffffffffff167f5e5f52560db9ef5da65cc565a5dd2f11a4fb0ac6462266ef1525df11fd43f02461271083880281611eb357fe5b046040518082815260200191505060405180910390a2505b6000826060019015159081151581525050600082604001901515908115158152505081600c60008981526020019081526020016000206000820151816000015560208201518160010160006101000a81548173ffffffffffffffffffffffffffffffffffffffff021916908373ffffffffffffffffffffffffffffffffffffffff16021790555060408201518160010160146101000a81548160ff02191690831515021790555060608201518160010160156101000a81548160ff02191690831515021790555060808201518160020155905050611fb2611fab886125d3565b868961417e565b50505050505050565b6000611fc7600b613dd3565b6000611fd3600b613de9565b9050611fdf3382613df7565b611fe98187613feb565b6040518060a00160405280600081526020013373ffffffffffffffffffffffffffffffffffffffff16815260200160001515815260200160011515815260200184815250600c60008381526020019081526020016000206000820151816000015560208201518160010160006101000a81548173ffffffffffffffffffffffffffffffffffffffff021916908373ffffffffffffffffffffffffffffffffffffffff16021790555060408201518160010160146101000a81548160ff02191690831515021790555060608201518160010160156101000a81548160ff021916908315150217905550608082015181600201559050506120e66150cc565b6040518060c001604052803373ffffffffffffffffffffffffffffffffffffffff168152602001600073ffffffffffffffffffffffffffffffffffffffff168152602001600081526020018781526020018681526020016000815250905080600d600084815260200190815260200160002060008201518160000160006101000a81548173ffffffffffffffffffffffffffffffffffffffff021916908373ffffffffffffffffffffffffffffffffffffffff16021790555060208201518160010160006101000a81548173ffffffffffffffffffffffffffffffffffffffff021916908373ffffffffffffffffffffffffffffffffffffffff16021790555060408201518160020155606082015181600301556080820151816004015560a082015181600501559050508192505050949350505050565b612239838383604051806020016040528060008152506131e9565b505050565b600c6020528060005260406000206000915090508060000154908060010160009054906101000a900473ffffffffffffffffffffffffffffffffffffffff16908060010160149054906101000a900460ff16908060010160159054906101000a900460ff16908060020154905085565b6000806122c58360026143db90919063ffffffff16565b50905080915050919050565b600080600d600086815260200190815260200160002090506123048160040154826003015461440a90919063ffffffff16565b4211612378576040517f08c379a00000000000000000000000000000000000000000000000000000000081526004018080602001828103825260148152602001807f41756374696f6e207374696c6c2061637469766500000000000000000000000081525060200191505060405180910390fd5b80600501548310156123f2576040517f08c379a00000000000000000000000000000000000000000000000000000000081526004018080602001828103825260168152602001807f416d6f756e74206e6f74206869676820656e6f7567680000000000000000000081525060200191505060405180910390fd5b838160010160006101000a81548173ffffffffffffffffffffffffffffffffffffffff021916908373ffffffffffffffffffffffffffffffffffffffff16021790555082816002018190555080600d60008781526020019081526020016000206000820160009054906101000a900473ffffffffffffffffffffffffffffffffffffffff168160000160006101000a81548173ffffffffffffffffffffffffffffffffffffffff021916908373ffffffffffffffffffffffffffffffffffffffff1602179055506001820160009054906101000a900473ffffffffffffffffffffffffffffffffffffffff168160010160006101000a81548173ffffffffffffffffffffffffffffffffffffffff021916908373ffffffffffffffffffffffffffffffffffffffff1602179055506002820154816002015560038201548160030155600482015481600401556005820154816005015590505060019150509392505050565b600d6020528060005260406000206000915090508060000160009054906101000a900473ffffffffffffffffffffffffffffffffffffffff16908060010160009054906101000a900473ffffffffffffffffffffffffffffffffffffffff16908060020154908060030154908060040154908060050154905086565b6000612603826040518060600160405280602981526020016153486029913960026144929092919063ffffffff16565b9050919050565b606060098054600181600116156101000203166002900480601f0160208091040260200160405190810160405280929190818152602001828054600181600116156101000203166002900480156126a25780601f10612677576101008083540402835291602001916126a2565b820191906000526020600020905b81548152906001019060200180831161268557829003601f168201915b5050505050905090565b600060c8821115612725576040517f08c379a00000000000000000000000000000000000000000000000000000000081526004018080602001828103825260128152602001807f526f79616c7469657320746f6f2068696768000000000000000000000000000081525060200191505060405180910390fd5b61272f600b613dd3565b600061273b600b613de9565b90506127473382613df7565b6127518186613feb565b6040518060a001604052808581526020013373ffffffffffffffffffffffffffffffffffffffff16815260200160001515815260200160011515815260200184815250600c60008381526020019081526020016000206000820151816000015560208201518160010160006101000a81548173ffffffffffffffffffffffffffffffffffffffff021916908373ffffffffffffffffffffffffffffffffffffffff16021790555060408201518160010160146101000a81548160ff02191690831515021790555060608201518160010160156101000a81548160ff02191690831515021790555060808201518160020155905050803073ffffffffffffffffffffffffffffffffffffffff163373ffffffffffffffffffffffffffffffffffffffff167f8c5be1e5ebec7d5bd14f71427d1e84f3dd0314c0f7b2291e5b200ac8c7c3b92560405160405180910390a4809150509392505050565b60008073ffffffffffffffffffffffffffffffffffffffff168273ffffffffffffffffffffffffffffffffffffffff161415612932576040517f08c379a000000000000000000000000000000000000000000000000000000000815260040180806020018281038252602a81526020018061531e602a913960400191505060405180910390fd5b612979600160008473ffffffffffffffffffffffffffffffffffffffff1673ffffffffffffffffffffffffffffffffffffffff1681526020019081526020016000206144b1565b9050919050565b612988613d12565b73ffffffffffffffffffffffffffffffffffffffff16600a60009054906101000a900473ffffffffffffffffffffffffffffffffffffffff1673ffffffffffffffffffffffffffffffffffffffff1614612a4a576040517f08c379a00000000000000000000000000000000000000000000000000000000081526004018080602001828103825260208152602001807f4f776e61626c653a2063616c6c6572206973206e6f7420746865206f776e657281525060200191505060405180910390fd5b600073ffffffffffffffffffffffffffffffffffffffff16600a60009054906101000a900473ffffffffffffffffffffffffffffffffffffffff1673ffffffffffffffffffffffffffffffffffffffff167f8be0079c531659141344cd1fd0a4f28419497f9722a3daafe3b4186f6b6457e060405160405180910390a36000600a60006101000a81548173ffffffffffffffffffffffffffffffffffffffff021916908373ffffffffffffffffffffffffffffffffffffffff160217905550565b612b14846125d3565b73ffffffffffffffffffffffffffffffffffffffff163373ffffffffffffffffffffffffffffffffffffffff161480612b8057503373ffffffffffffffffffffffffffffffffffffffff16612b6885611233565b73ffffffffffffffffffffffffffffffffffffffff16145b612bd5576040517f08c379a000000000000000000000000000000000000000000000000000000000815260040180806020018281038252602e815260200180615495602e913960400191505060405180910390fd5b612bdd6150cc565b6040518060c001604052803373ffffffffffffffffffffffffffffffffffffffff168152602001600073ffffffffffffffffffffffffffffffffffffffff1681526020016000815260200184815260200183815260200185815250905080600d600087815260200190815260200160002060008201518160000160006101000a81548173ffffffffffffffffffffffffffffffffffffffff021916908373ffffffffffffffffffffffffffffffffffffffff16021790555060208201518160010160006101000a81548173ffffffffffffffffffffffffffffffffffffffff021916908373ffffffffffffffffffffffffffffffffffffffff16021790555060408201518160020155606082015181600301556080820151816004015560a082015181600501559050505050505050565b6000600a60009054906101000a900473ffffffffffffffffffffffffffffffffffffffff16905090565b606060078054600181600116156101000203166002900480601f016020809104026020016040519081016040528092919081815260200182805460018160011615610100020316600290048015612dd05780601f10612da557610100808354040283529160200191612dd0565b820191906000526020600020905b815481529060010190602001808311612db357829003601f168201915b5050505050905090565b612de2615083565b600c60008381526020019081526020016000206040518060a0016040529081600082015481526020016001820160009054906101000a900473ffffffffffffffffffffffffffffffffffffffff1673ffffffffffffffffffffffffffffffffffffffff1673ffffffffffffffffffffffffffffffffffffffff1681526020016001820160149054906101000a900460ff161515151581526020016001820160159054906101000a900460ff161515151581526020016002820154815250509050612eab826125d3565b73ffffffffffffffffffffffffffffffffffffffff163373ffffffffffffffffffffffffffffffffffffffff1614612f2e576040517f08c379a00000000000000000000000000000000000000000000000000000000081526004018080602001828103825260228152602001806151f66022913960400191505060405180910390fd5b6040518060a00160405280826000015181526020013373ffffffffffffffffffffffffffffffffffffffff1681526020018260400151151581526020016001151581526020018260800151815250600c60008481526020019081526020016000206000820151816000015560208201518160010160006101000a81548173ffffffffffffffffffffffffffffffffffffffff021916908373ffffffffffffffffffffffffffffffffffffffff16021790555060408201518160010160146101000a81548160ff02191690831515021790555060608201518160010160156101000a81548160ff021916908315150217905550608082015181600201559050505050565b613039613d12565b73ffffffffffffffffffffffffffffffffffffffff168273ffffffffffffffffffffffffffffffffffffffff1614156130da576040517f08c379a00000000000000000000000000000000000000000000000000000000081526004018080602001828103825260198152602001807f4552433732313a20617070726f766520746f2063616c6c65720000000000000081525060200191505060405180910390fd5b80600560006130e7613d12565b73ffffffffffffffffffffffffffffffffffffffff1673ffffffffffffffffffffffffffffffffffffffff16815260200190815260200160002060008473ffffffffffffffffffffffffffffffffffffffff1673ffffffffffffffffffffffffffffffffffffffff16815260200190815260200160002060006101000a81548160ff0219169083151502179055508173ffffffffffffffffffffffffffffffffffffffff16613194613d12565b73ffffffffffffffffffffffffffffffffffffffff167f17307eab39ab6107e8899845ad3d59bd9653f200f220920489ca2b5937696c3183604051808215151515815260200191505060405180910390a35050565b6131fa6131f4613d12565b8361408a565b61324f576040517f08c379a00000000000000000000000000000000000000000000000000000000081526004018080602001828103825260318152602001806154646031913960400191505060405180910390fd5b61325b848484846144c6565b50505050565b606061326c82613cf5565b6132c1576040517f08c379a000000000000000000000000000000000000000000000000000000000815260040180806020018281038252602f815260200180615414602f913960400191505060405180910390fd5b6060600860008481526020019081526020016000208054600181600116156101000203166002900480601f01602080910402602001604051908101604052809291908181526020018280546001816001161561010002031660029004801561336a5780601f1061333f5761010080835404028352916020019161336a565b820191906000526020600020905b81548152906001019060200180831161334d57829003601f168201915b505050505090506000600980546001816001161561010002031660029004905014156133995780915050613545565b6000815111156134725760098160405160200180838054600181600116156101000203166002900480156134045780601f106133e2576101008083540402835291820191613404565b820191906000526020600020905b8154815290600101906020018083116133f0575b505082805190602001908083835b602083106134355780518252602082019150602081019050602083039250613412565b6001836020036101000a03801982511681845116808217855250505050505090500192505050604051602081830303815290604052915050613545565b600961347d84614538565b60405160200180838054600181600116156101000203166002900480156134db5780601f106134b95761010080835404028352918201916134db565b820191906000526020600020905b8154815290600101906020018083116134c7575b505082805190602001908083835b6020831061350c57805182526020820191506020810190506020830392506134e9565b6001836020036101000a038019825116818451168082178552505050505050905001925050506040516020818303038152906040529150505b919050565b60003390506000349050600061355f846125d3565b9050613569615083565b600c60008681526020019081526020016000206040518060a0016040529081600082015481526020016001820160009054906101000a900473ffffffffffffffffffffffffffffffffffffffff1673ffffffffffffffffffffffffffffffffffffffff1673ffffffffffffffffffffffffffffffffffffffff1681526020016001820160149054906101000a900460ff161515151581526020016001820160159054906101000a900460ff1615151515815260200160028201548152505090506001151581606001511515146136a7576040517f08c379a00000000000000000000000000000000000000000000000000000000081526004018080602001828103825260158152602001807f546f6b656e206973206e6f7420666f722073616c65000000000000000000000081525060200191505060405180910390fd5b60008160000151905080841015613726576040517f08c379a00000000000000000000000000000000000000000000000000000000081526004018080602001828103825260148152602001807f416d6f756e74206973206e6f7420656e6f75676800000000000000000000000081525060200191505060405180910390fd5b6001151582604001511515141561373c57600080fd5b6000826020015190506000600f54905060011515846040015115151415613767576011546127100390505b8173ffffffffffffffffffffffffffffffffffffffff16613787896125d3565b73ffffffffffffffffffffffffffffffffffffffff161415613857578173ffffffffffffffffffffffffffffffffffffffff166108fc612710838902816137ca57fe5b049081150290604051600060405180830381858888f193505050501580156137f6573d6000803e3d6000fd5b508173ffffffffffffffffffffffffffffffffffffffff167fd4f43975feb89f48dd30cabbb32011045be187d1e11c8ea9faa43efc352825196127108389028161383c57fe5b046040518082815260200191505060405180910390a26139d6565b6000600c60008a81526020019081526020016000206002015490508573ffffffffffffffffffffffffffffffffffffffff166108fc6127108385038a028161389b57fe5b049081150290604051600060405180830381858888f193505050501580156138c7573d6000803e3d6000fd5b508573ffffffffffffffffffffffffffffffffffffffff167fd4f43975feb89f48dd30cabbb32011045be187d1e11c8ea9faa43efc3528251961271083858b02038161390f57fe5b046040518082815260200191505060405180910390a28273ffffffffffffffffffffffffffffffffffffffff166108fc612710838a028161394c57fe5b049081150290604051600060405180830381858888f19350505050158015613978573d6000803e3d6000fd5b508273ffffffffffffffffffffffffffffffffffffffff167f5e5f52560db9ef5da65cc565a5dd2f11a4fb0ac6462266ef1525df11fd43f024612710838a02816139be57fe5b046040518082815260200191505060405180910390a2505b6139e96139e2896125d3565b888a61417e565b6000600c60008a815260200190815260200160002060010160156101000a81548160ff0219169083151502179055506000600c60008a815260200190815260200160002060010160146101000a81548160ff0219169083151502179055505050505050505050565b6000600560008473ffffffffffffffffffffffffffffffffffffffff1673ffffffffffffffffffffffffffffffffffffffff16815260200190815260200160002060008373ffffffffffffffffffffffffffffffffffffffff1673ffffffffffffffffffffffffffffffffffffffff16815260200190815260200160002060009054906101000a900460ff16905092915050565b613aed613d12565b73ffffffffffffffffffffffffffffffffffffffff16600a60009054906101000a900473ffffffffffffffffffffffffffffffffffffffff1673ffffffffffffffffffffffffffffffffffffffff1614613baf576040517f08c379a00000000000000000000000000000000000000000000000000000000081526004018080602001828103825260208152602001807f4f776e61626c653a2063616c6c6572206973206e6f7420746865206f776e657281525060200191505060405180910390fd5b600073ffffffffffffffffffffffffffffffffffffffff168173ffffffffffffffffffffffffffffffffffffffff161415613c35576040517f08c379a000000000000000000000000000000000000000000000000000000000815260040180806020018281038252602681526020018061524a6026913960400191505060405180910390fd5b8073ffffffffffffffffffffffffffffffffffffffff16600a60009054906101000a900473ffffffffffffffffffffffffffffffffffffffff1673ffffffffffffffffffffffffffffffffffffffff167f8be0079c531659141344cd1fd0a4f28419497f9722a3daafe3b4186f6b6457e060405160405180910390a380600a60006101000a81548173ffffffffffffffffffffffffffffffffffffffff021916908373ffffffffffffffffffffffffffffffffffffffff16021790555050565b6000613d0b82600261466890919063ffffffff16565b9050919050565b600033905090565b816004600083815260200190815260200160002060006101000a81548173ffffffffffffffffffffffffffffffffffffffff021916908373ffffffffffffffffffffffffffffffffffffffff160217905550808273ffffffffffffffffffffffffffffffffffffffff16613d8d836125d3565b73ffffffffffffffffffffffffffffffffffffffff167f8c5be1e5ebec7d5bd14f71427d1e84f3dd0314c0f7b2291e5b200ac8c7c3b92560405160405180910390a45050565b6001816000016000828254019250508190555050565b600081600001549050919050565b600073ffffffffffffffffffffffffffffffffffffffff168273ffffffffffffffffffffffffffffffffffffffff161415613e9a576040517f08c379a00000000000000000000000000000000000000000000000000000000081526004018080602001828103825260208152602001807f4552433732313a206d696e7420746f20746865207a65726f206164647265737381525060200191505060405180910390fd5b613ea381613cf5565b15613f16576040517f08c379a000000000000000000000000000000000000000000000000000000000815260040180806020018281038252601c8152602001807f4552433732313a20746f6b656e20616c7265616479206d696e7465640000000081525060200191505060405180910390fd5b613f2260008383614682565b613f7381600160008573ffffffffffffffffffffffffffffffffffffffff1673ffffffffffffffffffffffffffffffffffffffff16815260200190815260200160002061468790919063ffffffff16565b50613f8a818360026146a19092919063ffffffff16565b50808273ffffffffffffffffffffffffffffffffffffffff16600073ffffffffffffffffffffffffffffffffffffffff167fddf252ad1be2c89b69c2b068fc378daa952ba7f163c4a11628f55a4df523b3ef60405160405180910390a45050565b613ff482613cf5565b614049576040517f08c379a000000000000000000000000000000000000000000000000000000000815260040180806020018281038252602c8152602001806153bf602c913960400191505060405180910390fd5b8060086000848152602001908152602001600020908051906020019061407092919061512e565b505050565b6000614083826000016146d6565b9050919050565b600061409582613cf5565b6140ea576040517f08c379a000000000000000000000000000000000000000000000000000000000815260040180806020018281038252602c8152602001806152ba602c913960400191505060405180910390fd5b60006140f5836125d3565b90508073ffffffffffffffffffffffffffffffffffffffff168473ffffffffffffffffffffffffffffffffffffffff16148061416457508373ffffffffffffffffffffffffffffffffffffffff1661414c84611233565b73ffffffffffffffffffffffffffffffffffffffff16145b8061417557506141748185613a51565b5b91505092915050565b8273ffffffffffffffffffffffffffffffffffffffff1661419e826125d3565b73ffffffffffffffffffffffffffffffffffffffff161461420a576040517f08c379a00000000000000000000000000000000000000000000000000000000081526004018080602001828103825260298152602001806153eb6029913960400191505060405180910390fd5b600073ffffffffffffffffffffffffffffffffffffffff168273ffffffffffffffffffffffffffffffffffffffff161415614290576040517f08c379a00000000000000000000000000000000000000000000000000000000081526004018080602001828103825260248152602001806152706024913960400191505060405180910390fd5b61429b838383614682565b6142a6600082613d1a565b6142f781600160008673ffffffffffffffffffffffffffffffffffffffff1673ffffffffffffffffffffffffffffffffffffffff1681526020019081526020016000206146e790919063ffffffff16565b5061434981600160008573ffffffffffffffffffffffffffffffffffffffff1673ffffffffffffffffffffffffffffffffffffffff16815260200190815260200160002061468790919063ffffffff16565b50614360818360026146a19092919063ffffffff16565b50808273ffffffffffffffffffffffffffffffffffffffff168473ffffffffffffffffffffffffffffffffffffffff167fddf252ad1be2c89b69c2b068fc378daa952ba7f163c4a11628f55a4df523b3ef60405160405180910390a4505050565b60006143d08360000183614701565b60001c905092915050565b6000806000806143ee8660000186614784565b915091508160001c8160001c8090509350935050509250929050565b600080828401905083811015614488576040517f08c379a000000000000000000000000000000000000000000000000000000000815260040180806020018281038252601b8152602001807f536166654d6174683a206164646974696f6e206f766572666c6f77000000000081525060200191505060405180910390fd5b8091505092915050565b60006144a5846000018460001b8461481d565b60001c90509392505050565b60006144bf82600001614913565b9050919050565b6144d184848461417e565b6144dd84848484614924565b614532576040517f08c379a00000000000000000000000000000000000000000000000000000000081526004018080602001828103825260328152602001806152186032913960400191505060405180910390fd5b50505050565b60606000821415614580576040518060400160405280600181526020017f30000000000000000000000000000000000000000000000000000000000000008152509050614663565b600082905060005b600082146145aa578080600101915050600a82816145a257fe5b049150614588565b6060816040519080825280601f01601f1916602001820160405280156145df5781602001600182028038833980820191505090505b50905060006001830390508593505b6000841461465b57600a848161460057fe5b0660300160f81b8282806001900393508151811061461a57fe5b60200101907effffffffffffffffffffffffffffffffffffffffffffffffffffffffffffff1916908160001a905350600a848161465357fe5b0493506145ee565b819450505050505b919050565b600061467a836000018360001b614b69565b905092915050565b505050565b6000614699836000018360001b614b8c565b905092915050565b60006146cd846000018460001b8473ffffffffffffffffffffffffffffffffffffffff1660001b614bfc565b90509392505050565b600081600001805490509050919050565b60006146f9836000018360001b614cd8565b905092915050565b600081836000018054905011614762576040517f08c379a00000000000000000000000000000000000000000000000000000000081526004018080602001828103825260228152602001806151d46022913960400191505060405180910390fd5b82600001828154811061477157fe5b9060005260206000200154905092915050565b600080828460000180549050116147e6576040517f08c379a00000000000000000000000000000000000000000000000000000000081526004018080602001828103825260228152602001806153716022913960400191505060405180910390fd5b60008460000184815481106147f757fe5b906000526020600020906002020190508060000154816001015492509250509250929050565b600080846001016000858152602001908152602001600020549050600081141583906148e4576040517f08c379a00000000000000000000000000000000000000000000000000000000081526004018080602001828103825283818151815260200191508051906020019080838360005b838110156148a957808201518184015260208101905061488e565b50505050905090810190601f1680156148d65780820380516001836020036101000a031916815260200191505b509250505060405180910390fd5b508460000160018203815481106148f757fe5b9060005260206000209060020201600101549150509392505050565b600081600001805490509050919050565b60006149458473ffffffffffffffffffffffffffffffffffffffff16614dc0565b6149525760019050614b61565b6060614ae863150b7a0260e01b614967613d12565b888787604051602401808573ffffffffffffffffffffffffffffffffffffffff1673ffffffffffffffffffffffffffffffffffffffff1681526020018473ffffffffffffffffffffffffffffffffffffffff1673ffffffffffffffffffffffffffffffffffffffff16815260200183815260200180602001828103825283818151815260200191508051906020019080838360005b83811015614a175780820151818401526020810190506149fc565b50505050905090810190601f168015614a445780820380516001836020036101000a031916815260200191505b5095505050505050604051602081830303815290604052907bffffffffffffffffffffffffffffffffffffffffffffffffffffffff19166020820180517bffffffffffffffffffffffffffffffffffffffffffffffffffffffff8381831617835250505050604051806060016040528060328152602001615218603291398773ffffffffffffffffffffffffffffffffffffffff16614dd39092919063ffffffff16565b90506000818060200190516020811015614b0157600080fd5b8101908080519060200190929190505050905063150b7a0260e01b7bffffffffffffffffffffffffffffffffffffffffffffffffffffffff1916817bffffffffffffffffffffffffffffffffffffffffffffffffffffffff191614925050505b949350505050565b600080836001016000848152602001908152602001600020541415905092915050565b6000614b988383614deb565b614bf1578260000182908060018154018082558091505060019003906000526020600020016000909190919091505582600001805490508360010160008481526020019081526020016000208190555060019050614bf6565b600090505b92915050565b6000808460010160008581526020019081526020016000205490506000811415614ca357846000016040518060400160405280868152602001858152509080600181540180825580915050600190039060005260206000209060020201600090919091909150600082015181600001556020820151816001015550508460000180549050856001016000868152602001908152602001600020819055506001915050614cd1565b82856000016001830381548110614cb657fe5b90600052602060002090600202016001018190555060009150505b9392505050565b60008083600101600084815260200190815260200160002054905060008114614db45760006001820390506000600186600001805490500390506000866000018281548110614d2357fe5b9060005260206000200154905080876000018481548110614d4057fe5b9060005260206000200181905550600183018760010160008381526020019081526020016000208190555086600001805480614d7857fe5b60019003818190600052602060002001600090559055866001016000878152602001908152602001600020600090556001945050505050614dba565b60009150505b92915050565b600080823b905060008111915050919050565b6060614de28484600085614e0e565b90509392505050565b600080836001016000848152602001908152602001600020541415905092915050565b606082471015614e69576040517f08c379a00000000000000000000000000000000000000000000000000000000081526004018080602001828103825260268152602001806152946026913960400191505060405180910390fd5b614e7285614dc0565b614ee4576040517f08c379a000000000000000000000000000000000000000000000000000000000815260040180806020018281038252601d8152602001807f416464726573733a2063616c6c20746f206e6f6e2d636f6e747261637400000081525060200191505060405180910390fd5b600060608673ffffffffffffffffffffffffffffffffffffffff1685876040518082805190602001908083835b60208310614f345780518252602082019150602081019050602083039250614f11565b6001836020036101000a03801982511681845116808217855250505050505090500191505060006040518083038185875af1925050503d8060008114614f96576040519150601f19603f3d011682016040523d82523d6000602084013e614f9b565b606091505b5091509150614fab828286614fb7565b92505050949350505050565b60608315614fc75782905061507c565b600083511115614fda5782518084602001fd5b816040517f08c379a00000000000000000000000000000000000000000000000000000000081526004018080602001828103825283818151815260200191508051906020019080838360005b83811015615041578082015181840152602081019050615026565b50505050905090810190601f16801561506e5780820380516001836020036101000a031916815260200191505b509250505060405180910390fd5b9392505050565b6040518060a0016040528060008152602001600073ffffffffffffffffffffffffffffffffffffffff168152602001600015158152602001600015158152602001600081525090565b6040518060c00160405280600073ffffffffffffffffffffffffffffffffffffffff168152602001600073ffffffffffffffffffffffffffffffffffffffff168152602001600081526020016000815260200160008152602001600081525090565b828054600181600116156101000203166002900490600052602060002090601f016020900481019282601f1061516f57805160ff191683800117855561519d565b8280016001018555821561519d579182015b8281111561519c578251825591602001919060010190615181565b5b5090506151aa91906151ae565b5090565b6151d091905b808211156151cc5760008160009055506001016151b4565b5090565b9056fe456e756d657261626c655365743a20696e646578206f7574206f6620626f756e64734f6e6c79206f776e65722063616e2070757420616e206974656d206f6e2073616c654552433732313a207472616e7366657220746f206e6f6e20455243373231526563656976657220696d706c656d656e7465724f776e61626c653a206e6577206f776e657220697320746865207a65726f20616464726573734552433732313a207472616e7366657220746f20746865207a65726f2061646472657373416464726573733a20696e73756666696369656e742062616c616e636520666f722063616c6c4552433732313a206f70657261746f7220717565727920666f72206e6f6e6578697374656e7420746f6b656e4552433732313a20617070726f76652063616c6c6572206973206e6f74206f776e6572206e6f7220617070726f76656420666f7220616c6c4552433732313a2062616c616e636520717565727920666f7220746865207a65726f20616464726573734552433732313a206f776e657220717565727920666f72206e6f6e6578697374656e7420746f6b656e456e756d657261626c654d61703a20696e646578206f7574206f6620626f756e64734552433732313a20617070726f76656420717565727920666f72206e6f6e6578697374656e7420746f6b656e4552433732314d657461646174613a2055524920736574206f66206e6f6e6578697374656e7420746f6b656e4552433732313a207472616e73666572206f6620746f6b656e2074686174206973206e6f74206f776e4552433732314d657461646174613a2055524920717565727920666f72206e6f6e6578697374656e7420746f6b656e4552433732313a20617070726f76616c20746f2063757272656e74206f776e65724552433732313a207472616e736665722063616c6c6572206973206e6f74206f776e6572206e6f7220617070726f7665644f6e6c7920746865206f776e65722063616e20736574206120746f6b656e20696e746f20616e2061756374696f6e616d6f756e74206973206c6f776572207468617420746865206d696e696d756d207072696365a264697066735822122078a07480bb425a83e4c3d5f35ee0901e84f37380f8ca1bb141a187defe2d66f264736f6c63430006020033",
  "source": "pragma solidity ^0.6.2;\n\nimport \"@openzeppelin/contracts/token/ERC721/ERC721.sol\";\nimport \"@openzeppelin/contracts/utils/Counters.sol\";\nimport \"@openzeppelin/contracts/access/Ownable.sol\";\n\n// The ERC721 contract. It is ownable for the case of the setWinner, that will be called in the backend, so\n// it should be called only by the owner or maybe by a designer operator\ncontract Satoshi721 is ERC721, Ownable {\n    using Counters for Counters.Counter;\n    Counters.Counter private _tokenIds;\n\n    // Emit this event when a royalty is generated\n    event Royalty(address indexed artist, uint256 _value);\n    event Payment(address indexed artist, uint256 _value);\n\n    // data of the token\n    struct TokenData {\n        uint256 price;\n        address payable creator;\n        bool isDropOfTheDay;\n        bool onSale;\n        uint256 royalties;\n    }\n    // the token data is saved on a mapping, having the token id as key\n    mapping(uint256 => TokenData) public tokens;\n\n    // Auctions data. As there will be an auction for celebrities with timing of 10-30 minutes the auction will be handled offchain\n    struct Auction {\n        address creator;\n        address bestBidder;\n        uint256 bestBidAmount;\n        uint256 startTime;\n        uint256 duration;\n        uint256 minimumPrice;\n    }\n    // the key is the tokenId, so only one auction per token is allowed\n    mapping(uint256 => Auction) public auctions;\n\n    address payable platform;\n    uint256 bpArtists = 9750; // 94.00 in basis points (parts per 10,000)\n    uint256 bpPlatform = 250; // 6% for the platform\n    uint256 bpDropOfDay = 2500; // the drop of the day will have a commision of 25%, modificable by the admin\n\n    constructor() public ERC721(\"Luis NFT\", \"LUIS\") {}\n\n    // Mints the NFT and save the data into the tokens mapping. By default the token is not on sale\n    function createItem(\n        string memory tokenURI, // URI pointing to the art\n        uint256 _price, // price in weis of the token\n        uint256 _royalties // royalties assigned to the token by the creator, in bps\n    ) public returns (uint256) {\n        require(_royalties <= 200, \"Royalties too high\"); // limit is 2% for royalties\n        \n        _tokenIds.increment();\n\n        uint256 newItemId = _tokenIds.current();\n        _mint(msg.sender, newItemId);\n        _setTokenURI(newItemId, tokenURI);\n\n        tokens[newItemId] = TokenData({\n            price: _price,\n            creator: msg.sender,\n            isDropOfTheDay: false,\n            onSale: false,\n            royalties: _royalties\n        });\n\n        emit Approval(msg.sender, address(this), newItemId);\n\n        return newItemId;\n    }\n\n    // sets an existing token as \"onsale\"\n    function putOnSale(uint256 _id) public {\n        TokenData memory token = tokens[_id];\n\n        require(\n            msg.sender == ownerOf(_id),\n            \"Only owner can put an item on sale\"\n        );\n\n        tokens[_id] = TokenData({\n            price: token.price,\n            creator: msg.sender,\n            isDropOfTheDay: token.isDropOfTheDay,\n            onSale: true,\n            royalties: token.royalties\n        });\n    }\n\n    // The owner (not sure about this for security reasons) is able to set a token as \"drop of the day\"\n    // so the commision instead of 2.5% will be entered directly by the owner\n    function setDropOfTheDay(uint256 _id, uint256 _commisionInBp)\n        public\n        onlyOwner\n    {\n        TokenData memory token = tokens[_id];\n\n        /*  require(\n            msg.sender == address(this),\n            \"Only owner can put an item as drop of the day\"\n        );*/\n\n        tokens[_id] = TokenData({\n            price: token.price,\n            creator: msg.sender,\n            isDropOfTheDay: true,\n            onSale: true,\n            royalties: token.royalties\n        });\n        // as only one drop of the day is allowed at the same time\n        bpDropOfDay = _commisionInBp;\n    }\n\n    function createAndPutOnSale(\n        string memory tokenURI, // URI pointing to the art\n        uint256 _price, // price in weis of the token\n        uint256 _royalties\n    ) public returns (uint256) {\n        require(_royalties <= 200, \"Royalties too high\"); // limit is 2% for royalties\n        \n        _tokenIds.increment();\n\n        uint256 newItemId = _tokenIds.current();\n        _mint(msg.sender, newItemId);\n        _setTokenURI(newItemId, tokenURI);\n\n        tokens[newItemId] = TokenData({\n            price: _price,\n            creator: msg.sender,\n            isDropOfTheDay: false,\n            onSale: true,\n            royalties: _royalties\n        });\n\n        emit Approval(msg.sender, address(this), newItemId);\n\n        return newItemId;\n    }\n\n    function buy(uint256 _tokenId) external payable {\n        address buyer = msg.sender;\n        uint256 payedPrice = msg.value;\n        address payable currentOwner = payable(ownerOf(_tokenId));\n        TokenData memory token = tokens[_tokenId];\n        require(token.onSale == true, \"Token is not for sale\");\n        uint256 price = token.price;\n        require(payedPrice >= price, \"Amount is not enough\");\n        require(token.isDropOfTheDay != true);\n        address payable creator = token.creator;\n        uint256 commision = bpArtists;\n        if (token.isDropOfTheDay == true) commision = (10000 - bpDropOfDay);\n        if (ownerOf(_tokenId) == creator) {\n            {\n                creator.transfer((payedPrice * commision) / 10000);\n                emit Payment(creator, (payedPrice * commision) / 10000);\n            }\n        } else {\n            // Resale, so transfer also royalties, that are substracted from buyer commision\n            uint256 royalties = tokens[_tokenId].royalties;\n            currentOwner.transfer(\n                (payedPrice * (commision - royalties)) / 10000\n            );\n            emit Payment(\n                currentOwner,\n                (payedPrice * commision - royalties) / 10000\n            );\n            creator.transfer((payedPrice * royalties) / 10000);\n            emit Royalty(creator, (payedPrice * royalties) / 10000);\n        }\n        _transfer(ownerOf(_tokenId), buyer, _tokenId);\n        tokens[_tokenId].onSale = false;\n        tokens[_tokenId].isDropOfTheDay = false;\n    }\n\n    // The creator mints a token and set inmediatly an auction with it\n    function CreateAndPutOnAuction(\n        string memory _tokenURI, // URI pointing to the art\n        uint256 _startDate,\n        uint256 _durationInSeconds,\n        uint256 _royalties\n    ) public returns (uint256) {\n        _tokenIds.increment();\n\n        uint256 newItemId = _tokenIds.current();\n        _mint(msg.sender, newItemId);\n        _setTokenURI(newItemId, _tokenURI);\n        // Add the token to the token list\n        tokens[newItemId] = TokenData({\n            creator: msg.sender,\n            isDropOfTheDay: false,\n            price: 0,\n            onSale: true,\n            royalties: _royalties\n        });\n        // add the token to the auction\n        Auction memory auction =\n            Auction({\n                creator: msg.sender,\n                minimumPrice: 0,\n                bestBidAmount: 0,\n                startTime: _startDate,\n                duration: _durationInSeconds,\n                bestBidder: address(0)\n            });\n        auctions[newItemId] = auction;\n        return newItemId;\n    }\n\n    // Start an auction using a token (that must exists)\n    function startAuction(\n        uint256 _tokenId,\n        uint256 _minAmount,\n        uint256 _startDate,\n        uint256 _durationInSeconds\n    ) external {\n        require(\n            msg.sender == ownerOf(_tokenId) ||\n                getApproved(_tokenId) == msg.sender,\n            \"Only the owner can set a token into an auction\"\n        );\n        Auction memory auction =\n            Auction({\n                creator: msg.sender,\n                minimumPrice: _minAmount,\n                bestBidAmount: 0,\n                startTime: _startDate,\n                duration: _durationInSeconds,\n                bestBidder: address(0)\n            });\n        auctions[_tokenId] = auction;\n    }\n\n    // Warning!! this method will be called from the backend to set the winner of an auction with the corresponding amount\n    function setWinner(\n        uint256 _tokenId,\n        address _winner,\n        uint256 _amount\n    ) public returns (bool) {\n        Auction storage auction = auctions[_tokenId];\n        require(\n            now > auction.startTime.add(auction.duration),\n            \"Auction still active\"\n        );\n        require(_amount >= auction.minimumPrice, \"Amount not high enough\");\n        auction.bestBidder = _winner;\n        auction.bestBidAmount = _amount;\n        auctions[_tokenId] = auction;\n        return true;\n    }\n\n    // The winner of the bid should be able to claim the token\n    function claim(uint256 _tokenId) external payable {\n        Auction storage auction = auctions[_tokenId];\n        require(msg.value == auction.bestBidAmount, \"Amount is not enough\");\n        require(msg.sender == auction.bestBidder, \"User is not the winner\");\n        require(\n            msg.value >= auction.minimumPrice,\n            \"amount is lower that the minimum price\"\n        );\n\n        address payable winner = msg.sender;\n        uint256 payedPrice = msg.value;\n        address payable currentOwner = payable(ownerOf(_tokenId));\n        TokenData memory token = tokens[_tokenId];\n        // By default the commision is the one for the artist (97.5%)\n        uint256 commision = bpArtists;\n        // but if the token is the drop of the day, the commision is 100%-commisionDropOfTheDay\n        if (token.isDropOfTheDay == true) commision = (10000 - bpDropOfDay);\n        // CASE 1. First sale\n        if (ownerOf(_tokenId) == token.creator) {\n            token.creator.transfer((payedPrice * commision) / 10000);\n            emit Payment(token.creator, (payedPrice * commision) / 10000);\n        } else {\n            // CASE 2. Resale\n            uint256 royalties = tokens[_tokenId].royalties;\n            currentOwner.transfer((payedPrice * (commision - royalties)) / 10000);\n            emit Payment(\n                currentOwner,\n                (payedPrice * commision - royalties) / 10000\n            );\n            token.creator.transfer((payedPrice * royalties) / 10000);\n            emit Royalty(token.creator, (payedPrice * royalties) / 10000);\n        }\n\n        // the auction ended and the tokens will be transferred, so the token is not anymore on sale or the drop of the day\n        token.onSale = false;\n        token.isDropOfTheDay = false;\n        tokens[_tokenId] = token;\n\n        _transfer(ownerOf(_tokenId), winner, _tokenId);\n    }\n\n    function ahora() public view returns (uint256) {\n        return now;\n    }\n}\n",
  "sourcePath": "/home/linux/ether/satoshi721/contracts/Satoshi721.sol",
  "compiler": {
    "name": "solc",
    "version": "0.6.2+commit.bacdbe57.Emscripten.clang"
  },
  "schemaVersion": "3.3.4",
  "updatedAt": "2021-03-31T08:03:21.881Z",
  "networkType": "ethereum",
  "devdoc": {
    "methods": {
      "approve(address,uint256)": {
        "details": "See {IERC721-approve}."
      },
      "balanceOf(address)": {
        "details": "See {IERC721-balanceOf}."
      },
      "baseURI()": {
        "details": "Returns the base URI set via {_setBaseURI}. This will be automatically added as a prefix in {tokenURI} to each token's URI, or to the token ID if no specific URI is set for that token ID."
      },
      "getApproved(uint256)": {
        "details": "See {IERC721-getApproved}."
      },
      "isApprovedForAll(address,address)": {
        "details": "See {IERC721-isApprovedForAll}."
      },
      "name()": {
        "details": "See {IERC721Metadata-name}."
      },
      "owner()": {
        "details": "Returns the address of the current owner."
      },
      "ownerOf(uint256)": {
        "details": "See {IERC721-ownerOf}."
      },
      "renounceOwnership()": {
        "details": "Leaves the contract without owner. It will not be possible to call `onlyOwner` functions anymore. Can only be called by the current owner.     * NOTE: Renouncing ownership will leave the contract without an owner, thereby removing any functionality that is only available to the owner."
      },
      "safeTransferFrom(address,address,uint256)": {
        "details": "See {IERC721-safeTransferFrom}."
      },
      "safeTransferFrom(address,address,uint256,bytes)": {
        "details": "See {IERC721-safeTransferFrom}."
      },
      "setApprovalForAll(address,bool)": {
        "details": "See {IERC721-setApprovalForAll}."
      },
      "supportsInterface(bytes4)": {
        "details": "See {IERC165-supportsInterface}.     * Time complexity O(1), guaranteed to always use less than 30 000 gas."
      },
      "symbol()": {
        "details": "See {IERC721Metadata-symbol}."
      },
      "tokenByIndex(uint256)": {
        "details": "See {IERC721Enumerable-tokenByIndex}."
      },
      "tokenOfOwnerByIndex(address,uint256)": {
        "details": "See {IERC721Enumerable-tokenOfOwnerByIndex}."
      },
      "tokenURI(uint256)": {
        "details": "See {IERC721Metadata-tokenURI}."
      },
      "totalSupply()": {
        "details": "See {IERC721Enumerable-totalSupply}."
      },
      "transferFrom(address,address,uint256)": {
        "details": "See {IERC721-transferFrom}."
      },
      "transferOwnership(address)": {
        "details": "Transfers ownership of the contract to a new account (`newOwner`). Can only be called by the current owner."
      }
    }
  },
  "userdoc": {
    "methods": {}
  }
}