{
  "contractName": "SatoshiART1155Marketplace",
  "abi": [
    {
      "inputs": [
        {
          "internalType": "address",
          "name": "satoshiART1155Address",
          "type": "address"
        }
      ],
      "stateMutability": "nonpayable",
      "type": "constructor"
    },
    {
      "anonymous": false,
      "inputs": [
        {
          "indexed": true,
          "internalType": "address",
          "name": "previousOwner",
          "type": "address"
        },
        {
          "indexed": true,
          "internalType": "address",
          "name": "newOwner",
          "type": "address"
        }
      ],
      "name": "OwnershipTransferred",
      "type": "event"
    },
    {
      "anonymous": false,
      "inputs": [],
      "name": "PaymentWithdrawed",
      "type": "event"
    },
    {
      "anonymous": false,
      "inputs": [],
      "name": "PurchaseConfirmed",
      "type": "event"
    },
    {
      "inputs": [],
      "name": "owner",
      "outputs": [
        {
          "internalType": "address",
          "name": "",
          "type": "address"
        }
      ],
      "stateMutability": "view",
      "type": "function",
      "constant": true
    },
    {
      "inputs": [],
      "name": "renounceOwnership",
      "outputs": [],
      "stateMutability": "nonpayable",
      "type": "function"
    },
    {
      "inputs": [],
      "name": "satoshiART1155",
      "outputs": [
        {
          "internalType": "contract ISatoshiART1155",
          "name": "",
          "type": "address"
        }
      ],
      "stateMutability": "view",
      "type": "function",
      "constant": true
    },
    {
      "inputs": [
        {
          "internalType": "address",
          "name": "newOwner",
          "type": "address"
        }
      ],
      "name": "transferOwnership",
      "outputs": [],
      "stateMutability": "nonpayable",
      "type": "function"
    },
    {
      "inputs": [
        {
          "internalType": "uint256",
          "name": "tokenId",
          "type": "uint256"
        },
        {
          "internalType": "uint256",
          "name": "amount",
          "type": "uint256"
        },
        {
          "internalType": "uint256",
          "name": "price",
          "type": "uint256"
        }
      ],
      "name": "putOnSale",
      "outputs": [],
      "stateMutability": "nonpayable",
      "type": "function"
    },
    {
      "inputs": [
        {
          "internalType": "address",
          "name": "account",
          "type": "address"
        },
        {
          "internalType": "uint256",
          "name": "id",
          "type": "uint256"
        }
      ],
      "name": "listingOf",
      "outputs": [
        {
          "internalType": "bytes1",
          "name": "",
          "type": "bytes1"
        },
        {
          "internalType": "uint256",
          "name": "",
          "type": "uint256"
        },
        {
          "internalType": "uint256",
          "name": "",
          "type": "uint256"
        },
        {
          "internalType": "uint256",
          "name": "",
          "type": "uint256"
        },
        {
          "internalType": "uint256",
          "name": "",
          "type": "uint256"
        }
      ],
      "stateMutability": "view",
      "type": "function",
      "constant": true
    },
    {
      "inputs": [
        {
          "internalType": "uint256",
          "name": "tokenId",
          "type": "uint256"
        },
        {
          "internalType": "uint256",
          "name": "amount",
          "type": "uint256"
        },
        {
          "internalType": "address",
          "name": "itemOwner",
          "type": "address"
        }
      ],
      "name": "buy",
      "outputs": [
        {
          "internalType": "bool",
          "name": "",
          "type": "bool"
        }
      ],
      "stateMutability": "payable",
      "type": "function",
      "payable": true
    },
    {
      "inputs": [],
      "name": "withdrawPayment",
      "outputs": [
        {
          "internalType": "bool",
          "name": "",
          "type": "bool"
        }
      ],
      "stateMutability": "nonpayable",
      "type": "function"
    },
    {
      "inputs": [],
      "name": "withdrawBalance",
      "outputs": [
        {
          "internalType": "bool",
          "name": "",
          "type": "bool"
        }
      ],
      "stateMutability": "nonpayable",
      "type": "function"
    },
    {
      "inputs": [
        {
          "internalType": "address",
          "name": "user",
          "type": "address"
        }
      ],
      "name": "outstandingPayment",
      "outputs": [
        {
          "internalType": "uint256",
          "name": "",
          "type": "uint256"
        }
      ],
      "stateMutability": "view",
      "type": "function",
      "constant": true
    },
    {
      "inputs": [
        {
          "internalType": "uint256",
          "name": "tokenId",
          "type": "uint256"
        },
        {
          "internalType": "uint256",
          "name": "amount",
          "type": "uint256"
        },
        {
          "internalType": "uint256",
          "name": "price",
          "type": "uint256"
        },
        {
          "internalType": "uint256",
          "name": "startTime",
          "type": "uint256"
        },
        {
          "internalType": "uint256",
          "name": "endTime",
          "type": "uint256"
        }
      ],
      "name": "setAsDropOfTheDay",
      "outputs": [],
      "stateMutability": "nonpayable",
      "type": "function"
    },
    {
      "inputs": [
        {
          "internalType": "uint256",
          "name": "tokenId",
          "type": "uint256"
        },
        {
          "internalType": "uint256",
          "name": "amount",
          "type": "uint256"
        },
        {
          "internalType": "address",
          "name": "itemOwner",
          "type": "address"
        },
        {
          "internalType": "uint256",
          "name": "newCommission",
          "type": "uint256"
        }
      ],
      "name": "dropOfTheDayBuy",
      "outputs": [
        {
          "internalType": "bool",
          "name": "",
          "type": "bool"
        }
      ],
      "stateMutability": "payable",
      "type": "function",
      "payable": true
    }
  ],
  "bytecode": "0x60806040523480156200001157600080fd5b50604051620032213803806200322183398181016040528101906200003791906200014e565b6000620000496200012f60201b60201c565b9050806000806101000a81548173ffffffffffffffffffffffffffffffffffffffff021916908373ffffffffffffffffffffffffffffffffffffffff1602179055508073ffffffffffffffffffffffffffffffffffffffff16600073ffffffffffffffffffffffffffffffffffffffff167f8be0079c531659141344cd1fd0a4f28419497f9722a3daafe3b4186f6b6457e060405160405180910390a35080600260006101000a81548173ffffffffffffffffffffffffffffffffffffffff021916908373ffffffffffffffffffffffffffffffffffffffff16021790555050620001c8565b600033905090565b6000815190506200014881620001ae565b92915050565b6000602082840312156200016157600080fd5b6000620001718482850162000137565b91505092915050565b600062000187826200018e565b9050919050565b600073ffffffffffffffffffffffffffffffffffffffff82169050919050565b620001b9816200017a565b8114620001c557600080fd5b50565b61304980620001d86000396000f3fe6080604052600436106100a75760003560e01c80637f6c26f7116100645780637f6c26f7146101c55780638da5cb5b146101f5578063a118babd14610220578063ca848c231461024b578063d4c4841414610276578063f2fde38b1461029f576100a7565b8063121c5e91146100ac578063216f2f24146100d557806359a87bc1146101165780635a96a2a9146101465780635fd8c71014610183578063715018a6146101ae575b600080fd5b3480156100b857600080fd5b506100d360048036038101906100ce91906122b5565b6102c8565b005b3480156100e157600080fd5b506100fc60048036038101906100f7919061219e565b6104a6565b60405161010d959493929190612abe565b60405180910390f35b610130600480360381019061012b9190612203565b6106e2565b60405161013d9190612aa3565b60405180910390f35b34801561015257600080fd5b5061016d6004803603810190610168919061214c565b610e95565b60405161017a9190612d4e565b60405180910390f35b34801561018f57600080fd5b50610198610ede565b6040516101a59190612aa3565b60405180910390f35b3480156101ba57600080fd5b506101c3610fa6565b005b6101df60048036038101906101da9190612252565b6110e0565b6040516101ec9190612aa3565b60405180910390f35b34801561020157600080fd5b5061020a611988565b6040516102179190612a07565b60405180910390f35b34801561022c57600080fd5b506102356119b1565b6040516102429190612aa3565b60405180910390f35b34801561025757600080fd5b50610260611b0f565b60405161026d9190612b11565b60405180910390f35b34801561028257600080fd5b5061029d60048036038101906102989190612304565b611b35565b005b3480156102ab57600080fd5b506102c660048036038101906102c1919061214c565b611d13565b005b81600260009054906101000a900473ffffffffffffffffffffffffffffffffffffffff1673ffffffffffffffffffffffffffffffffffffffff1662fdd58e33866040518363ffffffff1660e01b8152600401610325929190612a7a565b60206040518083038186803b15801561033d57600080fd5b505afa158015610351573d6000803e3d6000fd5b505050506040513d601f19601f8201168201806040525081019061037591906121da565b10156103b6576040517f08c379a00000000000000000000000000000000000000000000000000000000081526004016103ad90612d0e565b60405180910390fd5b6040518060a00160405280600160f81b7effffffffffffffffffffffffffffffffffffffffffffffffffffffffffffff191681526020018281526020018381526020016000815260200160008152506001600085815260200190815260200160002060003373ffffffffffffffffffffffffffffffffffffffff1673ffffffffffffffffffffffffffffffffffffffff16815260200190815260200160002060008201518160000160006101000a81548160ff021916908360f81c021790555060208201518160010155604082015181600201556060820151816003015560808201518160040155905050505050565b60008060008060008073ffffffffffffffffffffffffffffffffffffffff168773ffffffffffffffffffffffffffffffffffffffff16141561051d576040517f08c379a000000000000000000000000000000000000000000000000000000000815260040161051490612b4e565b60405180910390fd5b6001600087815260200190815260200160002060008873ffffffffffffffffffffffffffffffffffffffff1673ffffffffffffffffffffffffffffffffffffffff16815260200190815260200160002060000160009054906101000a900460f81b6001600088815260200190815260200160002060008973ffffffffffffffffffffffffffffffffffffffff1673ffffffffffffffffffffffffffffffffffffffff168152602001908152602001600020600101546001600089815260200190815260200160002060008a73ffffffffffffffffffffffffffffffffffffffff1673ffffffffffffffffffffffffffffffffffffffff16815260200190815260200160002060020154600160008a815260200190815260200160002060008b73ffffffffffffffffffffffffffffffffffffffff1673ffffffffffffffffffffffffffffffffffffffff16815260200190815260200160002060030154600160008b815260200190815260200160002060008c73ffffffffffffffffffffffffffffffffffffffff1673ffffffffffffffffffffffffffffffffffffffff16815260200190815260200160002060040154945094509450945094509295509295909350565b60008073ffffffffffffffffffffffffffffffffffffffff163373ffffffffffffffffffffffffffffffffffffffff16141561071d57600080fd5b600160f81b6001600086815260200190815260200160002060008473ffffffffffffffffffffffffffffffffffffffff1673ffffffffffffffffffffffffffffffffffffffff16815260200190815260200160002060000160009054906101000a900460f81b7effffffffffffffffffffffffffffffffffffffffffffffffffffffffffffff1916146107e5576040517f08c379a00000000000000000000000000000000000000000000000000000000081526004016107dc90612cce565b60405180910390fd5b826001600086815260200190815260200160002060008473ffffffffffffffffffffffffffffffffffffffff1673ffffffffffffffffffffffffffffffffffffffff16815260200190815260200160002060020154101561087b576040517f08c379a000000000000000000000000000000000000000000000000000000000815260040161087290612bce565b60405180910390fd5b82600260009054906101000a900473ffffffffffffffffffffffffffffffffffffffff1673ffffffffffffffffffffffffffffffffffffffff1662fdd58e84876040518363ffffffff1660e01b81526004016108d8929190612a7a565b60206040518083038186803b1580156108f057600080fd5b505afa158015610904573d6000803e3d6000fd5b505050506040513d601f19601f8201168201806040525081019061092891906121da565b1015610969576040517f08c379a000000000000000000000000000000000000000000000000000000000815260040161096090612c2e565b60405180910390fd5b6109cf836001600087815260200190815260200160002060008573ffffffffffffffffffffffffffffffffffffffff1673ffffffffffffffffffffffffffffffffffffffff16815260200190815260200160002060010154611ebc90919063ffffffff16565b341015610a11576040517f08c379a0000000000000000000000000000000000000000000000000000000008152600401610a0890612cee565b60405180910390fd5b610a77836001600087815260200190815260200160002060008573ffffffffffffffffffffffffffffffffffffffff1673ffffffffffffffffffffffffffffffffffffffff16815260200190815260200160002060020154611f3790919063ffffffff16565b6001600086815260200190815260200160002060008473ffffffffffffffffffffffffffffffffffffffff1673ffffffffffffffffffffffffffffffffffffffff16815260200190815260200160002060020181905550600260009054906101000a900473ffffffffffffffffffffffffffffffffffffffff1673ffffffffffffffffffffffffffffffffffffffff1663f242432a833387876040518563ffffffff1660e01b8152600401610b2f9493929190612a22565b600060405180830381600087803b158015610b4957600080fd5b505af1158015610b5d573d6000803e3d6000fd5b505050506000610b8b612710610b7d60fa34611ebc90919063ffffffff16565b611f8190919063ffffffff16565b90506000610bb8612710610baa6103e834611ebc90919063ffffffff16565b611f8190919063ffffffff16565b9050610cb68160036000600260009054906101000a900473ffffffffffffffffffffffffffffffffffffffff1673ffffffffffffffffffffffffffffffffffffffff166340c1a0648b6040518263ffffffff1660e01b8152600401610c1d9190612d4e565b60206040518083038186803b158015610c3557600080fd5b505afa158015610c49573d6000803e3d6000fd5b505050506040513d601f19601f82011682018060405250810190610c6d9190612175565b73ffffffffffffffffffffffffffffffffffffffff1673ffffffffffffffffffffffffffffffffffffffff16815260200190815260200160002054611fcb90919063ffffffff16565b60036000600260009054906101000a900473ffffffffffffffffffffffffffffffffffffffff1673ffffffffffffffffffffffffffffffffffffffff166340c1a0648a6040518263ffffffff1660e01b8152600401610d159190612d4e565b60206040518083038186803b158015610d2d57600080fd5b505afa158015610d41573d6000803e3d6000fd5b505050506040513d601f19601f82011682018060405250810190610d659190612175565b73ffffffffffffffffffffffffffffffffffffffff1673ffffffffffffffffffffffffffffffffffffffff16815260200190815260200160002081905550610e19610dcb82610dbd8534611f3790919063ffffffff16565b611f3790919063ffffffff16565b600360008773ffffffffffffffffffffffffffffffffffffffff1673ffffffffffffffffffffffffffffffffffffffff16815260200190815260200160002054611fcb90919063ffffffff16565b600360008673ffffffffffffffffffffffffffffffffffffffff1673ffffffffffffffffffffffffffffffffffffffff168152602001908152602001600020819055507fd5d55c8a68912e9a110618df8d5e2e83b8d83211c57a8ddd1203df92885dc88160405160405180910390a16001925050509392505050565b6000600360008373ffffffffffffffffffffffffffffffffffffffff1673ffffffffffffffffffffffffffffffffffffffff168152602001908152602001600020549050919050565b6000610ee8612029565b73ffffffffffffffffffffffffffffffffffffffff16610f06611988565b73ffffffffffffffffffffffffffffffffffffffff1614610f5c576040517f08c379a0000000000000000000000000000000000000000000000000000000008152600401610f5390612c8e565b60405180910390fd5b3373ffffffffffffffffffffffffffffffffffffffff166108fc479081150290604051600060405180830381858888f19350505050610f9e5760009050610fa3565b600190505b90565b610fae612029565b73ffffffffffffffffffffffffffffffffffffffff16610fcc611988565b73ffffffffffffffffffffffffffffffffffffffff1614611022576040517f08c379a000000000000000000000000000000000000000000000000000000000815260040161101990612c8e565b60405180910390fd5b600073ffffffffffffffffffffffffffffffffffffffff1660008054906101000a900473ffffffffffffffffffffffffffffffffffffffff1673ffffffffffffffffffffffffffffffffffffffff167f8be0079c531659141344cd1fd0a4f28419497f9722a3daafe3b4186f6b6457e060405160405180910390a360008060006101000a81548173ffffffffffffffffffffffffffffffffffffffff021916908373ffffffffffffffffffffffffffffffffffffffff160217905550565b60008073ffffffffffffffffffffffffffffffffffffffff163373ffffffffffffffffffffffffffffffffffffffff16141561111b57600080fd5b600260f81b6001600087815260200190815260200160002060008573ffffffffffffffffffffffffffffffffffffffff1673ffffffffffffffffffffffffffffffffffffffff16815260200190815260200160002060000160009054906101000a900460f81b7effffffffffffffffffffffffffffffffffffffffffffffffffffffffffffff1916146111e3576040517f08c379a00000000000000000000000000000000000000000000000000000000081526004016111da90612c0e565b60405180910390fd5b836001600087815260200190815260200160002060008573ffffffffffffffffffffffffffffffffffffffff1673ffffffffffffffffffffffffffffffffffffffff168152602001908152602001600020600201541015611279576040517f08c379a000000000000000000000000000000000000000000000000000000000815260040161127090612d2e565b60405180910390fd5b83600260009054906101000a900473ffffffffffffffffffffffffffffffffffffffff1673ffffffffffffffffffffffffffffffffffffffff1662fdd58e85886040518363ffffffff1660e01b81526004016112d6929190612a7a565b60206040518083038186803b1580156112ee57600080fd5b505afa158015611302573d6000803e3d6000fd5b505050506040513d601f19601f8201168201806040525081019061132691906121da565b1015611367576040517f08c379a000000000000000000000000000000000000000000000000000000000815260040161135e90612bee565b60405180910390fd5b6113cd846001600088815260200190815260200160002060008673ffffffffffffffffffffffffffffffffffffffff1673ffffffffffffffffffffffffffffffffffffffff16815260200190815260200160002060010154611ebc90919063ffffffff16565b34101561140f576040517f08c379a000000000000000000000000000000000000000000000000000000000815260040161140690612c4e565b60405180910390fd5b6001600086815260200190815260200160002060008473ffffffffffffffffffffffffffffffffffffffff1673ffffffffffffffffffffffffffffffffffffffff1681526020019081526020016000206003015442101580156114c557506001600086815260200190815260200160002060008473ffffffffffffffffffffffffffffffffffffffff1673ffffffffffffffffffffffffffffffffffffffff168152602001908152602001600020600401544211155b611504576040517f08c379a00000000000000000000000000000000000000000000000000000000081526004016114fb90612cae565b60405180910390fd5b61156a846001600088815260200190815260200160002060008673ffffffffffffffffffffffffffffffffffffffff1673ffffffffffffffffffffffffffffffffffffffff16815260200190815260200160002060020154611f3790919063ffffffff16565b6001600087815260200190815260200160002060008573ffffffffffffffffffffffffffffffffffffffff1673ffffffffffffffffffffffffffffffffffffffff16815260200190815260200160002060020181905550600260009054906101000a900473ffffffffffffffffffffffffffffffffffffffff1673ffffffffffffffffffffffffffffffffffffffff1663f242432a843388886040518563ffffffff1660e01b81526004016116229493929190612a22565b600060405180830381600087803b15801561163c57600080fd5b505af1158015611650573d6000803e3d6000fd5b50505050600061167d61271061166f8534611ebc90919063ffffffff16565b611f8190919063ffffffff16565b905060006116aa61271061169c6103e834611ebc90919063ffffffff16565b611f8190919063ffffffff16565b90506117a88160036000600260009054906101000a900473ffffffffffffffffffffffffffffffffffffffff1673ffffffffffffffffffffffffffffffffffffffff166340c1a0648c6040518263ffffffff1660e01b815260040161170f9190612d4e565b60206040518083038186803b15801561172757600080fd5b505afa15801561173b573d6000803e3d6000fd5b505050506040513d601f19601f8201168201806040525081019061175f9190612175565b73ffffffffffffffffffffffffffffffffffffffff1673ffffffffffffffffffffffffffffffffffffffff16815260200190815260200160002054611fcb90919063ffffffff16565b60036000600260009054906101000a900473ffffffffffffffffffffffffffffffffffffffff1673ffffffffffffffffffffffffffffffffffffffff166340c1a0648b6040518263ffffffff1660e01b81526004016118079190612d4e565b60206040518083038186803b15801561181f57600080fd5b505afa158015611833573d6000803e3d6000fd5b505050506040513d601f19601f820116820180604052508101906118579190612175565b73ffffffffffffffffffffffffffffffffffffffff1673ffffffffffffffffffffffffffffffffffffffff1681526020019081526020016000208190555061190b6118bd826118af8534611f3790919063ffffffff16565b611f3790919063ffffffff16565b600360008873ffffffffffffffffffffffffffffffffffffffff1673ffffffffffffffffffffffffffffffffffffffff16815260200190815260200160002054611fcb90919063ffffffff16565b600360008773ffffffffffffffffffffffffffffffffffffffff1673ffffffffffffffffffffffffffffffffffffffff168152602001908152602001600020819055507fd5d55c8a68912e9a110618df8d5e2e83b8d83211c57a8ddd1203df92885dc88160405160405180910390a1600192505050949350505050565b60008060009054906101000a900473ffffffffffffffffffffffffffffffffffffffff16905090565b600080600360003373ffffffffffffffffffffffffffffffffffffffff1673ffffffffffffffffffffffffffffffffffffffff168152602001908152602001600020549050600073ffffffffffffffffffffffffffffffffffffffff163373ffffffffffffffffffffffffffffffffffffffff161415611a3057600080fd5b6000811115611b06576000600360003373ffffffffffffffffffffffffffffffffffffffff1673ffffffffffffffffffffffffffffffffffffffff168152602001908152602001600020819055503373ffffffffffffffffffffffffffffffffffffffff166108fc829081150290604051600060405180830381858888f19350505050611b055780600360003373ffffffffffffffffffffffffffffffffffffffff1673ffffffffffffffffffffffffffffffffffffffff168152602001908152602001600020819055506000915050611b0c565b5b60019150505b90565b600260009054906101000a900473ffffffffffffffffffffffffffffffffffffffff1681565b83600260009054906101000a900473ffffffffffffffffffffffffffffffffffffffff1673ffffffffffffffffffffffffffffffffffffffff1662fdd58e33886040518363ffffffff1660e01b8152600401611b92929190612a7a565b60206040518083038186803b158015611baa57600080fd5b505afa158015611bbe573d6000803e3d6000fd5b505050506040513d601f19601f82011682018060405250810190611be291906121da565b1015611c23576040517f08c379a0000000000000000000000000000000000000000000000000000000008152600401611c1a90612bae565b60405180910390fd5b6040518060a00160405280600260f81b7effffffffffffffffffffffffffffffffffffffffffffffffffffffffffffff19168152602001848152602001858152602001838152602001828152506001600087815260200190815260200160002060003373ffffffffffffffffffffffffffffffffffffffff1673ffffffffffffffffffffffffffffffffffffffff16815260200190815260200160002060008201518160000160006101000a81548160ff021916908360f81c0217905550602082015181600101556040820151816002015560608201518160030155608082015181600401559050505050505050565b611d1b612029565b73ffffffffffffffffffffffffffffffffffffffff16611d39611988565b73ffffffffffffffffffffffffffffffffffffffff1614611d8f576040517f08c379a0000000000000000000000000000000000000000000000000000000008152600401611d8690612c8e565b60405180910390fd5b600073ffffffffffffffffffffffffffffffffffffffff168173ffffffffffffffffffffffffffffffffffffffff161415611dff576040517f08c379a0000000000000000000000000000000000000000000000000000000008152600401611df690612b6e565b60405180910390fd5b8073ffffffffffffffffffffffffffffffffffffffff1660008054906101000a900473ffffffffffffffffffffffffffffffffffffffff1673ffffffffffffffffffffffffffffffffffffffff167f8be0079c531659141344cd1fd0a4f28419497f9722a3daafe3b4186f6b6457e060405160405180910390a3806000806101000a81548173ffffffffffffffffffffffffffffffffffffffff021916908373ffffffffffffffffffffffffffffffffffffffff16021790555050565b600080831415611ecf5760009050611f31565b60008284611edd9190612e1d565b9050828482611eec9190612dec565b14611f2c576040517f08c379a0000000000000000000000000000000000000000000000000000000008152600401611f2390612c6e565b60405180910390fd5b809150505b92915050565b6000611f7983836040518060400160405280601e81526020017f536166654d6174683a207375627472616374696f6e206f766572666c6f770000815250612031565b905092915050565b6000611fc383836040518060400160405280601a81526020017f536166654d6174683a206469766973696f6e206279207a65726f000000000000815250612095565b905092915050565b6000808284611fda9190612d96565b90508381101561201f576040517f08c379a000000000000000000000000000000000000000000000000000000000815260040161201690612b8e565b60405180910390fd5b8091505092915050565b600033905090565b6000838311158290612079576040517f08c379a00000000000000000000000000000000000000000000000000000000081526004016120709190612b2c565b60405180910390fd5b50600083856120889190612e77565b9050809150509392505050565b600080831182906120dc576040517f08c379a00000000000000000000000000000000000000000000000000000000081526004016120d39190612b2c565b60405180910390fd5b50600083856120eb9190612dec565b9050809150509392505050565b60008135905061210781612fe5565b92915050565b60008151905061211c81612fe5565b92915050565b60008135905061213181612ffc565b92915050565b60008151905061214681612ffc565b92915050565b60006020828403121561215e57600080fd5b600061216c848285016120f8565b91505092915050565b60006020828403121561218757600080fd5b60006121958482850161210d565b91505092915050565b600080604083850312156121b157600080fd5b60006121bf858286016120f8565b92505060206121d085828601612122565b9150509250929050565b6000602082840312156121ec57600080fd5b60006121fa84828501612137565b91505092915050565b60008060006060848603121561221857600080fd5b600061222686828701612122565b935050602061223786828701612122565b9250506040612248868287016120f8565b9150509250925092565b6000806000806080858703121561226857600080fd5b600061227687828801612122565b945050602061228787828801612122565b9350506040612298878288016120f8565b92505060606122a987828801612122565b91505092959194509250565b6000806000606084860312156122ca57600080fd5b60006122d886828701612122565b93505060206122e986828701612122565b92505060406122fa86828701612122565b9150509250925092565b600080600080600060a0868803121561231c57600080fd5b600061232a88828901612122565b955050602061233b88828901612122565b945050604061234c88828901612122565b935050606061235d88828901612122565b925050608061236e88828901612122565b9150509295509295909350565b61238481612eab565b82525050565b61239381612ebd565b82525050565b6123a281612ec9565b82525050565b6123b181612f1f565b82525050565b60006123c282612d69565b6123cc8185612d85565b93506123dc818560208601612f43565b6123e581612fd4565b840191505092915050565b60006123fd602b83612d85565b91507f455243313135353a206c697374696e6720717565727920666f7220746865207a60008301527f65726f20616464726573730000000000000000000000000000000000000000006020830152604082019050919050565b6000612463602683612d85565b91507f4f776e61626c653a206e6577206f776e657220697320746865207a65726f206160008301527f64647265737300000000000000000000000000000000000000000000000000006020830152604082019050919050565b60006124c9601b83612d85565b91507f536166654d6174683a206164646974696f6e206f766572666c6f7700000000006000830152602082019050919050565b6000612509602b83612d85565b91507f4f776e657220697320747279696e6720746f2073656c6c206d6f72652074686160008301527f6e207468657920686176650000000000000000000000000000000000000000006020830152604082019050919050565b600061256f602383612d85565b91507f6275793a20747279696e6720746f20627579206d6f7265207468616e206c697360008301527f74656400000000000000000000000000000000000000000000000000000000006020830152604082019050919050565b60006125d5603483612d85565b91507f627579202844726f70206f662074686520646179293a20747279696e6720746f60008301527f20627579206d6f7265207468616e206f776e65640000000000000000000000006020830152604082019050919050565b600061263b603d83612d85565b91507f627579202844726f70206f662074686520646179293a206974656d206973206e60008301527f6f74206c697374656420666f722064726f70206f6620746865206461790000006020830152604082019050919050565b60006126a1602283612d85565b91507f6275793a20747279696e6720746f20627579206d6f7265207468616e206f776e60008301527f65640000000000000000000000000000000000000000000000000000000000006020830152604082019050919050565b6000612707602683612d85565b91507f627579202844726f70206f662074686520646179293a206e6f7420656e6f756760008301527f682066756e6400000000000000000000000000000000000000000000000000006020830152604082019050919050565b600061276d602183612d85565b91507f536166654d6174683a206d756c7469706c69636174696f6e206f766572666c6f60008301527f77000000000000000000000000000000000000000000000000000000000000006020830152604082019050919050565b60006127d3602083612d85565b91507f4f776e61626c653a2063616c6c6572206973206e6f7420746865206f776e65726000830152602082019050919050565b6000612813603c83612d85565b91507f627579202844726f70206f662074686520646179293a2064726f70206f66207460008301527f68652064617920656e6465642f686173206e6f742073746172746564000000006020830152604082019050919050565b6000612879602283612d85565b91507f6275793a20747279696e6720746f20627579206e6f74206c697374656420697460008301527f656d0000000000000000000000000000000000000000000000000000000000006020830152604082019050919050565b60006128df600083612d74565b9150600082019050919050565b60006128f9601483612d85565b91507f6275793a206e6f7420656e6f7567682066756e640000000000000000000000006000830152602082019050919050565b6000612939602983612d85565b91507f596f752061726520747279696e6720746f2073656c6c206d6f7265207468616e60008301527f20796f75206861766500000000000000000000000000000000000000000000006020830152604082019050919050565b600061299f603583612d85565b91507f627579202844726f70206f662074686520646179293a20747279696e6720746f60008301527f20627579206d6f7265207468616e206c697374656400000000000000000000006020830152604082019050919050565b612a0181612f15565b82525050565b6000602082019050612a1c600083018461237b565b92915050565b600060a082019050612a37600083018761237b565b612a44602083018661237b565b612a5160408301856129f8565b612a5e60608301846129f8565b8181036080830152612a6f816128d2565b905095945050505050565b6000604082019050612a8f600083018561237b565b612a9c60208301846129f8565b9392505050565b6000602082019050612ab8600083018461238a565b92915050565b600060a082019050612ad36000830188612399565b612ae060208301876129f8565b612aed60408301866129f8565b612afa60608301856129f8565b612b0760808301846129f8565b9695505050505050565b6000602082019050612b2660008301846123a8565b92915050565b60006020820190508181036000830152612b4681846123b7565b905092915050565b60006020820190508181036000830152612b67816123f0565b9050919050565b60006020820190508181036000830152612b8781612456565b9050919050565b60006020820190508181036000830152612ba7816124bc565b9050919050565b60006020820190508181036000830152612bc7816124fc565b9050919050565b60006020820190508181036000830152612be781612562565b9050919050565b60006020820190508181036000830152612c07816125c8565b9050919050565b60006020820190508181036000830152612c278161262e565b9050919050565b60006020820190508181036000830152612c4781612694565b9050919050565b60006020820190508181036000830152612c67816126fa565b9050919050565b60006020820190508181036000830152612c8781612760565b9050919050565b60006020820190508181036000830152612ca7816127c6565b9050919050565b60006020820190508181036000830152612cc781612806565b9050919050565b60006020820190508181036000830152612ce78161286c565b9050919050565b60006020820190508181036000830152612d07816128ec565b9050919050565b60006020820190508181036000830152612d278161292c565b9050919050565b60006020820190508181036000830152612d4781612992565b9050919050565b6000602082019050612d6360008301846129f8565b92915050565b600081519050919050565b600082825260208201905092915050565b600082825260208201905092915050565b6000612da182612f15565b9150612dac83612f15565b9250827fffffffffffffffffffffffffffffffffffffffffffffffffffffffffffffffff03821115612de157612de0612f76565b5b828201905092915050565b6000612df782612f15565b9150612e0283612f15565b925082612e1257612e11612fa5565b5b828204905092915050565b6000612e2882612f15565b9150612e3383612f15565b9250817fffffffffffffffffffffffffffffffffffffffffffffffffffffffffffffffff0483118215151615612e6c57612e6b612f76565b5b828202905092915050565b6000612e8282612f15565b9150612e8d83612f15565b925082821015612ea057612e9f612f76565b5b828203905092915050565b6000612eb682612ef5565b9050919050565b60008115159050919050565b60007fff0000000000000000000000000000000000000000000000000000000000000082169050919050565b600073ffffffffffffffffffffffffffffffffffffffff82169050919050565b6000819050919050565b6000612f2a82612f31565b9050919050565b6000612f3c82612ef5565b9050919050565b60005b83811015612f61578082015181840152602081019050612f46565b83811115612f70576000848401525b50505050565b7f4e487b7100000000000000000000000000000000000000000000000000000000600052601160045260246000fd5b7f4e487b7100000000000000000000000000000000000000000000000000000000600052601260045260246000fd5b6000601f19601f8301169050919050565b612fee81612eab565b8114612ff957600080fd5b50565b61300581612f15565b811461301057600080fd5b5056fea2646970667358221220b80962cea190ce04e0ca7af2ff06bc2c71c48160785a970036c98ae50153eb1e64736f6c63430008000033",
  "immutableReferences": {},
  "source": "// SPDX-License-Identifier: MIT\n\npragma solidity >=0.8.0;\n\nlibrary SafeMath {\n    function add(uint256 a, uint256 b) internal pure returns (uint256) {\n        uint256 c = a + b;\n        require(c >= a, \"SafeMath: addition overflow\");\n\n        return c;\n    }\n\n    function sub(uint256 a, uint256 b) internal pure returns (uint256) {\n        return sub(a, b, \"SafeMath: subtraction overflow\");\n    }\n\n    function sub(\n        uint256 a,\n        uint256 b,\n        string memory errorMessage\n    ) internal pure returns (uint256) {\n        require(b <= a, errorMessage);\n        uint256 c = a - b;\n\n        return c;\n    }\n\n    function mul(uint256 a, uint256 b) internal pure returns (uint256) {\n        if (a == 0) {\n            return 0;\n        }\n\n        uint256 c = a * b;\n        require(c / a == b, \"SafeMath: multiplication overflow\");\n\n        return c;\n    }\n\n    function div(uint256 a, uint256 b) internal pure returns (uint256) {\n        return div(a, b, \"SafeMath: division by zero\");\n    }\n\n    function div(\n        uint256 a,\n        uint256 b,\n        string memory errorMessage\n    ) internal pure returns (uint256) {\n        require(b > 0, errorMessage);\n        uint256 c = a / b;\n\n        return c;\n    }\n\n    function mod(uint256 a, uint256 b) internal pure returns (uint256) {\n        return mod(a, b, \"SafeMath: modulo by zero\");\n    }\n\n    function mod(\n        uint256 a,\n        uint256 b,\n        string memory errorMessage\n    ) internal pure returns (uint256) {\n        require(b != 0, errorMessage);\n        return a % b;\n    }\n}\n\n/*\n * @dev Provides information about the current execution context, including the\n * sender of the transaction and its data. While these are generally available\n * via msg.sender and msg.data, they should not be accessed in such a direct\n * manner, since when dealing with meta-transactions the account sending and\n * paying for execution may not be the actual sender (as far as an application\n * is concerned).\n *\n * This contract is only required for intermediate, library-like contracts.\n */\nabstract contract Context {\n    function _msgSender() internal view virtual returns (address) {\n        return msg.sender;\n    }\n\n    function _msgData() internal view virtual returns (bytes calldata) {\n        this; // silence state mutability warning without generating bytecode - see https://github.com/ethereum/solidity/issues/2691\n        return msg.data;\n    }\n}\n\n/**\n * @dev Contract module which provides a basic access control mechanism, where\n * there is an account (an owner) that can be granted exclusive access to\n * specific functions.\n *\n * By default, the owner account will be the one that deploys the contract. This\n * can later be changed with {transferOwnership}.\n *\n * This module is used through inheritance. It will make available the modifier\n * `onlyOwner`, which can be applied to your functions to restrict their use to\n * the owner.\n */\nabstract contract Ownable is Context {\n    address private _owner;\n\n    event OwnershipTransferred(\n        address indexed previousOwner,\n        address indexed newOwner\n    );\n\n    /**\n     * @dev Initializes the contract setting the deployer as the initial owner.\n     */\n    constructor() {\n        address msgSender = _msgSender();\n        _owner = msgSender;\n        emit OwnershipTransferred(address(0), msgSender);\n    }\n\n    /**\n     * @dev Returns the address of the current owner.\n     */\n    function owner() public view virtual returns (address) {\n        return _owner;\n    }\n\n    /**\n     * @dev Throws if called by any account other than the owner.\n     */\n    modifier onlyOwner() {\n        require(owner() == _msgSender(), \"Ownable: caller is not the owner\");\n        _;\n    }\n\n    /**\n     * @dev Leaves the contract without owner. It will not be possible to call\n     * `onlyOwner` functions anymore. Can only be called by the current owner.\n     *\n     * NOTE: Renouncing ownership will leave the contract without an owner,\n     * thereby removing any functionality that is only available to the owner.\n     */\n    function renounceOwnership() public virtual onlyOwner {\n        emit OwnershipTransferred(_owner, address(0));\n        _owner = address(0);\n    }\n\n    /**\n     * @dev Transfers ownership of the contract to a new account (`newOwner`).\n     * Can only be called by the current owner.\n     */\n    function transferOwnership(address newOwner) public virtual onlyOwner {\n        require(\n            newOwner != address(0),\n            \"Ownable: new owner is the zero address\"\n        );\n        emit OwnershipTransferred(_owner, newOwner);\n        _owner = newOwner;\n    }\n}\n\ninterface ISatoshiART1155 {\n    event TransferSingle(\n        address indexed operator,\n        address indexed from,\n        address indexed to,\n        uint256 id,\n        uint256 value\n    );\n    event TransferBatch(\n        address indexed operator,\n        address indexed from,\n        address indexed to,\n        uint256[] ids,\n        uint256[] values\n    );\n    event ApprovalForAll(\n        address indexed account,\n        address indexed operator,\n        bool approved\n    );\n    event URI(string value, uint256 indexed id);\n\n    function balanceOf(address account, uint256 id)\n        external\n        view\n        returns (uint256);\n\n    function balanceOfBatch(address[] calldata accounts, uint256[] calldata ids)\n        external\n        view\n        returns (uint256[] memory);\n\n    function setApprovalForAll(address operator, bool approved) external;\n\n    function isApprovedForAll(address account, address operator)\n        external\n        view\n        returns (bool);\n\n    function safeTransferFrom(\n        address from,\n        address to,\n        uint256 id,\n        uint256 amount,\n        bytes calldata data\n    ) external;\n\n    function safeBatchTransferFrom(\n        address from,\n        address to,\n        uint256[] calldata ids,\n        uint256[] calldata amounts,\n        bytes calldata data\n    ) external;\n\n    function tokenCreator(uint256 _id) external view returns (address);\n}\n\ncontract SatoshiART1155Marketplace is Ownable {\n    using SafeMath for uint256;\n\n    struct Listing {\n        bytes1 status; // 0x00 onHold 0x01 onSale 0x02 isDropOfTheDay 0x03 isAuction\n        uint256 price;\n        uint256 amount;\n        uint256 startTime;\n        uint256 endTime;\n    }\n\n    mapping(uint256 => mapping(address => Listing)) private _listings;\n    ISatoshiART1155 public satoshiART1155;\n    mapping(address => uint256) private _outstandingPayments;\n\n    event PurchaseConfirmed();\n    event PaymentWithdrawed();\n\n    constructor(address satoshiART1155Address) {\n        satoshiART1155 = ISatoshiART1155(satoshiART1155Address);\n    }\n\n    function putOnSale(\n        uint256 tokenId,\n        uint256 amount,\n        uint256 price\n    ) external {\n        require(\n            satoshiART1155.balanceOf(msg.sender, tokenId) >= amount,\n            \"You are trying to sell more than you have\"\n        );\n\n        _listings[tokenId][msg.sender] = Listing({\n            status: 0x01,\n            price: price,\n            amount: amount,\n            startTime: 0,\n            endTime: 0\n        });\n    }\n\n    function listingOf(address account, uint256 id)\n        external\n        view\n        returns (\n            bytes1,\n            uint256,\n            uint256,\n            uint256,\n            uint256\n        )\n    {\n        require(\n            account != address(0),\n            \"ERC1155: listing query for the zero address\"\n        );\n        return (\n            _listings[id][account].status,\n            _listings[id][account].price,\n            _listings[id][account].amount,\n            _listings[id][account].startTime,\n            _listings[id][account].endTime\n        );\n    }\n\n    function buy(\n        uint256 tokenId,\n        uint256 amount,\n        address itemOwner\n    ) external payable returns (bool) {\n        require(msg.sender != address(0));\n        require(\n            _listings[tokenId][itemOwner].status == 0x01,\n            \"buy: trying to buy not listed item\"\n        );\n        require(\n            _listings[tokenId][itemOwner].amount >= amount,\n            \"buy: trying to buy more than listed\"\n        );\n        require(\n            satoshiART1155.balanceOf(itemOwner, tokenId) >= amount,\n            \"buy: trying to buy more than owned\"\n        );\n        require(\n            msg.value >= _listings[tokenId][itemOwner].price.mul(amount),\n            \"buy: not enough fund\"\n        );\n\n        _listings[tokenId][itemOwner].amount = _listings[tokenId][itemOwner]\n            .amount\n            .sub(amount);\n\n        satoshiART1155.safeTransferFrom(\n            itemOwner,\n            msg.sender,\n            tokenId,\n            amount,\n            \"\"\n        );\n\n        uint256 commision = msg.value.mul(250).div(10000);\n\n        uint256 royalty = msg.value.mul(1000).div(10000);\n        _outstandingPayments[\n            satoshiART1155.tokenCreator(tokenId)\n        ] = _outstandingPayments[satoshiART1155.tokenCreator(tokenId)].add(\n            royalty\n        );\n        _outstandingPayments[itemOwner] = _outstandingPayments[itemOwner].add(\n            msg.value.sub(commision).sub(royalty)\n        );\n\n        emit PurchaseConfirmed();\n        return true;\n    }\n\n    // allow owner to withdraw the owned eth\n    function withdrawPayment() external returns (bool) {\n        uint256 amount = _outstandingPayments[msg.sender];\n        require(msg.sender != address(0));\n        if (amount > 0) {\n            _outstandingPayments[msg.sender] = 0;\n\n            if (!payable(msg.sender).send(amount)) {\n                _outstandingPayments[msg.sender] = amount;\n                return false;\n            }\n        }\n        // emit PaymentWithdrawed; ?  --- where to put this line if necessary\n        return true;\n    }\n\n    // allow contract to withdraw balance (only commission for now)\n    function withdrawBalance() external onlyOwner returns (bool) {\n        if (!payable(msg.sender).send(address(this).balance)) {\n            return false;\n        }\n        return true;\n    }\n\n    function outstandingPayment(address user) external view returns (uint256) {\n        return _outstandingPayments[user];\n    }\n\n    /**\n    Assign certain arts to drop of the day:\n    - artist setApprovalforAll(): allow marketplace to sell\n    - owner/artist setAsDropOfTheDay()\n    - buyer buys arts using dropOfTheDayBuy() with a time limit\n\n    - note: set as drop of the day will overwright previous listing\n     */\n    function setAsDropOfTheDay(\n        uint256 tokenId,\n        uint256 amount,\n        uint256 price,\n        uint256 startTime,\n        uint256 endTime\n    ) external {\n        require(\n            satoshiART1155.balanceOf(msg.sender, tokenId) >= amount,\n            \"Owner is trying to sell more than they have\"\n        );\n\n        _listings[tokenId][msg.sender] = Listing({\n            status: 0x02,\n            price: price,\n            amount: amount,\n            startTime: startTime,\n            endTime: endTime\n        });\n    }\n\n    function dropOfTheDayBuy(\n        uint256 tokenId,\n        uint256 amount,\n        address itemOwner,\n        uint256 newCommission //commission multiply by 10000 (e.g. 2.5% commission is 250)\n    ) external payable returns (bool) {\n        require(msg.sender != address(0));\n        require(\n            _listings[tokenId][itemOwner].status == 0x02,\n            \"buy (Drop of the day): item is not listed for drop of the day\"\n        );\n        require(\n            _listings[tokenId][itemOwner].amount >= amount,\n            \"buy (Drop of the day): trying to buy more than listed\"\n        );\n        require(\n            satoshiART1155.balanceOf(itemOwner, tokenId) >= amount,\n            \"buy (Drop of the day): trying to buy more than owned\"\n        );\n        require(\n            msg.value >= _listings[tokenId][itemOwner].price.mul(amount),\n            \"buy (Drop of the day): not enough fund\"\n        );\n        require(\n            block.timestamp >= _listings[tokenId][itemOwner].startTime &&\n                block.timestamp <= _listings[tokenId][itemOwner].endTime,\n            \"buy (Drop of the day): drop of the day ended/has not started\"\n        );\n\n        _listings[tokenId][itemOwner].amount = _listings[tokenId][itemOwner]\n            .amount\n            .sub(amount);\n\n        satoshiART1155.safeTransferFrom(\n            itemOwner,\n            msg.sender,\n            tokenId,\n            amount,\n            \"\"\n        );\n\n        uint256 commision = msg.value.mul(newCommission).div(10000);\n\n        uint256 royalty = msg.value.mul(1000).div(10000);\n        _outstandingPayments[\n            satoshiART1155.tokenCreator(tokenId)\n        ] = _outstandingPayments[satoshiART1155.tokenCreator(tokenId)].add(\n            royalty\n        );\n        _outstandingPayments[itemOwner] = _outstandingPayments[itemOwner].add(\n            msg.value.sub(commision).sub(royalty)\n        );\n\n        emit PurchaseConfirmed();\n        return true;\n    }\n}\n",
  "sourcePath": "/Users/shumeiliang/Documents/projects/fintelics/satoshi/satoshi1155/contracts/SatoshiART1155Marketplace.sol",
  "compiler": {
    "name": "solc",
    "version": "0.8.0+commit.c7dfd78e.Emscripten.clang"
  },
  "schemaVersion": "3.4.0",
  "updatedAt": "2021-05-11T20:31:08.018Z",
  "networkType": "ethereum",
  "devdoc": {
    "kind": "dev",
    "methods": {
      "owner()": {
        "details": "Returns the address of the current owner."
      },
      "renounceOwnership()": {
        "details": "Leaves the contract without owner. It will not be possible to call `onlyOwner` functions anymore. Can only be called by the current owner. NOTE: Renouncing ownership will leave the contract without an owner, thereby removing any functionality that is only available to the owner."
      },
      "transferOwnership(address)": {
        "details": "Transfers ownership of the contract to a new account (`newOwner`). Can only be called by the current owner."
      }
    },
    "version": 1
  },
  "userdoc": {
    "kind": "user",
    "methods": {
      "setAsDropOfTheDay(uint256,uint256,uint256,uint256,uint256)": {
        "notice": "Assign certain arts to drop of the day: - artist setApprovalforAll(): allow marketplace to sell - owner/artist setAsDropOfTheDay() - buyer buys arts using dropOfTheDayBuy() with a time limit - note: set as drop of the day will overwright previous listing"
      }
    },
    "version": 1
  }
}