{
  "contractName": "SatoshiART1155",
  "abi": [
    {
      "inputs": [],
      "stateMutability": "nonpayable",
      "type": "constructor"
    },
    {
      "anonymous": false,
      "inputs": [
        {
          "indexed": true,
          "internalType": "address",
          "name": "account",
          "type": "address"
        },
        {
          "indexed": true,
          "internalType": "address",
          "name": "operator",
          "type": "address"
        },
        {
          "indexed": false,
          "internalType": "bool",
          "name": "approved",
          "type": "bool"
        }
      ],
      "name": "ApprovalForAll",
      "type": "event"
    },
    {
      "anonymous": false,
      "inputs": [
        {
          "indexed": false,
          "internalType": "address",
          "name": "contractOwner",
          "type": "address"
        },
        {
          "indexed": false,
          "internalType": "address",
          "name": "itemCreator",
          "type": "address"
        },
        {
          "indexed": false,
          "internalType": "bool",
          "name": "approved",
          "type": "bool"
        }
      ],
      "name": "ApprovalForItemCreator",
      "type": "event"
    },
    {
      "anonymous": false,
      "inputs": [
        {
          "indexed": true,
          "internalType": "bytes32",
          "name": "role",
          "type": "bytes32"
        },
        {
          "indexed": true,
          "internalType": "bytes32",
          "name": "previousAdminRole",
          "type": "bytes32"
        },
        {
          "indexed": true,
          "internalType": "bytes32",
          "name": "newAdminRole",
          "type": "bytes32"
        }
      ],
      "name": "RoleAdminChanged",
      "type": "event"
    },
    {
      "anonymous": false,
      "inputs": [
        {
          "indexed": true,
          "internalType": "bytes32",
          "name": "role",
          "type": "bytes32"
        },
        {
          "indexed": true,
          "internalType": "address",
          "name": "account",
          "type": "address"
        },
        {
          "indexed": true,
          "internalType": "address",
          "name": "sender",
          "type": "address"
        }
      ],
      "name": "RoleGranted",
      "type": "event"
    },
    {
      "anonymous": false,
      "inputs": [
        {
          "indexed": true,
          "internalType": "bytes32",
          "name": "role",
          "type": "bytes32"
        },
        {
          "indexed": true,
          "internalType": "address",
          "name": "account",
          "type": "address"
        },
        {
          "indexed": true,
          "internalType": "address",
          "name": "sender",
          "type": "address"
        }
      ],
      "name": "RoleRevoked",
      "type": "event"
    },
    {
      "anonymous": false,
      "inputs": [
        {
          "indexed": true,
          "internalType": "address",
          "name": "operator",
          "type": "address"
        },
        {
          "indexed": true,
          "internalType": "address",
          "name": "from",
          "type": "address"
        },
        {
          "indexed": true,
          "internalType": "address",
          "name": "to",
          "type": "address"
        },
        {
          "indexed": false,
          "internalType": "uint256[]",
          "name": "ids",
          "type": "uint256[]"
        },
        {
          "indexed": false,
          "internalType": "uint256[]",
          "name": "values",
          "type": "uint256[]"
        }
      ],
      "name": "TransferBatch",
      "type": "event"
    },
    {
      "anonymous": false,
      "inputs": [
        {
          "indexed": true,
          "internalType": "address",
          "name": "operator",
          "type": "address"
        },
        {
          "indexed": true,
          "internalType": "address",
          "name": "from",
          "type": "address"
        },
        {
          "indexed": true,
          "internalType": "address",
          "name": "to",
          "type": "address"
        },
        {
          "indexed": false,
          "internalType": "uint256",
          "name": "id",
          "type": "uint256"
        },
        {
          "indexed": false,
          "internalType": "uint256",
          "name": "value",
          "type": "uint256"
        }
      ],
      "name": "TransferSingle",
      "type": "event"
    },
    {
      "anonymous": false,
      "inputs": [
        {
          "indexed": false,
          "internalType": "string",
          "name": "value",
          "type": "string"
        },
        {
          "indexed": true,
          "internalType": "uint256",
          "name": "id",
          "type": "uint256"
        }
      ],
      "name": "URI",
      "type": "event"
    },
    {
      "inputs": [],
      "name": "CREATOR_ROLE",
      "outputs": [
        {
          "internalType": "bytes32",
          "name": "",
          "type": "bytes32"
        }
      ],
      "stateMutability": "view",
      "type": "function",
      "constant": true
    },
    {
      "inputs": [],
      "name": "DEFAULT_ADMIN_ROLE",
      "outputs": [
        {
          "internalType": "bytes32",
          "name": "",
          "type": "bytes32"
        }
      ],
      "stateMutability": "view",
      "type": "function",
      "constant": true
    },
    {
      "inputs": [
        {
          "internalType": "address",
          "name": "account",
          "type": "address"
        },
        {
          "internalType": "uint256",
          "name": "id",
          "type": "uint256"
        }
      ],
      "name": "balanceOf",
      "outputs": [
        {
          "internalType": "uint256",
          "name": "",
          "type": "uint256"
        }
      ],
      "stateMutability": "view",
      "type": "function",
      "constant": true
    },
    {
      "inputs": [
        {
          "internalType": "address[]",
          "name": "accounts",
          "type": "address[]"
        },
        {
          "internalType": "uint256[]",
          "name": "ids",
          "type": "uint256[]"
        }
      ],
      "name": "balanceOfBatch",
      "outputs": [
        {
          "internalType": "uint256[]",
          "name": "",
          "type": "uint256[]"
        }
      ],
      "stateMutability": "view",
      "type": "function",
      "constant": true
    },
    {
      "inputs": [
        {
          "internalType": "bytes32",
          "name": "role",
          "type": "bytes32"
        }
      ],
      "name": "getRoleAdmin",
      "outputs": [
        {
          "internalType": "bytes32",
          "name": "",
          "type": "bytes32"
        }
      ],
      "stateMutability": "view",
      "type": "function",
      "constant": true
    },
    {
      "inputs": [
        {
          "internalType": "bytes32",
          "name": "role",
          "type": "bytes32"
        },
        {
          "internalType": "address",
          "name": "account",
          "type": "address"
        }
      ],
      "name": "grantRole",
      "outputs": [],
      "stateMutability": "nonpayable",
      "type": "function"
    },
    {
      "inputs": [
        {
          "internalType": "bytes32",
          "name": "role",
          "type": "bytes32"
        },
        {
          "internalType": "address",
          "name": "account",
          "type": "address"
        }
      ],
      "name": "hasRole",
      "outputs": [
        {
          "internalType": "bool",
          "name": "",
          "type": "bool"
        }
      ],
      "stateMutability": "view",
      "type": "function",
      "constant": true
    },
    {
      "inputs": [
        {
          "internalType": "address",
          "name": "account",
          "type": "address"
        },
        {
          "internalType": "address",
          "name": "operator",
          "type": "address"
        }
      ],
      "name": "isApprovedForAll",
      "outputs": [
        {
          "internalType": "bool",
          "name": "",
          "type": "bool"
        }
      ],
      "stateMutability": "view",
      "type": "function",
      "constant": true
    },
    {
      "inputs": [
        {
          "internalType": "bytes32",
          "name": "role",
          "type": "bytes32"
        },
        {
          "internalType": "address",
          "name": "account",
          "type": "address"
        }
      ],
      "name": "renounceRole",
      "outputs": [],
      "stateMutability": "nonpayable",
      "type": "function"
    },
    {
      "inputs": [
        {
          "internalType": "bytes32",
          "name": "role",
          "type": "bytes32"
        },
        {
          "internalType": "address",
          "name": "account",
          "type": "address"
        }
      ],
      "name": "revokeRole",
      "outputs": [],
      "stateMutability": "nonpayable",
      "type": "function"
    },
    {
      "inputs": [
        {
          "internalType": "address",
          "name": "from",
          "type": "address"
        },
        {
          "internalType": "address",
          "name": "to",
          "type": "address"
        },
        {
          "internalType": "uint256[]",
          "name": "ids",
          "type": "uint256[]"
        },
        {
          "internalType": "uint256[]",
          "name": "amounts",
          "type": "uint256[]"
        },
        {
          "internalType": "bytes",
          "name": "data",
          "type": "bytes"
        }
      ],
      "name": "safeBatchTransferFrom",
      "outputs": [],
      "stateMutability": "nonpayable",
      "type": "function"
    },
    {
      "inputs": [
        {
          "internalType": "address",
          "name": "from",
          "type": "address"
        },
        {
          "internalType": "address",
          "name": "to",
          "type": "address"
        },
        {
          "internalType": "uint256",
          "name": "id",
          "type": "uint256"
        },
        {
          "internalType": "uint256",
          "name": "amount",
          "type": "uint256"
        },
        {
          "internalType": "bytes",
          "name": "data",
          "type": "bytes"
        }
      ],
      "name": "safeTransferFrom",
      "outputs": [],
      "stateMutability": "nonpayable",
      "type": "function"
    },
    {
      "inputs": [
        {
          "internalType": "address",
          "name": "operator",
          "type": "address"
        },
        {
          "internalType": "bool",
          "name": "approved",
          "type": "bool"
        }
      ],
      "name": "setApprovalForAll",
      "outputs": [],
      "stateMutability": "nonpayable",
      "type": "function"
    },
    {
      "inputs": [
        {
          "internalType": "uint256",
          "name": "",
          "type": "uint256"
        }
      ],
      "name": "uri",
      "outputs": [
        {
          "internalType": "string",
          "name": "",
          "type": "string"
        }
      ],
      "stateMutability": "view",
      "type": "function",
      "constant": true
    },
    {
      "inputs": [
        {
          "internalType": "bytes4",
          "name": "interfaceId",
          "type": "bytes4"
        }
      ],
      "name": "supportsInterface",
      "outputs": [
        {
          "internalType": "bool",
          "name": "",
          "type": "bool"
        }
      ],
      "stateMutability": "view",
      "type": "function",
      "constant": true
    },
    {
      "inputs": [
        {
          "internalType": "bool",
          "name": "isAnyAddressCanCreateItem",
          "type": "bool"
        }
      ],
      "name": "setAnyAddressCanCreateItem",
      "outputs": [],
      "stateMutability": "nonpayable",
      "type": "function"
    },
    {
      "inputs": [],
      "name": "anyAddressCanCreateItem",
      "outputs": [
        {
          "internalType": "bool",
          "name": "",
          "type": "bool"
        }
      ],
      "stateMutability": "view",
      "type": "function",
      "constant": true
    },
    {
      "inputs": [
        {
          "internalType": "uint256",
          "name": "amount",
          "type": "uint256"
        }
      ],
      "name": "createItem",
      "outputs": [
        {
          "internalType": "uint256",
          "name": "",
          "type": "uint256"
        }
      ],
      "stateMutability": "nonpayable",
      "type": "function"
    },
    {
      "inputs": [
        {
          "internalType": "uint256",
          "name": "_id",
          "type": "uint256"
        }
      ],
      "name": "tokenCreator",
      "outputs": [
        {
          "internalType": "address",
          "name": "",
          "type": "address"
        }
      ],
      "stateMutability": "view",
      "type": "function",
      "constant": true
    },
    {
      "inputs": [
        {
          "internalType": "uint256",
          "name": "_id",
          "type": "uint256"
        }
      ],
      "name": "tokenCount",
      "outputs": [
        {
          "internalType": "uint256",
          "name": "",
          "type": "uint256"
        }
      ],
      "stateMutability": "view",
      "type": "function",
      "constant": true
    }
  ],
  "bytecode": "0x60806040526000600760006101000a81548160ff0219169083151502179055503480156200002c57600080fd5b506040518060400160405280602081526020017f7777772e7361746f7368692e6172742f746f6b656e732f7b69647d2e6a736f6e81525062000074816200009f60201b60201c565b50620000996000801b6200008d620000bb60201b60201c565b620000c360201b60201c565b6200034b565b8060029080519060200190620000b792919062000236565b5050565b600033905090565b620000d58282620000d960201b60201c565b5050565b620000eb8282620001cb60201b60201c565b620001c75760016003600084815260200190815260200160002060000160008373ffffffffffffffffffffffffffffffffffffffff1673ffffffffffffffffffffffffffffffffffffffff16815260200190815260200160002060006101000a81548160ff0219169083151502179055506200016c620000bb60201b60201c565b73ffffffffffffffffffffffffffffffffffffffff168173ffffffffffffffffffffffffffffffffffffffff16837f2f8788117e7eff1d82e926ec794901d17c78024a50270940304540a733656f0d60405160405180910390a45b5050565b60006003600084815260200190815260200160002060000160008373ffffffffffffffffffffffffffffffffffffffff1673ffffffffffffffffffffffffffffffffffffffff16815260200190815260200160002060009054906101000a900460ff16905092915050565b8280546200024490620002e6565b90600052602060002090601f016020900481019282620002685760008555620002b4565b82601f106200028357805160ff1916838001178555620002b4565b82800160010185558215620002b4579182015b82811115620002b357825182559160200191906001019062000296565b5b509050620002c39190620002c7565b5090565b5b80821115620002e2576000816000905550600101620002c8565b5090565b60006002820490506001821680620002ff57607f821691505b602082108114156200031657620003156200031c565b5b50919050565b7f4e487b7100000000000000000000000000000000000000000000000000000000600052602260045260246000fd5b61342a806200035b6000396000f3fe608060405234801561001057600080fd5b506004361061012b5760003560e01c80634e1273f4116100ad578063d547741f11610071578063d547741f14610366578063d7a5d5d314610382578063da374e2a146103b2578063e985e9c5146103e2578063f242432a146104125761012b565b80634e1273f4146102ae5780638aeda25a146102de57806391d14854146102fc578063a217fddf1461032c578063a22cb4651461034a5761012b565b80632eb2c2d6116100f45780632eb2c2d61461020c5780632f2ff15d14610228578063352c16ce1461024457806336568abe1461026257806340c1a0641461027e5761012b565b8062fdd58e1461013057806301ffc9a7146101605780630e89341c146101905780632277171d146101c0578063248a9ca3146101dc575b600080fd5b61014a60048036038101906101459190612241565b61042e565b6040516101579190612eed565b60405180910390f35b61017a60048036038101906101759190612377565b6104f7565b6040516101879190612c95565b60405180910390f35b6101aa60048036038101906101a591906123c9565b610509565b6040516101b79190612ccb565b60405180910390f35b6101da60048036038101906101d591906122e9565b61059d565b005b6101f660048036038101906101f19190612312565b61060d565b6040516102039190612cb0565b60405180910390f35b610226600480360381019061022191906120b7565b61062d565b005b610242600480360381019061023d919061233b565b610a23565b005b61024c610a89565b6040516102599190612c95565b60405180910390f35b61027c6004803603810190610277919061233b565b610aa0565b005b610298600480360381019061029391906123c9565b610b23565b6040516102a59190612b5f565b60405180910390f35b6102c860048036038101906102c3919061227d565b610b60565b6040516102d59190612c3c565b60405180910390f35b6102e6610d11565b6040516102f39190612cb0565b60405180910390f35b6103166004803603810190610311919061233b565b610d35565b6040516103239190612c95565b60405180910390f35b610334610da0565b6040516103419190612cb0565b60405180910390f35b610364600480360381019061035f9190612205565b610da7565b005b610380600480360381019061037b919061233b565b610f28565b005b61039c600480360381019061039791906123c9565b610f8e565b6040516103a99190612eed565b60405180910390f35b6103cc60048036038101906103c791906123c9565b6110cb565b6040516103d99190612eed565b60405180910390f35b6103fc60048036038101906103f7919061207b565b6110e8565b6040516104099190612c95565b60405180910390f35b61042c60048036038101906104279190612176565b61117c565b005b60008073ffffffffffffffffffffffffffffffffffffffff168373ffffffffffffffffffffffffffffffffffffffff16141561049f576040517f08c379a000000000000000000000000000000000000000000000000000000000815260040161049690612d4d565b60405180910390fd5b60008083815260200190815260200160002060008473ffffffffffffffffffffffffffffffffffffffff1673ffffffffffffffffffffffffffffffffffffffff16815260200190815260200160002054905092915050565b600061050282611494565b9050919050565b606060028054610518906131a5565b80601f0160208091040260200160405190810160405280929190818152602001828054610544906131a5565b80156105915780601f1061056657610100808354040283529160200191610591565b820191906000526020600020905b81548152906001019060200180831161057457829003601f168201915b50505050509050919050565b6105b16000801b6105ac61150e565b610d35565b6105f0576040517f08c379a00000000000000000000000000000000000000000000000000000000081526004016105e790612e2d565b60405180910390fd5b80600760006101000a81548160ff02191690831515021790555050565b600060036000838152602001908152602001600020600101549050919050565b8151835114610671576040517f08c379a000000000000000000000000000000000000000000000000000000000815260040161066890612e8d565b60405180910390fd5b600073ffffffffffffffffffffffffffffffffffffffff168473ffffffffffffffffffffffffffffffffffffffff1614156106e1576040517f08c379a00000000000000000000000000000000000000000000000000000000081526004016106d890612dad565b60405180910390fd5b6106e961150e565b73ffffffffffffffffffffffffffffffffffffffff168573ffffffffffffffffffffffffffffffffffffffff16148061072f575061072e8561072961150e565b6110e8565b5b61076e576040517f08c379a000000000000000000000000000000000000000000000000000000000815260040161076590612dcd565b60405180910390fd5b600061077861150e565b9050610788818787878787611516565b60005b845181101561098e5760008582815181106107cf577f4e487b7100000000000000000000000000000000000000000000000000000000600052603260045260246000fd5b602002602001015190506000858381518110610814577f4e487b7100000000000000000000000000000000000000000000000000000000600052603260045260246000fd5b60200260200101519050600080600084815260200190815260200160002060008b73ffffffffffffffffffffffffffffffffffffffff1673ffffffffffffffffffffffffffffffffffffffff168152602001908152602001600020549050818110156108b5576040517f08c379a00000000000000000000000000000000000000000000000000000000081526004016108ac90612ded565b60405180910390fd5b81816108c191906130b1565b60008085815260200190815260200160002060008c73ffffffffffffffffffffffffffffffffffffffff1673ffffffffffffffffffffffffffffffffffffffff168152602001908152602001600020819055508160008085815260200190815260200160002060008b73ffffffffffffffffffffffffffffffffffffffff1673ffffffffffffffffffffffffffffffffffffffff1681526020019081526020016000206000828254610973919061305b565b9250508190555050505080610987906131d7565b905061078b565b508473ffffffffffffffffffffffffffffffffffffffff168673ffffffffffffffffffffffffffffffffffffffff168273ffffffffffffffffffffffffffffffffffffffff167f4a39dc06d4c0dbc64b70af90fd698a233a518aa5d07e595d983b8c0526c8f7fb8787604051610a05929190612c5e565b60405180910390a4610a1b81878787878761151e565b505050505050565b610a3c610a2f8361060d565b610a3761150e565b610d35565b610a7b576040517f08c379a0000000000000000000000000000000000000000000000000000000008152600401610a7290612d2d565b60405180910390fd5b610a8582826116ee565b5050565b6000600760009054906101000a900460ff16905090565b610aa861150e565b73ffffffffffffffffffffffffffffffffffffffff168173ffffffffffffffffffffffffffffffffffffffff1614610b15576040517f08c379a0000000000000000000000000000000000000000000000000000000008152600401610b0c90612ecd565b60405180910390fd5b610b1f82826117cf565b5050565b60006005600083815260200190815260200160002060009054906101000a900473ffffffffffffffffffffffffffffffffffffffff169050919050565b60608151835114610ba6576040517f08c379a0000000000000000000000000000000000000000000000000000000008152600401610b9d90612e6d565b60405180910390fd5b6000835167ffffffffffffffff811115610be9577f4e487b7100000000000000000000000000000000000000000000000000000000600052604160045260246000fd5b604051908082528060200260200182016040528015610c175781602001602082028036833780820191505090505b50905060005b8451811015610d0657610cb0858281518110610c62577f4e487b7100000000000000000000000000000000000000000000000000000000600052603260045260246000fd5b6020026020010151858381518110610ca3577f4e487b7100000000000000000000000000000000000000000000000000000000600052603260045260246000fd5b602002602001015161042e565b828281518110610ce9577f4e487b7100000000000000000000000000000000000000000000000000000000600052603260045260246000fd5b60200260200101818152505080610cff906131d7565b9050610c1d565b508091505092915050565b7f828634d95e775031b9ff576b159a8509d3053581a8c9c4d7d86899e0afcd882f81565b60006003600084815260200190815260200160002060000160008373ffffffffffffffffffffffffffffffffffffffff1673ffffffffffffffffffffffffffffffffffffffff16815260200190815260200160002060009054906101000a900460ff16905092915050565b6000801b81565b8173ffffffffffffffffffffffffffffffffffffffff16610dc661150e565b73ffffffffffffffffffffffffffffffffffffffff161415610e1d576040517f08c379a0000000000000000000000000000000000000000000000000000000008152600401610e1490612e4d565b60405180910390fd5b8060016000610e2a61150e565b73ffffffffffffffffffffffffffffffffffffffff1673ffffffffffffffffffffffffffffffffffffffff16815260200190815260200160002060008473ffffffffffffffffffffffffffffffffffffffff1673ffffffffffffffffffffffffffffffffffffffff16815260200190815260200160002060006101000a81548160ff0219169083151502179055508173ffffffffffffffffffffffffffffffffffffffff16610ed761150e565b73ffffffffffffffffffffffffffffffffffffffff167f17307eab39ab6107e8899845ad3d59bd9653f200f220920489ca2b5937696c3183604051610f1c9190612c95565b60405180910390a35050565b610f41610f348361060d565b610f3c61150e565b610d35565b610f80576040517f08c379a0000000000000000000000000000000000000000000000000000000008152600401610f7790612d8d565b60405180910390fd5b610f8a82826117cf565b5050565b6000600760009054906101000a900460ff1680610fd85750610fd77f828634d95e775031b9ff576b159a8509d3053581a8c9c4d7d86899e0afcd882f610fd261150e565b610d35565b5b611017576040517f08c379a000000000000000000000000000000000000000000000000000000000815260040161100e90612e0d565b60405180910390fd5b61102160046118b1565b600061102d60046118d0565b905061105161103a61150e565b8285604051806020016040528060008152506118de565b61105961150e565b6005600083815260200190815260200160002060006101000a81548173ffffffffffffffffffffffffffffffffffffffff021916908373ffffffffffffffffffffffffffffffffffffffff16021790555082600660008381526020019081526020016000208190555080915050919050565b600060066000838152602001908152602001600020549050919050565b6000600160008473ffffffffffffffffffffffffffffffffffffffff1673ffffffffffffffffffffffffffffffffffffffff16815260200190815260200160002060008373ffffffffffffffffffffffffffffffffffffffff1673ffffffffffffffffffffffffffffffffffffffff16815260200190815260200160002060009054906101000a900460ff16905092915050565b600073ffffffffffffffffffffffffffffffffffffffff168473ffffffffffffffffffffffffffffffffffffffff1614156111ec576040517f08c379a00000000000000000000000000000000000000000000000000000000081526004016111e390612dad565b60405180910390fd5b6111f461150e565b73ffffffffffffffffffffffffffffffffffffffff168573ffffffffffffffffffffffffffffffffffffffff16148061123a57506112398561123461150e565b6110e8565b5b611279576040517f08c379a000000000000000000000000000000000000000000000000000000000815260040161127090612d6d565b60405180910390fd5b600061128361150e565b90506112a381878761129488611a74565b61129d88611a74565b87611516565b600080600086815260200190815260200160002060008873ffffffffffffffffffffffffffffffffffffffff1673ffffffffffffffffffffffffffffffffffffffff1681526020019081526020016000205490508381101561133a576040517f08c379a000000000000000000000000000000000000000000000000000000000815260040161133190612ded565b60405180910390fd5b838161134691906130b1565b60008087815260200190815260200160002060008973ffffffffffffffffffffffffffffffffffffffff1673ffffffffffffffffffffffffffffffffffffffff168152602001908152602001600020819055508360008087815260200190815260200160002060008873ffffffffffffffffffffffffffffffffffffffff1673ffffffffffffffffffffffffffffffffffffffff16815260200190815260200160002060008282546113f8919061305b565b925050819055508573ffffffffffffffffffffffffffffffffffffffff168773ffffffffffffffffffffffffffffffffffffffff168373ffffffffffffffffffffffffffffffffffffffff167fc3d58168c5ae7397731d063d5bbf3d657854427343f4c083240f7aacaa2d0f628888604051611475929190612f08565b60405180910390a461148b828888888888611b3a565b50505050505050565b60007f7965db0b000000000000000000000000000000000000000000000000000000007bffffffffffffffffffffffffffffffffffffffffffffffffffffffff1916827bffffffffffffffffffffffffffffffffffffffffffffffffffffffff19161480611507575061150682611d0a565b5b9050919050565b600033905090565b505050505050565b61153d8473ffffffffffffffffffffffffffffffffffffffff16611dec565b156116e6578373ffffffffffffffffffffffffffffffffffffffff1663bc197c8187878686866040518663ffffffff1660e01b8152600401611583959493929190612b7a565b602060405180830381600087803b15801561159d57600080fd5b505af19250505080156115ce57506040513d601f19601f820116820180604052508101906115cb91906123a0565b60015b61165d576115da6132cb565b806115e55750611622565b806040517f08c379a00000000000000000000000000000000000000000000000000000000081526004016116199190612ccb565b60405180910390fd5b6040517f08c379a000000000000000000000000000000000000000000000000000000000815260040161165490612ced565b60405180910390fd5b63bc197c8160e01b7bffffffffffffffffffffffffffffffffffffffffffffffffffffffff1916817bffffffffffffffffffffffffffffffffffffffffffffffffffffffff1916146116e4576040517f08c379a00000000000000000000000000000000000000000000000000000000081526004016116db90612d0d565b60405180910390fd5b505b505050505050565b6116f88282610d35565b6117cb5760016003600084815260200190815260200160002060000160008373ffffffffffffffffffffffffffffffffffffffff1673ffffffffffffffffffffffffffffffffffffffff16815260200190815260200160002060006101000a81548160ff02191690831515021790555061177061150e565b73ffffffffffffffffffffffffffffffffffffffff168173ffffffffffffffffffffffffffffffffffffffff16837f2f8788117e7eff1d82e926ec794901d17c78024a50270940304540a733656f0d60405160405180910390a45b5050565b6117d98282610d35565b156118ad5760006003600084815260200190815260200160002060000160008373ffffffffffffffffffffffffffffffffffffffff1673ffffffffffffffffffffffffffffffffffffffff16815260200190815260200160002060006101000a81548160ff02191690831515021790555061185261150e565b73ffffffffffffffffffffffffffffffffffffffff168173ffffffffffffffffffffffffffffffffffffffff16837ff6391f5c32d9c69d2a47ea670b442974b53935d1edc7fd64eb21e047a839171b60405160405180910390a45b5050565b60018160000160008282546118c6919061305b565b9250508190555050565b600081600001549050919050565b600073ffffffffffffffffffffffffffffffffffffffff168473ffffffffffffffffffffffffffffffffffffffff16141561194e576040517f08c379a000000000000000000000000000000000000000000000000000000000815260040161194590612ead565b60405180910390fd5b600061195861150e565b90506119798160008761196a88611a74565b61197388611a74565b87611516565b8260008086815260200190815260200160002060008773ffffffffffffffffffffffffffffffffffffffff1673ffffffffffffffffffffffffffffffffffffffff16815260200190815260200160002060008282546119d8919061305b565b925050819055508473ffffffffffffffffffffffffffffffffffffffff16600073ffffffffffffffffffffffffffffffffffffffff168273ffffffffffffffffffffffffffffffffffffffff167fc3d58168c5ae7397731d063d5bbf3d657854427343f4c083240f7aacaa2d0f628787604051611a56929190612f08565b60405180910390a4611a6d81600087878787611b3a565b5050505050565b60606000600167ffffffffffffffff811115611ab9577f4e487b7100000000000000000000000000000000000000000000000000000000600052604160045260246000fd5b604051908082528060200260200182016040528015611ae75781602001602082028036833780820191505090505b5090508281600081518110611b25577f4e487b7100000000000000000000000000000000000000000000000000000000600052603260045260246000fd5b60200260200101818152505080915050919050565b611b598473ffffffffffffffffffffffffffffffffffffffff16611dec565b15611d02578373ffffffffffffffffffffffffffffffffffffffff1663f23a6e6187878686866040518663ffffffff1660e01b8152600401611b9f959493929190612be2565b602060405180830381600087803b158015611bb957600080fd5b505af1925050508015611bea57506040513d601f19601f82011682018060405250810190611be791906123a0565b60015b611c7957611bf66132cb565b80611c015750611c3e565b806040517f08c379a0000000000000000000000000000000000000000000000000000000008152600401611c359190612ccb565b60405180910390fd5b6040517f08c379a0000000000000000000000000000000000000000000000000000000008152600401611c7090612ced565b60405180910390fd5b63f23a6e6160e01b7bffffffffffffffffffffffffffffffffffffffffffffffffffffffff1916817bffffffffffffffffffffffffffffffffffffffffffffffffffffffff191614611d00576040517f08c379a0000000000000000000000000000000000000000000000000000000008152600401611cf790612d0d565b60405180910390fd5b505b505050505050565b60007fd9b67a26000000000000000000000000000000000000000000000000000000007bffffffffffffffffffffffffffffffffffffffffffffffffffffffff1916827bffffffffffffffffffffffffffffffffffffffffffffffffffffffff19161480611dd557507f0e89341c000000000000000000000000000000000000000000000000000000007bffffffffffffffffffffffffffffffffffffffffffffffffffffffff1916827bffffffffffffffffffffffffffffffffffffffffffffffffffffffff1916145b80611de55750611de482611dff565b5b9050919050565b600080823b905060008111915050919050565b60007f01ffc9a7000000000000000000000000000000000000000000000000000000007bffffffffffffffffffffffffffffffffffffffffffffffffffffffff1916827bffffffffffffffffffffffffffffffffffffffffffffffffffffffff1916149050919050565b6000611e7c611e7784612f62565b612f31565b90508083825260208201905082856020860282011115611e9b57600080fd5b60005b85811015611ecb5781611eb18882611f7f565b845260208401935060208301925050600181019050611e9e565b5050509392505050565b6000611ee8611ee384612f8e565b612f31565b90508083825260208201905082856020860282011115611f0757600080fd5b60005b85811015611f375781611f1d8882612066565b845260208401935060208301925050600181019050611f0a565b5050509392505050565b6000611f54611f4f84612fba565b612f31565b905082815260208101848484011115611f6c57600080fd5b611f77848285613163565b509392505050565b600081359050611f8e81613381565b92915050565b600082601f830112611fa557600080fd5b8135611fb5848260208601611e69565b91505092915050565b600082601f830112611fcf57600080fd5b8135611fdf848260208601611ed5565b91505092915050565b600081359050611ff781613398565b92915050565b60008135905061200c816133af565b92915050565b600081359050612021816133c6565b92915050565b600081519050612036816133c6565b92915050565b600082601f83011261204d57600080fd5b813561205d848260208601611f41565b91505092915050565b600081359050612075816133dd565b92915050565b6000806040838503121561208e57600080fd5b600061209c85828601611f7f565b92505060206120ad85828601611f7f565b9150509250929050565b600080600080600060a086880312156120cf57600080fd5b60006120dd88828901611f7f565b95505060206120ee88828901611f7f565b945050604086013567ffffffffffffffff81111561210b57600080fd5b61211788828901611fbe565b935050606086013567ffffffffffffffff81111561213457600080fd5b61214088828901611fbe565b925050608086013567ffffffffffffffff81111561215d57600080fd5b6121698882890161203c565b9150509295509295909350565b600080600080600060a0868803121561218e57600080fd5b600061219c88828901611f7f565b95505060206121ad88828901611f7f565b94505060406121be88828901612066565b93505060606121cf88828901612066565b925050608086013567ffffffffffffffff8111156121ec57600080fd5b6121f88882890161203c565b9150509295509295909350565b6000806040838503121561221857600080fd5b600061222685828601611f7f565b925050602061223785828601611fe8565b9150509250929050565b6000806040838503121561225457600080fd5b600061226285828601611f7f565b925050602061227385828601612066565b9150509250929050565b6000806040838503121561229057600080fd5b600083013567ffffffffffffffff8111156122aa57600080fd5b6122b685828601611f94565b925050602083013567ffffffffffffffff8111156122d357600080fd5b6122df85828601611fbe565b9150509250929050565b6000602082840312156122fb57600080fd5b600061230984828501611fe8565b91505092915050565b60006020828403121561232457600080fd5b600061233284828501611ffd565b91505092915050565b6000806040838503121561234e57600080fd5b600061235c85828601611ffd565b925050602061236d85828601611f7f565b9150509250929050565b60006020828403121561238957600080fd5b600061239784828501612012565b91505092915050565b6000602082840312156123b257600080fd5b60006123c084828501612027565b91505092915050565b6000602082840312156123db57600080fd5b60006123e984828501612066565b91505092915050565b60006123fe8383612b41565b60208301905092915050565b612413816130e5565b82525050565b600061242482612ffa565b61242e8185613028565b935061243983612fea565b8060005b8381101561246a57815161245188826123f2565b975061245c8361301b565b92505060018101905061243d565b5085935050505092915050565b612480816130f7565b82525050565b61248f81613103565b82525050565b60006124a082613005565b6124aa8185613039565b93506124ba818560208601613172565b6124c3816132ad565b840191505092915050565b60006124d982613010565b6124e3818561304a565b93506124f3818560208601613172565b6124fc816132ad565b840191505092915050565b600061251460348361304a565b91507f455243313135353a207472616e7366657220746f206e6f6e204552433131353560008301527f526563656976657220696d706c656d656e7465720000000000000000000000006020830152604082019050919050565b600061257a60288361304a565b91507f455243313135353a204552433131353552656365697665722072656a6563746560008301527f6420746f6b656e730000000000000000000000000000000000000000000000006020830152604082019050919050565b60006125e0602f8361304a565b91507f416363657373436f6e74726f6c3a2073656e646572206d75737420626520616e60008301527f2061646d696e20746f206772616e7400000000000000000000000000000000006020830152604082019050919050565b6000612646602b8361304a565b91507f455243313135353a2062616c616e636520717565727920666f7220746865207a60008301527f65726f20616464726573730000000000000000000000000000000000000000006020830152604082019050919050565b60006126ac60298361304a565b91507f455243313135353a2063616c6c6572206973206e6f74206f776e6572206e6f7260008301527f20617070726f76656400000000000000000000000000000000000000000000006020830152604082019050919050565b600061271260308361304a565b91507f416363657373436f6e74726f6c3a2073656e646572206d75737420626520616e60008301527f2061646d696e20746f207265766f6b65000000000000000000000000000000006020830152604082019050919050565b600061277860258361304a565b91507f455243313135353a207472616e7366657220746f20746865207a65726f20616460008301527f64726573730000000000000000000000000000000000000000000000000000006020830152604082019050919050565b60006127de60328361304a565b91507f455243313135353a207472616e736665722063616c6c6572206973206e6f742060008301527f6f776e6572206e6f7220617070726f76656400000000000000000000000000006020830152604082019050919050565b6000612844602a8361304a565b91507f455243313135353a20696e73756666696369656e742062616c616e636520666f60008301527f72207472616e73666572000000000000000000000000000000000000000000006020830152604082019050919050565b60006128aa602e8361304a565b91507f41646472657373206973206e6f7420617070726f76656420666f72206372656160008301527f74696e67206e6577206974656d2e0000000000000000000000000000000000006020830152604082019050919050565b600061291060168361304a565b91507f43616c6c6572206973206e6f7420616e2061646d696e000000000000000000006000830152602082019050919050565b600061295060298361304a565b91507f455243313135353a2073657474696e6720617070726f76616c2073746174757360008301527f20666f722073656c6600000000000000000000000000000000000000000000006020830152604082019050919050565b60006129b660298361304a565b91507f455243313135353a206163636f756e747320616e6420696473206c656e67746860008301527f206d69736d6174636800000000000000000000000000000000000000000000006020830152604082019050919050565b6000612a1c60288361304a565b91507f455243313135353a2069647320616e6420616d6f756e7473206c656e6774682060008301527f6d69736d617463680000000000000000000000000000000000000000000000006020830152604082019050919050565b6000612a8260218361304a565b91507f455243313135353a206d696e7420746f20746865207a65726f2061646472657360008301527f73000000000000000000000000000000000000000000000000000000000000006020830152604082019050919050565b6000612ae8602f8361304a565b91507f416363657373436f6e74726f6c3a2063616e206f6e6c792072656e6f756e636560008301527f20726f6c657320666f722073656c6600000000000000000000000000000000006020830152604082019050919050565b612b4a81613159565b82525050565b612b5981613159565b82525050565b6000602082019050612b74600083018461240a565b92915050565b600060a082019050612b8f600083018861240a565b612b9c602083018761240a565b8181036040830152612bae8186612419565b90508181036060830152612bc28185612419565b90508181036080830152612bd68184612495565b90509695505050505050565b600060a082019050612bf7600083018861240a565b612c04602083018761240a565b612c116040830186612b50565b612c1e6060830185612b50565b8181036080830152612c308184612495565b90509695505050505050565b60006020820190508181036000830152612c568184612419565b905092915050565b60006040820190508181036000830152612c788185612419565b90508181036020830152612c8c8184612419565b90509392505050565b6000602082019050612caa6000830184612477565b92915050565b6000602082019050612cc56000830184612486565b92915050565b60006020820190508181036000830152612ce581846124ce565b905092915050565b60006020820190508181036000830152612d0681612507565b9050919050565b60006020820190508181036000830152612d268161256d565b9050919050565b60006020820190508181036000830152612d46816125d3565b9050919050565b60006020820190508181036000830152612d6681612639565b9050919050565b60006020820190508181036000830152612d868161269f565b9050919050565b60006020820190508181036000830152612da681612705565b9050919050565b60006020820190508181036000830152612dc68161276b565b9050919050565b60006020820190508181036000830152612de6816127d1565b9050919050565b60006020820190508181036000830152612e0681612837565b9050919050565b60006020820190508181036000830152612e268161289d565b9050919050565b60006020820190508181036000830152612e4681612903565b9050919050565b60006020820190508181036000830152612e6681612943565b9050919050565b60006020820190508181036000830152612e86816129a9565b9050919050565b60006020820190508181036000830152612ea681612a0f565b9050919050565b60006020820190508181036000830152612ec681612a75565b9050919050565b60006020820190508181036000830152612ee681612adb565b9050919050565b6000602082019050612f026000830184612b50565b92915050565b6000604082019050612f1d6000830185612b50565b612f2a6020830184612b50565b9392505050565b6000604051905081810181811067ffffffffffffffff82111715612f5857612f5761327e565b5b8060405250919050565b600067ffffffffffffffff821115612f7d57612f7c61327e565b5b602082029050602081019050919050565b600067ffffffffffffffff821115612fa957612fa861327e565b5b602082029050602081019050919050565b600067ffffffffffffffff821115612fd557612fd461327e565b5b601f19601f8301169050602081019050919050565b6000819050602082019050919050565b600081519050919050565b600081519050919050565b600081519050919050565b6000602082019050919050565b600082825260208201905092915050565b600082825260208201905092915050565b600082825260208201905092915050565b600061306682613159565b915061307183613159565b9250827fffffffffffffffffffffffffffffffffffffffffffffffffffffffffffffffff038211156130a6576130a5613220565b5b828201905092915050565b60006130bc82613159565b91506130c783613159565b9250828210156130da576130d9613220565b5b828203905092915050565b60006130f082613139565b9050919050565b60008115159050919050565b6000819050919050565b60007fffffffff0000000000000000000000000000000000000000000000000000000082169050919050565b600073ffffffffffffffffffffffffffffffffffffffff82169050919050565b6000819050919050565b82818337600083830152505050565b60005b83811015613190578082015181840152602081019050613175565b8381111561319f576000848401525b50505050565b600060028204905060018216806131bd57607f821691505b602082108114156131d1576131d061324f565b5b50919050565b60006131e282613159565b91507fffffffffffffffffffffffffffffffffffffffffffffffffffffffffffffffff82141561321557613214613220565b5b600182019050919050565b7f4e487b7100000000000000000000000000000000000000000000000000000000600052601160045260246000fd5b7f4e487b7100000000000000000000000000000000000000000000000000000000600052602260045260246000fd5b7f4e487b7100000000000000000000000000000000000000000000000000000000600052604160045260246000fd5b6000601f19601f8301169050919050565b60008160e01c9050919050565b600060443d10156132db5761337e565b60046000803e6132ec6000516132be565b6308c379a081146132fd575061337e565b60405160043d036004823e80513d602482011167ffffffffffffffff821117156133295750505061337e565b808201805167ffffffffffffffff81111561334857505050505061337e565b8060208301013d85018111156133635750505050505061337e565b61336c826132ad565b60208401016040528296505050505050505b90565b61338a816130e5565b811461339557600080fd5b50565b6133a1816130f7565b81146133ac57600080fd5b50565b6133b881613103565b81146133c357600080fd5b50565b6133cf8161310d565b81146133da57600080fd5b50565b6133e681613159565b81146133f157600080fd5b5056fea26469706673582212207f9d3935fab023cb37dd31eb3e4f44b09eed4423a35c2e7ef58c78c89bc0f24a64736f6c63430008000033",
  "immutableReferences": {},
  "source": "// SPDX-License-Identifier: MIT\n\npragma solidity >=0.8.0;\n\nimport \"@openzeppelin/contracts/token/ERC1155/ERC1155.sol\";\nimport \"@openzeppelin/contracts/access/AccessControl.sol\";\n\n/**\n * @dev Wrappers over Solidity's arithmetic operations with added overflow\n * checks.\n *\n * Arithmetic operations in Solidity wrap on overflow. This can easily result\n * in bugs, because programmers usually assume that an overflow raises an\n * error, which is the standard behavior in high level programming languages.\n * `SafeMath` restores this intuition by reverting the transaction when an\n * operation overflows.\n *\n * Using this library instead of the unchecked operations eliminates an entire\n * class of bugs, so it's recommended to use it always.\n */\nlibrary SafeMath {\n    function add(uint256 a, uint256 b) internal pure returns (uint256) {\n        uint256 c = a + b;\n        require(c >= a, \"SafeMath: addition overflow\");\n\n        return c;\n    }\n\n    function sub(uint256 a, uint256 b) internal pure returns (uint256) {\n        return sub(a, b, \"SafeMath: subtraction overflow\");\n    }\n\n    function sub(\n        uint256 a,\n        uint256 b,\n        string memory errorMessage\n    ) internal pure returns (uint256) {\n        require(b <= a, errorMessage);\n        uint256 c = a - b;\n\n        return c;\n    }\n\n    function mul(uint256 a, uint256 b) internal pure returns (uint256) {\n        if (a == 0) {\n            return 0;\n        }\n\n        uint256 c = a * b;\n        require(c / a == b, \"SafeMath: multiplication overflow\");\n\n        return c;\n    }\n\n    function div(uint256 a, uint256 b) internal pure returns (uint256) {\n        return div(a, b, \"SafeMath: division by zero\");\n    }\n\n    function div(\n        uint256 a,\n        uint256 b,\n        string memory errorMessage\n    ) internal pure returns (uint256) {\n        require(b > 0, errorMessage);\n        uint256 c = a / b;\n\n        return c;\n    }\n\n    function mod(uint256 a, uint256 b) internal pure returns (uint256) {\n        return mod(a, b, \"SafeMath: modulo by zero\");\n    }\n\n    function mod(\n        uint256 a,\n        uint256 b,\n        string memory errorMessage\n    ) internal pure returns (uint256) {\n        require(b != 0, errorMessage);\n        return a % b;\n    }\n}\n\n/**\n * @title Counters\n * @author Matt Condon (@shrugs)\n * @dev Provides counters that can only be incremented or decremented by one. This can be used e.g. to track the number\n * of elements in a mapping, issuing ERC721 ids, or counting request ids.\n *\n * Include with `using Counters for Counters.Counter;`\n * Since it is not possible to overflow a 256 bit integer with increments of one, `increment` can skip the {SafeMath}\n * overflow check, thereby saving gas. This does assume however correct usage, in that the underlying `_value` is never\n * directly accessed.\n */\nlibrary Counters {\n    using SafeMath for uint256;\n\n    struct Counter {\n        // This variable should never be directly accessed by users of the library: interactions must be restricted to\n        // the library's function. As of Solidity v0.5.2, this cannot be enforced, though there is a proposal to add\n        // this feature: see https://github.com/ethereum/solidity/issues/4637\n        uint256 _value; // default: 0\n    }\n\n    function current(Counter storage counter) internal view returns (uint256) {\n        return counter._value;\n    }\n\n    function increment(Counter storage counter) internal {\n        // The {SafeMath} overflow check can be skipped here, see the comment at the top\n        counter._value += 1;\n    }\n\n    function decrement(Counter storage counter) internal {\n        counter._value = counter._value.sub(1);\n    }\n}\n\ncontract SatoshiART1155 is ERC1155, AccessControl {\n    using Counters for Counters.Counter;\n\n    Counters.Counter private _tokenIds;\n\n    mapping(uint256 => address) private _tokenCreators;\n    mapping(uint256 => uint256) private _tokenCounts;\n\n    bytes32 public constant CREATOR_ROLE = keccak256(\"CREATOR_ROLE\");\n\n    bool private _anyAddressCanCreateItem = false;\n\n    event ApprovalForItemCreator(\n        address contractOwner,\n        address itemCreator,\n        bool approved\n    );\n\n    constructor() ERC1155(\"www.satoshi.art/tokens/{id}.json\") {\n        _setupRole(DEFAULT_ADMIN_ROLE, _msgSender());\n    }\n\n    function supportsInterface(bytes4 interfaceId)\n        public\n        view\n        virtual\n        override(ERC1155, AccessControl)\n        returns (bool)\n    {\n        return super.supportsInterface(interfaceId);\n    }\n\n    modifier onlyApprovedItemCreator() {\n        require(\n            _anyAddressCanCreateItem || hasRole(CREATOR_ROLE, _msgSender()),\n            \"Address is not approved for creating new item.\"\n        );\n        _;\n    }\n\n    function setAnyAddressCanCreateItem(bool isAnyAddressCanCreateItem) public {\n        require(\n            hasRole(DEFAULT_ADMIN_ROLE, _msgSender()),\n            \"Caller is not an admin\"\n        );\n        _anyAddressCanCreateItem = isAnyAddressCanCreateItem;\n    }\n\n    function anyAddressCanCreateItem() public view returns (bool) {\n        return _anyAddressCanCreateItem;\n    }\n\n    function createItem(uint256 amount)\n        external\n        onlyApprovedItemCreator\n        returns (uint256)\n    {\n        _tokenIds.increment();\n        uint256 newItemId = _tokenIds.current();\n        _mint(_msgSender(), newItemId, amount, \"\");\n\n        _tokenCreators[newItemId] = _msgSender();\n        _tokenCounts[newItemId] = amount;\n\n        return newItemId;\n    }\n\n    function tokenCreator(uint256 _id) external view returns (address) {\n        return _tokenCreators[_id];\n    }\n\n    function tokenCount(uint256 _id) external view returns (uint256) {\n        return _tokenCounts[_id];\n    }\n}\n",
  "sourcePath": "/Users/shumeiliang/Documents/projects/fintelics/satoshi/satoshi1155/contracts/SatoshiART1155.sol",
  "compiler": {
    "name": "solc",
    "version": "0.8.0+commit.c7dfd78e.Emscripten.clang"
  },
  "schemaVersion": "3.4.0",
  "updatedAt": "2021-05-11T20:31:08.000Z",
  "networkType": "ethereum",
  "devdoc": {
    "kind": "dev",
    "methods": {
      "balanceOf(address,uint256)": {
        "details": "See {IERC1155-balanceOf}. Requirements: - `account` cannot be the zero address."
      },
      "balanceOfBatch(address[],uint256[])": {
        "details": "See {IERC1155-balanceOfBatch}. Requirements: - `accounts` and `ids` must have the same length."
      },
      "getRoleAdmin(bytes32)": {
        "details": "Returns the admin role that controls `role`. See {grantRole} and {revokeRole}. To change a role's admin, use {_setRoleAdmin}."
      },
      "grantRole(bytes32,address)": {
        "details": "Grants `role` to `account`. If `account` had not been already granted `role`, emits a {RoleGranted} event. Requirements: - the caller must have ``role``'s admin role."
      },
      "hasRole(bytes32,address)": {
        "details": "Returns `true` if `account` has been granted `role`."
      },
      "isApprovedForAll(address,address)": {
        "details": "See {IERC1155-isApprovedForAll}."
      },
      "renounceRole(bytes32,address)": {
        "details": "Revokes `role` from the calling account. Roles are often managed via {grantRole} and {revokeRole}: this function's purpose is to provide a mechanism for accounts to lose their privileges if they are compromised (such as when a trusted device is misplaced). If the calling account had been granted `role`, emits a {RoleRevoked} event. Requirements: - the caller must be `account`."
      },
      "revokeRole(bytes32,address)": {
        "details": "Revokes `role` from `account`. If `account` had been granted `role`, emits a {RoleRevoked} event. Requirements: - the caller must have ``role``'s admin role."
      },
      "safeBatchTransferFrom(address,address,uint256[],uint256[],bytes)": {
        "details": "See {IERC1155-safeBatchTransferFrom}."
      },
      "safeTransferFrom(address,address,uint256,uint256,bytes)": {
        "details": "See {IERC1155-safeTransferFrom}."
      },
      "setApprovalForAll(address,bool)": {
        "details": "See {IERC1155-setApprovalForAll}."
      },
      "uri(uint256)": {
        "details": "See {IERC1155MetadataURI-uri}. This implementation returns the same URI for *all* token types. It relies on the token type ID substitution mechanism https://eips.ethereum.org/EIPS/eip-1155#metadata[defined in the EIP]. Clients calling this function must replace the `\\{id\\}` substring with the actual token type ID."
      }
    },
    "version": 1
  },
  "userdoc": {
    "kind": "user",
    "methods": {},
    "version": 1
  }
}