{
  "contractName": "SatoshiART1155",
  "abi": [
    {
      "inputs": [],
      "stateMutability": "nonpayable",
      "type": "constructor"
    },
    {
      "anonymous": false,
      "inputs": [
        {
          "indexed": true,
          "internalType": "address",
          "name": "account",
          "type": "address"
        },
        {
          "indexed": true,
          "internalType": "address",
          "name": "operator",
          "type": "address"
        },
        {
          "indexed": false,
          "internalType": "bool",
          "name": "approved",
          "type": "bool"
        }
      ],
      "name": "ApprovalForAll",
      "type": "event"
    },
    {
      "anonymous": false,
      "inputs": [
        {
          "indexed": false,
          "internalType": "address",
          "name": "contractOwner",
          "type": "address"
        },
        {
          "indexed": false,
          "internalType": "address",
          "name": "itemCreator",
          "type": "address"
        },
        {
          "indexed": false,
          "internalType": "bool",
          "name": "approved",
          "type": "bool"
        }
      ],
      "name": "ApprovalForItemCreator",
      "type": "event"
    },
    {
      "anonymous": false,
      "inputs": [
        {
          "indexed": true,
          "internalType": "bytes32",
          "name": "role",
          "type": "bytes32"
        },
        {
          "indexed": true,
          "internalType": "bytes32",
          "name": "previousAdminRole",
          "type": "bytes32"
        },
        {
          "indexed": true,
          "internalType": "bytes32",
          "name": "newAdminRole",
          "type": "bytes32"
        }
      ],
      "name": "RoleAdminChanged",
      "type": "event"
    },
    {
      "anonymous": false,
      "inputs": [
        {
          "indexed": true,
          "internalType": "bytes32",
          "name": "role",
          "type": "bytes32"
        },
        {
          "indexed": true,
          "internalType": "address",
          "name": "account",
          "type": "address"
        },
        {
          "indexed": true,
          "internalType": "address",
          "name": "sender",
          "type": "address"
        }
      ],
      "name": "RoleGranted",
      "type": "event"
    },
    {
      "anonymous": false,
      "inputs": [
        {
          "indexed": true,
          "internalType": "bytes32",
          "name": "role",
          "type": "bytes32"
        },
        {
          "indexed": true,
          "internalType": "address",
          "name": "account",
          "type": "address"
        },
        {
          "indexed": true,
          "internalType": "address",
          "name": "sender",
          "type": "address"
        }
      ],
      "name": "RoleRevoked",
      "type": "event"
    },
    {
      "anonymous": false,
      "inputs": [
        {
          "indexed": true,
          "internalType": "address",
          "name": "operator",
          "type": "address"
        },
        {
          "indexed": true,
          "internalType": "address",
          "name": "from",
          "type": "address"
        },
        {
          "indexed": true,
          "internalType": "address",
          "name": "to",
          "type": "address"
        },
        {
          "indexed": false,
          "internalType": "uint256[]",
          "name": "ids",
          "type": "uint256[]"
        },
        {
          "indexed": false,
          "internalType": "uint256[]",
          "name": "values",
          "type": "uint256[]"
        }
      ],
      "name": "TransferBatch",
      "type": "event"
    },
    {
      "anonymous": false,
      "inputs": [
        {
          "indexed": true,
          "internalType": "address",
          "name": "operator",
          "type": "address"
        },
        {
          "indexed": true,
          "internalType": "address",
          "name": "from",
          "type": "address"
        },
        {
          "indexed": true,
          "internalType": "address",
          "name": "to",
          "type": "address"
        },
        {
          "indexed": false,
          "internalType": "uint256",
          "name": "id",
          "type": "uint256"
        },
        {
          "indexed": false,
          "internalType": "uint256",
          "name": "value",
          "type": "uint256"
        }
      ],
      "name": "TransferSingle",
      "type": "event"
    },
    {
      "anonymous": false,
      "inputs": [
        {
          "indexed": false,
          "internalType": "string",
          "name": "value",
          "type": "string"
        },
        {
          "indexed": true,
          "internalType": "uint256",
          "name": "id",
          "type": "uint256"
        }
      ],
      "name": "URI",
      "type": "event"
    },
    {
      "inputs": [],
      "name": "CREATOR_ROLE",
      "outputs": [
        {
          "internalType": "bytes32",
          "name": "",
          "type": "bytes32"
        }
      ],
      "stateMutability": "view",
      "type": "function",
      "constant": true
    },
    {
      "inputs": [],
      "name": "DEFAULT_ADMIN_ROLE",
      "outputs": [
        {
          "internalType": "bytes32",
          "name": "",
          "type": "bytes32"
        }
      ],
      "stateMutability": "view",
      "type": "function",
      "constant": true
    },
    {
      "inputs": [
        {
          "internalType": "address",
          "name": "account",
          "type": "address"
        },
        {
          "internalType": "uint256",
          "name": "id",
          "type": "uint256"
        }
      ],
      "name": "balanceOf",
      "outputs": [
        {
          "internalType": "uint256",
          "name": "",
          "type": "uint256"
        }
      ],
      "stateMutability": "view",
      "type": "function",
      "constant": true
    },
    {
      "inputs": [
        {
          "internalType": "address[]",
          "name": "accounts",
          "type": "address[]"
        },
        {
          "internalType": "uint256[]",
          "name": "ids",
          "type": "uint256[]"
        }
      ],
      "name": "balanceOfBatch",
      "outputs": [
        {
          "internalType": "uint256[]",
          "name": "",
          "type": "uint256[]"
        }
      ],
      "stateMutability": "view",
      "type": "function",
      "constant": true
    },
    {
      "inputs": [
        {
          "internalType": "bytes32",
          "name": "role",
          "type": "bytes32"
        }
      ],
      "name": "getRoleAdmin",
      "outputs": [
        {
          "internalType": "bytes32",
          "name": "",
          "type": "bytes32"
        }
      ],
      "stateMutability": "view",
      "type": "function",
      "constant": true
    },
    {
      "inputs": [
        {
          "internalType": "bytes32",
          "name": "role",
          "type": "bytes32"
        },
        {
          "internalType": "address",
          "name": "account",
          "type": "address"
        }
      ],
      "name": "grantRole",
      "outputs": [],
      "stateMutability": "nonpayable",
      "type": "function"
    },
    {
      "inputs": [
        {
          "internalType": "bytes32",
          "name": "role",
          "type": "bytes32"
        },
        {
          "internalType": "address",
          "name": "account",
          "type": "address"
        }
      ],
      "name": "hasRole",
      "outputs": [
        {
          "internalType": "bool",
          "name": "",
          "type": "bool"
        }
      ],
      "stateMutability": "view",
      "type": "function",
      "constant": true
    },
    {
      "inputs": [
        {
          "internalType": "address",
          "name": "account",
          "type": "address"
        },
        {
          "internalType": "address",
          "name": "operator",
          "type": "address"
        }
      ],
      "name": "isApprovedForAll",
      "outputs": [
        {
          "internalType": "bool",
          "name": "",
          "type": "bool"
        }
      ],
      "stateMutability": "view",
      "type": "function",
      "constant": true
    },
    {
      "inputs": [],
      "name": "marketplace",
      "outputs": [
        {
          "internalType": "address",
          "name": "",
          "type": "address"
        }
      ],
      "stateMutability": "view",
      "type": "function",
      "constant": true
    },
    {
      "inputs": [],
      "name": "onlyMarketplace",
      "outputs": [
        {
          "internalType": "bool",
          "name": "",
          "type": "bool"
        }
      ],
      "stateMutability": "view",
      "type": "function",
      "constant": true
    },
    {
      "inputs": [
        {
          "internalType": "bytes32",
          "name": "role",
          "type": "bytes32"
        },
        {
          "internalType": "address",
          "name": "account",
          "type": "address"
        }
      ],
      "name": "renounceRole",
      "outputs": [],
      "stateMutability": "nonpayable",
      "type": "function"
    },
    {
      "inputs": [
        {
          "internalType": "bytes32",
          "name": "role",
          "type": "bytes32"
        },
        {
          "internalType": "address",
          "name": "account",
          "type": "address"
        }
      ],
      "name": "revokeRole",
      "outputs": [],
      "stateMutability": "nonpayable",
      "type": "function"
    },
    {
      "inputs": [
        {
          "internalType": "address",
          "name": "from",
          "type": "address"
        },
        {
          "internalType": "address",
          "name": "to",
          "type": "address"
        },
        {
          "internalType": "uint256[]",
          "name": "ids",
          "type": "uint256[]"
        },
        {
          "internalType": "uint256[]",
          "name": "amounts",
          "type": "uint256[]"
        },
        {
          "internalType": "bytes",
          "name": "data",
          "type": "bytes"
        }
      ],
      "name": "safeBatchTransferFrom",
      "outputs": [],
      "stateMutability": "nonpayable",
      "type": "function"
    },
    {
      "inputs": [
        {
          "internalType": "address",
          "name": "from",
          "type": "address"
        },
        {
          "internalType": "address",
          "name": "to",
          "type": "address"
        },
        {
          "internalType": "uint256",
          "name": "id",
          "type": "uint256"
        },
        {
          "internalType": "uint256",
          "name": "amount",
          "type": "uint256"
        },
        {
          "internalType": "bytes",
          "name": "data",
          "type": "bytes"
        }
      ],
      "name": "safeTransferFrom",
      "outputs": [],
      "stateMutability": "nonpayable",
      "type": "function"
    },
    {
      "inputs": [
        {
          "internalType": "address",
          "name": "operator",
          "type": "address"
        },
        {
          "internalType": "bool",
          "name": "approved",
          "type": "bool"
        }
      ],
      "name": "setApprovalForAll",
      "outputs": [],
      "stateMutability": "nonpayable",
      "type": "function"
    },
    {
      "inputs": [
        {
          "internalType": "address",
          "name": "marketplaceAddress",
          "type": "address"
        }
      ],
      "name": "setMarketplace",
      "outputs": [],
      "stateMutability": "nonpayable",
      "type": "function"
    },
    {
      "inputs": [
        {
          "internalType": "bool",
          "name": "onlyMarketplaceAddress",
          "type": "bool"
        }
      ],
      "name": "setOnlyMarketplace",
      "outputs": [],
      "stateMutability": "nonpayable",
      "type": "function"
    },
    {
      "inputs": [
        {
          "internalType": "uint256",
          "name": "",
          "type": "uint256"
        }
      ],
      "name": "uri",
      "outputs": [
        {
          "internalType": "string",
          "name": "",
          "type": "string"
        }
      ],
      "stateMutability": "view",
      "type": "function",
      "constant": true
    },
    {
      "inputs": [
        {
          "internalType": "bytes4",
          "name": "interfaceId",
          "type": "bytes4"
        }
      ],
      "name": "supportsInterface",
      "outputs": [
        {
          "internalType": "bool",
          "name": "",
          "type": "bool"
        }
      ],
      "stateMutability": "view",
      "type": "function",
      "constant": true
    },
    {
      "inputs": [
        {
          "internalType": "bool",
          "name": "isAnyAddressCanCreateItem",
          "type": "bool"
        }
      ],
      "name": "setAnyAddressCanCreateItem",
      "outputs": [],
      "stateMutability": "nonpayable",
      "type": "function"
    },
    {
      "inputs": [],
      "name": "anyAddressCanCreateItem",
      "outputs": [
        {
          "internalType": "bool",
          "name": "",
          "type": "bool"
        }
      ],
      "stateMutability": "view",
      "type": "function",
      "constant": true
    },
    {
      "inputs": [
        {
          "internalType": "uint256",
          "name": "amount",
          "type": "uint256"
        },
        {
          "internalType": "uint256",
          "name": "royalty",
          "type": "uint256"
        }
      ],
      "name": "createItem",
      "outputs": [
        {
          "internalType": "uint256[]",
          "name": "",
          "type": "uint256[]"
        }
      ],
      "stateMutability": "nonpayable",
      "type": "function"
    },
    {
      "inputs": [
        {
          "internalType": "uint256",
          "name": "_id",
          "type": "uint256"
        }
      ],
      "name": "tokenCreator",
      "outputs": [
        {
          "internalType": "address",
          "name": "",
          "type": "address"
        }
      ],
      "stateMutability": "view",
      "type": "function",
      "constant": true
    },
    {
      "inputs": [
        {
          "internalType": "uint256",
          "name": "_id",
          "type": "uint256"
        }
      ],
      "name": "tokenRoyalty",
      "outputs": [
        {
          "internalType": "uint256",
          "name": "",
          "type": "uint256"
        }
      ],
      "stateMutability": "view",
      "type": "function",
      "constant": true
    }
  ],
  "bytecode": "0x60806040526000600860006101000a81548160ff0219169083151502179055503480156200002c57600080fd5b506040518060800160405280604c815260200162003ebd604c913962000058816200013e60201b60201c565b620000686200015a60201b60201c565b600360006101000a81548173ffffffffffffffffffffffffffffffffffffffff021916908373ffffffffffffffffffffffffffffffffffffffff160217905550620000b86200015a60201b60201c565b600460006101000a81548173ffffffffffffffffffffffffffffffffffffffff021916908373ffffffffffffffffffffffffffffffffffffffff1602179055506001600460146101000a81548160ff02191690831515021790555050620001386000801b6200012c6200015a60201b60201c565b6200016260201b60201c565b620003ea565b806002908051906020019062000156929190620002d5565b5050565b600033905090565b6200017482826200017860201b60201c565b5050565b6200018a82826200026a60201b60201c565b620002665760016005600084815260200190815260200160002060000160008373ffffffffffffffffffffffffffffffffffffffff1673ffffffffffffffffffffffffffffffffffffffff16815260200190815260200160002060006101000a81548160ff0219169083151502179055506200020b6200015a60201b60201c565b73ffffffffffffffffffffffffffffffffffffffff168173ffffffffffffffffffffffffffffffffffffffff16837f2f8788117e7eff1d82e926ec794901d17c78024a50270940304540a733656f0d60405160405180910390a45b5050565b60006005600084815260200190815260200160002060000160008373ffffffffffffffffffffffffffffffffffffffff1673ffffffffffffffffffffffffffffffffffffffff16815260200190815260200160002060009054906101000a900460ff16905092915050565b828054620002e39062000385565b90600052602060002090601f01602090048101928262000307576000855562000353565b82601f106200032257805160ff191683800117855562000353565b8280016001018555821562000353579182015b828111156200035257825182559160200191906001019062000335565b5b50905062000362919062000366565b5090565b5b808211156200038157600081600090555060010162000367565b5090565b600060028204905060018216806200039e57607f821691505b60208210811415620003b557620003b4620003bb565b5b50919050565b7f4e487b7100000000000000000000000000000000000000000000000000000000600052602260045260246000fd5b613ac380620003fa6000396000f3fe608060405234801561001057600080fd5b50600436106101575760003560e01c806373ad6c2d116100c3578063adae08dd1161007c578063adae08dd146103fc578063c0d170e11461042c578063c99ad2951461044a578063d547741f14610466578063e985e9c514610482578063f242432a146104b257610157565b806373ad6c2d1461033a5780638aeda25a1461035657806391d1485414610374578063a217fddf146103a4578063a22cb465146103c2578063abc8c7af146103de57610157565b80632eb2c2d6116101155780632eb2c2d6146102685780632f2ff15d14610284578063352c16ce146102a057806336568abe146102be57806340c1a064146102da5780634e1273f41461030a57610157565b8062fdd58e1461015c57806301ffc9a71461018c5780630e89341c146101bc5780631ff4a420146101ec5780632277171d1461021c578063248a9ca314610238575b600080fd5b610176600480360381019061017191906128c4565b6104ce565b6040516101839190613586565b60405180910390f35b6101a660048036038101906101a191906129fa565b610597565b6040516101b3919061332e565b60405180910390f35b6101d660048036038101906101d19190612a4c565b6105a9565b6040516101e39190613364565b60405180910390f35b61020660048036038101906102019190612a4c565b61063d565b6040516102139190613586565b60405180910390f35b6102366004803603810190610231919061296c565b61065d565b005b610252600480360381019061024d9190612995565b6106cd565b60405161025f9190613349565b60405180910390f35b610282600480360381019061027d919061273a565b6106ed565b005b61029e600480360381019061029991906129be565b610b73565b005b6102a8610bd9565b6040516102b5919061332e565b60405180910390f35b6102d860048036038101906102d391906129be565b610bf0565b005b6102f460048036038101906102ef9190612a4c565b610c73565b60405161030191906131f8565b60405180910390f35b610324600480360381019061031f9190612900565b610cb3565b60405161033191906132d5565b60405180910390f35b610354600480360381019061034f91906126d5565b610e64565b005b61035e610f09565b60405161036b9190613349565b60405180910390f35b61038e600480360381019061038991906129be565b610f2d565b60405161039b919061332e565b60405180910390f35b6103ac610f98565b6040516103b99190613349565b60405180910390f35b6103dc60048036038101906103d79190612888565b610f9f565b005b6103e6611120565b6040516103f391906131f8565b60405180910390f35b61041660048036038101906104119190612a75565b61114a565b60405161042391906132d5565b60405180910390f35b6104346114e3565b604051610441919061332e565b60405180910390f35b610464600480360381019061045f919061296c565b6114fa565b005b610480600480360381019061047b91906129be565b611578565b005b61049c600480360381019061049791906126fe565b6115de565b6040516104a9919061332e565b60405180910390f35b6104cc60048036038101906104c791906127f9565b611672565b005b60008073ffffffffffffffffffffffffffffffffffffffff168373ffffffffffffffffffffffffffffffffffffffff16141561053f576040517f08c379a0000000000000000000000000000000000000000000000000000000008152600401610536906133e6565b60405180910390fd5b60008083815260200190815260200160002060008473ffffffffffffffffffffffffffffffffffffffff1673ffffffffffffffffffffffffffffffffffffffff16815260200190815260200160002054905092915050565b60006105a282611a1a565b9050919050565b6060600280546105b89061383e565b80601f01602080910402602001604051908101604052809291908181526020018280546105e49061383e565b80156106315780601f1061060657610100808354040283529160200191610631565b820191906000526020600020905b81548152906001019060200180831161061457829003601f168201915b50505050509050919050565b600060076000838152602001908152602001600020600101549050919050565b6106716000801b61066c611a94565b610f2d565b6106b0576040517f08c379a00000000000000000000000000000000000000000000000000000000081526004016106a7906134c6565b60405180910390fd5b80600860006101000a81548160ff02191690831515021790555050565b600060056000838152602001908152602001600020600101549050919050565b8151835114610731576040517f08c379a000000000000000000000000000000000000000000000000000000000815260040161072890613526565b60405180910390fd5b600073ffffffffffffffffffffffffffffffffffffffff168473ffffffffffffffffffffffffffffffffffffffff1614156107a1576040517f08c379a000000000000000000000000000000000000000000000000000000000815260040161079890613446565b60405180910390fd5b6107a9611a94565b73ffffffffffffffffffffffffffffffffffffffff168573ffffffffffffffffffffffffffffffffffffffff1614806107ef57506107ee856107e9611a94565b6115de565b5b80156108085750600460149054906101000a900460ff16155b8061087f5750600460009054906101000a900473ffffffffffffffffffffffffffffffffffffffff1673ffffffffffffffffffffffffffffffffffffffff1661084f611a94565b73ffffffffffffffffffffffffffffffffffffffff1614801561087e5750600460149054906101000a900460ff165b5b6108be576040517f08c379a00000000000000000000000000000000000000000000000000000000081526004016108b590613466565b60405180910390fd5b60006108c8611a94565b90506108d8818787878787611a9c565b60005b8451811015610ade57600085828151811061091f577f4e487b7100000000000000000000000000000000000000000000000000000000600052603260045260246000fd5b602002602001015190506000858381518110610964577f4e487b7100000000000000000000000000000000000000000000000000000000600052603260045260246000fd5b60200260200101519050600080600084815260200190815260200160002060008b73ffffffffffffffffffffffffffffffffffffffff1673ffffffffffffffffffffffffffffffffffffffff16815260200190815260200160002054905081811015610a05576040517f08c379a00000000000000000000000000000000000000000000000000000000081526004016109fc90613486565b60405180910390fd5b8181610a11919061374a565b60008085815260200190815260200160002060008c73ffffffffffffffffffffffffffffffffffffffff1673ffffffffffffffffffffffffffffffffffffffff168152602001908152602001600020819055508160008085815260200190815260200160002060008b73ffffffffffffffffffffffffffffffffffffffff1673ffffffffffffffffffffffffffffffffffffffff1681526020019081526020016000206000828254610ac391906136f4565b9250508190555050505080610ad790613870565b90506108db565b508473ffffffffffffffffffffffffffffffffffffffff168673ffffffffffffffffffffffffffffffffffffffff168273ffffffffffffffffffffffffffffffffffffffff167f4a39dc06d4c0dbc64b70af90fd698a233a518aa5d07e595d983b8c0526c8f7fb8787604051610b559291906132f7565b60405180910390a4610b6b818787878787611aa4565b505050505050565b610b8c610b7f836106cd565b610b87611a94565b610f2d565b610bcb576040517f08c379a0000000000000000000000000000000000000000000000000000000008152600401610bc2906133c6565b60405180910390fd5b610bd58282611c74565b5050565b6000600860009054906101000a900460ff16905090565b610bf8611a94565b73ffffffffffffffffffffffffffffffffffffffff168173ffffffffffffffffffffffffffffffffffffffff1614610c65576040517f08c379a0000000000000000000000000000000000000000000000000000000008152600401610c5c90613566565b60405180910390fd5b610c6f8282611d55565b5050565b60006007600083815260200190815260200160002060000160009054906101000a900473ffffffffffffffffffffffffffffffffffffffff169050919050565b60608151835114610cf9576040517f08c379a0000000000000000000000000000000000000000000000000000000008152600401610cf090613506565b60405180910390fd5b6000835167ffffffffffffffff811115610d3c577f4e487b7100000000000000000000000000000000000000000000000000000000600052604160045260246000fd5b604051908082528060200260200182016040528015610d6a5781602001602082028036833780820191505090505b50905060005b8451811015610e5957610e03858281518110610db5577f4e487b7100000000000000000000000000000000000000000000000000000000600052603260045260246000fd5b6020026020010151858381518110610df6577f4e487b7100000000000000000000000000000000000000000000000000000000600052603260045260246000fd5b60200260200101516104ce565b828281518110610e3c577f4e487b7100000000000000000000000000000000000000000000000000000000600052603260045260246000fd5b60200260200101818152505080610e5290613870565b9050610d70565b508091505092915050565b600360009054906101000a900473ffffffffffffffffffffffffffffffffffffffff1673ffffffffffffffffffffffffffffffffffffffff16610ea5611a94565b73ffffffffffffffffffffffffffffffffffffffff1614610ec557600080fd5b80600460006101000a81548173ffffffffffffffffffffffffffffffffffffffff021916908373ffffffffffffffffffffffffffffffffffffffff16021790555050565b7f828634d95e775031b9ff576b159a8509d3053581a8c9c4d7d86899e0afcd882f81565b60006005600084815260200190815260200160002060000160008373ffffffffffffffffffffffffffffffffffffffff1673ffffffffffffffffffffffffffffffffffffffff16815260200190815260200160002060009054906101000a900460ff16905092915050565b6000801b81565b8173ffffffffffffffffffffffffffffffffffffffff16610fbe611a94565b73ffffffffffffffffffffffffffffffffffffffff161415611015576040517f08c379a000000000000000000000000000000000000000000000000000000000815260040161100c906134e6565b60405180910390fd5b8060016000611022611a94565b73ffffffffffffffffffffffffffffffffffffffff1673ffffffffffffffffffffffffffffffffffffffff16815260200190815260200160002060008473ffffffffffffffffffffffffffffffffffffffff1673ffffffffffffffffffffffffffffffffffffffff16815260200190815260200160002060006101000a81548160ff0219169083151502179055508173ffffffffffffffffffffffffffffffffffffffff166110cf611a94565b73ffffffffffffffffffffffffffffffffffffffff167f17307eab39ab6107e8899845ad3d59bd9653f200f220920489ca2b5937696c3183604051611114919061332e565b60405180910390a35050565b6000600460009054906101000a900473ffffffffffffffffffffffffffffffffffffffff16905090565b6060600860009054906101000a900460ff168061119457506111937f828634d95e775031b9ff576b159a8509d3053581a8c9c4d7d86899e0afcd882f61118e611a94565b610f2d565b5b6111d3576040517f08c379a00000000000000000000000000000000000000000000000000000000081526004016111ca906134a6565b60405180910390fd5b6103e8821115611218576040517f08c379a000000000000000000000000000000000000000000000000000000000815260040161120f90613406565b60405180910390fd5b60008367ffffffffffffffff81111561125a577f4e487b7100000000000000000000000000000000000000000000000000000000600052604160045260246000fd5b6040519080825280602002602001820160405280156112885781602001602082028036833780820191505090505b50905060008467ffffffffffffffff8111156112cd577f4e487b7100000000000000000000000000000000000000000000000000000000600052604160045260246000fd5b6040519080825280602002602001820160405280156112fb5781602001602082028036833780820191505090505b50905060005b858110156113bc576113136006611e37565b61131d6006611e56565b838281518110611356577f4e487b7100000000000000000000000000000000000000000000000000000000600052603260045260246000fd5b602002602001018181525050600182828151811061139d577f4e487b7100000000000000000000000000000000000000000000000000000000600052603260045260246000fd5b60200260200101818152505080806113b490613870565b915050611301565b506113df6113c8611a94565b838360405180602001604052806000815250611e64565b60005b82518110156114d75760405180604001604052806113fe611a94565b73ffffffffffffffffffffffffffffffffffffffff168152602001868152506007600085848151811061145a577f4e487b7100000000000000000000000000000000000000000000000000000000600052603260045260246000fd5b6020026020010151815260200190815260200160002060008201518160000160006101000a81548173ffffffffffffffffffffffffffffffffffffffff021916908373ffffffffffffffffffffffffffffffffffffffff1602179055506020820151816001015590505080806114cf90613870565b9150506113e2565b50819250505092915050565b6000600460149054906101000a900460ff16905090565b600360009054906101000a900473ffffffffffffffffffffffffffffffffffffffff1673ffffffffffffffffffffffffffffffffffffffff1661153b611a94565b73ffffffffffffffffffffffffffffffffffffffff161461155b57600080fd5b80600460146101000a81548160ff02191690831515021790555050565b611591611584836106cd565b61158c611a94565b610f2d565b6115d0576040517f08c379a00000000000000000000000000000000000000000000000000000000081526004016115c790613426565b60405180910390fd5b6115da8282611d55565b5050565b6000600160008473ffffffffffffffffffffffffffffffffffffffff1673ffffffffffffffffffffffffffffffffffffffff16815260200190815260200160002060008373ffffffffffffffffffffffffffffffffffffffff1673ffffffffffffffffffffffffffffffffffffffff16815260200190815260200160002060009054906101000a900460ff16905092915050565b600073ffffffffffffffffffffffffffffffffffffffff168473ffffffffffffffffffffffffffffffffffffffff1614156116e2576040517f08c379a00000000000000000000000000000000000000000000000000000000081526004016116d990613446565b60405180910390fd5b6116ea611a94565b73ffffffffffffffffffffffffffffffffffffffff168573ffffffffffffffffffffffffffffffffffffffff161480611730575061172f8561172a611a94565b6115de565b5b80156117495750600460149054906101000a900460ff16155b806117c05750600460009054906101000a900473ffffffffffffffffffffffffffffffffffffffff1673ffffffffffffffffffffffffffffffffffffffff16611790611a94565b73ffffffffffffffffffffffffffffffffffffffff161480156117bf5750600460149054906101000a900460ff165b5b6117ff576040517f08c379a00000000000000000000000000000000000000000000000000000000081526004016117f690613466565b60405180910390fd5b6000611809611a94565b905061182981878761181a886120ce565b611823886120ce565b87611a9c565b600080600086815260200190815260200160002060008873ffffffffffffffffffffffffffffffffffffffff1673ffffffffffffffffffffffffffffffffffffffff168152602001908152602001600020549050838110156118c0576040517f08c379a00000000000000000000000000000000000000000000000000000000081526004016118b790613486565b60405180910390fd5b83816118cc919061374a565b60008087815260200190815260200160002060008973ffffffffffffffffffffffffffffffffffffffff1673ffffffffffffffffffffffffffffffffffffffff168152602001908152602001600020819055508360008087815260200190815260200160002060008873ffffffffffffffffffffffffffffffffffffffff1673ffffffffffffffffffffffffffffffffffffffff168152602001908152602001600020600082825461197e91906136f4565b925050819055508573ffffffffffffffffffffffffffffffffffffffff168773ffffffffffffffffffffffffffffffffffffffff168373ffffffffffffffffffffffffffffffffffffffff167fc3d58168c5ae7397731d063d5bbf3d657854427343f4c083240f7aacaa2d0f6288886040516119fb9291906135a1565b60405180910390a4611a11828888888888612194565b50505050505050565b60007f7965db0b000000000000000000000000000000000000000000000000000000007bffffffffffffffffffffffffffffffffffffffffffffffffffffffff1916827bffffffffffffffffffffffffffffffffffffffffffffffffffffffff19161480611a8d5750611a8c82612364565b5b9050919050565b600033905090565b505050505050565b611ac38473ffffffffffffffffffffffffffffffffffffffff16612446565b15611c6c578373ffffffffffffffffffffffffffffffffffffffff1663bc197c8187878686866040518663ffffffff1660e01b8152600401611b09959493929190613213565b602060405180830381600087803b158015611b2357600080fd5b505af1925050508015611b5457506040513d601f19601f82011682018060405250810190611b519190612a23565b60015b611be357611b60613964565b80611b6b5750611ba8565b806040517f08c379a0000000000000000000000000000000000000000000000000000000008152600401611b9f9190613364565b60405180910390fd5b6040517f08c379a0000000000000000000000000000000000000000000000000000000008152600401611bda90613386565b60405180910390fd5b63bc197c8160e01b7bffffffffffffffffffffffffffffffffffffffffffffffffffffffff1916817bffffffffffffffffffffffffffffffffffffffffffffffffffffffff191614611c6a576040517f08c379a0000000000000000000000000000000000000000000000000000000008152600401611c61906133a6565b60405180910390fd5b505b505050505050565b611c7e8282610f2d565b611d515760016005600084815260200190815260200160002060000160008373ffffffffffffffffffffffffffffffffffffffff1673ffffffffffffffffffffffffffffffffffffffff16815260200190815260200160002060006101000a81548160ff021916908315150217905550611cf6611a94565b73ffffffffffffffffffffffffffffffffffffffff168173ffffffffffffffffffffffffffffffffffffffff16837f2f8788117e7eff1d82e926ec794901d17c78024a50270940304540a733656f0d60405160405180910390a45b5050565b611d5f8282610f2d565b15611e335760006005600084815260200190815260200160002060000160008373ffffffffffffffffffffffffffffffffffffffff1673ffffffffffffffffffffffffffffffffffffffff16815260200190815260200160002060006101000a81548160ff021916908315150217905550611dd8611a94565b73ffffffffffffffffffffffffffffffffffffffff168173ffffffffffffffffffffffffffffffffffffffff16837ff6391f5c32d9c69d2a47ea670b442974b53935d1edc7fd64eb21e047a839171b60405160405180910390a45b5050565b6001816000016000828254611e4c91906136f4565b9250508190555050565b600081600001549050919050565b600073ffffffffffffffffffffffffffffffffffffffff168473ffffffffffffffffffffffffffffffffffffffff161415611ed4576040517f08c379a0000000000000000000000000000000000000000000000000000000008152600401611ecb90613546565b60405180910390fd5b8151835114611f18576040517f08c379a0000000000000000000000000000000000000000000000000000000008152600401611f0f90613526565b60405180910390fd5b6000611f22611a94565b9050611f3381600087878787611a9c565b60005b845181101561203857838181518110611f78577f4e487b7100000000000000000000000000000000000000000000000000000000600052603260045260246000fd5b6020026020010151600080878481518110611fbc577f4e487b7100000000000000000000000000000000000000000000000000000000600052603260045260246000fd5b6020026020010151815260200190815260200160002060008873ffffffffffffffffffffffffffffffffffffffff1673ffffffffffffffffffffffffffffffffffffffff168152602001908152602001600020600082825461201e91906136f4565b92505081905550808061203090613870565b915050611f36565b508473ffffffffffffffffffffffffffffffffffffffff16600073ffffffffffffffffffffffffffffffffffffffff168273ffffffffffffffffffffffffffffffffffffffff167f4a39dc06d4c0dbc64b70af90fd698a233a518aa5d07e595d983b8c0526c8f7fb87876040516120b09291906132f7565b60405180910390a46120c781600087878787611aa4565b5050505050565b60606000600167ffffffffffffffff811115612113577f4e487b7100000000000000000000000000000000000000000000000000000000600052604160045260246000fd5b6040519080825280602002602001820160405280156121415781602001602082028036833780820191505090505b509050828160008151811061217f577f4e487b7100000000000000000000000000000000000000000000000000000000600052603260045260246000fd5b60200260200101818152505080915050919050565b6121b38473ffffffffffffffffffffffffffffffffffffffff16612446565b1561235c578373ffffffffffffffffffffffffffffffffffffffff1663f23a6e6187878686866040518663ffffffff1660e01b81526004016121f995949392919061327b565b602060405180830381600087803b15801561221357600080fd5b505af192505050801561224457506040513d601f19601f820116820180604052508101906122419190612a23565b60015b6122d357612250613964565b8061225b5750612298565b806040517f08c379a000000000000000000000000000000000000000000000000000000000815260040161228f9190613364565b60405180910390fd5b6040517f08c379a00000000000000000000000000000000000000000000000000000000081526004016122ca90613386565b60405180910390fd5b63f23a6e6160e01b7bffffffffffffffffffffffffffffffffffffffffffffffffffffffff1916817bffffffffffffffffffffffffffffffffffffffffffffffffffffffff19161461235a576040517f08c379a0000000000000000000000000000000000000000000000000000000008152600401612351906133a6565b60405180910390fd5b505b505050505050565b60007fd9b67a26000000000000000000000000000000000000000000000000000000007bffffffffffffffffffffffffffffffffffffffffffffffffffffffff1916827bffffffffffffffffffffffffffffffffffffffffffffffffffffffff1916148061242f57507f0e89341c000000000000000000000000000000000000000000000000000000007bffffffffffffffffffffffffffffffffffffffffffffffffffffffff1916827bffffffffffffffffffffffffffffffffffffffffffffffffffffffff1916145b8061243f575061243e82612459565b5b9050919050565b600080823b905060008111915050919050565b60007f01ffc9a7000000000000000000000000000000000000000000000000000000007bffffffffffffffffffffffffffffffffffffffffffffffffffffffff1916827bffffffffffffffffffffffffffffffffffffffffffffffffffffffff1916149050919050565b60006124d66124d1846135fb565b6135ca565b905080838252602082019050828560208602820111156124f557600080fd5b60005b85811015612525578161250b88826125d9565b8452602084019350602083019250506001810190506124f8565b5050509392505050565b600061254261253d84613627565b6135ca565b9050808382526020820190508285602086028201111561256157600080fd5b60005b85811015612591578161257788826126c0565b845260208401935060208301925050600181019050612564565b5050509392505050565b60006125ae6125a984613653565b6135ca565b9050828152602081018484840111156125c657600080fd5b6125d18482856137fc565b509392505050565b6000813590506125e881613a1a565b92915050565b600082601f8301126125ff57600080fd5b813561260f8482602086016124c3565b91505092915050565b600082601f83011261262957600080fd5b813561263984826020860161252f565b91505092915050565b60008135905061265181613a31565b92915050565b60008135905061266681613a48565b92915050565b60008135905061267b81613a5f565b92915050565b60008151905061269081613a5f565b92915050565b600082601f8301126126a757600080fd5b81356126b784826020860161259b565b91505092915050565b6000813590506126cf81613a76565b92915050565b6000602082840312156126e757600080fd5b60006126f5848285016125d9565b91505092915050565b6000806040838503121561271157600080fd5b600061271f858286016125d9565b9250506020612730858286016125d9565b9150509250929050565b600080600080600060a0868803121561275257600080fd5b6000612760888289016125d9565b9550506020612771888289016125d9565b945050604086013567ffffffffffffffff81111561278e57600080fd5b61279a88828901612618565b935050606086013567ffffffffffffffff8111156127b757600080fd5b6127c388828901612618565b925050608086013567ffffffffffffffff8111156127e057600080fd5b6127ec88828901612696565b9150509295509295909350565b600080600080600060a0868803121561281157600080fd5b600061281f888289016125d9565b9550506020612830888289016125d9565b9450506040612841888289016126c0565b9350506060612852888289016126c0565b925050608086013567ffffffffffffffff81111561286f57600080fd5b61287b88828901612696565b9150509295509295909350565b6000806040838503121561289b57600080fd5b60006128a9858286016125d9565b92505060206128ba85828601612642565b9150509250929050565b600080604083850312156128d757600080fd5b60006128e5858286016125d9565b92505060206128f6858286016126c0565b9150509250929050565b6000806040838503121561291357600080fd5b600083013567ffffffffffffffff81111561292d57600080fd5b612939858286016125ee565b925050602083013567ffffffffffffffff81111561295657600080fd5b61296285828601612618565b9150509250929050565b60006020828403121561297e57600080fd5b600061298c84828501612642565b91505092915050565b6000602082840312156129a757600080fd5b60006129b584828501612657565b91505092915050565b600080604083850312156129d157600080fd5b60006129df85828601612657565b92505060206129f0858286016125d9565b9150509250929050565b600060208284031215612a0c57600080fd5b6000612a1a8482850161266c565b91505092915050565b600060208284031215612a3557600080fd5b6000612a4384828501612681565b91505092915050565b600060208284031215612a5e57600080fd5b6000612a6c848285016126c0565b91505092915050565b60008060408385031215612a8857600080fd5b6000612a96858286016126c0565b9250506020612aa7858286016126c0565b9150509250929050565b6000612abd83836131da565b60208301905092915050565b612ad28161377e565b82525050565b6000612ae382613693565b612aed81856136c1565b9350612af883613683565b8060005b83811015612b29578151612b108882612ab1565b9750612b1b836136b4565b925050600181019050612afc565b5085935050505092915050565b612b3f81613790565b82525050565b612b4e8161379c565b82525050565b6000612b5f8261369e565b612b6981856136d2565b9350612b7981856020860161380b565b612b8281613946565b840191505092915050565b6000612b98826136a9565b612ba281856136e3565b9350612bb281856020860161380b565b612bbb81613946565b840191505092915050565b6000612bd36034836136e3565b91507f455243313135353a207472616e7366657220746f206e6f6e204552433131353560008301527f526563656976657220696d706c656d656e7465720000000000000000000000006020830152604082019050919050565b6000612c396028836136e3565b91507f455243313135353a204552433131353552656365697665722072656a6563746560008301527f6420746f6b656e730000000000000000000000000000000000000000000000006020830152604082019050919050565b6000612c9f602f836136e3565b91507f416363657373436f6e74726f6c3a2073656e646572206d75737420626520616e60008301527f2061646d696e20746f206772616e7400000000000000000000000000000000006020830152604082019050919050565b6000612d05602b836136e3565b91507f455243313135353a2062616c616e636520717565727920666f7220746865207a60008301527f65726f20616464726573730000000000000000000000000000000000000000006020830152604082019050919050565b6000612d6b6013836136e3565b91507f526f79616c747920697320746f6f2068696768000000000000000000000000006000830152602082019050919050565b6000612dab6030836136e3565b91507f416363657373436f6e74726f6c3a2073656e646572206d75737420626520616e60008301527f2061646d696e20746f207265766f6b65000000000000000000000000000000006020830152604082019050919050565b6000612e116025836136e3565b91507f455243313135353a207472616e7366657220746f20746865207a65726f20616460008301527f64726573730000000000000000000000000000000000000000000000000000006020830152604082019050919050565b6000612e776032836136e3565b91507f455243313135353a207472616e736665722063616c6c6572206973206e6f742060008301527f6f776e6572206e6f7220617070726f76656400000000000000000000000000006020830152604082019050919050565b6000612edd602a836136e3565b91507f455243313135353a20696e73756666696369656e742062616c616e636520666f60008301527f72207472616e73666572000000000000000000000000000000000000000000006020830152604082019050919050565b6000612f43602e836136e3565b91507f41646472657373206973206e6f7420617070726f76656420666f72206372656160008301527f74696e67206e6577206974656d2e0000000000000000000000000000000000006020830152604082019050919050565b6000612fa96016836136e3565b91507f43616c6c6572206973206e6f7420616e2061646d696e000000000000000000006000830152602082019050919050565b6000612fe96029836136e3565b91507f455243313135353a2073657474696e6720617070726f76616c2073746174757360008301527f20666f722073656c6600000000000000000000000000000000000000000000006020830152604082019050919050565b600061304f6029836136e3565b91507f455243313135353a206163636f756e747320616e6420696473206c656e67746860008301527f206d69736d6174636800000000000000000000000000000000000000000000006020830152604082019050919050565b60006130b56028836136e3565b91507f455243313135353a2069647320616e6420616d6f756e7473206c656e6774682060008301527f6d69736d617463680000000000000000000000000000000000000000000000006020830152604082019050919050565b600061311b6021836136e3565b91507f455243313135353a206d696e7420746f20746865207a65726f2061646472657360008301527f73000000000000000000000000000000000000000000000000000000000000006020830152604082019050919050565b6000613181602f836136e3565b91507f416363657373436f6e74726f6c3a2063616e206f6e6c792072656e6f756e636560008301527f20726f6c657320666f722073656c6600000000000000000000000000000000006020830152604082019050919050565b6131e3816137f2565b82525050565b6131f2816137f2565b82525050565b600060208201905061320d6000830184612ac9565b92915050565b600060a0820190506132286000830188612ac9565b6132356020830187612ac9565b81810360408301526132478186612ad8565b9050818103606083015261325b8185612ad8565b9050818103608083015261326f8184612b54565b90509695505050505050565b600060a0820190506132906000830188612ac9565b61329d6020830187612ac9565b6132aa60408301866131e9565b6132b760608301856131e9565b81810360808301526132c98184612b54565b90509695505050505050565b600060208201905081810360008301526132ef8184612ad8565b905092915050565b600060408201905081810360008301526133118185612ad8565b905081810360208301526133258184612ad8565b90509392505050565b60006020820190506133436000830184612b36565b92915050565b600060208201905061335e6000830184612b45565b92915050565b6000602082019050818103600083015261337e8184612b8d565b905092915050565b6000602082019050818103600083015261339f81612bc6565b9050919050565b600060208201905081810360008301526133bf81612c2c565b9050919050565b600060208201905081810360008301526133df81612c92565b9050919050565b600060208201905081810360008301526133ff81612cf8565b9050919050565b6000602082019050818103600083015261341f81612d5e565b9050919050565b6000602082019050818103600083015261343f81612d9e565b9050919050565b6000602082019050818103600083015261345f81612e04565b9050919050565b6000602082019050818103600083015261347f81612e6a565b9050919050565b6000602082019050818103600083015261349f81612ed0565b9050919050565b600060208201905081810360008301526134bf81612f36565b9050919050565b600060208201905081810360008301526134df81612f9c565b9050919050565b600060208201905081810360008301526134ff81612fdc565b9050919050565b6000602082019050818103600083015261351f81613042565b9050919050565b6000602082019050818103600083015261353f816130a8565b9050919050565b6000602082019050818103600083015261355f8161310e565b9050919050565b6000602082019050818103600083015261357f81613174565b9050919050565b600060208201905061359b60008301846131e9565b92915050565b60006040820190506135b660008301856131e9565b6135c360208301846131e9565b9392505050565b6000604051905081810181811067ffffffffffffffff821117156135f1576135f0613917565b5b8060405250919050565b600067ffffffffffffffff82111561361657613615613917565b5b602082029050602081019050919050565b600067ffffffffffffffff82111561364257613641613917565b5b602082029050602081019050919050565b600067ffffffffffffffff82111561366e5761366d613917565b5b601f19601f8301169050602081019050919050565b6000819050602082019050919050565b600081519050919050565b600081519050919050565b600081519050919050565b6000602082019050919050565b600082825260208201905092915050565b600082825260208201905092915050565b600082825260208201905092915050565b60006136ff826137f2565b915061370a836137f2565b9250827fffffffffffffffffffffffffffffffffffffffffffffffffffffffffffffffff0382111561373f5761373e6138b9565b5b828201905092915050565b6000613755826137f2565b9150613760836137f2565b925082821015613773576137726138b9565b5b828203905092915050565b6000613789826137d2565b9050919050565b60008115159050919050565b6000819050919050565b60007fffffffff0000000000000000000000000000000000000000000000000000000082169050919050565b600073ffffffffffffffffffffffffffffffffffffffff82169050919050565b6000819050919050565b82818337600083830152505050565b60005b8381101561382957808201518184015260208101905061380e565b83811115613838576000848401525b50505050565b6000600282049050600182168061385657607f821691505b6020821081141561386a576138696138e8565b5b50919050565b600061387b826137f2565b91507fffffffffffffffffffffffffffffffffffffffffffffffffffffffffffffffff8214156138ae576138ad6138b9565b5b600182019050919050565b7f4e487b7100000000000000000000000000000000000000000000000000000000600052601160045260246000fd5b7f4e487b7100000000000000000000000000000000000000000000000000000000600052602260045260246000fd5b7f4e487b7100000000000000000000000000000000000000000000000000000000600052604160045260246000fd5b6000601f19601f8301169050919050565b60008160e01c9050919050565b600060443d101561397457613a17565b60046000803e613985600051613957565b6308c379a081146139965750613a17565b60405160043d036004823e80513d602482011167ffffffffffffffff821117156139c257505050613a17565b808201805167ffffffffffffffff8111156139e1575050505050613a17565b8060208301013d85018111156139fc57505050505050613a17565b613a0582613946565b60208401016040528296505050505050505b90565b613a238161377e565b8114613a2e57600080fd5b50565b613a3a81613790565b8114613a4557600080fd5b50565b613a518161379c565b8114613a5c57600080fd5b50565b613a68816137a6565b8114613a7357600080fd5b50565b613a7f816137f2565b8114613a8a57600080fd5b5056fea26469706673582212202cea17627d3f834eb43ff344a27f904017d1ccdf4770c2d19eefc5fe353e637864736f6c634300080000337361746f7368692d62652d6465762d323130353637393337322e75732d656173742d312e656c622e616d617a6f6e6177732e636f6d2f6170692f7075626c69632f746f6b656e732f7b69647d",
  "immutableReferences": {},
  "source": "// SPDX-License-Identifier: MIT\n\npragma solidity ^0.8.0;\n\n/**\n * @dev Interface of the ERC165 standard, as defined in the\n * https://eips.ethereum.org/EIPS/eip-165[EIP].\n *\n * Implementers can declare support of contract interfaces, which can then be\n * queried by others ({ERC165Checker}).\n *\n * For an implementation, see {ERC165}.\n */\ninterface IERC165 {\n    /**\n     * @dev Returns true if this contract implements the interface defined by\n     * `interfaceId`. See the corresponding\n     * https://eips.ethereum.org/EIPS/eip-165#how-interfaces-are-identified[EIP section]\n     * to learn more about how these ids are created.\n     *\n     * This function call must use less than 30 000 gas.\n     */\n    function supportsInterface(bytes4 interfaceId) external view returns (bool);\n}\n\n/**\n * @dev Required interface of an ERC1155 compliant contract, as defined in the\n * https://eips.ethereum.org/EIPS/eip-1155[EIP].\n *\n * _Available since v3.1._\n */\ninterface IERC1155 is IERC165 {\n    /**\n     * @dev Emitted when `value` tokens of token type `id` are transferred from `from` to `to` by `operator`.\n     */\n    event TransferSingle(\n        address indexed operator,\n        address indexed from,\n        address indexed to,\n        uint256 id,\n        uint256 value\n    );\n\n    /**\n     * @dev Equivalent to multiple {TransferSingle} events, where `operator`, `from` and `to` are the same for all\n     * transfers.\n     */\n    event TransferBatch(\n        address indexed operator,\n        address indexed from,\n        address indexed to,\n        uint256[] ids,\n        uint256[] values\n    );\n\n    /**\n     * @dev Emitted when `account` grants or revokes permission to `operator` to transfer their tokens, according to\n     * `approved`.\n     */\n    event ApprovalForAll(\n        address indexed account,\n        address indexed operator,\n        bool approved\n    );\n\n    /**\n     * @dev Emitted when the URI for token type `id` changes to `value`, if it is a non-programmatic URI.\n     *\n     * If an {URI} event was emitted for `id`, the standard\n     * https://eips.ethereum.org/EIPS/eip-1155#metadata-extensions[guarantees] that `value` will equal the value\n     * returned by {IERC1155MetadataURI-uri}.\n     */\n    event URI(string value, uint256 indexed id);\n\n    /**\n     * @dev Returns the amount of tokens of token type `id` owned by `account`.\n     *\n     * Requirements:\n     *\n     * - `account` cannot be the zero address.\n     */\n    function balanceOf(address account, uint256 id)\n        external\n        view\n        returns (uint256);\n\n    /**\n     * @dev xref:ROOT:erc1155.adoc#batch-operations[Batched] version of {balanceOf}.\n     *\n     * Requirements:\n     *\n     * - `accounts` and `ids` must have the same length.\n     */\n    function balanceOfBatch(address[] calldata accounts, uint256[] calldata ids)\n        external\n        view\n        returns (uint256[] memory);\n\n    /**\n     * @dev Grants or revokes permission to `operator` to transfer the caller's tokens, according to `approved`,\n     *\n     * Emits an {ApprovalForAll} event.\n     *\n     * Requirements:\n     *\n     * - `operator` cannot be the caller.\n     */\n    function setApprovalForAll(address operator, bool approved) external;\n\n    /**\n     * @dev Returns true if `operator` is approved to transfer ``account``'s tokens.\n     *\n     * See {setApprovalForAll}.\n     */\n    function isApprovedForAll(address account, address operator)\n        external\n        view\n        returns (bool);\n\n    /**\n     * @dev Transfers `amount` tokens of token type `id` from `from` to `to`.\n     *\n     * Emits a {TransferSingle} event.\n     *\n     * Requirements:\n     *\n     * - `to` cannot be the zero address.\n     * - If the caller is not `from`, it must be have been approved to spend ``from``'s tokens via {setApprovalForAll}.\n     * - `from` must have a balance of tokens of type `id` of at least `amount`.\n     * - If `to` refers to a smart contract, it must implement {IERC1155Receiver-onERC1155Received} and return the\n     * acceptance magic value.\n     */\n    function safeTransferFrom(\n        address from,\n        address to,\n        uint256 id,\n        uint256 amount,\n        bytes calldata data\n    ) external;\n\n    /**\n     * @dev xref:ROOT:erc1155.adoc#batch-operations[Batched] version of {safeTransferFrom}.\n     *\n     * Emits a {TransferBatch} event.\n     *\n     * Requirements:\n     *\n     * - `ids` and `amounts` must have the same length.\n     * - If `to` refers to a smart contract, it must implement {IERC1155Receiver-onERC1155BatchReceived} and return the\n     * acceptance magic value.\n     */\n    function safeBatchTransferFrom(\n        address from,\n        address to,\n        uint256[] calldata ids,\n        uint256[] calldata amounts,\n        bytes calldata data\n    ) external;\n}\n\n/**\n * _Available since v3.1._\n */\ninterface IERC1155Receiver is IERC165 {\n    /**\n        @dev Handles the receipt of a single ERC1155 token type. This function is\n        called at the end of a `safeTransferFrom` after the balance has been updated.\n        To accept the transfer, this must return\n        `bytes4(keccak256(\"onERC1155Received(address,address,uint256,uint256,bytes)\"))`\n        (i.e. 0xf23a6e61, or its own function selector).\n        @param operator The address which initiated the transfer (i.e. msg.sender)\n        @param from The address which previously owned the token\n        @param id The ID of the token being transferred\n        @param value The amount of tokens being transferred\n        @param data Additional data with no specified format\n        @return `bytes4(keccak256(\"onERC1155Received(address,address,uint256,uint256,bytes)\"))` if transfer is allowed\n    */\n    function onERC1155Received(\n        address operator,\n        address from,\n        uint256 id,\n        uint256 value,\n        bytes calldata data\n    ) external returns (bytes4);\n\n    /**\n        @dev Handles the receipt of a multiple ERC1155 token types. This function\n        is called at the end of a `safeBatchTransferFrom` after the balances have\n        been updated. To accept the transfer(s), this must return\n        `bytes4(keccak256(\"onERC1155BatchReceived(address,address,uint256[],uint256[],bytes)\"))`\n        (i.e. 0xbc197c81, or its own function selector).\n        @param operator The address which initiated the batch transfer (i.e. msg.sender)\n        @param from The address which previously owned the token\n        @param ids An array containing ids of each token being transferred (order and length must match values array)\n        @param values An array containing amounts of each token being transferred (order and length must match ids array)\n        @param data Additional data with no specified format\n        @return `bytes4(keccak256(\"onERC1155BatchReceived(address,address,uint256[],uint256[],bytes)\"))` if transfer is allowed\n    */\n    function onERC1155BatchReceived(\n        address operator,\n        address from,\n        uint256[] calldata ids,\n        uint256[] calldata values,\n        bytes calldata data\n    ) external returns (bytes4);\n}\n\n/**\n * @dev Interface of the optional ERC1155MetadataExtension interface, as defined\n * in the https://eips.ethereum.org/EIPS/eip-1155#metadata-extensions[EIP].\n *\n * _Available since v3.1._\n */\ninterface IERC1155MetadataURI is IERC1155 {\n    /**\n     * @dev Returns the URI for token type `id`.\n     *\n     * If the `\\{id\\}` substring is present in the URI, it must be replaced by\n     * clients with the actual token type ID.\n     */\n    function uri(uint256 id) external view returns (string memory);\n}\n\n/**\n * @dev Collection of functions related to the address type\n */\nlibrary Address {\n    /**\n     * @dev Returns true if `account` is a contract.\n     *\n     * [IMPORTANT]\n     * ====\n     * It is unsafe to assume that an address for which this function returns\n     * false is an externally-owned account (EOA) and not a contract.\n     *\n     * Among others, `isContract` will return false for the following\n     * types of addresses:\n     *\n     *  - an externally-owned account\n     *  - a contract in construction\n     *  - an address where a contract will be created\n     *  - an address where a contract lived, but was destroyed\n     * ====\n     */\n    function isContract(address account) internal view returns (bool) {\n        // This method relies on extcodesize, which returns 0 for contracts in\n        // construction, since the code is only stored at the end of the\n        // constructor execution.\n\n        uint256 size;\n        // solhint-disable-next-line no-inline-assembly\n        assembly {\n            size := extcodesize(account)\n        }\n        return size > 0;\n    }\n\n    /**\n     * @dev Replacement for Solidity's `transfer`: sends `amount` wei to\n     * `recipient`, forwarding all available gas and reverting on errors.\n     *\n     * https://eips.ethereum.org/EIPS/eip-1884[EIP1884] increases the gas cost\n     * of certain opcodes, possibly making contracts go over the 2300 gas limit\n     * imposed by `transfer`, making them unable to receive funds via\n     * `transfer`. {sendValue} removes this limitation.\n     *\n     * https://diligence.consensys.net/posts/2019/09/stop-using-soliditys-transfer-now/[Learn more].\n     *\n     * IMPORTANT: because control is transferred to `recipient`, care must be\n     * taken to not create reentrancy vulnerabilities. Consider using\n     * {ReentrancyGuard} or the\n     * https://solidity.readthedocs.io/en/v0.5.11/security-considerations.html#use-the-checks-effects-interactions-pattern[checks-effects-interactions pattern].\n     */\n    function sendValue(address payable recipient, uint256 amount) internal {\n        require(\n            address(this).balance >= amount,\n            \"Address: insufficient balance\"\n        );\n\n        // solhint-disable-next-line avoid-low-level-calls, avoid-call-value\n        (bool success, ) = recipient.call{value: amount}(\"\");\n        require(\n            success,\n            \"Address: unable to send value, recipient may have reverted\"\n        );\n    }\n\n    /**\n     * @dev Performs a Solidity function call using a low level `call`. A\n     * plain`call` is an unsafe replacement for a function call: use this\n     * function instead.\n     *\n     * If `target` reverts with a revert reason, it is bubbled up by this\n     * function (like regular Solidity function calls).\n     *\n     * Returns the raw returned data. To convert to the expected return value,\n     * use https://solidity.readthedocs.io/en/latest/units-and-global-variables.html?highlight=abi.decode#abi-encoding-and-decoding-functions[`abi.decode`].\n     *\n     * Requirements:\n     *\n     * - `target` must be a contract.\n     * - calling `target` with `data` must not revert.\n     *\n     * _Available since v3.1._\n     */\n    function functionCall(address target, bytes memory data)\n        internal\n        returns (bytes memory)\n    {\n        return functionCall(target, data, \"Address: low-level call failed\");\n    }\n\n    /**\n     * @dev Same as {xref-Address-functionCall-address-bytes-}[`functionCall`], but with\n     * `errorMessage` as a fallback revert reason when `target` reverts.\n     *\n     * _Available since v3.1._\n     */\n    function functionCall(\n        address target,\n        bytes memory data,\n        string memory errorMessage\n    ) internal returns (bytes memory) {\n        return functionCallWithValue(target, data, 0, errorMessage);\n    }\n\n    /**\n     * @dev Same as {xref-Address-functionCall-address-bytes-}[`functionCall`],\n     * but also transferring `value` wei to `target`.\n     *\n     * Requirements:\n     *\n     * - the calling contract must have an ETH balance of at least `value`.\n     * - the called Solidity function must be `payable`.\n     *\n     * _Available since v3.1._\n     */\n    function functionCallWithValue(\n        address target,\n        bytes memory data,\n        uint256 value\n    ) internal returns (bytes memory) {\n        return\n            functionCallWithValue(\n                target,\n                data,\n                value,\n                \"Address: low-level call with value failed\"\n            );\n    }\n\n    /**\n     * @dev Same as {xref-Address-functionCallWithValue-address-bytes-uint256-}[`functionCallWithValue`], but\n     * with `errorMessage` as a fallback revert reason when `target` reverts.\n     *\n     * _Available since v3.1._\n     */\n    function functionCallWithValue(\n        address target,\n        bytes memory data,\n        uint256 value,\n        string memory errorMessage\n    ) internal returns (bytes memory) {\n        require(\n            address(this).balance >= value,\n            \"Address: insufficient balance for call\"\n        );\n        require(isContract(target), \"Address: call to non-contract\");\n\n        // solhint-disable-next-line avoid-low-level-calls\n        (bool success, bytes memory returndata) =\n            target.call{value: value}(data);\n        return _verifyCallResult(success, returndata, errorMessage);\n    }\n\n    /**\n     * @dev Same as {xref-Address-functionCall-address-bytes-}[`functionCall`],\n     * but performing a static call.\n     *\n     * _Available since v3.3._\n     */\n    function functionStaticCall(address target, bytes memory data)\n        internal\n        view\n        returns (bytes memory)\n    {\n        return\n            functionStaticCall(\n                target,\n                data,\n                \"Address: low-level static call failed\"\n            );\n    }\n\n    /**\n     * @dev Same as {xref-Address-functionCall-address-bytes-string-}[`functionCall`],\n     * but performing a static call.\n     *\n     * _Available since v3.3._\n     */\n    function functionStaticCall(\n        address target,\n        bytes memory data,\n        string memory errorMessage\n    ) internal view returns (bytes memory) {\n        require(isContract(target), \"Address: static call to non-contract\");\n\n        // solhint-disable-next-line avoid-low-level-calls\n        (bool success, bytes memory returndata) = target.staticcall(data);\n        return _verifyCallResult(success, returndata, errorMessage);\n    }\n\n    /**\n     * @dev Same as {xref-Address-functionCall-address-bytes-}[`functionCall`],\n     * but performing a delegate call.\n     *\n     * _Available since v3.4._\n     */\n    function functionDelegateCall(address target, bytes memory data)\n        internal\n        returns (bytes memory)\n    {\n        return\n            functionDelegateCall(\n                target,\n                data,\n                \"Address: low-level delegate call failed\"\n            );\n    }\n\n    /**\n     * @dev Same as {xref-Address-functionCall-address-bytes-string-}[`functionCall`],\n     * but performing a delegate call.\n     *\n     * _Available since v3.4._\n     */\n    function functionDelegateCall(\n        address target,\n        bytes memory data,\n        string memory errorMessage\n    ) internal returns (bytes memory) {\n        require(isContract(target), \"Address: delegate call to non-contract\");\n\n        // solhint-disable-next-line avoid-low-level-calls\n        (bool success, bytes memory returndata) = target.delegatecall(data);\n        return _verifyCallResult(success, returndata, errorMessage);\n    }\n\n    function _verifyCallResult(\n        bool success,\n        bytes memory returndata,\n        string memory errorMessage\n    ) private pure returns (bytes memory) {\n        if (success) {\n            return returndata;\n        } else {\n            // Look for revert reason and bubble it up if present\n            if (returndata.length > 0) {\n                // The easiest way to bubble the revert reason is using memory via assembly\n\n                // solhint-disable-next-line no-inline-assembly\n                assembly {\n                    let returndata_size := mload(returndata)\n                    revert(add(32, returndata), returndata_size)\n                }\n            } else {\n                revert(errorMessage);\n            }\n        }\n    }\n}\n\n/*\n * @dev Provides information about the current execution context, including the\n * sender of the transaction and its data. While these are generally available\n * via msg.sender and msg.data, they should not be accessed in such a direct\n * manner, since when dealing with meta-transactions the account sending and\n * paying for execution may not be the actual sender (as far as an application\n * is concerned).\n *\n * This contract is only required for intermediate, library-like contracts.\n */\nabstract contract Context {\n    function _msgSender() internal view virtual returns (address) {\n        return msg.sender;\n    }\n\n    function _msgData() internal view virtual returns (bytes calldata) {\n        this; // silence state mutability warning without generating bytecode - see https://github.com/ethereum/solidity/issues/2691\n        return msg.data;\n    }\n}\n\n/**\n * @dev Implementation of the {IERC165} interface.\n *\n * Contracts that want to implement ERC165 should inherit from this contract and override {supportsInterface} to check\n * for the additional interface id that will be supported. For example:\n *\n * ```solidity\n * function supportsInterface(bytes4 interfaceId) public view virtual override returns (bool) {\n *     return interfaceId == type(MyInterface).interfaceId || super.supportsInterface(interfaceId);\n * }\n * ```\n *\n * Alternatively, {ERC165Storage} provides an easier to use but more expensive implementation.\n */\nabstract contract ERC165 is IERC165 {\n    /**\n     * @dev See {IERC165-supportsInterface}.\n     */\n    function supportsInterface(bytes4 interfaceId)\n        public\n        view\n        virtual\n        override\n        returns (bool)\n    {\n        return interfaceId == type(IERC165).interfaceId;\n    }\n}\n\n/**\n *\n * @dev Implementation of the basic standard multi-token.\n * See https://eips.ethereum.org/EIPS/eip-1155\n * Originally based on code by Enjin: https://github.com/enjin/erc-1155\n *\n * _Available since v3.1._\n */\ncontract ERC1155 is Context, ERC165, IERC1155, IERC1155MetadataURI {\n    using Address for address;\n\n    // Mapping from token ID to account balances\n    mapping(uint256 => mapping(address => uint256)) private _balances;\n\n    // Mapping from account to operator approvals\n    mapping(address => mapping(address => bool)) private _operatorApprovals;\n\n    // Used as the URI for all token types by relying on ID substitution, e.g. https://token-cdn-domain/{id}.json\n    string private _uri;\n\n    address private _owner;\n    address private _marketplace;\n    bool private _onlyMarketplace;\n\n    /**\n     * @dev See {_setURI}.\n     */\n    constructor(string memory uri_) {\n        _setURI(uri_);\n        _owner = _msgSender();\n        _marketplace = _msgSender();\n        _onlyMarketplace = true;\n    }\n\n    /**\n     * @dev See {IERC165-supportsInterface}.\n     */\n    function supportsInterface(bytes4 interfaceId)\n        public\n        view\n        virtual\n        override(ERC165, IERC165)\n        returns (bool)\n    {\n        return\n            interfaceId == type(IERC1155).interfaceId ||\n            interfaceId == type(IERC1155MetadataURI).interfaceId ||\n            super.supportsInterface(interfaceId);\n    }\n\n    function marketplace() external view returns (address) {\n        return _marketplace;\n    }\n\n    function setMarketplace(address marketplaceAddress) external {\n        require(_msgSender() == _owner);\n        _marketplace = marketplaceAddress;\n    }\n\n    function onlyMarketplace() external view returns (bool) {\n        return _onlyMarketplace;\n    }\n\n    function setOnlyMarketplace(bool onlyMarketplaceAddress) external {\n        require(_msgSender() == _owner);\n        _onlyMarketplace = onlyMarketplaceAddress;\n    }\n\n    /**\n     * @dev See {IERC1155MetadataURI-uri}.\n     *\n     * This implementation returns the same URI for *all* token types. It relies\n     * on the token type ID substitution mechanism\n     * https://eips.ethereum.org/EIPS/eip-1155#metadata[defined in the EIP].\n     *\n     * Clients calling this function must replace the `\\{id\\}` substring with the\n     * actual token type ID.\n     */\n    function uri(uint256) public view virtual override returns (string memory) {\n        return _uri;\n    }\n\n    /**\n     * @dev See {IERC1155-balanceOf}.\n     *\n     * Requirements:\n     *\n     * - `account` cannot be the zero address.\n     */\n    function balanceOf(address account, uint256 id)\n        public\n        view\n        virtual\n        override\n        returns (uint256)\n    {\n        require(\n            account != address(0),\n            \"ERC1155: balance query for the zero address\"\n        );\n        return _balances[id][account];\n    }\n\n    /**\n     * @dev See {IERC1155-balanceOfBatch}.\n     *\n     * Requirements:\n     *\n     * - `accounts` and `ids` must have the same length.\n     */\n    function balanceOfBatch(address[] memory accounts, uint256[] memory ids)\n        public\n        view\n        virtual\n        override\n        returns (uint256[] memory)\n    {\n        require(\n            accounts.length == ids.length,\n            \"ERC1155: accounts and ids length mismatch\"\n        );\n\n        uint256[] memory batchBalances = new uint256[](accounts.length);\n\n        for (uint256 i = 0; i < accounts.length; ++i) {\n            batchBalances[i] = balanceOf(accounts[i], ids[i]);\n        }\n\n        return batchBalances;\n    }\n\n    /**\n     * @dev See {IERC1155-setApprovalForAll}.\n     */\n    function setApprovalForAll(address operator, bool approved)\n        public\n        virtual\n        override\n    {\n        require(\n            _msgSender() != operator,\n            \"ERC1155: setting approval status for self\"\n        );\n\n        _operatorApprovals[_msgSender()][operator] = approved;\n        emit ApprovalForAll(_msgSender(), operator, approved);\n    }\n\n    /**\n     * @dev See {IERC1155-isApprovedForAll}.\n     */\n    function isApprovedForAll(address account, address operator)\n        public\n        view\n        virtual\n        override\n        returns (bool)\n    {\n        return _operatorApprovals[account][operator];\n    }\n\n    /**\n     * @dev See {IERC1155-safeTransferFrom}.\n     */\n    function safeTransferFrom(\n        address from,\n        address to,\n        uint256 id,\n        uint256 amount,\n        bytes memory data\n    ) public virtual override {\n        require(to != address(0), \"ERC1155: transfer to the zero address\");\n        require(\n            ((from == _msgSender() || isApprovedForAll(from, _msgSender())) &&\n                !_onlyMarketplace) ||\n                (_msgSender() == _marketplace && _onlyMarketplace),\n            \"ERC1155: transfer caller is not owner nor approved\"\n        );\n\n        address operator = _msgSender();\n\n        _beforeTokenTransfer(\n            operator,\n            from,\n            to,\n            _asSingletonArray(id),\n            _asSingletonArray(amount),\n            data\n        );\n\n        uint256 fromBalance = _balances[id][from];\n        require(\n            fromBalance >= amount,\n            \"ERC1155: insufficient balance for transfer\"\n        );\n        _balances[id][from] = fromBalance - amount;\n        _balances[id][to] += amount;\n\n        emit TransferSingle(operator, from, to, id, amount);\n\n        _doSafeTransferAcceptanceCheck(operator, from, to, id, amount, data);\n    }\n\n    /**\n     * @dev See {IERC1155-safeBatchTransferFrom}.\n     */\n    function safeBatchTransferFrom(\n        address from,\n        address to,\n        uint256[] memory ids,\n        uint256[] memory amounts,\n        bytes memory data\n    ) public virtual override {\n        require(\n            ids.length == amounts.length,\n            \"ERC1155: ids and amounts length mismatch\"\n        );\n        require(to != address(0), \"ERC1155: transfer to the zero address\");\n        require(\n            ((from == _msgSender() || isApprovedForAll(from, _msgSender())) &&\n                !_onlyMarketplace) ||\n                (_msgSender() == _marketplace && _onlyMarketplace),\n            \"ERC1155: transfer caller is not owner nor approved\"\n        );\n\n        address operator = _msgSender();\n\n        _beforeTokenTransfer(operator, from, to, ids, amounts, data);\n\n        for (uint256 i = 0; i < ids.length; ++i) {\n            uint256 id = ids[i];\n            uint256 amount = amounts[i];\n\n            uint256 fromBalance = _balances[id][from];\n            require(\n                fromBalance >= amount,\n                \"ERC1155: insufficient balance for transfer\"\n            );\n            _balances[id][from] = fromBalance - amount;\n            _balances[id][to] += amount;\n        }\n\n        emit TransferBatch(operator, from, to, ids, amounts);\n\n        _doSafeBatchTransferAcceptanceCheck(\n            operator,\n            from,\n            to,\n            ids,\n            amounts,\n            data\n        );\n    }\n\n    /**\n     * @dev Sets a new URI for all token types, by relying on the token type ID\n     * substitution mechanism\n     * https://eips.ethereum.org/EIPS/eip-1155#metadata[defined in the EIP].\n     *\n     * By this mechanism, any occurrence of the `\\{id\\}` substring in either the\n     * URI or any of the amounts in the JSON file at said URI will be replaced by\n     * clients with the token type ID.\n     *\n     * For example, the `https://token-cdn-domain/\\{id\\}.json` URI would be\n     * interpreted by clients as\n     * `https://token-cdn-domain/000000000000000000000000000000000000000000000000000000000004cce0.json`\n     * for token type ID 0x4cce0.\n     *\n     * See {uri}.\n     *\n     * Because these URIs cannot be meaningfully represented by the {URI} event,\n     * this function emits no events.\n     */\n    function _setURI(string memory newuri) internal virtual {\n        _uri = newuri;\n    }\n\n    /**\n     * @dev Creates `amount` tokens of token type `id`, and assigns them to `account`.\n     *\n     * Emits a {TransferSingle} event.\n     *\n     * Requirements:\n     *\n     * - `account` cannot be the zero address.\n     * - If `account` refers to a smart contract, it must implement {IERC1155Receiver-onERC1155Received} and return the\n     * acceptance magic value.\n     */\n    function _mint(\n        address account,\n        uint256 id,\n        uint256 amount,\n        bytes memory data\n    ) internal virtual {\n        require(account != address(0), \"ERC1155: mint to the zero address\");\n\n        address operator = _msgSender();\n\n        _beforeTokenTransfer(\n            operator,\n            address(0),\n            account,\n            _asSingletonArray(id),\n            _asSingletonArray(amount),\n            data\n        );\n\n        _balances[id][account] += amount;\n        emit TransferSingle(operator, address(0), account, id, amount);\n\n        _doSafeTransferAcceptanceCheck(\n            operator,\n            address(0),\n            account,\n            id,\n            amount,\n            data\n        );\n    }\n\n    /**\n     * @dev xref:ROOT:erc1155.adoc#batch-operations[Batched] version of {_mint}.\n     *\n     * Requirements:\n     *\n     * - `ids` and `amounts` must have the same length.\n     * - If `to` refers to a smart contract, it must implement {IERC1155Receiver-onERC1155BatchReceived} and return the\n     * acceptance magic value.\n     */\n    function _mintBatch(\n        address to,\n        uint256[] memory ids,\n        uint256[] memory amounts,\n        bytes memory data\n    ) internal virtual {\n        require(to != address(0), \"ERC1155: mint to the zero address\");\n        require(\n            ids.length == amounts.length,\n            \"ERC1155: ids and amounts length mismatch\"\n        );\n\n        address operator = _msgSender();\n\n        _beforeTokenTransfer(operator, address(0), to, ids, amounts, data);\n\n        for (uint256 i = 0; i < ids.length; i++) {\n            _balances[ids[i]][to] += amounts[i];\n        }\n\n        emit TransferBatch(operator, address(0), to, ids, amounts);\n\n        _doSafeBatchTransferAcceptanceCheck(\n            operator,\n            address(0),\n            to,\n            ids,\n            amounts,\n            data\n        );\n    }\n\n    /**\n     * @dev Destroys `amount` tokens of token type `id` from `account`\n     *\n     * Requirements:\n     *\n     * - `account` cannot be the zero address.\n     * - `account` must have at least `amount` tokens of token type `id`.\n     */\n    function _burn(\n        address account,\n        uint256 id,\n        uint256 amount\n    ) internal virtual {\n        require(account != address(0), \"ERC1155: burn from the zero address\");\n\n        address operator = _msgSender();\n\n        _beforeTokenTransfer(\n            operator,\n            account,\n            address(0),\n            _asSingletonArray(id),\n            _asSingletonArray(amount),\n            \"\"\n        );\n\n        uint256 accountBalance = _balances[id][account];\n        require(\n            accountBalance >= amount,\n            \"ERC1155: burn amount exceeds balance\"\n        );\n        _balances[id][account] = accountBalance - amount;\n\n        emit TransferSingle(operator, account, address(0), id, amount);\n    }\n\n    /**\n     * @dev xref:ROOT:erc1155.adoc#batch-operations[Batched] version of {_burn}.\n     *\n     * Requirements:\n     *\n     * - `ids` and `amounts` must have the same length.\n     */\n    function _burnBatch(\n        address account,\n        uint256[] memory ids,\n        uint256[] memory amounts\n    ) internal virtual {\n        require(account != address(0), \"ERC1155: burn from the zero address\");\n        require(\n            ids.length == amounts.length,\n            \"ERC1155: ids and amounts length mismatch\"\n        );\n\n        address operator = _msgSender();\n\n        _beforeTokenTransfer(operator, account, address(0), ids, amounts, \"\");\n\n        for (uint256 i = 0; i < ids.length; i++) {\n            uint256 id = ids[i];\n            uint256 amount = amounts[i];\n\n            uint256 accountBalance = _balances[id][account];\n            require(\n                accountBalance >= amount,\n                \"ERC1155: burn amount exceeds balance\"\n            );\n            _balances[id][account] = accountBalance - amount;\n        }\n\n        emit TransferBatch(operator, account, address(0), ids, amounts);\n    }\n\n    /**\n     * @dev Hook that is called before any token transfer. This includes minting\n     * and burning, as well as batched variants.\n     *\n     * The same hook is called on both single and batched variants. For single\n     * transfers, the length of the `id` and `amount` arrays will be 1.\n     *\n     * Calling conditions (for each `id` and `amount` pair):\n     *\n     * - When `from` and `to` are both non-zero, `amount` of ``from``'s tokens\n     * of token type `id` will be  transferred to `to`.\n     * - When `from` is zero, `amount` tokens of token type `id` will be minted\n     * for `to`.\n     * - when `to` is zero, `amount` of ``from``'s tokens of token type `id`\n     * will be burned.\n     * - `from` and `to` are never both zero.\n     * - `ids` and `amounts` have the same, non-zero length.\n     *\n     * To learn more about hooks, head to xref:ROOT:extending-contracts.adoc#using-hooks[Using Hooks].\n     */\n    function _beforeTokenTransfer(\n        address operator,\n        address from,\n        address to,\n        uint256[] memory ids,\n        uint256[] memory amounts,\n        bytes memory data\n    ) internal virtual {}\n\n    function _doSafeTransferAcceptanceCheck(\n        address operator,\n        address from,\n        address to,\n        uint256 id,\n        uint256 amount,\n        bytes memory data\n    ) private {\n        if (to.isContract()) {\n            try\n                IERC1155Receiver(to).onERC1155Received(\n                    operator,\n                    from,\n                    id,\n                    amount,\n                    data\n                )\n            returns (bytes4 response) {\n                if (\n                    response != IERC1155Receiver(to).onERC1155Received.selector\n                ) {\n                    revert(\"ERC1155: ERC1155Receiver rejected tokens\");\n                }\n            } catch Error(string memory reason) {\n                revert(reason);\n            } catch {\n                revert(\"ERC1155: transfer to non ERC1155Receiver implementer\");\n            }\n        }\n    }\n\n    function _doSafeBatchTransferAcceptanceCheck(\n        address operator,\n        address from,\n        address to,\n        uint256[] memory ids,\n        uint256[] memory amounts,\n        bytes memory data\n    ) private {\n        if (to.isContract()) {\n            try\n                IERC1155Receiver(to).onERC1155BatchReceived(\n                    operator,\n                    from,\n                    ids,\n                    amounts,\n                    data\n                )\n            returns (bytes4 response) {\n                if (\n                    response !=\n                    IERC1155Receiver(to).onERC1155BatchReceived.selector\n                ) {\n                    revert(\"ERC1155: ERC1155Receiver rejected tokens\");\n                }\n            } catch Error(string memory reason) {\n                revert(reason);\n            } catch {\n                revert(\"ERC1155: transfer to non ERC1155Receiver implementer\");\n            }\n        }\n    }\n\n    function _asSingletonArray(uint256 element)\n        private\n        pure\n        returns (uint256[] memory)\n    {\n        uint256[] memory array = new uint256[](1);\n        array[0] = element;\n\n        return array;\n    }\n}\n\n/**\n * @dev External interface of AccessControl declared to support ERC165 detection.\n */\ninterface IAccessControl {\n    function hasRole(bytes32 role, address account)\n        external\n        view\n        returns (bool);\n\n    function getRoleAdmin(bytes32 role) external view returns (bytes32);\n\n    function grantRole(bytes32 role, address account) external;\n\n    function revokeRole(bytes32 role, address account) external;\n\n    function renounceRole(bytes32 role, address account) external;\n}\n\n/**\n * @dev Contract module that allows children to implement role-based access\n * control mechanisms. This is a lightweight version that doesn't allow enumerating role\n * members except through off-chain means by accessing the contract event logs. Some\n * applications may benefit from on-chain enumerability, for those cases see\n * {AccessControlEnumerable}.\n *\n * Roles are referred to by their `bytes32` identifier. These should be exposed\n * in the external API and be unique. The best way to achieve this is by\n * using `public constant` hash digests:\n *\n * ```\n * bytes32 public constant MY_ROLE = keccak256(\"MY_ROLE\");\n * ```\n *\n * Roles can be used to represent a set of permissions. To restrict access to a\n * function call, use {hasRole}:\n *\n * ```\n * function foo() public {\n *     require(hasRole(MY_ROLE, msg.sender));\n *     ...\n * }\n * ```\n *\n * Roles can be granted and revoked dynamically via the {grantRole} and\n * {revokeRole} functions. Each role has an associated admin role, and only\n * accounts that have a role's admin role can call {grantRole} and {revokeRole}.\n *\n * By default, the admin role for all roles is `DEFAULT_ADMIN_ROLE`, which means\n * that only accounts with this role will be able to grant or revoke other\n * roles. More complex role relationships can be created by using\n * {_setRoleAdmin}.\n *\n * WARNING: The `DEFAULT_ADMIN_ROLE` is also its own admin: it has permission to\n * grant and revoke this role. Extra precautions should be taken to secure\n * accounts that have been granted it.\n */\nabstract contract AccessControl is Context, IAccessControl, ERC165 {\n    struct RoleData {\n        mapping(address => bool) members;\n        bytes32 adminRole;\n    }\n\n    mapping(bytes32 => RoleData) private _roles;\n\n    bytes32 public constant DEFAULT_ADMIN_ROLE = 0x00;\n\n    /**\n     * @dev Emitted when `newAdminRole` is set as ``role``'s admin role, replacing `previousAdminRole`\n     *\n     * `DEFAULT_ADMIN_ROLE` is the starting admin for all roles, despite\n     * {RoleAdminChanged} not being emitted signaling this.\n     *\n     * _Available since v3.1._\n     */\n    event RoleAdminChanged(\n        bytes32 indexed role,\n        bytes32 indexed previousAdminRole,\n        bytes32 indexed newAdminRole\n    );\n\n    /**\n     * @dev Emitted when `account` is granted `role`.\n     *\n     * `sender` is the account that originated the contract call, an admin role\n     * bearer except when using {_setupRole}.\n     */\n    event RoleGranted(\n        bytes32 indexed role,\n        address indexed account,\n        address indexed sender\n    );\n\n    /**\n     * @dev Emitted when `account` is revoked `role`.\n     *\n     * `sender` is the account that originated the contract call:\n     *   - if using `revokeRole`, it is the admin role bearer\n     *   - if using `renounceRole`, it is the role bearer (i.e. `account`)\n     */\n    event RoleRevoked(\n        bytes32 indexed role,\n        address indexed account,\n        address indexed sender\n    );\n\n    /**\n     * @dev See {IERC165-supportsInterface}.\n     */\n    function supportsInterface(bytes4 interfaceId)\n        public\n        view\n        virtual\n        override\n        returns (bool)\n    {\n        return\n            interfaceId == type(IAccessControl).interfaceId ||\n            super.supportsInterface(interfaceId);\n    }\n\n    /**\n     * @dev Returns `true` if `account` has been granted `role`.\n     */\n    function hasRole(bytes32 role, address account)\n        public\n        view\n        override\n        returns (bool)\n    {\n        return _roles[role].members[account];\n    }\n\n    /**\n     * @dev Returns the admin role that controls `role`. See {grantRole} and\n     * {revokeRole}.\n     *\n     * To change a role's admin, use {_setRoleAdmin}.\n     */\n    function getRoleAdmin(bytes32 role) public view override returns (bytes32) {\n        return _roles[role].adminRole;\n    }\n\n    /**\n     * @dev Grants `role` to `account`.\n     *\n     * If `account` had not been already granted `role`, emits a {RoleGranted}\n     * event.\n     *\n     * Requirements:\n     *\n     * - the caller must have ``role``'s admin role.\n     */\n    function grantRole(bytes32 role, address account) public virtual override {\n        require(\n            hasRole(getRoleAdmin(role), _msgSender()),\n            \"AccessControl: sender must be an admin to grant\"\n        );\n\n        _grantRole(role, account);\n    }\n\n    /**\n     * @dev Revokes `role` from `account`.\n     *\n     * If `account` had been granted `role`, emits a {RoleRevoked} event.\n     *\n     * Requirements:\n     *\n     * - the caller must have ``role``'s admin role.\n     */\n    function revokeRole(bytes32 role, address account) public virtual override {\n        require(\n            hasRole(getRoleAdmin(role), _msgSender()),\n            \"AccessControl: sender must be an admin to revoke\"\n        );\n\n        _revokeRole(role, account);\n    }\n\n    /**\n     * @dev Revokes `role` from the calling account.\n     *\n     * Roles are often managed via {grantRole} and {revokeRole}: this function's\n     * purpose is to provide a mechanism for accounts to lose their privileges\n     * if they are compromised (such as when a trusted device is misplaced).\n     *\n     * If the calling account had been granted `role`, emits a {RoleRevoked}\n     * event.\n     *\n     * Requirements:\n     *\n     * - the caller must be `account`.\n     */\n    function renounceRole(bytes32 role, address account)\n        public\n        virtual\n        override\n    {\n        require(\n            account == _msgSender(),\n            \"AccessControl: can only renounce roles for self\"\n        );\n\n        _revokeRole(role, account);\n    }\n\n    /**\n     * @dev Grants `role` to `account`.\n     *\n     * If `account` had not been already granted `role`, emits a {RoleGranted}\n     * event. Note that unlike {grantRole}, this function doesn't perform any\n     * checks on the calling account.\n     *\n     * [WARNING]\n     * ====\n     * This function should only be called from the constructor when setting\n     * up the initial roles for the system.\n     *\n     * Using this function in any other way is effectively circumventing the admin\n     * system imposed by {AccessControl}.\n     * ====\n     */\n    function _setupRole(bytes32 role, address account) internal virtual {\n        _grantRole(role, account);\n    }\n\n    /**\n     * @dev Sets `adminRole` as ``role``'s admin role.\n     *\n     * Emits a {RoleAdminChanged} event.\n     */\n    function _setRoleAdmin(bytes32 role, bytes32 adminRole) internal virtual {\n        emit RoleAdminChanged(role, getRoleAdmin(role), adminRole);\n        _roles[role].adminRole = adminRole;\n    }\n\n    function _grantRole(bytes32 role, address account) private {\n        if (!hasRole(role, account)) {\n            _roles[role].members[account] = true;\n            emit RoleGranted(role, account, _msgSender());\n        }\n    }\n\n    function _revokeRole(bytes32 role, address account) private {\n        if (hasRole(role, account)) {\n            _roles[role].members[account] = false;\n            emit RoleRevoked(role, account, _msgSender());\n        }\n    }\n}\n\n/**\n * @title Counters\n * @author Matt Condon (@shrugs)\n * @dev Provides counters that can only be incremented or decremented by one. This can be used e.g. to track the number\n * of elements in a mapping, issuing ERC721 ids, or counting request ids.\n *\n * Include with `using Counters for Counters.Counter;`\n * Since it is not possible to overflow a 256 bit integer with increments of one, `increment` can skip the {SafeMath}\n * overflow check, thereby saving gas. This does assume however correct usage, in that the underlying `_value` is never\n * directly accessed.\n */\nlibrary Counters {\n    struct Counter {\n        // This variable should never be directly accessed by users of the library: interactions must be restricted to\n        // the library's function. As of Solidity v0.5.2, this cannot be enforced, though there is a proposal to add\n        // this feature: see https://github.com/ethereum/solidity/issues/4637\n        uint256 _value; // default: 0\n    }\n\n    function current(Counter storage counter) internal view returns (uint256) {\n        return counter._value;\n    }\n\n    function increment(Counter storage counter) internal {\n        // The {SafeMath} overflow check can be skipped here, see the comment at the top\n        counter._value += 1;\n    }\n\n    function decrement(Counter storage counter) internal {\n        counter._value = counter._value - 1;\n    }\n}\n\ncontract SatoshiART1155 is ERC1155, AccessControl {\n    using Counters for Counters.Counter;\n\n    Counters.Counter private _tokenIds;\n\n    struct Token {\n        address creator;\n        uint256 royalty;\n    }\n    mapping(uint256 => Token) private _token;\n\n    bytes32 public constant CREATOR_ROLE = keccak256(\"CREATOR_ROLE\");\n\n    bool private _anyAddressCanCreateItem = false;\n\n    event ApprovalForItemCreator(\n        address contractOwner,\n        address itemCreator,\n        bool approved\n    );\n\n    constructor()\n        ERC1155(\n            \"satoshi-be-dev-2105679372.us-east-1.elb.amazonaws.com/api/public/tokens/{id}\"\n        )\n    {\n        _setupRole(DEFAULT_ADMIN_ROLE, _msgSender());\n    }\n\n    function supportsInterface(bytes4 interfaceId)\n        public\n        view\n        virtual\n        override(ERC1155, AccessControl)\n        returns (bool)\n    {\n        return super.supportsInterface(interfaceId);\n    }\n\n    function setAnyAddressCanCreateItem(bool isAnyAddressCanCreateItem) public {\n        require(\n            hasRole(DEFAULT_ADMIN_ROLE, _msgSender()),\n            \"Caller is not an admin\"\n        );\n        _anyAddressCanCreateItem = isAnyAddressCanCreateItem;\n    }\n\n    function anyAddressCanCreateItem() public view returns (bool) {\n        return _anyAddressCanCreateItem;\n    }\n\n    function createItem(\n        uint256 amount,\n        uint256 royalty //multiplier:10000\n    ) external returns (uint256[] memory) {\n        require(\n            _anyAddressCanCreateItem || hasRole(CREATOR_ROLE, _msgSender()),\n            \"Address is not approved for creating new item.\"\n        );\n        require(royalty <= 1000, \"Royalty is too high\");\n\n        uint256[] memory newItemIds = new uint256[](amount);\n        uint256[] memory amounts = new uint256[](amount);\n        for (uint256 i = 0; i < amount; i++) {\n            _tokenIds.increment();\n            newItemIds[i] = _tokenIds.current();\n            amounts[i] = 1;\n        }\n        _mintBatch(_msgSender(), newItemIds, amounts, \"\");\n\n        for (uint256 i = 0; i < newItemIds.length; i++) {\n            _token[newItemIds[i]] = Token({\n                creator: _msgSender(),\n                royalty: royalty\n            });\n        }\n\n        return newItemIds;\n    }\n\n    function tokenCreator(uint256 _id) external view returns (address) {\n        return _token[_id].creator;\n    }\n\n    function tokenRoyalty(uint256 _id) external view returns (uint256) {\n        return _token[_id].royalty;\n    }\n}\n",
  "sourcePath": "/Users/shumeiliang/Documents/projects/fintelics/satoshi/satoshi1155/contracts/SatoshiART1155.sol",
  "compiler": {
    "name": "solc",
    "version": "0.8.0+commit.c7dfd78e.Emscripten.clang"
  },
  "schemaVersion": "3.4.0",
  "updatedAt": "2021-06-11T16:22:42.836Z",
  "networkType": "ethereum",
  "devdoc": {
    "kind": "dev",
    "methods": {
      "balanceOf(address,uint256)": {
        "details": "See {IERC1155-balanceOf}. Requirements: - `account` cannot be the zero address."
      },
      "balanceOfBatch(address[],uint256[])": {
        "details": "See {IERC1155-balanceOfBatch}. Requirements: - `accounts` and `ids` must have the same length."
      },
      "getRoleAdmin(bytes32)": {
        "details": "Returns the admin role that controls `role`. See {grantRole} and {revokeRole}. To change a role's admin, use {_setRoleAdmin}."
      },
      "grantRole(bytes32,address)": {
        "details": "Grants `role` to `account`. If `account` had not been already granted `role`, emits a {RoleGranted} event. Requirements: - the caller must have ``role``'s admin role."
      },
      "hasRole(bytes32,address)": {
        "details": "Returns `true` if `account` has been granted `role`."
      },
      "isApprovedForAll(address,address)": {
        "details": "See {IERC1155-isApprovedForAll}."
      },
      "renounceRole(bytes32,address)": {
        "details": "Revokes `role` from the calling account. Roles are often managed via {grantRole} and {revokeRole}: this function's purpose is to provide a mechanism for accounts to lose their privileges if they are compromised (such as when a trusted device is misplaced). If the calling account had been granted `role`, emits a {RoleRevoked} event. Requirements: - the caller must be `account`."
      },
      "revokeRole(bytes32,address)": {
        "details": "Revokes `role` from `account`. If `account` had been granted `role`, emits a {RoleRevoked} event. Requirements: - the caller must have ``role``'s admin role."
      },
      "safeBatchTransferFrom(address,address,uint256[],uint256[],bytes)": {
        "details": "See {IERC1155-safeBatchTransferFrom}."
      },
      "safeTransferFrom(address,address,uint256,uint256,bytes)": {
        "details": "See {IERC1155-safeTransferFrom}."
      },
      "setApprovalForAll(address,bool)": {
        "details": "See {IERC1155-setApprovalForAll}."
      },
      "uri(uint256)": {
        "details": "See {IERC1155MetadataURI-uri}. This implementation returns the same URI for *all* token types. It relies on the token type ID substitution mechanism https://eips.ethereum.org/EIPS/eip-1155#metadata[defined in the EIP]. Clients calling this function must replace the `\\{id\\}` substring with the actual token type ID."
      }
    },
    "version": 1
  },
  "userdoc": {
    "kind": "user",
    "methods": {},
    "version": 1
  }
}