{
  "contractName": "SatoshiART1155Marketplace",
  "abi": [
    {
      "inputs": [
        {
          "internalType": "address",
          "name": "satoshiART1155Address",
          "type": "address"
        }
      ],
      "stateMutability": "nonpayable",
      "type": "constructor"
    },
    {
      "anonymous": false,
      "inputs": [
        {
          "indexed": false,
          "internalType": "uint256",
          "name": "tokenId",
          "type": "uint256"
        },
        {
          "indexed": false,
          "internalType": "address",
          "name": "itemOwner",
          "type": "address"
        },
        {
          "indexed": false,
          "internalType": "address",
          "name": "winner",
          "type": "address"
        },
        {
          "indexed": false,
          "internalType": "uint256",
          "name": "amount",
          "type": "uint256"
        }
      ],
      "name": "AuctionEnded",
      "type": "event"
    },
    {
      "anonymous": false,
      "inputs": [
        {
          "indexed": false,
          "internalType": "uint256",
          "name": "tokenId",
          "type": "uint256"
        },
        {
          "indexed": false,
          "internalType": "address",
          "name": "itemOwner",
          "type": "address"
        },
        {
          "indexed": false,
          "internalType": "address",
          "name": "bidder",
          "type": "address"
        },
        {
          "indexed": false,
          "internalType": "uint256",
          "name": "amount",
          "type": "uint256"
        }
      ],
      "name": "HighestBidIncreased",
      "type": "event"
    },
    {
      "anonymous": false,
      "inputs": [
        {
          "indexed": false,
          "internalType": "uint256",
          "name": "amount",
          "type": "uint256"
        }
      ],
      "name": "PaymentWithdrawed",
      "type": "event"
    },
    {
      "anonymous": false,
      "inputs": [
        {
          "indexed": false,
          "internalType": "uint256",
          "name": "tokenId",
          "type": "uint256"
        },
        {
          "indexed": false,
          "internalType": "address",
          "name": "itemOwner",
          "type": "address"
        },
        {
          "indexed": false,
          "internalType": "address",
          "name": "buyer",
          "type": "address"
        }
      ],
      "name": "PurchaseConfirmed",
      "type": "event"
    },
    {
      "anonymous": false,
      "inputs": [
        {
          "indexed": true,
          "internalType": "bytes32",
          "name": "role",
          "type": "bytes32"
        },
        {
          "indexed": true,
          "internalType": "bytes32",
          "name": "previousAdminRole",
          "type": "bytes32"
        },
        {
          "indexed": true,
          "internalType": "bytes32",
          "name": "newAdminRole",
          "type": "bytes32"
        }
      ],
      "name": "RoleAdminChanged",
      "type": "event"
    },
    {
      "anonymous": false,
      "inputs": [
        {
          "indexed": true,
          "internalType": "bytes32",
          "name": "role",
          "type": "bytes32"
        },
        {
          "indexed": true,
          "internalType": "address",
          "name": "account",
          "type": "address"
        },
        {
          "indexed": true,
          "internalType": "address",
          "name": "sender",
          "type": "address"
        }
      ],
      "name": "RoleGranted",
      "type": "event"
    },
    {
      "anonymous": false,
      "inputs": [
        {
          "indexed": true,
          "internalType": "bytes32",
          "name": "role",
          "type": "bytes32"
        },
        {
          "indexed": true,
          "internalType": "address",
          "name": "account",
          "type": "address"
        },
        {
          "indexed": true,
          "internalType": "address",
          "name": "sender",
          "type": "address"
        }
      ],
      "name": "RoleRevoked",
      "type": "event"
    },
    {
      "inputs": [],
      "name": "DEFAULT_ADMIN_ROLE",
      "outputs": [
        {
          "internalType": "bytes32",
          "name": "",
          "type": "bytes32"
        }
      ],
      "stateMutability": "view",
      "type": "function",
      "constant": true
    },
    {
      "inputs": [],
      "name": "DROP_OF_THE_DAY_CREATOR_ROLE",
      "outputs": [
        {
          "internalType": "bytes32",
          "name": "",
          "type": "bytes32"
        }
      ],
      "stateMutability": "view",
      "type": "function",
      "constant": true
    },
    {
      "inputs": [
        {
          "internalType": "bytes32",
          "name": "role",
          "type": "bytes32"
        }
      ],
      "name": "getRoleAdmin",
      "outputs": [
        {
          "internalType": "bytes32",
          "name": "",
          "type": "bytes32"
        }
      ],
      "stateMutability": "view",
      "type": "function",
      "constant": true
    },
    {
      "inputs": [
        {
          "internalType": "bytes32",
          "name": "role",
          "type": "bytes32"
        },
        {
          "internalType": "address",
          "name": "account",
          "type": "address"
        }
      ],
      "name": "grantRole",
      "outputs": [],
      "stateMutability": "nonpayable",
      "type": "function"
    },
    {
      "inputs": [
        {
          "internalType": "bytes32",
          "name": "role",
          "type": "bytes32"
        },
        {
          "internalType": "address",
          "name": "account",
          "type": "address"
        }
      ],
      "name": "hasRole",
      "outputs": [
        {
          "internalType": "bool",
          "name": "",
          "type": "bool"
        }
      ],
      "stateMutability": "view",
      "type": "function",
      "constant": true
    },
    {
      "inputs": [
        {
          "internalType": "bytes32",
          "name": "role",
          "type": "bytes32"
        },
        {
          "internalType": "address",
          "name": "account",
          "type": "address"
        }
      ],
      "name": "renounceRole",
      "outputs": [],
      "stateMutability": "nonpayable",
      "type": "function"
    },
    {
      "inputs": [
        {
          "internalType": "bytes32",
          "name": "role",
          "type": "bytes32"
        },
        {
          "internalType": "address",
          "name": "account",
          "type": "address"
        }
      ],
      "name": "revokeRole",
      "outputs": [],
      "stateMutability": "nonpayable",
      "type": "function"
    },
    {
      "inputs": [],
      "name": "satoshiART1155",
      "outputs": [
        {
          "internalType": "contract ISatoshiART1155",
          "name": "",
          "type": "address"
        }
      ],
      "stateMutability": "view",
      "type": "function",
      "constant": true
    },
    {
      "inputs": [
        {
          "internalType": "bytes4",
          "name": "interfaceId",
          "type": "bytes4"
        }
      ],
      "name": "supportsInterface",
      "outputs": [
        {
          "internalType": "bool",
          "name": "",
          "type": "bool"
        }
      ],
      "stateMutability": "view",
      "type": "function",
      "constant": true
    },
    {
      "inputs": [],
      "name": "commissionReceiver",
      "outputs": [
        {
          "internalType": "address",
          "name": "",
          "type": "address"
        }
      ],
      "stateMutability": "view",
      "type": "function",
      "constant": true
    },
    {
      "inputs": [
        {
          "internalType": "address",
          "name": "user",
          "type": "address"
        }
      ],
      "name": "setCommissionReceiver",
      "outputs": [
        {
          "internalType": "bool",
          "name": "",
          "type": "bool"
        }
      ],
      "stateMutability": "nonpayable",
      "type": "function"
    },
    {
      "inputs": [],
      "name": "defaultCommission",
      "outputs": [
        {
          "internalType": "uint256",
          "name": "",
          "type": "uint256"
        }
      ],
      "stateMutability": "view",
      "type": "function",
      "constant": true
    },
    {
      "inputs": [],
      "name": "defaultAuctionCommission",
      "outputs": [
        {
          "internalType": "uint256",
          "name": "",
          "type": "uint256"
        }
      ],
      "stateMutability": "view",
      "type": "function",
      "constant": true
    },
    {
      "inputs": [
        {
          "internalType": "uint256",
          "name": "commission",
          "type": "uint256"
        }
      ],
      "name": "setDefaultCommission",
      "outputs": [
        {
          "internalType": "bool",
          "name": "",
          "type": "bool"
        }
      ],
      "stateMutability": "nonpayable",
      "type": "function"
    },
    {
      "inputs": [
        {
          "internalType": "uint256",
          "name": "commission",
          "type": "uint256"
        }
      ],
      "name": "setDefaultAuctionCommission",
      "outputs": [
        {
          "internalType": "bool",
          "name": "",
          "type": "bool"
        }
      ],
      "stateMutability": "nonpayable",
      "type": "function"
    },
    {
      "inputs": [
        {
          "internalType": "uint256",
          "name": "tokenId",
          "type": "uint256"
        },
        {
          "internalType": "bytes1",
          "name": "status",
          "type": "bytes1"
        },
        {
          "internalType": "uint256",
          "name": "price",
          "type": "uint256"
        },
        {
          "internalType": "uint256",
          "name": "startTime",
          "type": "uint256"
        },
        {
          "internalType": "uint256",
          "name": "endTime",
          "type": "uint256"
        },
        {
          "internalType": "uint256",
          "name": "dropOfTheDayCommission",
          "type": "uint256"
        },
        {
          "internalType": "bool",
          "name": "isDropOfTheDay",
          "type": "bool"
        }
      ],
      "name": "setListing",
      "outputs": [],
      "stateMutability": "nonpayable",
      "type": "function"
    },
    {
      "inputs": [
        {
          "internalType": "address",
          "name": "account",
          "type": "address"
        },
        {
          "internalType": "uint256",
          "name": "tokenId",
          "type": "uint256"
        }
      ],
      "name": "listingOf",
      "outputs": [
        {
          "internalType": "bytes1",
          "name": "",
          "type": "bytes1"
        },
        {
          "internalType": "uint256",
          "name": "",
          "type": "uint256"
        },
        {
          "internalType": "uint256",
          "name": "",
          "type": "uint256"
        },
        {
          "internalType": "uint256",
          "name": "",
          "type": "uint256"
        },
        {
          "internalType": "uint256",
          "name": "",
          "type": "uint256"
        },
        {
          "internalType": "bool",
          "name": "",
          "type": "bool"
        },
        {
          "internalType": "address",
          "name": "",
          "type": "address"
        },
        {
          "internalType": "uint256",
          "name": "",
          "type": "uint256"
        }
      ],
      "stateMutability": "view",
      "type": "function",
      "constant": true
    },
    {
      "inputs": [
        {
          "internalType": "uint256",
          "name": "tokenId",
          "type": "uint256"
        },
        {
          "internalType": "address",
          "name": "itemOwner",
          "type": "address"
        }
      ],
      "name": "buy",
      "outputs": [
        {
          "internalType": "bool",
          "name": "",
          "type": "bool"
        }
      ],
      "stateMutability": "payable",
      "type": "function",
      "payable": true
    },
    {
      "inputs": [],
      "name": "withdrawPayment",
      "outputs": [
        {
          "internalType": "bool",
          "name": "",
          "type": "bool"
        }
      ],
      "stateMutability": "nonpayable",
      "type": "function"
    },
    {
      "inputs": [
        {
          "internalType": "address",
          "name": "user",
          "type": "address"
        }
      ],
      "name": "outstandingPayment",
      "outputs": [
        {
          "internalType": "uint256",
          "name": "",
          "type": "uint256"
        }
      ],
      "stateMutability": "view",
      "type": "function",
      "constant": true
    },
    {
      "inputs": [
        {
          "internalType": "uint256",
          "name": "tokenId",
          "type": "uint256"
        },
        {
          "internalType": "address",
          "name": "itemOwner",
          "type": "address"
        }
      ],
      "name": "bid",
      "outputs": [],
      "stateMutability": "payable",
      "type": "function",
      "payable": true
    },
    {
      "inputs": [
        {
          "internalType": "uint256",
          "name": "tokenId",
          "type": "uint256"
        },
        {
          "internalType": "address",
          "name": "itemOwner",
          "type": "address"
        }
      ],
      "name": "auctionEnd",
      "outputs": [],
      "stateMutability": "nonpayable",
      "type": "function"
    },
    {
      "inputs": [
        {
          "internalType": "uint256",
          "name": "tokenId",
          "type": "uint256"
        },
        {
          "internalType": "uint256",
          "name": "newEndTime",
          "type": "uint256"
        }
      ],
      "name": "setDropOfTheDayAuctionEndTime",
      "outputs": [],
      "stateMutability": "nonpayable",
      "type": "function"
    },
    {
      "inputs": [
        {
          "internalType": "uint256",
          "name": "tokenId",
          "type": "uint256"
        },
        {
          "internalType": "address",
          "name": "receiver",
          "type": "address"
        }
      ],
      "name": "transfer",
      "outputs": [],
      "stateMutability": "nonpayable",
      "type": "function"
    }
  ],
  "bytecode": "0x60806040523480156200001157600080fd5b50604051620056c1380380620056c1833981810160405281019062000037919062000275565b80600260006101000a81548173ffffffffffffffffffffffffffffffffffffffff021916908373ffffffffffffffffffffffffffffffffffffffff1602179055506200008d6000801b33620000e560201b60201c565b60fa60048190555060fa60058190555033600660006101000a81548173ffffffffffffffffffffffffffffffffffffffff021916908373ffffffffffffffffffffffffffffffffffffffff16021790555050620002ef565b620000f78282620000fb60201b60201c565b5050565b6200010d8282620001ec60201b60201c565b620001e857600160008084815260200190815260200160002060000160008373ffffffffffffffffffffffffffffffffffffffff1673ffffffffffffffffffffffffffffffffffffffff16815260200190815260200160002060006101000a81548160ff0219169083151502179055506200018d6200025660201b60201c565b73ffffffffffffffffffffffffffffffffffffffff168173ffffffffffffffffffffffffffffffffffffffff16837f2f8788117e7eff1d82e926ec794901d17c78024a50270940304540a733656f0d60405160405180910390a45b5050565b600080600084815260200190815260200160002060000160008373ffffffffffffffffffffffffffffffffffffffff1673ffffffffffffffffffffffffffffffffffffffff16815260200190815260200160002060009054906101000a900460ff16905092915050565b600033905090565b6000815190506200026f81620002d5565b92915050565b6000602082840312156200028857600080fd5b600062000298848285016200025e565b91505092915050565b6000620002ae82620002b5565b9050919050565b600073ffffffffffffffffffffffffffffffffffffffff82169050919050565b620002e081620002a1565b8114620002ec57600080fd5b50565b6153c280620002ff6000396000f3fe60806040526004361061014b5760003560e01c806399e94548116100b6578063b444bba51161006f578063b444bba5146104db578063b7760c8f14610506578063ca848c231461052f578063d0b7d2c31461055a578063d547741f14610583578063f92aa57f146105ac5761014b565b806399e94548146103c657806399fb9327146104035780639f04996d1461042c578063a118babd14610448578063a217fddf14610473578063a576cf9d1461049e5761014b565b80635a96a2a9116101085780635a96a2a91461028b57806364f635ce146102c85780637deb6025146102f35780638c7b18571461032357806391d148541461034c57806393b92af2146103895761014b565b806301ffc9a71461015057806313653f971461018d578063216f2f24146101b8578063248a9ca3146101fc5780632f2ff15d1461023957806336568abe14610262575b600080fd5b34801561015c57600080fd5b5061017760048036038101906101729190613f07565b6105d7565b6040516101849190614bc7565b60405180910390f35b34801561019957600080fd5b506101a2610651565b6040516101af9190614c60565b60405180910390f35b3480156101c457600080fd5b506101df60048036038101906101da9190613e66565b610675565b6040516101f3989796959493929190614be2565b60405180910390f35b34801561020857600080fd5b50610223600480360381019061021e9190613ea2565b610895565b6040516102309190614c60565b60405180910390f35b34801561024557600080fd5b50610260600480360381019061025b9190613ecb565b6108b4565b005b34801561026e57600080fd5b5061028960048036038101906102849190613ecb565b61091a565b005b34801561029757600080fd5b506102b260048036038101906102ad9190613e14565b61099d565b6040516102bf9190614ff6565b60405180910390f35b3480156102d457600080fd5b506102dd6109e6565b6040516102ea9190614ff6565b60405180910390f35b61030d60048036038101906103089190613f82565b6109f0565b60405161031a9190614bc7565b60405180910390f35b34801561032f57600080fd5b5061034a60048036038101906103459190613f82565b61153b565b005b34801561035857600080fd5b50610373600480360381019061036e9190613ecb565b611faf565b6040516103809190614bc7565b60405180910390f35b34801561039557600080fd5b506103b060048036038101906103ab9190613f30565b612019565b6040516103bd9190614bc7565b60405180910390f35b3480156103d257600080fd5b506103ed60048036038101906103e89190613f30565b6120bc565b6040516103fa9190614bc7565b60405180910390f35b34801561040f57600080fd5b5061042a60048036038101906104259190613fbe565b61215f565b005b61044660048036038101906104419190613f82565b612d95565b005b34801561045457600080fd5b5061045d61328a565b60405161046a9190614bc7565b60405180910390f35b34801561047f57600080fd5b5061048861341f565b6040516104959190614c60565b60405180910390f35b3480156104aa57600080fd5b506104c560048036038101906104c09190613e14565b613426565b6040516104d29190614bc7565b60405180910390f35b3480156104e757600080fd5b506104f06134be565b6040516104fd9190614ff6565b60405180910390f35b34801561051257600080fd5b5061052d60048036038101906105289190613f82565b6134c8565b005b34801561053b57600080fd5b506105446137c1565b6040516105519190614c7b565b60405180910390f35b34801561056657600080fd5b50610581600480360381019061057c919061405c565b6137e7565b005b34801561058f57600080fd5b506105aa60048036038101906105a59190613ecb565b613aa9565b005b3480156105b857600080fd5b506105c1613b0f565b6040516105ce9190614ad3565b60405180910390f35b60007f7965db0b000000000000000000000000000000000000000000000000000000007bffffffffffffffffffffffffffffffffffffffffffffffffffffffff1916827bffffffffffffffffffffffffffffffffffffffffffffffffffffffff1916148061064a575061064982613b39565b5b9050919050565b7f2b9b3b53865d9437a24097d0400845ce111bd43f6ef71750c962886da6258ce881565b600080600080600080600080600073ffffffffffffffffffffffffffffffffffffffff168a73ffffffffffffffffffffffffffffffffffffffff1614156106f1576040517f08c379a00000000000000000000000000000000000000000000000000000000081526004016106e890614cd6565b60405180910390fd5b6000600160008b815260200190815260200160002060008c73ffffffffffffffffffffffffffffffffffffffff1673ffffffffffffffffffffffffffffffffffffffff168152602001908152602001600020604051806101000160405290816000820160009054906101000a900460f81b7effffffffffffffffffffffffffffffffffffffffffffffffffffffffffffff19167effffffffffffffffffffffffffffffffffffffffffffffffffffffffffffff19168152602001600182015481526020016002820154815260200160038201548152602001600482015481526020016005820160009054906101000a900460ff161515151581526020016005820160019054906101000a900473ffffffffffffffffffffffffffffffffffffffff1673ffffffffffffffffffffffffffffffffffffffff1673ffffffffffffffffffffffffffffffffffffffff1681526020016006820154815250509050806000015181602001518260400151836060015184608001518560a001518660c001518760e0015198509850985098509850985098509850509295985092959890939650565b6000806000838152602001908152602001600020600101549050919050565b6108cd6108c083610895565b6108c8613ba3565b611faf565b61090c576040517f08c379a000000000000000000000000000000000000000000000000000000000815260040161090390614cb6565b60405180910390fd5b6109168282613bab565b5050565b610922613ba3565b73ffffffffffffffffffffffffffffffffffffffff168173ffffffffffffffffffffffffffffffffffffffff161461098f576040517f08c379a000000000000000000000000000000000000000000000000000000000815260040161098690614fd6565b60405180910390fd5b6109998282613c8b565b5050565b6000600360008373ffffffffffffffffffffffffffffffffffffffff1673ffffffffffffffffffffffffffffffffffffffff168152602001908152602001600020549050919050565b6000600554905090565b6000600160f81b6001600085815260200190815260200160002060008473ffffffffffffffffffffffffffffffffffffffff1673ffffffffffffffffffffffffffffffffffffffff16815260200190815260200160002060000160009054906101000a900460f81b7effffffffffffffffffffffffffffffffffffffffffffffffffffffffffffff191614610aba576040517f08c379a0000000000000000000000000000000000000000000000000000000008152600401610ab190614fb6565b60405180910390fd5b6001600260009054906101000a900473ffffffffffffffffffffffffffffffffffffffff1673ffffffffffffffffffffffffffffffffffffffff1662fdd58e84866040518363ffffffff1660e01b8152600401610b18929190614b9e565b60206040518083038186803b158015610b3057600080fd5b505afa158015610b44573d6000803e3d6000fd5b505050506040513d601f19601f82011682018060405250810190610b689190613f59565b1015610ba9576040517f08c379a0000000000000000000000000000000000000000000000000000000008152600401610ba090614df6565b60405180910390fd5b6001600084815260200190815260200160002060008373ffffffffffffffffffffffffffffffffffffffff1673ffffffffffffffffffffffffffffffffffffffff16815260200190815260200160002060010154341015610c3f576040517f08c379a0000000000000000000000000000000000000000000000000000000008152600401610c3690614f36565b60405180910390fd5b6001600084815260200190815260200160002060008373ffffffffffffffffffffffffffffffffffffffff1673ffffffffffffffffffffffffffffffffffffffff16815260200190815260200160002060050160009054906101000a900460ff1615610d9b576001600084815260200190815260200160002060008373ffffffffffffffffffffffffffffffffffffffff1673ffffffffffffffffffffffffffffffffffffffff168152602001908152602001600020600201544210158015610d5b57506001600084815260200190815260200160002060008373ffffffffffffffffffffffffffffffffffffffff1673ffffffffffffffffffffffffffffffffffffffff168152602001908152602001600020600301544211155b610d9a576040517f08c379a0000000000000000000000000000000000000000000000000000000008152600401610d9190614f96565b60405180910390fd5b5b604051806101000160405280600060f81b7effffffffffffffffffffffffffffffffffffffffffffffffffffffffffffff1916815260200160008152602001600081526020016000815260200160008152602001600015158152602001600073ffffffffffffffffffffffffffffffffffffffff16815260200160008152506001600085815260200190815260200160002060003373ffffffffffffffffffffffffffffffffffffffff1673ffffffffffffffffffffffffffffffffffffffff16815260200190815260200160002060008201518160000160006101000a81548160ff021916908360f81c02179055506020820151816001015560408201518160020155606082015181600301556080820151816004015560a08201518160050160006101000a81548160ff02191690831515021790555060c08201518160050160016101000a81548173ffffffffffffffffffffffffffffffffffffffff021916908373ffffffffffffffffffffffffffffffffffffffff16021790555060e082015181600601559050507f7adb1dc5acbe974a16d89364d6d86202407208c18444ece41a9f921854ce80ce838333604051610f5a93929190615011565b60405180910390a1600260009054906101000a900473ffffffffffffffffffffffffffffffffffffffff1673ffffffffffffffffffffffffffffffffffffffff1663f242432a833386600260009054906101000a900473ffffffffffffffffffffffffffffffffffffffff1673ffffffffffffffffffffffffffffffffffffffff1662fdd58e888a6040518363ffffffff1660e01b8152600401610fff929190614b9e565b60206040518083038186803b15801561101757600080fd5b505afa15801561102b573d6000803e3d6000fd5b505050506040513d601f19601f8201168201806040525081019061104f9190613f59565b6040518563ffffffff1660e01b815260040161106e9493929190614b46565b600060405180830381600087803b15801561108857600080fd5b505af115801561109c573d6000803e3d6000fd5b5050505060006127106001600086815260200190815260200160002060008573ffffffffffffffffffffffffffffffffffffffff1673ffffffffffffffffffffffffffffffffffffffff16815260200190815260200160002060040154346111049190615136565b61110e9190615105565b90506000612710600260009054906101000a900473ffffffffffffffffffffffffffffffffffffffff1673ffffffffffffffffffffffffffffffffffffffff16631ff4a420876040518263ffffffff1660e01b81526004016111709190614ff6565b60206040518083038186803b15801561118857600080fd5b505afa15801561119c573d6000803e3d6000fd5b505050506040513d601f19601f820116820180604052508101906111c09190613f59565b346111cb9190615136565b6111d59190615105565b90508060036000600260009054906101000a900473ffffffffffffffffffffffffffffffffffffffff1673ffffffffffffffffffffffffffffffffffffffff166340c1a064896040518263ffffffff1660e01b81526004016112379190614ff6565b60206040518083038186803b15801561124f57600080fd5b505afa158015611263573d6000803e3d6000fd5b505050506040513d601f19601f820116820180604052508101906112879190613e3d565b73ffffffffffffffffffffffffffffffffffffffff1673ffffffffffffffffffffffffffffffffffffffff168152602001908152602001600020546112cc91906150af565b60036000600260009054906101000a900473ffffffffffffffffffffffffffffffffffffffff1673ffffffffffffffffffffffffffffffffffffffff166340c1a064896040518263ffffffff1660e01b815260040161132b9190614ff6565b60206040518083038186803b15801561134357600080fd5b505afa158015611357573d6000803e3d6000fd5b505050506040513d601f19601f8201168201806040525081019061137b9190613e3d565b73ffffffffffffffffffffffffffffffffffffffff1673ffffffffffffffffffffffffffffffffffffffff168152602001908152602001600020819055508160036000600660009054906101000a900473ffffffffffffffffffffffffffffffffffffffff1673ffffffffffffffffffffffffffffffffffffffff1673ffffffffffffffffffffffffffffffffffffffff1681526020019081526020016000205461142691906150af565b60036000600660009054906101000a900473ffffffffffffffffffffffffffffffffffffffff1673ffffffffffffffffffffffffffffffffffffffff1673ffffffffffffffffffffffffffffffffffffffff168152602001908152602001600020819055508082346114989190615190565b6114a29190615190565b600360008673ffffffffffffffffffffffffffffffffffffffff1673ffffffffffffffffffffffffffffffffffffffff168152602001908152602001600020546114ec91906150af565b600360008673ffffffffffffffffffffffffffffffffffffffff1673ffffffffffffffffffffffffffffffffffffffff1681526020019081526020016000208190555060019250505092915050565b600260f81b6001600084815260200190815260200160002060008373ffffffffffffffffffffffffffffffffffffffff1673ffffffffffffffffffffffffffffffffffffffff16815260200190815260200160002060000160009054906101000a900460f81b7effffffffffffffffffffffffffffffffffffffffffffffffffffffffffffff191614611603576040517f08c379a00000000000000000000000000000000000000000000000000000000081526004016115fa90614dd6565b60405180910390fd5b6001600083815260200190815260200160002060008273ffffffffffffffffffffffffffffffffffffffff1673ffffffffffffffffffffffffffffffffffffffff16815260200190815260200160002060030154421015611699576040517f08c379a000000000000000000000000000000000000000000000000000000000815260040161169090614d56565b60405180910390fd5b604051806101000160405280600060f81b7effffffffffffffffffffffffffffffffffffffffffffffffffffffffffffff19168152602001600081526020016000815260200160008152602001600081526020016000151581526020016001600085815260200190815260200160002060008473ffffffffffffffffffffffffffffffffffffffff1673ffffffffffffffffffffffffffffffffffffffff16815260200190815260200160002060050160019054906101000a900473ffffffffffffffffffffffffffffffffffffffff1673ffffffffffffffffffffffffffffffffffffffff1681526020016001600085815260200190815260200160002060008473ffffffffffffffffffffffffffffffffffffffff1673ffffffffffffffffffffffffffffffffffffffff168152602001908152602001600020600601548152506001600084815260200190815260200160002060003373ffffffffffffffffffffffffffffffffffffffff1673ffffffffffffffffffffffffffffffffffffffff16815260200190815260200160002060008201518160000160006101000a81548160ff021916908360f81c02179055506020820151816001015560408201518160020155606082015181600301556080820151816004015560a08201518160050160006101000a81548160ff02191690831515021790555060c08201518160050160016101000a81548173ffffffffffffffffffffffffffffffffffffffff021916908373ffffffffffffffffffffffffffffffffffffffff16021790555060e082015181600601559050507f1569802994a84674f75331b5081a75eefaac9d79eb336ae1544ed0aae49cb93882826001600086815260200190815260200160002060008573ffffffffffffffffffffffffffffffffffffffff1673ffffffffffffffffffffffffffffffffffffffff16815260200190815260200160002060050160019054906101000a900473ffffffffffffffffffffffffffffffffffffffff166001600087815260200190815260200160002060008673ffffffffffffffffffffffffffffffffffffffff1673ffffffffffffffffffffffffffffffffffffffff168152602001908152602001600020600601546040516119e49493929190615048565b60405180910390a1600260009054906101000a900473ffffffffffffffffffffffffffffffffffffffff1673ffffffffffffffffffffffffffffffffffffffff1663f242432a826001600086815260200190815260200160002060008573ffffffffffffffffffffffffffffffffffffffff1673ffffffffffffffffffffffffffffffffffffffff16815260200190815260200160002060050160019054906101000a900473ffffffffffffffffffffffffffffffffffffffff168560016040518563ffffffff1660e01b8152600401611ac19493929190614aee565b600060405180830381600087803b158015611adb57600080fd5b505af1158015611aef573d6000803e3d6000fd5b5050505060006127106001600085815260200190815260200160002060008473ffffffffffffffffffffffffffffffffffffffff1673ffffffffffffffffffffffffffffffffffffffff168152602001908152602001600020600401546001600086815260200190815260200160002060008573ffffffffffffffffffffffffffffffffffffffff1673ffffffffffffffffffffffffffffffffffffffff16815260200190815260200160002060060154611baa9190615136565b611bb49190615105565b90506000612710600260009054906101000a900473ffffffffffffffffffffffffffffffffffffffff1673ffffffffffffffffffffffffffffffffffffffff16631ff4a420866040518263ffffffff1660e01b8152600401611c169190614ff6565b60206040518083038186803b158015611c2e57600080fd5b505afa158015611c42573d6000803e3d6000fd5b505050506040513d601f19601f82011682018060405250810190611c669190613f59565b6001600087815260200190815260200160002060008673ffffffffffffffffffffffffffffffffffffffff1673ffffffffffffffffffffffffffffffffffffffff16815260200190815260200160002060060154611cc49190615136565b611cce9190615105565b90508060036000600260009054906101000a900473ffffffffffffffffffffffffffffffffffffffff1673ffffffffffffffffffffffffffffffffffffffff166340c1a064886040518263ffffffff1660e01b8152600401611d309190614ff6565b60206040518083038186803b158015611d4857600080fd5b505afa158015611d5c573d6000803e3d6000fd5b505050506040513d601f19601f82011682018060405250810190611d809190613e3d565b73ffffffffffffffffffffffffffffffffffffffff1673ffffffffffffffffffffffffffffffffffffffff16815260200190815260200160002054611dc591906150af565b60036000600260009054906101000a900473ffffffffffffffffffffffffffffffffffffffff1673ffffffffffffffffffffffffffffffffffffffff166340c1a064886040518263ffffffff1660e01b8152600401611e249190614ff6565b60206040518083038186803b158015611e3c57600080fd5b505afa158015611e50573d6000803e3d6000fd5b505050506040513d601f19601f82011682018060405250810190611e749190613e3d565b73ffffffffffffffffffffffffffffffffffffffff1673ffffffffffffffffffffffffffffffffffffffff1681526020019081526020016000208190555080826001600087815260200190815260200160002060008673ffffffffffffffffffffffffffffffffffffffff1673ffffffffffffffffffffffffffffffffffffffff16815260200190815260200160002060060154611f129190615190565b611f1c9190615190565b600360008573ffffffffffffffffffffffffffffffffffffffff1673ffffffffffffffffffffffffffffffffffffffff16815260200190815260200160002054611f6691906150af565b600360008573ffffffffffffffffffffffffffffffffffffffff1673ffffffffffffffffffffffffffffffffffffffff1681526020019081526020016000208190555050505050565b600080600084815260200190815260200160002060000160008373ffffffffffffffffffffffffffffffffffffffff1673ffffffffffffffffffffffffffffffffffffffff16815260200190815260200160002060009054906101000a900460ff16905092915050565b60006120286000801b33611faf565b612067576040517f08c379a000000000000000000000000000000000000000000000000000000000815260040161205e90614ed6565b60405180910390fd5b610bb88211156120ac576040517f08c379a00000000000000000000000000000000000000000000000000000000081526004016120a390614ef6565b60405180910390fd5b8160048190555060019050919050565b60006120cb6000801b33611faf565b61210a576040517f08c379a000000000000000000000000000000000000000000000000000000000815260040161210190614ed6565b60405180910390fd5b610bb882111561214f576040517f08c379a000000000000000000000000000000000000000000000000000000000815260040161214690614ef6565b60405180910390fd5b8160058190555060019050919050565b6001600260009054906101000a900473ffffffffffffffffffffffffffffffffffffffff1673ffffffffffffffffffffffffffffffffffffffff1662fdd58e338a6040518363ffffffff1660e01b81526004016121bd929190614b9e565b60206040518083038186803b1580156121d557600080fd5b505afa1580156121e9573d6000803e3d6000fd5b505050506040513d601f19601f8201168201806040525081019061220d9190613f59565b101561224e576040517f08c379a000000000000000000000000000000000000000000000000000000000815260040161224590614e56565b60405180910390fd5b600060f81b867effffffffffffffffffffffffffffffffffffffffffffffffffffffffffffff191614156124eb57600073ffffffffffffffffffffffffffffffffffffffff166001600089815260200190815260200160002060003373ffffffffffffffffffffffffffffffffffffffff1673ffffffffffffffffffffffffffffffffffffffff16815260200190815260200160002060050160019054906101000a900473ffffffffffffffffffffffffffffffffffffffff1673ffffffffffffffffffffffffffffffffffffffff161461235e576040517f08c379a000000000000000000000000000000000000000000000000000000000815260040161235590614e76565b60405180910390fd5b604051806101000160405280877effffffffffffffffffffffffffffffffffffffffffffffffffffffffffffff1916815260200160008152602001600081526020016000815260200160008152602001600015158152602001600073ffffffffffffffffffffffffffffffffffffffff16815260200160008152506001600089815260200190815260200160002060003373ffffffffffffffffffffffffffffffffffffffff1673ffffffffffffffffffffffffffffffffffffffff16815260200190815260200160002060008201518160000160006101000a81548160ff021916908360f81c02179055506020820151816001015560408201518160020155606082015181600301556080820151816004015560a08201518160050160006101000a81548160ff02191690831515021790555060c08201518160050160016101000a81548173ffffffffffffffffffffffffffffffffffffffff021916908373ffffffffffffffffffffffffffffffffffffffff16021790555060e08201518160060155905050612d8c565b801561283c5761251b7f2b9b3b53865d9437a24097d0400845ce111bd43f6ef71750c962886da6258ce833611faf565b61255a576040517f08c379a000000000000000000000000000000000000000000000000000000000815260040161255190614e36565b60405180910390fd5b600060f81b6001600089815260200190815260200160002060003373ffffffffffffffffffffffffffffffffffffffff1673ffffffffffffffffffffffffffffffffffffffff16815260200190815260200160002060000160009054906101000a900460f81b7effffffffffffffffffffffffffffffffffffffffffffffffffffffffffffff191614612622576040517f08c379a000000000000000000000000000000000000000000000000000000000815260040161261990614eb6565b60405180910390fd5b610bb8821115612667576040517f08c379a000000000000000000000000000000000000000000000000000000000815260040161265e90614f56565b60405180910390fd5b834210801561267557508284105b6126b4576040517f08c379a00000000000000000000000000000000000000000000000000000000081526004016126ab90614db6565b60405180910390fd5b604051806101000160405280877effffffffffffffffffffffffffffffffffffffffffffffffffffffffffffff191681526020018681526020018581526020018481526020018381526020018215158152602001600073ffffffffffffffffffffffffffffffffffffffff16815260200160008152506001600089815260200190815260200160002060003373ffffffffffffffffffffffffffffffffffffffff1673ffffffffffffffffffffffffffffffffffffffff16815260200190815260200160002060008201518160000160006101000a81548160ff021916908360f81c02179055506020820151816001015560408201518160020155606082015181600301556080820151816004015560a08201518160050160006101000a81548160ff02191690831515021790555060c08201518160050160016101000a81548173ffffffffffffffffffffffffffffffffffffffff021916908373ffffffffffffffffffffffffffffffffffffffff16021790555060e08201518160060155905050612d8b565b600160f81b867effffffffffffffffffffffffffffffffffffffffffffffffffffffffffffff19161415612abf57600060f81b6001600089815260200190815260200160002060003373ffffffffffffffffffffffffffffffffffffffff1673ffffffffffffffffffffffffffffffffffffffff16815260200190815260200160002060000160009054906101000a900460f81b7effffffffffffffffffffffffffffffffffffffffffffffffffffffffffffff191614612932576040517f08c379a000000000000000000000000000000000000000000000000000000000815260040161292990614eb6565b60405180910390fd5b604051806101000160405280877effffffffffffffffffffffffffffffffffffffffffffffffffffffffffffff1916815260200186815260200160008152602001600081526020016004548152602001600015158152602001600073ffffffffffffffffffffffffffffffffffffffff16815260200160008152506001600089815260200190815260200160002060003373ffffffffffffffffffffffffffffffffffffffff1673ffffffffffffffffffffffffffffffffffffffff16815260200190815260200160002060008201518160000160006101000a81548160ff021916908360f81c02179055506020820151816001015560408201518160020155606082015181600301556080820151816004015560a08201518160050160006101000a81548160ff02191690831515021790555060c08201518160050160016101000a81548173ffffffffffffffffffffffffffffffffffffffff021916908373ffffffffffffffffffffffffffffffffffffffff16021790555060e08201518160060155905050612d8a565b600260f81b867effffffffffffffffffffffffffffffffffffffffffffffffffffffffffffff19161415612d8957600060f81b6001600089815260200190815260200160002060003373ffffffffffffffffffffffffffffffffffffffff1673ffffffffffffffffffffffffffffffffffffffff16815260200190815260200160002060000160009054906101000a900460f81b7effffffffffffffffffffffffffffffffffffffffffffffffffffffffffffff191614612bb5576040517f08c379a0000000000000000000000000000000000000000000000000000000008152600401612bac90614eb6565b60405180910390fd5b8342108015612bc357508284105b612c02576040517f08c379a0000000000000000000000000000000000000000000000000000000008152600401612bf990614db6565b60405180910390fd5b604051806101000160405280877effffffffffffffffffffffffffffffffffffffffffffffffffffffffffffff191681526020018681526020018581526020018481526020016005548152602001600015158152602001600073ffffffffffffffffffffffffffffffffffffffff16815260200160008152506001600089815260200190815260200160002060003373ffffffffffffffffffffffffffffffffffffffff1673ffffffffffffffffffffffffffffffffffffffff16815260200190815260200160002060008201518160000160006101000a81548160ff021916908360f81c02179055506020820151816001015560408201518160020155606082015181600301556080820151816004015560a08201518160050160006101000a81548160ff02191690831515021790555060c08201518160050160016101000a81548173ffffffffffffffffffffffffffffffffffffffff021916908373ffffffffffffffffffffffffffffffffffffffff16021790555060e082015181600601559050505b5b5b5b50505050505050565b600260f81b6001600084815260200190815260200160002060008373ffffffffffffffffffffffffffffffffffffffff1673ffffffffffffffffffffffffffffffffffffffff16815260200190815260200160002060000160009054906101000a900460f81b7effffffffffffffffffffffffffffffffffffffffffffffffffffffffffffff191614612e5d576040517f08c379a0000000000000000000000000000000000000000000000000000000008152600401612e5490614d36565b60405180910390fd5b6001600083815260200190815260200160002060008273ffffffffffffffffffffffffffffffffffffffff1673ffffffffffffffffffffffffffffffffffffffff168152602001908152602001600020600301544211158015612f1357506001600083815260200190815260200160002060008273ffffffffffffffffffffffffffffffffffffffff1673ffffffffffffffffffffffffffffffffffffffff168152602001908152602001600020600201544210155b612f52576040517f08c379a0000000000000000000000000000000000000000000000000000000008152600401612f4990614e96565b60405180910390fd5b6001600083815260200190815260200160002060008273ffffffffffffffffffffffffffffffffffffffff1673ffffffffffffffffffffffffffffffffffffffff168152602001908152602001600020600601543411612fe7576040517f08c379a0000000000000000000000000000000000000000000000000000000008152600401612fde90614d76565b60405180910390fd5b60006001600084815260200190815260200160002060008373ffffffffffffffffffffffffffffffffffffffff1673ffffffffffffffffffffffffffffffffffffffff168152602001908152602001600020600601541461315f576001600083815260200190815260200160002060008273ffffffffffffffffffffffffffffffffffffffff1673ffffffffffffffffffffffffffffffffffffffff16815260200190815260200160002060060154600360006001600086815260200190815260200160002060008573ffffffffffffffffffffffffffffffffffffffff1673ffffffffffffffffffffffffffffffffffffffff16815260200190815260200160002060050160019054906101000a900473ffffffffffffffffffffffffffffffffffffffff1673ffffffffffffffffffffffffffffffffffffffff1673ffffffffffffffffffffffffffffffffffffffff168152602001908152602001600020600082825461315791906150af565b925050819055505b336001600084815260200190815260200160002060008373ffffffffffffffffffffffffffffffffffffffff1673ffffffffffffffffffffffffffffffffffffffff16815260200190815260200160002060050160016101000a81548173ffffffffffffffffffffffffffffffffffffffff021916908373ffffffffffffffffffffffffffffffffffffffff160217905550346001600084815260200190815260200160002060008373ffffffffffffffffffffffffffffffffffffffff1673ffffffffffffffffffffffffffffffffffffffff168152602001908152602001600020600601819055507f5733d8f05640d4bcd37dca4f99394d85a091e75f20c8e7af67a7ecbd6879418f8282333460405161327e9493929190615048565b60405180910390a15050565b600080600360003373ffffffffffffffffffffffffffffffffffffffff1673ffffffffffffffffffffffffffffffffffffffff168152602001908152602001600020549050600073ffffffffffffffffffffffffffffffffffffffff163373ffffffffffffffffffffffffffffffffffffffff16141561330957600080fd5b60008111156133df576000600360003373ffffffffffffffffffffffffffffffffffffffff1673ffffffffffffffffffffffffffffffffffffffff168152602001908152602001600020819055503373ffffffffffffffffffffffffffffffffffffffff166108fc829081150290604051600060405180830381858888f193505050506133de5780600360003373ffffffffffffffffffffffffffffffffffffffff1673ffffffffffffffffffffffffffffffffffffffff16815260200190815260200160002081905550600091505061341c565b5b7f7fb6e96e4cf6715924c7b3b6824e81401a198f6d1e1d72f2144724fe23ba05968160405161340e9190614ff6565b60405180910390a160019150505b90565b6000801b81565b60006134356000801b33611faf565b613474576040517f08c379a000000000000000000000000000000000000000000000000000000000815260040161346b90614ed6565b60405180910390fd5b81600660006101000a81548173ffffffffffffffffffffffffffffffffffffffff021916908373ffffffffffffffffffffffffffffffffffffffff16021790555060019050919050565b6000600454905090565b6001600260009054906101000a900473ffffffffffffffffffffffffffffffffffffffff1673ffffffffffffffffffffffffffffffffffffffff1662fdd58e33856040518363ffffffff1660e01b8152600401613526929190614b9e565b60206040518083038186803b15801561353e57600080fd5b505afa158015613552573d6000803e3d6000fd5b505050506040513d601f19601f820116820180604052508101906135769190613f59565b10156135b7576040517f08c379a00000000000000000000000000000000000000000000000000000000081526004016135ae90614d16565b60405180910390fd5b600060f81b6001600084815260200190815260200160002060003373ffffffffffffffffffffffffffffffffffffffff1673ffffffffffffffffffffffffffffffffffffffff16815260200190815260200160002060000160009054906101000a900460f81b7effffffffffffffffffffffffffffffffffffffffffffffffffffffffffffff19161461367f576040517f08c379a000000000000000000000000000000000000000000000000000000000815260040161367690614c96565b60405180910390fd5b600260009054906101000a900473ffffffffffffffffffffffffffffffffffffffff1673ffffffffffffffffffffffffffffffffffffffff1663f242432a338385600260009054906101000a900473ffffffffffffffffffffffffffffffffffffffff1673ffffffffffffffffffffffffffffffffffffffff1662fdd58e33896040518363ffffffff1660e01b815260040161371c929190614b9e565b60206040518083038186803b15801561373457600080fd5b505afa158015613748573d6000803e3d6000fd5b505050506040513d601f19601f8201168201806040525081019061376c9190613f59565b6040518563ffffffff1660e01b815260040161378b9493929190614b46565b600060405180830381600087803b1580156137a557600080fd5b505af11580156137b9573d6000803e3d6000fd5b505050505050565b600260009054906101000a900473ffffffffffffffffffffffffffffffffffffffff1681565b6138117f2b9b3b53865d9437a24097d0400845ce111bd43f6ef71750c962886da6258ce833611faf565b613850576040517f08c379a000000000000000000000000000000000000000000000000000000000815260040161384790614cf6565b60405180910390fd5b600260f81b6001600084815260200190815260200160002060003373ffffffffffffffffffffffffffffffffffffffff1673ffffffffffffffffffffffffffffffffffffffff16815260200190815260200160002060000160009054906101000a900460f81b7effffffffffffffffffffffffffffffffffffffffffffffffffffffffffffff191614613918576040517f08c379a000000000000000000000000000000000000000000000000000000000815260040161390f90614f16565b60405180910390fd5b6001600083815260200190815260200160002060003373ffffffffffffffffffffffffffffffffffffffff1673ffffffffffffffffffffffffffffffffffffffff16815260200190815260200160002060050160009054906101000a900460ff166139b8576040517f08c379a00000000000000000000000000000000000000000000000000000000081526004016139af90614f76565b60405180910390fd5b806001600084815260200190815260200160002060003373ffffffffffffffffffffffffffffffffffffffff1673ffffffffffffffffffffffffffffffffffffffff1681526020019081526020016000206003015410613a4d576040517f08c379a0000000000000000000000000000000000000000000000000000000008152600401613a4490614e16565b60405180910390fd5b806001600084815260200190815260200160002060003373ffffffffffffffffffffffffffffffffffffffff1673ffffffffffffffffffffffffffffffffffffffff168152602001908152602001600020600301819055505050565b613ac2613ab583610895565b613abd613ba3565b611faf565b613b01576040517f08c379a0000000000000000000000000000000000000000000000000000000008152600401613af890614d96565b60405180910390fd5b613b0b8282613c8b565b5050565b6000600660009054906101000a900473ffffffffffffffffffffffffffffffffffffffff16905090565b60007f01ffc9a7000000000000000000000000000000000000000000000000000000007bffffffffffffffffffffffffffffffffffffffffffffffffffffffff1916827bffffffffffffffffffffffffffffffffffffffffffffffffffffffff1916149050919050565b600033905090565b613bb58282611faf565b613c8757600160008084815260200190815260200160002060000160008373ffffffffffffffffffffffffffffffffffffffff1673ffffffffffffffffffffffffffffffffffffffff16815260200190815260200160002060006101000a81548160ff021916908315150217905550613c2c613ba3565b73ffffffffffffffffffffffffffffffffffffffff168173ffffffffffffffffffffffffffffffffffffffff16837f2f8788117e7eff1d82e926ec794901d17c78024a50270940304540a733656f0d60405160405180910390a45b5050565b613c958282611faf565b15613d6857600080600084815260200190815260200160002060000160008373ffffffffffffffffffffffffffffffffffffffff1673ffffffffffffffffffffffffffffffffffffffff16815260200190815260200160002060006101000a81548160ff021916908315150217905550613d0d613ba3565b73ffffffffffffffffffffffffffffffffffffffff168173ffffffffffffffffffffffffffffffffffffffff16837ff6391f5c32d9c69d2a47ea670b442974b53935d1edc7fd64eb21e047a839171b60405160405180910390a45b5050565b600081359050613d7b81615302565b92915050565b600081519050613d9081615302565b92915050565b600081359050613da581615319565b92915050565b600081359050613dba81615330565b92915050565b600081359050613dcf81615347565b92915050565b600081359050613de48161535e565b92915050565b600081359050613df981615375565b92915050565b600081519050613e0e81615375565b92915050565b600060208284031215613e2657600080fd5b6000613e3484828501613d6c565b91505092915050565b600060208284031215613e4f57600080fd5b6000613e5d84828501613d81565b91505092915050565b60008060408385031215613e7957600080fd5b6000613e8785828601613d6c565b9250506020613e9885828601613dea565b9150509250929050565b600060208284031215613eb457600080fd5b6000613ec284828501613dc0565b91505092915050565b60008060408385031215613ede57600080fd5b6000613eec85828601613dc0565b9250506020613efd85828601613d6c565b9150509250929050565b600060208284031215613f1957600080fd5b6000613f2784828501613dd5565b91505092915050565b600060208284031215613f4257600080fd5b6000613f5084828501613dea565b91505092915050565b600060208284031215613f6b57600080fd5b6000613f7984828501613dff565b91505092915050565b60008060408385031215613f9557600080fd5b6000613fa385828601613dea565b9250506020613fb485828601613d6c565b9150509250929050565b600080600080600080600060e0888a031215613fd957600080fd5b6000613fe78a828b01613dea565b9750506020613ff88a828b01613dab565b96505060406140098a828b01613dea565b955050606061401a8a828b01613dea565b945050608061402b8a828b01613dea565b93505060a061403c8a828b01613dea565b92505060c061404d8a828b01613d96565b91505092959891949750929550565b6000806040838503121561406f57600080fd5b600061407d85828601613dea565b925050602061408e85828601613dea565b9150509250929050565b6140a1816151c4565b82525050565b6140b0816151d6565b82525050565b6140bf816151e2565b82525050565b6140ce8161520e565b82525050565b6140dd8161526e565b82525050565b6140ec81615292565b82525050565b60006140ff60118361509e565b91507f546f6b656e206e6f74206f6e20686f6c640000000000000000000000000000006000830152602082019050919050565b600061413f602f8361509e565b91507f416363657373436f6e74726f6c3a2073656e646572206d75737420626520616e60008301527f2061646d696e20746f206772616e7400000000000000000000000000000000006020830152604082019050919050565b60006141a5602b8361509e565b91507f455243313135353a206c697374696e6720717565727920666f7220746865207a60008301527f65726f20616464726573730000000000000000000000000000000000000000006020830152604082019050919050565b600061420b604c8361509e565b91507f5365742064726f70206f6620746865206461792061756374696f6e20656e642060008301527f74696d653a2063616c6c6572206973206e6f742064726f70206f66207468652060208301527f6461792063726561746f722e00000000000000000000000000000000000000006040830152606082019050919050565b600061429760258361509e565b91507f446f206e6f74206861766520656e6f75676820746f6b656e20746f207472616e60008301527f736665722e0000000000000000000000000000000000000000000000000000006020830152604082019050919050565b60006142fd601c8361509e565b91507f4974656d206e6f74206c697374656420666f722061756374696f6e2e000000006000830152602082019050919050565b600061433d60238361509e565b91507f41756374696f6e20656e643a2061756374696f6e206e6f742079657420656e6460008301527f65642e00000000000000000000000000000000000000000000000000000000006020830152604082019050919050565b60006143a3601e8361509e565b91507f546865726520616c7265616479206973206120686967686572206269642e00006000830152602082019050919050565b60006143e360308361509e565b91507f416363657373436f6e74726f6c3a2073656e646572206d75737420626520616e60008301527f2061646d696e20746f207265766f6b65000000000000000000000000000000006020830152604082019050919050565b600061444960578361509e565b91507f656e6454696d652073686f756c642062652067726561746572207468616e207360008301527f7461727454696d652e20737461727454696d652073686f756c6420626520677260208301527f6561746572207468616e2063757272656e742074696d650000000000000000006040830152606082019050919050565b60006144d560248361509e565b91507f41756374696f6e20656e643a206974656d206973206e6f7420666f722061756360008301527f74696f6e000000000000000000000000000000000000000000000000000000006020830152604082019050919050565b600061453b60228361509e565b91507f6275793a20747279696e6720746f20627579206d6f7265207468616e206f776e60008301527f65640000000000000000000000000000000000000000000000000000000000006020830152604082019050919050565b60006145a1602c8361509e565b91507f6e6577456e6454696d65206e6f742067726561746572207468616e206375727260008301527f656e7420656e6454696d652e00000000000000000000000000000000000000006020830152604082019050919050565b600061460760348361509e565b91507f536574206c697374696e673a2043616c6c6572206973206e6f7420612064726f60008301527f70206f6620746865206461792063726561746f720000000000000000000000006020830152604082019050919050565b600061466d60368361509e565b91507f536574206c697374696e673a20796f752061726520747279696e6720746f207360008301527f656c6c206d6f7265207468616e20796f752068617665000000000000000000006020830152604082019050919050565b60006146d3601f8361509e565b91507f536574206c697374696e673a2062696420616c726561647920657869737473006000830152602082019050919050565b600061471360228361509e565b91507f41756374696f6e206e6f7420737461727465642f616c726561647920656e646560008301527f642e0000000000000000000000000000000000000000000000000000000000006020830152604082019050919050565b6000614779601e8361509e565b91507f536574206c697374696e673a20746f6b656e206e6f74206f6e20686f6c6400006000830152602082019050919050565b60006147b960168361509e565b91507f43616c6c6572206973206e6f7420616e2061646d696e000000000000000000006000830152602082019050919050565b60006147f960008361508d565b9150600082019050919050565b600061481360168361509e565b91507f636f6d6d697373696f6e20697320746f6f2068696768000000000000000000006000830152602082019050919050565b600061485360168361509e565b91507f4974656d206973206e6f7420696e2061756374696f6e000000000000000000006000830152602082019050919050565b600061489360148361509e565b91507f6275793a206e6f7420656e6f7567682066756e640000000000000000000000006000830152602082019050919050565b60006148d360338361509e565b91507f5365742064726f70206f662074686520646179206c697374696e673a20636f6d60008301527f6d697373696f6e20697320746f6f2068696768000000000000000000000000006020830152604082019050919050565b600061493960468361509e565b91507f5365742064726f70206f6620746865206461792061756374696f6e20656e642060008301527f74696d653a206974656d206973206e6f7420666f722064726f70206f6620746860208301527f65206461792e00000000000000000000000000000000000000000000000000006040830152606082019050919050565b60006149c5603c8361509e565b91507f627579202844726f70206f662074686520646179293a2064726f70206f66207460008301527f6865206461792068617320656e6465642f6e6f742073746172746564000000006020830152604082019050919050565b6000614a2b601e8361509e565b91507f6275793a20746f6b656e206e6f74206c697374656420666f722073616c6500006000830152602082019050919050565b6000614a6b602f8361509e565b91507f416363657373436f6e74726f6c3a2063616e206f6e6c792072656e6f756e636560008301527f20726f6c657320666f722073656c6600000000000000000000000000000000006020830152604082019050919050565b614acd81615264565b82525050565b6000602082019050614ae86000830184614098565b92915050565b600060a082019050614b036000830187614098565b614b106020830186614098565b614b1d6040830185614ac4565b614b2a60608301846140e3565b8181036080830152614b3b816147ec565b905095945050505050565b600060a082019050614b5b6000830187614098565b614b686020830186614098565b614b756040830185614ac4565b614b826060830184614ac4565b8181036080830152614b93816147ec565b905095945050505050565b6000604082019050614bb36000830185614098565b614bc06020830184614ac4565b9392505050565b6000602082019050614bdc60008301846140a7565b92915050565b600061010082019050614bf8600083018b6140b6565b614c05602083018a614ac4565b614c126040830189614ac4565b614c1f6060830188614ac4565b614c2c6080830187614ac4565b614c3960a08301866140a7565b614c4660c0830185614098565b614c5360e0830184614ac4565b9998505050505050505050565b6000602082019050614c7560008301846140c5565b92915050565b6000602082019050614c9060008301846140d4565b92915050565b60006020820190508181036000830152614caf816140f2565b9050919050565b60006020820190508181036000830152614ccf81614132565b9050919050565b60006020820190508181036000830152614cef81614198565b9050919050565b60006020820190508181036000830152614d0f816141fe565b9050919050565b60006020820190508181036000830152614d2f8161428a565b9050919050565b60006020820190508181036000830152614d4f816142f0565b9050919050565b60006020820190508181036000830152614d6f81614330565b9050919050565b60006020820190508181036000830152614d8f81614396565b9050919050565b60006020820190508181036000830152614daf816143d6565b9050919050565b60006020820190508181036000830152614dcf8161443c565b9050919050565b60006020820190508181036000830152614def816144c8565b9050919050565b60006020820190508181036000830152614e0f8161452e565b9050919050565b60006020820190508181036000830152614e2f81614594565b9050919050565b60006020820190508181036000830152614e4f816145fa565b9050919050565b60006020820190508181036000830152614e6f81614660565b9050919050565b60006020820190508181036000830152614e8f816146c6565b9050919050565b60006020820190508181036000830152614eaf81614706565b9050919050565b60006020820190508181036000830152614ecf8161476c565b9050919050565b60006020820190508181036000830152614eef816147ac565b9050919050565b60006020820190508181036000830152614f0f81614806565b9050919050565b60006020820190508181036000830152614f2f81614846565b9050919050565b60006020820190508181036000830152614f4f81614886565b9050919050565b60006020820190508181036000830152614f6f816148c6565b9050919050565b60006020820190508181036000830152614f8f8161492c565b9050919050565b60006020820190508181036000830152614faf816149b8565b9050919050565b60006020820190508181036000830152614fcf81614a1e565b9050919050565b60006020820190508181036000830152614fef81614a5e565b9050919050565b600060208201905061500b6000830184614ac4565b92915050565b60006060820190506150266000830186614ac4565b6150336020830185614098565b6150406040830184614098565b949350505050565b600060808201905061505d6000830187614ac4565b61506a6020830186614098565b6150776040830185614098565b6150846060830184614ac4565b95945050505050565b600082825260208201905092915050565b600082825260208201905092915050565b60006150ba82615264565b91506150c583615264565b9250827fffffffffffffffffffffffffffffffffffffffffffffffffffffffffffffffff038211156150fa576150f96152a4565b5b828201905092915050565b600061511082615264565b915061511b83615264565b92508261512b5761512a6152d3565b5b828204905092915050565b600061514182615264565b915061514c83615264565b9250817fffffffffffffffffffffffffffffffffffffffffffffffffffffffffffffffff0483118215151615615185576151846152a4565b5b828202905092915050565b600061519b82615264565b91506151a683615264565b9250828210156151b9576151b86152a4565b5b828203905092915050565b60006151cf82615244565b9050919050565b60008115159050919050565b60007fff0000000000000000000000000000000000000000000000000000000000000082169050919050565b6000819050919050565b60007fffffffff0000000000000000000000000000000000000000000000000000000082169050919050565b600073ffffffffffffffffffffffffffffffffffffffff82169050919050565b6000819050919050565b600061527982615280565b9050919050565b600061528b82615244565b9050919050565b600061529d82615264565b9050919050565b7f4e487b7100000000000000000000000000000000000000000000000000000000600052601160045260246000fd5b7f4e487b7100000000000000000000000000000000000000000000000000000000600052601260045260246000fd5b61530b816151c4565b811461531657600080fd5b50565b615322816151d6565b811461532d57600080fd5b50565b615339816151e2565b811461534457600080fd5b50565b6153508161520e565b811461535b57600080fd5b50565b61536781615218565b811461537257600080fd5b50565b61537e81615264565b811461538957600080fd5b5056fea264697066735822122071f0ebb906a6fd9f98e167c1c2434ff5377899efdf549f16fa2458829bdce16e64736f6c63430008000033",
  "immutableReferences": {},
  "source": "// SPDX-License-Identifier: MIT\n\npragma solidity ^0.8.0;\n\n/*\n * @dev Provides information about the current execution context, including the\n * sender of the transaction and its data. While these are generally available\n * via msg.sender and msg.data, they should not be accessed in such a direct\n * manner, since when dealing with meta-transactions the account sending and\n * paying for execution may not be the actual sender (as far as an application\n * is concerned).\n *\n * This contract is only required for intermediate, library-like contracts.\n */\nabstract contract Context {\n    function _msgSender() internal view virtual returns (address) {\n        return msg.sender;\n    }\n\n    function _msgData() internal view virtual returns (bytes calldata) {\n        this; // silence state mutability warning without generating bytecode - see https://github.com/ethereum/solidity/issues/2691\n        return msg.data;\n    }\n}\n\n/**\n * @dev Interface of the ERC165 standard, as defined in the\n * https://eips.ethereum.org/EIPS/eip-165[EIP].\n *\n * Implementers can declare support of contract interfaces, which can then be\n * queried by others ({ERC165Checker}).\n *\n * For an implementation, see {ERC165}.\n */\ninterface IERC165 {\n    /**\n     * @dev Returns true if this contract implements the interface defined by\n     * `interfaceId`. See the corresponding\n     * https://eips.ethereum.org/EIPS/eip-165#how-interfaces-are-identified[EIP section]\n     * to learn more about how these ids are created.\n     *\n     * This function call must use less than 30 000 gas.\n     */\n    function supportsInterface(bytes4 interfaceId) external view returns (bool);\n}\n\n/**\n * @dev Implementation of the {IERC165} interface.\n *\n * Contracts that want to implement ERC165 should inherit from this contract and override {supportsInterface} to check\n * for the additional interface id that will be supported. For example:\n *\n * ```solidity\n * function supportsInterface(bytes4 interfaceId) public view virtual override returns (bool) {\n *     return interfaceId == type(MyInterface).interfaceId || super.supportsInterface(interfaceId);\n * }\n * ```\n *\n * Alternatively, {ERC165Storage} provides an easier to use but more expensive implementation.\n */\nabstract contract ERC165 is IERC165 {\n    /**\n     * @dev See {IERC165-supportsInterface}.\n     */\n    function supportsInterface(bytes4 interfaceId)\n        public\n        view\n        virtual\n        override\n        returns (bool)\n    {\n        return interfaceId == type(IERC165).interfaceId;\n    }\n}\n\n/**\n * @dev External interface of AccessControl declared to support ERC165 detection.\n */\ninterface IAccessControl {\n    function hasRole(bytes32 role, address account)\n        external\n        view\n        returns (bool);\n\n    function getRoleAdmin(bytes32 role) external view returns (bytes32);\n\n    function grantRole(bytes32 role, address account) external;\n\n    function revokeRole(bytes32 role, address account) external;\n\n    function renounceRole(bytes32 role, address account) external;\n}\n\n/**\n * @dev Contract module that allows children to implement role-based access\n * control mechanisms. This is a lightweight version that doesn't allow enumerating role\n * members except through off-chain means by accessing the contract event logs. Some\n * applications may benefit from on-chain enumerability, for those cases see\n * {AccessControlEnumerable}.\n *\n * Roles are referred to by their `bytes32` identifier. These should be exposed\n * in the external API and be unique. The best way to achieve this is by\n * using `public constant` hash digests:\n *\n * ```\n * bytes32 public constant MY_ROLE = keccak256(\"MY_ROLE\");\n * ```\n *\n * Roles can be used to represent a set of permissions. To restrict access to a\n * function call, use {hasRole}:\n *\n * ```\n * function foo() public {\n *     require(hasRole(MY_ROLE, msg.sender));\n *     ...\n * }\n * ```\n *\n * Roles can be granted and revoked dynamically via the {grantRole} and\n * {revokeRole} functions. Each role has an associated admin role, and only\n * accounts that have a role's admin role can call {grantRole} and {revokeRole}.\n *\n * By default, the admin role for all roles is `DEFAULT_ADMIN_ROLE`, which means\n * that only accounts with this role will be able to grant or revoke other\n * roles. More complex role relationships can be created by using\n * {_setRoleAdmin}.\n *\n * WARNING: The `DEFAULT_ADMIN_ROLE` is also its own admin: it has permission to\n * grant and revoke this role. Extra precautions should be taken to secure\n * accounts that have been granted it.\n */\nabstract contract AccessControl is Context, IAccessControl, ERC165 {\n    struct RoleData {\n        mapping(address => bool) members;\n        bytes32 adminRole;\n    }\n\n    mapping(bytes32 => RoleData) private _roles;\n\n    bytes32 public constant DEFAULT_ADMIN_ROLE = 0x00;\n\n    /**\n     * @dev Emitted when `newAdminRole` is set as ``role``'s admin role, replacing `previousAdminRole`\n     *\n     * `DEFAULT_ADMIN_ROLE` is the starting admin for all roles, despite\n     * {RoleAdminChanged} not being emitted signaling this.\n     *\n     * _Available since v3.1._\n     */\n    event RoleAdminChanged(\n        bytes32 indexed role,\n        bytes32 indexed previousAdminRole,\n        bytes32 indexed newAdminRole\n    );\n\n    /**\n     * @dev Emitted when `account` is granted `role`.\n     *\n     * `sender` is the account that originated the contract call, an admin role\n     * bearer except when using {_setupRole}.\n     */\n    event RoleGranted(\n        bytes32 indexed role,\n        address indexed account,\n        address indexed sender\n    );\n\n    /**\n     * @dev Emitted when `account` is revoked `role`.\n     *\n     * `sender` is the account that originated the contract call:\n     *   - if using `revokeRole`, it is the admin role bearer\n     *   - if using `renounceRole`, it is the role bearer (i.e. `account`)\n     */\n    event RoleRevoked(\n        bytes32 indexed role,\n        address indexed account,\n        address indexed sender\n    );\n\n    /**\n     * @dev See {IERC165-supportsInterface}.\n     */\n    function supportsInterface(bytes4 interfaceId)\n        public\n        view\n        virtual\n        override\n        returns (bool)\n    {\n        return\n            interfaceId == type(IAccessControl).interfaceId ||\n            super.supportsInterface(interfaceId);\n    }\n\n    /**\n     * @dev Returns `true` if `account` has been granted `role`.\n     */\n    function hasRole(bytes32 role, address account)\n        public\n        view\n        override\n        returns (bool)\n    {\n        return _roles[role].members[account];\n    }\n\n    /**\n     * @dev Returns the admin role that controls `role`. See {grantRole} and\n     * {revokeRole}.\n     *\n     * To change a role's admin, use {_setRoleAdmin}.\n     */\n    function getRoleAdmin(bytes32 role) public view override returns (bytes32) {\n        return _roles[role].adminRole;\n    }\n\n    /**\n     * @dev Grants `role` to `account`.\n     *\n     * If `account` had not been already granted `role`, emits a {RoleGranted}\n     * event.\n     *\n     * Requirements:\n     *\n     * - the caller must have ``role``'s admin role.\n     */\n    function grantRole(bytes32 role, address account) public virtual override {\n        require(\n            hasRole(getRoleAdmin(role), _msgSender()),\n            \"AccessControl: sender must be an admin to grant\"\n        );\n\n        _grantRole(role, account);\n    }\n\n    /**\n     * @dev Revokes `role` from `account`.\n     *\n     * If `account` had been granted `role`, emits a {RoleRevoked} event.\n     *\n     * Requirements:\n     *\n     * - the caller must have ``role``'s admin role.\n     */\n    function revokeRole(bytes32 role, address account) public virtual override {\n        require(\n            hasRole(getRoleAdmin(role), _msgSender()),\n            \"AccessControl: sender must be an admin to revoke\"\n        );\n\n        _revokeRole(role, account);\n    }\n\n    /**\n     * @dev Revokes `role` from the calling account.\n     *\n     * Roles are often managed via {grantRole} and {revokeRole}: this function's\n     * purpose is to provide a mechanism for accounts to lose their privileges\n     * if they are compromised (such as when a trusted device is misplaced).\n     *\n     * If the calling account had been granted `role`, emits a {RoleRevoked}\n     * event.\n     *\n     * Requirements:\n     *\n     * - the caller must be `account`.\n     */\n    function renounceRole(bytes32 role, address account)\n        public\n        virtual\n        override\n    {\n        require(\n            account == _msgSender(),\n            \"AccessControl: can only renounce roles for self\"\n        );\n\n        _revokeRole(role, account);\n    }\n\n    /**\n     * @dev Grants `role` to `account`.\n     *\n     * If `account` had not been already granted `role`, emits a {RoleGranted}\n     * event. Note that unlike {grantRole}, this function doesn't perform any\n     * checks on the calling account.\n     *\n     * [WARNING]\n     * ====\n     * This function should only be called from the constructor when setting\n     * up the initial roles for the system.\n     *\n     * Using this function in any other way is effectively circumventing the admin\n     * system imposed by {AccessControl}.\n     * ====\n     */\n    function _setupRole(bytes32 role, address account) internal virtual {\n        _grantRole(role, account);\n    }\n\n    /**\n     * @dev Sets `adminRole` as ``role``'s admin role.\n     *\n     * Emits a {RoleAdminChanged} event.\n     */\n    function _setRoleAdmin(bytes32 role, bytes32 adminRole) internal virtual {\n        emit RoleAdminChanged(role, getRoleAdmin(role), adminRole);\n        _roles[role].adminRole = adminRole;\n    }\n\n    function _grantRole(bytes32 role, address account) private {\n        if (!hasRole(role, account)) {\n            _roles[role].members[account] = true;\n            emit RoleGranted(role, account, _msgSender());\n        }\n    }\n\n    function _revokeRole(bytes32 role, address account) private {\n        if (hasRole(role, account)) {\n            _roles[role].members[account] = false;\n            emit RoleRevoked(role, account, _msgSender());\n        }\n    }\n}\n\ninterface ISatoshiART1155 {\n    event TransferSingle(\n        address indexed operator,\n        address indexed from,\n        address indexed to,\n        uint256 id,\n        uint256 value\n    );\n    event TransferBatch(\n        address indexed operator,\n        address indexed from,\n        address indexed to,\n        uint256[] ids,\n        uint256[] values\n    );\n    event ApprovalForAll(\n        address indexed account,\n        address indexed operator,\n        bool approved\n    );\n    event URI(string value, uint256 indexed id);\n\n    function balanceOf(address account, uint256 id)\n        external\n        view\n        returns (uint256);\n\n    function balanceOfBatch(address[] calldata accounts, uint256[] calldata ids)\n        external\n        view\n        returns (uint256[] memory);\n\n    function setApprovalForAll(address operator, bool approved) external;\n\n    function isApprovedForAll(address account, address operator)\n        external\n        view\n        returns (bool);\n\n    function safeTransferFrom(\n        address from,\n        address to,\n        uint256 id,\n        uint256 amount,\n        bytes calldata data\n    ) external;\n\n    function safeBatchTransferFrom(\n        address from,\n        address to,\n        uint256[] calldata ids,\n        uint256[] calldata amounts,\n        bytes calldata data\n    ) external;\n\n    function tokenCreator(uint256 _id) external view returns (address);\n\n    function tokenRoyalty(uint256 _id) external view returns (uint256);\n}\n\ncontract SatoshiART1155Marketplace is AccessControl {\n    struct Listing {\n        bytes1 status; // 0x00 onHold 0x01 onSale 0x02 isAuction\n        uint256 price;\n        uint256 startTime;\n        uint256 endTime;\n        uint256 commission;\n        bool isDropOfTheDay;\n        address highestBidder;\n        uint256 highestBid;\n    }\n\n    mapping(uint256 => mapping(address => Listing)) private _listings;\n    ISatoshiART1155 public satoshiART1155;\n    mapping(address => uint256) private _outstandingPayments;\n    uint256 private _defaultCommission;\n    uint256 private _defaultAuctionCommission;\n    bytes32 public constant DROP_OF_THE_DAY_CREATOR_ROLE =\n        keccak256(\"DROP_OF_THE_DAY_CREATOR_ROLE\");\n    address private _commissionReceiver;\n\n    event PurchaseConfirmed(uint256 tokenId, address itemOwner, address buyer);\n    event PaymentWithdrawed(uint256 amount);\n    event HighestBidIncreased(\n        uint256 tokenId,\n        address itemOwner,\n        address bidder,\n        uint256 amount\n    );\n    event AuctionEnded(\n        uint256 tokenId,\n        address itemOwner,\n        address winner,\n        uint256 amount\n    );\n\n    constructor(address satoshiART1155Address) {\n        satoshiART1155 = ISatoshiART1155(satoshiART1155Address);\n        _setupRole(DEFAULT_ADMIN_ROLE, msg.sender);\n        _defaultCommission = 250;\n        _defaultAuctionCommission = 250;\n        _commissionReceiver = msg.sender;\n    }\n\n    function commissionReceiver() external view returns (address) {\n        return _commissionReceiver;\n    }\n\n    function setCommissionReceiver(address user) external returns (bool) {\n        require(\n            hasRole(DEFAULT_ADMIN_ROLE, msg.sender),\n            \"Caller is not an admin\"\n        );\n        _commissionReceiver = user;\n\n        return true;\n    }\n\n    function defaultCommission() external view returns (uint256) {\n        return _defaultCommission;\n    }\n\n    function defaultAuctionCommission() external view returns (uint256) {\n        return _defaultAuctionCommission;\n    }\n\n    function setDefaultCommission(uint256 commission) external returns (bool) {\n        require(\n            hasRole(DEFAULT_ADMIN_ROLE, msg.sender),\n            \"Caller is not an admin\"\n        );\n        require(commission <= 3000, \"commission is too high\");\n        _defaultCommission = commission;\n\n        return true;\n    }\n\n    function setDefaultAuctionCommission(uint256 commission)\n        external\n        returns (bool)\n    {\n        require(\n            hasRole(DEFAULT_ADMIN_ROLE, msg.sender),\n            \"Caller is not an admin\"\n        );\n        require(commission <= 3000, \"commission is too high\");\n        _defaultAuctionCommission = commission;\n\n        return true;\n    }\n\n    function setListing(\n        uint256 tokenId,\n        bytes1 status,\n        uint256 price,\n        uint256 startTime,\n        uint256 endTime,\n        uint256 dropOfTheDayCommission,\n        bool isDropOfTheDay\n    ) external {\n        require(\n            satoshiART1155.balanceOf(msg.sender, tokenId) >= 1,\n            \"Set listing: you are trying to sell more than you have\"\n        );\n\n        if (status == 0x00) {\n            require(\n                _listings[tokenId][msg.sender].highestBidder == address(0),\n                \"Set listing: bid already exists\"\n            );\n\n            _listings[tokenId][msg.sender] = Listing({\n                status: status,\n                price: 0,\n                startTime: 0,\n                endTime: 0,\n                commission: 0,\n                isDropOfTheDay: false,\n                highestBidder: address(0),\n                highestBid: 0\n            });\n        } else if (isDropOfTheDay) {\n            require(\n                hasRole(DROP_OF_THE_DAY_CREATOR_ROLE, msg.sender),\n                \"Set listing: Caller is not a drop of the day creator\"\n            );\n            require(\n                _listings[tokenId][msg.sender].status == 0x00,\n                \"Set listing: token not on hold\"\n            );\n            require(\n                dropOfTheDayCommission <= 3000,\n                \"Set drop of the day listing: commission is too high\"\n            );\n            require(\n                block.timestamp < startTime && startTime < endTime,\n                \"endTime should be greater than startTime. startTime should be greater than current time\"\n            );\n\n            _listings[tokenId][msg.sender] = Listing({\n                status: status,\n                price: price,\n                startTime: startTime,\n                endTime: endTime,\n                commission: dropOfTheDayCommission,\n                isDropOfTheDay: isDropOfTheDay,\n                highestBidder: address(0),\n                highestBid: 0\n            });\n        } else if (status == 0x01) {\n            require(\n                _listings[tokenId][msg.sender].status == 0x00,\n                \"Set listing: token not on hold\"\n            );\n\n            _listings[tokenId][msg.sender] = Listing({\n                status: status,\n                price: price,\n                startTime: 0,\n                endTime: 0,\n                commission: _defaultCommission,\n                isDropOfTheDay: false,\n                highestBidder: address(0),\n                highestBid: 0\n            });\n        } else if (status == 0x02) {\n            require(\n                _listings[tokenId][msg.sender].status == 0x00,\n                \"Set listing: token not on hold\"\n            );\n            require(\n                block.timestamp < startTime && startTime < endTime,\n                \"endTime should be greater than startTime. startTime should be greater than current time\"\n            );\n\n            _listings[tokenId][msg.sender] = Listing({\n                status: status,\n                price: price,\n                startTime: startTime,\n                endTime: endTime,\n                commission: _defaultAuctionCommission,\n                isDropOfTheDay: false,\n                highestBidder: address(0),\n                highestBid: 0\n            });\n        }\n    }\n\n    function listingOf(address account, uint256 tokenId)\n        external\n        view\n        returns (\n            bytes1,\n            uint256,\n            uint256,\n            uint256,\n            uint256,\n            bool,\n            address,\n            uint256\n        )\n    {\n        require(\n            account != address(0),\n            \"ERC1155: listing query for the zero address\"\n        );\n\n        Listing memory l = _listings[tokenId][account];\n        return (\n            l.status,\n            l.price,\n            l.startTime,\n            l.endTime,\n            l.commission,\n            l.isDropOfTheDay,\n            l.highestBidder,\n            l.highestBid\n        );\n    }\n\n    function buy(uint256 tokenId, address itemOwner)\n        external\n        payable\n        returns (bool)\n    {\n        require(\n            _listings[tokenId][itemOwner].status == 0x01,\n            \"buy: token not listed for sale\"\n        );\n        require(\n            satoshiART1155.balanceOf(itemOwner, tokenId) >= 1,\n            \"buy: trying to buy more than owned\"\n        );\n        require(\n            msg.value >= _listings[tokenId][itemOwner].price,\n            \"buy: not enough fund\"\n        );\n\n        if (_listings[tokenId][itemOwner].isDropOfTheDay) {\n            require(\n                block.timestamp >= _listings[tokenId][itemOwner].startTime &&\n                    block.timestamp <= _listings[tokenId][itemOwner].endTime,\n                \"buy (Drop of the day): drop of the day has ended/not started\"\n            );\n        }\n\n        _listings[tokenId][msg.sender] = Listing({\n            status: 0x00,\n            price: 0,\n            startTime: 0,\n            endTime: 0,\n            commission: 0,\n            isDropOfTheDay: false,\n            highestBidder: address(0),\n            highestBid: 0\n        });\n        emit PurchaseConfirmed(tokenId, itemOwner, msg.sender);\n\n        satoshiART1155.safeTransferFrom(\n            itemOwner,\n            msg.sender,\n            tokenId,\n            satoshiART1155.balanceOf(itemOwner, tokenId),\n            \"\"\n        );\n\n        uint256 commision =\n            (msg.value * _listings[tokenId][itemOwner].commission) / 10000;\n        uint256 royalty =\n            (msg.value * satoshiART1155.tokenRoyalty(tokenId)) / 10000;\n        _outstandingPayments[satoshiART1155.tokenCreator(tokenId)] =\n            _outstandingPayments[satoshiART1155.tokenCreator(tokenId)] +\n            royalty;\n        _outstandingPayments[_commissionReceiver] =\n            _outstandingPayments[_commissionReceiver] +\n            commision;\n        _outstandingPayments[itemOwner] =\n            _outstandingPayments[itemOwner] +\n            (msg.value - commision - royalty);\n\n        return true;\n    }\n\n    function withdrawPayment() external returns (bool) {\n        uint256 amount = _outstandingPayments[msg.sender];\n        require(msg.sender != address(0));\n        if (amount > 0) {\n            _outstandingPayments[msg.sender] = 0;\n\n            if (!payable(msg.sender).send(amount)) {\n                _outstandingPayments[msg.sender] = amount;\n                return false;\n            }\n        }\n        emit PaymentWithdrawed(amount);\n        return true;\n    }\n\n    function outstandingPayment(address user) external view returns (uint256) {\n        return _outstandingPayments[user];\n    }\n\n    //Auction\n    function bid(uint256 tokenId, address itemOwner) public payable {\n        require(\n            _listings[tokenId][itemOwner].status == 0x02,\n            \"Item not listed for auction.\"\n        );\n        require(\n            block.timestamp <= _listings[tokenId][itemOwner].endTime &&\n                block.timestamp >= _listings[tokenId][itemOwner].startTime,\n            \"Auction not started/already ended.\"\n        );\n        require(\n            msg.value > _listings[tokenId][itemOwner].highestBid,\n            \"There already is a higher bid.\"\n        );\n\n        if (_listings[tokenId][itemOwner].highestBid != 0) {\n            _outstandingPayments[\n                _listings[tokenId][itemOwner].highestBidder\n            ] += _listings[tokenId][itemOwner].highestBid;\n        }\n        _listings[tokenId][itemOwner].highestBidder = msg.sender;\n        _listings[tokenId][itemOwner].highestBid = msg.value;\n        emit HighestBidIncreased(tokenId, itemOwner, msg.sender, msg.value);\n    }\n\n    // Withdraw a bid that was overbid.\n    // use withdrawPayment()\n\n    /// End the auction and send the highest bid\n    /// to the beneficiary.\n    function auctionEnd(uint256 tokenId, address itemOwner) public {\n        require(\n            _listings[tokenId][itemOwner].status == 0x02,\n            \"Auction end: item is not for auction\"\n        );\n        require(\n            block.timestamp >= _listings[tokenId][itemOwner].endTime,\n            \"Auction end: auction not yet ended.\"\n        );\n\n        _listings[tokenId][msg.sender] = Listing({\n            status: 0x00,\n            price: 0,\n            startTime: 0,\n            endTime: 0,\n            commission: 0,\n            isDropOfTheDay: false,\n            highestBidder: _listings[tokenId][itemOwner].highestBidder,\n            highestBid: _listings[tokenId][itemOwner].highestBid\n        });\n        emit AuctionEnded(\n            tokenId,\n            itemOwner,\n            _listings[tokenId][itemOwner].highestBidder,\n            _listings[tokenId][itemOwner].highestBid\n        );\n\n        satoshiART1155.safeTransferFrom(\n            itemOwner,\n            _listings[tokenId][itemOwner].highestBidder,\n            tokenId,\n            1,\n            \"\"\n        );\n\n        uint256 commision =\n            (_listings[tokenId][itemOwner].highestBid *\n                _listings[tokenId][itemOwner].commission) / 10000;\n\n        uint256 royalty =\n            (_listings[tokenId][itemOwner].highestBid *\n                satoshiART1155.tokenRoyalty(tokenId)) / 10000;\n\n        _outstandingPayments[satoshiART1155.tokenCreator(tokenId)] =\n            _outstandingPayments[satoshiART1155.tokenCreator(tokenId)] +\n            royalty;\n\n        _outstandingPayments[itemOwner] =\n            _outstandingPayments[itemOwner] +\n            (_listings[tokenId][itemOwner].highestBid - commision - royalty);\n    }\n\n    function setDropOfTheDayAuctionEndTime(uint256 tokenId, uint256 newEndTime)\n        external\n    {\n        require(\n            hasRole(DROP_OF_THE_DAY_CREATOR_ROLE, msg.sender),\n            \"Set drop of the day auction end time: caller is not drop of the day creator.\"\n        );\n        require(\n            _listings[tokenId][msg.sender].status == 0x02,\n            \"Item is not in auction\"\n        );\n        require(\n            _listings[tokenId][msg.sender].isDropOfTheDay,\n            \"Set drop of the day auction end time: item is not for drop of the day.\"\n        );\n        require(\n            _listings[tokenId][msg.sender].endTime < newEndTime,\n            \"newEndTime not greater than current endTime.\"\n        );\n        _listings[tokenId][msg.sender].endTime = newEndTime;\n    }\n\n    function transfer(uint256 tokenId, address receiver) external {\n        require(\n            satoshiART1155.balanceOf(msg.sender, tokenId) >= 1,\n            \"Do not have enough token to transfer.\"\n        );\n        require(\n            _listings[tokenId][msg.sender].status == 0x00,\n            \"Token not on hold\"\n        );\n\n        satoshiART1155.safeTransferFrom(\n            msg.sender,\n            receiver,\n            tokenId,\n            satoshiART1155.balanceOf(msg.sender, tokenId),\n            \"\"\n        );\n    }\n}\n",
  "sourcePath": "/Users/shumeiliang/Documents/projects/fintelics/satoshi/satoshi1155/contracts/SatoshiART1155Marketplace.sol",
  "compiler": {
    "name": "solc",
    "version": "0.8.0+commit.c7dfd78e.Emscripten.clang"
  },
  "schemaVersion": "3.4.0",
  "updatedAt": "2021-06-11T16:22:42.880Z",
  "networkType": "ethereum",
  "devdoc": {
    "kind": "dev",
    "methods": {
      "getRoleAdmin(bytes32)": {
        "details": "Returns the admin role that controls `role`. See {grantRole} and {revokeRole}. To change a role's admin, use {_setRoleAdmin}."
      },
      "grantRole(bytes32,address)": {
        "details": "Grants `role` to `account`. If `account` had not been already granted `role`, emits a {RoleGranted} event. Requirements: - the caller must have ``role``'s admin role."
      },
      "hasRole(bytes32,address)": {
        "details": "Returns `true` if `account` has been granted `role`."
      },
      "renounceRole(bytes32,address)": {
        "details": "Revokes `role` from the calling account. Roles are often managed via {grantRole} and {revokeRole}: this function's purpose is to provide a mechanism for accounts to lose their privileges if they are compromised (such as when a trusted device is misplaced). If the calling account had been granted `role`, emits a {RoleRevoked} event. Requirements: - the caller must be `account`."
      },
      "revokeRole(bytes32,address)": {
        "details": "Revokes `role` from `account`. If `account` had been granted `role`, emits a {RoleRevoked} event. Requirements: - the caller must have ``role``'s admin role."
      },
      "supportsInterface(bytes4)": {
        "details": "See {IERC165-supportsInterface}."
      }
    },
    "version": 1
  },
  "userdoc": {
    "kind": "user",
    "methods": {
      "auctionEnd(uint256,address)": {
        "notice": "End the auction and send the highest bid to the beneficiary."
      }
    },
    "version": 1
  }
}